:1000000000800020BD010000690301002103010000
:10001000210301002103010021030100210301004C
:1000200021030100210301002103010069030100F4
:1000300069030100210301009116010095170100D9
:1000400069030100690301006903010069030100FC
:1000500069030100690301006903010069030100EC
:1000600069030100690301006903010069030100DC
:1000700069030100690301006903010069030100CC
:1000800069030100690301006903010069030100BC
:1000900069030100690301006903010069030100AC
:1000A00039FD000045FD00006903010069030100FE
:1000B000690301006903010069030100690301008C
:1000C000690301006903010069030100690301007C
:1000D000690301006903010069030100690301006C
:1000E000690301006903010069030100690301005C
:1000F00069030100951B010069030100C11C010097
:1001000069030100ED1D010069030100690301009D
:10011000690301006903010069030100690301002B
:10012000690301006903010069030100690301001B
:10013000690301006903010069030100690301000B
:1001400069030100690301006903010069030100FB
:1001500069030100690301006903010069030100EB
:10016000690301005D0901006903010069030100E1
:1001700069030100690301006903010069030100CB
:1001800069030100690301006903010069030100BB
:1001900069030100690301006903010069030100AB
:1001A000690301006903010069030100690301009B
:1001B000690301006903010069030100564B4CF219
:1001C000205210B51A804DF628121A8000BF00BFC9
:1001D00010F0CEF8514B4FF010621A60504A9A60FE
:1001E000504ADA60504A136813F4807304D14F49BF
:1001F0000B604FF4A85313604D4B1A78110703D5C9
:100200001A7842F008021A704A4B4B492A221A7097
:100210004A4A4B4B8B4204D252F8040F43F8040B6A
:10022000F8E7484B484900228B4202D243F8042B9E
:10023000FAE74649464A002352F8230041F82300D2
:1002400001336F2BF8D1434B434A802103F8011B44
:100250009342FBD1414B3D4A1A60414B8A221A70AE
:10026000A3F5805324225A70A0221A709A7992071B
:10027000FCD59A79D406FCD43A4A937903F00C035E
:10028000082B384BF9D103221A7140225A719A79FE
:100290009006FCD5334A9179324B4906FBD5324A58
:1002A000324911600221516020221A709A7902F0BD
:1002B0000C020C2AFAD12E4B2E4A1A602E4B2F4AD2
:1002C0001A6000225A60072243F8042C2C4AC3F813
:1002D0000C2D62B610F01AFA144B1B68DA0705D51C
:1002E000284810F085F9284B284A1A60284B1B78BB
:1002F0005B0609D5244C254B22689A4204D121483B
:1003000010F076F90023236015F0EEF910F036F8BE
:1003100011F048FAFEE700BF0E200540308004408F
:10032000823F04000100002B10D0034014D0034092
:1003300002D0074000E00740E897FF1F140B0200BF
:100340002087FF1FE897FF1F54A2FF1F0082FF1F97
:100350000000000000E400E05FE400E008ED00E0E1
:100360000050064000400640448004400000030165
:1003700004800440C010050014E000E0FF76010096
:1003800000002020AD8D7A5B1CE00340A5C3945A89
:1003900000F00740FFFFFFFFFFFFFFFFFFFFFFFF32
:1003A000FFFFFFFFFFFFFFFFFFFFFFFFFFFFFFFF5D
:1003B000FFFFFFFFFFFFFFFFFFFFFFFFFFFFFFFF4D
:1003C000FFFFFFFFFFFFFFFFFFFFFFFFFFFFFFFF3D
:1003D000FFFFFFFFFFFFFFFFFFFFFFFFFFFFFFFF2D
:1003E000FFFFFFFFFFFFFFFFFFFFFFFFFFFFFFFF1D
:1003F000FFFFFFFFFFFFFFFFFFFFFFFFFFFFFFFF0D
:10040000FFFFFFFFFFFFFFFFFFFFFFFFDEF9FFFF23
:1004100010B5054C237833B9044B13B10448AFF33E
:1004200000800123237010BDE897FF1F000000002B
:10043000100B0200084B10B51BB108490848AFF378
:1004400000800848036803B910BD074B002BFBD0A0
:10045000BDE81040184700BF00000000EC97FF1FE8
:10046000100B0200E897FF1F0000000010F044BFCF
:1004700010F07EBF0846114610F0A4BF1F4B10B409
:100480001A6F1368506819780478507A137A044206
:1004900001EA03011AD0937A03F0030309B143F090
:1004A000040343F008039910013B91720D2B0BD804
:1004B000DFE803F01E0719070A141E1E140A0719A5
:1004C000071ED368013BD36010BC7047937A03F0DA
:1004D00003030029E7D043F00403E4E7D36810BC2A
:1004E000023BD3607047D36810BC0233D3607047BF
:1004F000D36810BC0133D360704700BF649CFF1FFA
:100500001F4B10B45A6F1368506819780478507AEA
:10051000137A044201EA03011AD0937A03F0030329
:1005200009B143F0040343F008039910013B9172B1
:100530000D2B0BD8DFE803F01E0719070A141E1E47
:10054000140A0719071ED368013BD36010BC70471B
:10055000937A03F003030029E7D043F00403E4E7B0
:10056000D36810BC023BD3607047D36810BC023321
:10057000D3607047D36810BC0133D360704700BFAD
:10058000649CFF1F1F4B10B49A6F13685068197852
:100590000478507A137A044201EA03011AD0937A5C
:1005A00003F0030309B143F0040343F00803991077
:1005B000013B91720D2B0BD8DFE803F01E071907E2
:1005C0000A141E1E140A0719071ED368013BD360C4
:1005D00010BC7047937A03F003030029E7D043F07F
:1005E0000403E4E7D36810BC023BD3607047D368D0
:1005F00010BC0233D3607047D36810BC0133D360A2
:10060000704700BF649CFF1F1F4B10B4DA6F136864
:10061000506819780478507A137A044201EA030189
:100620001AD0937A03F0030309B143F0040343F0B3
:1006300008039910013B91720D2B0BD8DFE803F0F2
:100640001E0719070A141E1E140A0719071ED3686D
:10065000013BD36010BC7047937A03F00303002979
:10066000E7D043F00403E4E7D36810BC023BD36057
:100670007047D36810BC0233D3607047D36810BC96
:100680000133D360704700BF649CFF1F1F4B10B441
:100690001A6B1368506819780478507A137A0442F8
:1006A00001EA03011AD0937A03F0030309B143F07E
:1006B000040343F008039910013B91720D2B0BD8F2
:1006C000DFE803F01E0719070A141E1E140A071993
:1006D000071ED368013BD36010BC7047937A03F0C8
:1006E00003030029E7D043F00403E4E7D36810BC18
:1006F000023BD3607047D36810BC0233D3607047AD
:10070000D36810BC0133D360704700BF649CFF1FE7
:100710001F4B10B45A6B1368506819780478507ADC
:10072000137A044201EA03011AD0937A03F0030317
:1007300009B143F0040343F008039910013B91729F
:100740000D2B0BD8DFE803F01E0719070A141E1E35
:10075000140A0719071ED368013BD36010BC704709
:10076000937A03F003030029E7D043F00403E4E79E
:10077000D36810BC023BD3607047D36810BC02330F
:10078000D3607047D36810BC0133D360704700BF9B
:10079000649CFF1F1F4B10B49A6B13685068197844
:1007A0000478507A137A044201EA03011AD0937A4A
:1007B00003F0030309B143F0040343F00803991065
:1007C000013B91720D2B0BD8DFE803F01E071907D0
:1007D0000A141E1E140A0719071ED368013BD360B2
:1007E00010BC7047937A03F003030029E7D043F06D
:1007F0000403E4E7D36810BC023BD3607047D368BE
:1008000010BC0233D3607047D36810BC0133D3608F
:10081000704700BF649CFF1F1F4B10B4DA6B136856
:10082000506819780478507A137A044201EA030177
:100830001AD0937A03F0030309B143F0040343F0A1
:1008400008039910013B91720D2B0BD8DFE803F0E0
:100850001E0719070A141E1E140A0719071ED3685B
:10086000013BD36010BC7047937A03F00303002967
:10087000E7D043F00403E4E7D36810BC023BD36045
:100880007047D36810BC0233D3607047D36810BC84
:100890000133D360704700BF649CFF1F1F4B10B42F
:1008A0001A6C1368506819780478507A137A0442E5
:1008B00001EA03011AD0937A03F0030309B143F06C
:1008C000040343F008039910013B91720D2B0BD8E0
:1008D000DFE803F01E0719070A141E1E140A071981
:1008E000071ED368013BD36010BC7047937A03F0B6
:1008F00003030029E7D043F00403E4E7D36810BC06
:10090000023BD3607047D36810BC0233D36070479A
:10091000D36810BC0133D360704700BF649CFF1FD5
:100920001F4B10B45A6C1368506819780478507AC9
:10093000137A044201EA03011AD0937A03F0030305
:1009400009B143F0040343F008039910013B91728D
:100950000D2B0BD8DFE803F01E0719070A141E1E23
:10096000140A0719071ED368013BD36010BC7047F7
:10097000937A03F003030029E7D043F00403E4E78C
:10098000D36810BC023BD3607047D36810BC0233FD
:10099000D3607047D36810BC0133D360704700BF89
:1009A000649CFF1F1F4B10B49A6C13685068197831
:1009B0000478507A137A044201EA03011AD0937A38
:1009C00003F0030309B143F0040343F00803991053
:1009D000013B91720D2B0BD8DFE803F01E071907BE
:1009E0000A141E1E140A0719071ED368013BD360A0
:1009F00010BC7047937A03F003030029E7D043F05B
:100A00000403E4E7D36810BC023BD3607047D368AB
:100A100010BC0233D3607047D36810BC0133D3607D
:100A2000704700BF649CFF1F1F4B10B4DA6C136843
:100A3000506819780478507A137A044201EA030165
:100A40001AD0937A03F0030309B143F0040343F08F
:100A500008039910013B91720D2B0BD8DFE803F0CE
:100A60001E0719070A141E1E140A0719071ED36849
:100A7000013BD36010BC7047937A03F00303002955
:100A8000E7D043F00403E4E7D36810BC023BD36033
:100A90007047D36810BC0233D3607047D36810BC72
:100AA0000133D360704700BF649CFF1F1F4B10B41D
:100AB0001A6D1368506819780478507A137A0442D2
:100AC00001EA03011AD0937A03F0030309B143F05A
:100AD000040343F008039910013B91720D2B0BD8CE
:100AE000DFE803F01E0719070A141E1E140A07196F
:100AF000071ED368013BD36010BC7047937A03F0A4
:100B000003030029E7D043F00403E4E7D36810BCF3
:100B1000023BD3607047D36810BC0233D360704788
:100B2000D36810BC0133D360704700BF649CFF1FC3
:100B30001F4B10B45A6D1368506819780478507AB6
:100B4000137A044201EA03011AD0937A03F00303F3
:100B500009B143F0040343F008039910013B91727B
:100B60000D2B0BD8DFE803F01E0719070A141E1E11
:100B7000140A0719071ED368013BD36010BC7047E5
:100B8000937A03F003030029E7D043F00403E4E77A
:100B9000D36810BC023BD3607047D36810BC0233EB
:100BA000D3607047D36810BC0133D360704700BF77
:100BB000649CFF1F1F4B10B49A6D1368506819781E
:100BC0000478507A137A044201EA03011AD0937A26
:100BD00003F0030309B143F0040343F00803991041
:100BE000013B91720D2B0BD8DFE803F01E071907AC
:100BF0000A141E1E140A0719071ED368013BD3608E
:100C000010BC7047937A03F003030029E7D043F048
:100C10000403E4E7D36810BC023BD3607047D36899
:100C200010BC0233D3607047D36810BC0133D3606B
:100C3000704700BF649CFF1F1F4B10B4DA6D136830
:100C4000506819780478507A137A044201EA030153
:100C50001AD0937A03F0030309B143F0040343F07D
:100C600008039910013B91720D2B0BD8DFE803F0BC
:100C70001E0719070A141E1E140A0719071ED36837
:100C8000013BD36010BC7047937A03F00303002943
:100C9000E7D043F00403E4E7D36810BC023BD36021
:100CA0007047D36810BC0233D3607047D36810BC60
:100CB0000133D360704700BF649CFF1F1F4B10B40B
:100CC0001A6E1368506819780478507A137A0442BF
:100CD00001EA03011AD0937A03F0030309B143F048
:100CE000040343F008039910013B91720D2B0BD8BC
:100CF000DFE803F01E0719070A141E1E140A07195D
:100D0000071ED368013BD36010BC7047937A03F091
:100D100003030029E7D043F00403E4E7D36810BCE1
:100D2000023BD3607047D36810BC0233D360704776
:100D3000D36810BC0133D360704700BF649CFF1FB1
:100D40001F4B10B45A6E1368506819780478507AA3
:100D5000137A044201EA03011AD0937A03F00303E1
:100D600009B143F0040343F008039910013B917269
:100D70000D2B0BD8DFE803F01E0719070A141E1EFF
:100D8000140A0719071ED368013BD36010BC7047D3
:100D9000937A03F003030029E7D043F00403E4E768
:100DA000D36810BC023BD3607047D36810BC0233D9
:100DB000D3607047D36810BC0133D360704700BF65
:100DC000649CFF1F1F4B10B49A6E1368506819780B
:100DD0000478507A137A044201EA03011AD0937A14
:100DE00003F0030309B143F0040343F0080399102F
:100DF000013B91720D2B0BD8DFE803F01E0719079A
:100E00000A141E1E140A0719071ED368013BD3607B
:100E100010BC7047937A03F003030029E7D043F036
:100E20000403E4E7D36810BC023BD3607047D36887
:100E300010BC0233D3607047D36810BC0133D36059
:100E4000704700BF649CFF1F1F4B10B4DA6E13681D
:100E5000506819780478507A137A044201EA030141
:100E60001AD0937A03F0030309B143F0040343F06B
:100E700008039910013B91720D2B0BD8DFE803F0AA
:100E80001E0719070A141E1E140A0719071ED36825
:100E9000013BD36010BC7047937A03F00303002931
:100EA000E7D043F00403E4E7D36810BC023BD3600F
:100EB0007047D36810BC0233D3607047D36810BC4E
:100EC0000133D360704700BF649CFF1F1F4B10B4F9
:100ED000D3F880201368506819780478507A137A10
:100EE000044201EA03011AD0937A03F0030309B123
:100EF00043F0040343F008039910013B91720D2B5A
:100F00000BD8DFE803F01E0719070A141E1E140A87
:100F10000719071ED368013BD36010BC7047937A52
:100F200003F003030029E7D043F00403E4E7D368A8
:100F300010BC023BD3607047D36810BC0233D3604F
:100F40007047D36810BC0133D3607047649CFF1FA7
:100F50001F4B10B4D3F884201368506819780478B4
:100F6000507A137A044201EA03011AD0937A03F00B
:100F7000030309B143F0040343F008039910013B54
:100F800091720D2B0BD8DFE803F01E0719070A1426
:100F90001E1E140A0719071ED368013BD36010BC3C
:100FA0007047937A03F003030029E7D043F004036A
:100FB000E4E7D36810BC023BD3607047D36810BC31
:100FC0000233D3607047D36810BC0133D3607047DD
:100FD000649CFF1F1F4B10B41A681368506819787F
:100FE0000478507A137A044201EA03011AD0937A02
:100FF00003F0030309B143F0040343F0080399101D
:10100000013B91720D2B0BD8DFE803F01E07190787
:101010000A141E1E140A0719071ED368013BD36069
:1010200010BC7047937A03F003030029E7D043F024
:101030000403E4E7D36810BC023BD3607047D36875
:1010400010BC0233D3607047D36810BC0133D36047
:10105000704700BF649CFF1F1F4B10B45A68136891
:10106000506819780478507A137A044201EA03012F
:101070001AD0937A03F0030309B143F0040343F059
:1010800008039910013B91720D2B0BD8DFE803F098
:101090001E0719070A141E1E140A0719071ED36813
:1010A000013BD36010BC7047937A03F0030300291F
:1010B000E7D043F00403E4E7D36810BC023BD360FD
:1010C0007047D36810BC0233D3607047D36810BC3C
:1010D0000133D360704700BF649CFF1F1F4B10B4E7
:1010E0009A681368506819780478507A137A044221
:1010F00001EA03011AD0937A03F0030309B143F024
:10110000040343F008039910013B91720D2B0BD897
:10111000DFE803F01E0719070A141E1E140A071938
:10112000071ED368013BD36010BC7047937A03F06D
:1011300003030029E7D043F00403E4E7D36810BCBD
:10114000023BD3607047D36810BC0233D360704752
:10115000D36810BC0133D360704700BF649CFF1F8D
:101160001F4B10B4DA681368506819780478507A05
:10117000137A044201EA03011AD0937A03F00303BD
:1011800009B143F0040343F008039910013B917245
:101190000D2B0BD8DFE803F01E0719070A141E1EDB
:1011A000140A0719071ED368013BD36010BC7047AF
:1011B000937A03F003030029E7D043F00403E4E744
:1011C000D36810BC023BD3607047D36810BC0233B5
:1011D000D3607047D36810BC0133D360704700BF41
:1011E000649CFF1F1F4B10B41A691368506819786C
:1011F0000478507A137A044201EA03011AD0937AF0
:1012000003F0030309B143F0040343F0080399100A
:10121000013B91720D2B0BD8DFE803F01E07190775
:101220000A141E1E140A0719071ED368013BD36057
:1012300010BC7047937A03F003030029E7D043F012
:101240000403E4E7D36810BC023BD3607047D36863
:1012500010BC0233D3607047D36810BC0133D36035
:10126000704700BF649CFF1F1F4B10B45A6913687E
:10127000506819780478507A137A044201EA03011D
:101280001AD0937A03F0030309B143F0040343F047
:1012900008039910013B91720D2B0BD8DFE803F086
:1012A0001E0719070A141E1E140A0719071ED36801
:1012B000013BD36010BC7047937A03F0030300290D
:1012C000E7D043F00403E4E7D36810BC023BD360EB
:1012D0007047D36810BC0233D3607047D36810BC2A
:1012E0000133D360704700BF649CFF1F1F4B10B4D5
:1012F0009A691368506819780478507A137A04420E
:1013000001EA03011AD0937A03F0030309B143F011
:10131000040343F008039910013B91720D2B0BD885
:10132000DFE803F01E0719070A141E1E140A071926
:10133000071ED368013BD36010BC7047937A03F05B
:1013400003030029E7D043F00403E4E7D36810BCAB
:10135000023BD3607047D36810BC0233D360704740
:10136000D36810BC0133D360704700BF649CFF1F7B
:101370001F4B10B4DA691368506819780478507AF2
:10138000137A044201EA03011AD0937A03F00303AB
:1013900009B143F0040343F008039910013B917233
:1013A0000D2B0BD8DFE803F01E0719070A141E1EC9
:1013B000140A0719071ED368013BD36010BC70479D
:1013C000937A03F003030029E7D043F00403E4E732
:1013D000D36810BC023BD3607047D36810BC0233A3
:1013E000D3607047D36810BC0133D360704700BF2F
:1013F000649CFF1F1F4B10B41A6A13685068197859
:101400000478507A137A044201EA03011AD0937ADD
:1014100003F0030309B143F0040343F008039910F8
:10142000013B91720D2B0BD8DFE803F01E07190763
:101430000A141E1E140A0719071ED368013BD36045
:1014400010BC7047937A03F003030029E7D043F000
:101450000403E4E7D36810BC023BD3607047D36851
:1014600010BC0233D3607047D36810BC0133D36023
:10147000704700BF649CFF1F1F4B10B45A6A13686B
:10148000506819780478507A137A044201EA03010B
:101490001AD0937A03F0030309B143F0040343F035
:1014A00008039910013B91720D2B0BD8DFE803F074
:1014B0001E0719070A141E1E140A0719071ED368EF
:1014C000013BD36010BC7047937A03F003030029FB
:1014D000E7D043F00403E4E7D36810BC023BD360D9
:1014E0007047D36810BC0233D3607047D36810BC18
:1014F0000133D360704700BF649CFF1F1F4B10B4C3
:101500009A6A1368506819780478507A137A0442FA
:1015100001EA03011AD0937A03F0030309B143F0FF
:10152000040343F008039910013B91720D2B0BD873
:10153000DFE803F01E0719070A141E1E140A071914
:10154000071ED368013BD36010BC7047937A03F049
:1015500003030029E7D043F00403E4E7D36810BC99
:10156000023BD3607047D36810BC0233D36070472E
:10157000D36810BC0133D360704700BF649CFF1F69
:101580001F4B10B4DA6A1368506819780478507ADF
:10159000137A044201EA03011AD0937A03F0030399
:1015A00009B143F0040343F008039910013B917221
:1015B0000D2B0BD8DFE803F01E0719070A141E1EB7
:1015C000140A0719071ED368013BD36010BC70478B
:1015D000937A03F003030029E7D043F00403E4E720
:1015E000D36810BC023BD3607047D36810BC023391
:1015F000D3607047D36810BC0133D360704700BF1D
:10160000649CFF1FF8B5044615460E4608460221A5
:101610000FF006F8284602210FF002F89D4A52F812
:101620003610012301F500702060237252F8352036
:10163000637202F5007700204FF47A436760E06040
:10164000013BFDD191F8003292F8002203F0010332
:10165000D20744BF43F00203DBB2A372212E00F293
:101660004983DFE816F03C0333032A032103180300
:101670000F030603FD02F402EB02E202D9028C0220
:1016800083027A02710268025F0256024D0244022E
:101690003B0232022902200217020E020502FC015F
:1016A000F301EA01E101D70122007B4B7B49C3F83A
:1016B0008440042221200EF0DBFE01232374212D1F
:1016C00000F21683DFE815F09C01920188017E018B
:1016D00074016A01600156014C01420138012E017A
:1016E00024011A011001DB00D100C700BD00B300C6
:1016F000A9009F0095008B00810077006D006300BA
:1017000059004F0045003B0030002200624B634906
:10171000C3F88440042221200EF0AAFE237C01227B
:10172000134423742046F8BD5B4B5D49C3F88040E9
:10173000042220200EF09CFE237C0122F0E7564B71
:101740005849DC6704221F200EF092FE237C012200
:10175000E6E7514B54499C6704221E200EF088FE98
:10176000237C0122DCE74C4B50495C6704221D209E
:101770000EF07EFE237C0122D2E7474B4C491C67CA
:1017800004221C200EF074FE237C0122C8E7424B89
:101790004849DC6604221B200EF06AFE237C0122ED
:1017A000BEE73D4B44499C6604221A200EF060FEC1
:1017B000237C0122B4E7384B40495C66042219209F
:1017C0000EF056FE237C0122AAE7334B3C491C66EF
:1017D000042218200EF04CFE237C0122A0E72E4BA1
:1017E0003849DC65042217200EF042FE237C0122DA
:1017F00096E7294B34499C65042216200EF038FEEA
:10180000237C01228CE7244B30495C65042215209F
:101810000EF02EFE237C012282E71F4B2C491C6513
:10182000042214200EF024FE237C012278E71A4BB8
:101830002849DC64042213200EF01AFE237C0122C6
:101840006EE7154B24499C64042212200EF010FE12
:10185000237C012264E7104B20495C6404221120A0
:101860000EF006FE237C01225AE70B4B1C491C6438
:10187000042210200EF0FCFD237C012250E7064BD1
:101880001849DC6304220F200EF0F2FD237C0122B4
:1018900046E700BFBC020200649CFF1F510F00001E
:1018A000CD0E0000090600008505000001050000BE
:1018B0007D040000490E0000C50D0000410D000030
:1018C000BD0C0000390C0000B50B0000310B00000E
:1018D000AD0A0000290A0000A50900002109000046
:1018E0009D08000019080000A94BAA499C63042226
:1018F0000E200EF0BDFD237C012211E7A44BA6496A
:101900005C6304220D200EF0B3FD237C012207E767
:101910009F4BA2491C6304220C200EF0A9FD237CDE
:101920000122FDE69A4B9E49DC6204220B200EF058
:101930009FFD237C0122F3E6954B9A499C62042289
:101940000A200EF095FD237C0122E9E6904B964992
:101950005C62042209200EF08BFD237C0122DFE66D
:101960008B4B92491C62042208200EF081FD237CDF
:101970000122D5E6864B8E49DC61042207200EF059
:1019800077FD237C0122CBE6814B8A499C610422AE
:1019900006200EF06DFD237C0122C1E67C4B8649BA
:1019A0005C61042205200EF063FD237C0122B7E672
:1019B000774B82491C61042210460EF059FD237CAE
:1019C0000122ADE6724B7E49DC60042203200EF05A
:1019D0004FFD237C0122A3E66D4B7A499C600422D3
:1019E00002200EF045FD237C012299E6684B7649E2
:1019F0005C60042201200EF03BFD237C01228FE677
:101A0000634B72491C60042200200EF031FD237CE0
:101A1000012285E65E4B6E49C3F8804004222020F7
:101A20000EF026FD012349E6594B6A49DC67042282
:101A30001F200EF01DFD012340E6554B66499C67B3
:101A400004221E200EF014FD012337E6504B63499B
:101A50005C6704221D200EF00BFD01232EE64C4B8B
:101A60005F491C6704221C200EF002FD012325E6BD
:101A7000474B5C49DC6604221B200EF0F9FC012375
:101A80001CE6434B58499C6604221A200EF0F0FCD9
:101A9000012313E63E4B55495C66042219200EF0E3
:101AA000E7FC01230AE63A4B51491C660422182040
:101AB0000EF0DEFC012301E6354B4E49DC650422C5
:101AC00017200EF0D5FC0123F8E5314B4A499C65FF
:101AD000042216200EF0CCFC0123EFE52C4B4749E5
:101AE0005C65042215200EF0C3FC0123E6E5284BBB
:101AF00043491C65042214200EF0BAFC0123DDE5E5
:101B0000234B4049DC64042213200EF0B1FC012376
:101B1000D4E51F4B3C499C64042212200EF0A8FC23
:101B20000123CBE51A4B39495C64042211200EF0E5
:101B30009FFC0123C2E5164B35491C64042210208A
:101B40000EF096FC0123B9E5114B3249DC63042207
:101B50000F200EF08DFC0123B0E50D4B0D499C6369
:101B600004220E200EF084FC0123A7E5084B0A494D
:101B70005C6304220D200EF07BFC01239EE5044BE8
:101B800006491C6304220C200EF072FC012395E52B
:101B9000649CFF1F95070000110700008D060000E0
:101BA00081150000FD14000079140000F5130000F9
:101BB00071130000ED12000069120000E511000031
:101BC00061110000DD10000059100000D50F000069
:101BD000CD0E00000906000085050000010500008B
:101BE0007D040000490E0000C50D0000410D0000FD
:101BF000BD0C0000390C0000B50B0000310B0000DB
:101C0000AD0A0000290A0000A50900002109000012
:101C10009D08000019080000374B3849DC62042297
:101C20000B200EF025FC012348E5334B34499C6220
:101C300004220A200EF01CFC01233FE52E4B314903
:101C40005C62042209200EF013FC012336E52A4BC6
:101C50002D491C62042208200EF00AFC01232DE508
:101C6000254B2A49DC61042207200EF001FC0123E8
:101C700024E5214B26499C61042206200EF0F8FB46
:101C800001231BE51C4B23495C61042205200EF057
:101C9000EFFB012312E5184B1F491C61042210467B
:101CA0000EF0E6FB012309E5134B1C49DC6004221E
:101CB00003200EF0DDFB012300E50F4B18499C606B
:101CC000042202200EF0D4FB0123F7E40A4B15494D
:101CD0005C60042201200EF0CBFB0123EEE4064BF6
:101CE00011491C60042200200EF0C2FB0123E5E430
:101CF000002215E50023E1E4649CFF1F811500002C
:101D0000FD14000079140000F513000071130000A9
:101D1000ED12000069120000E511000061110000E1
:101D2000DD10000059100000D50F0000FFFFFFFF7D
:101D3000F8B5494B494AC3F810214948494C4FF47A
:101D400096710DF03DFC4FF47A7147480DF038FC68
:101D5000142146480DF034FC642145480DF030FC58
:101D60001E2144480DF02CFC4FF47A7142480DF0CE
:101D700027FC424B36A7D7E900671D460E2045F8E1
:101D8000100B0021C3E902670EF04AFC0A200EF096
:101D90008BF9284664210DF013FC394B1D461020A9
:101DA00045F8100B0021C3E902670EF039FC0A2048
:101DB0000EF07AF9284664210DF002FC314B1D46E5
:101DC0000F2045F8100B0021C3E902670EF028FC34
:101DD0000A200EF069F9642128460DF0F1FB2A482B
:101DE0000DF082FC4FF424700FF0E4FC2749054607
:101DF00003F0DCF92846656006F09CFE036820606D
:101E00001B69984723682249D3F88430214AA0608F
:101E10000124196783F8A14083F8A24083F8A34006
:101E2000204614700EF024FC72B61B4A0023D360C7
:101E300062B672B6194AD36062B60D2021460EF022
:101E4000EFFB21461648BDE8F8400DF06DBB00BF22
:101E500000000040E17A743F289BFF1F8C8DFF1F1C
:101E6000189BFF1FE898FF1F049BFF1F0498FF1F8C
:101E70002498FF1FF498FF1F1498FF1F3898FF1F26
:101E8000B098FF1F9098FF1FC88BFF1F5CCD01000B
:101E90000AD7A33C149BFF1F3C9CFF1FD498FF1F35
:101EA0005898FF1FF8B55C4E3378032B00F29480EE
:101EB000DFE803F07A5F4802D6F81001574A03685A
:101EC0005B69934200F089809847431C00F084804E
:101ED000B768347B524DC0B20021CAB2082312F059
:101EE000010F03F1FF3318BF624013F0FF034FEA05
:101EF0005202F4D10131B1F5807F05F8012FECD108
:101F0000002F00F08180474C19461A46615C01326F
:101F10004B40D2B256FA83F397425B7B1146F5D819
:101F2000984207D13F4B1A780023F82A3370736028
:101F3000B3605BD04FF4007200213A48BDE8F8402E
:101F400013F096BFD6F81001344A03685B699342D8
:101F500060D10FF0D1F9421C46D072683149531C50
:101F600088547360B1682C4A994235DC032313709E
:101F7000F8BDD6F810012C4A03681B69934245D17D
:101F80000FF0F6F900282BDDD6F81001234A03687C
:101F90005B69934236D10FF0AFF9B06001301E4B50
:101FA0001AD002221A70F8BDD6F810011E4A036832
:101FB0001B6993422CD10FF0DBF900280CDDD6F819
:101FC0001001164A03685B69934219D10FF094F926
:101FD000C82801D101233370F8BD0FF08DF974E7E3
:101FE0004FF0FF33B360F8BD7368BBE702210F48C1
:101FF0000DF09AFA0E490F4A01230B70137099E7FE
:102000009847E5E79847C8E73B4689E79847B9E727
:102010009847D2E798479EE7289BFF1F6D04000072
:10202000349BFF1F0499FF1F710400005898FF1F85
:10203000D098FF1F3498FF1FF0B583B0234800AF3E
:102040000DF0DCFA00283AD0214B1B78002B36D05B
:10205000204E3446C8250222F823002114F80C0F24
:102060003D707A70BB70F9706D46CAB2082312F0E9
:10207000010F03F1FF3318BF424013F0FF034FEA93
:102080005202F4D10131B1F5807F04F8012FECD177
:10209000BB78FA78D6F810010F4933445B7B534084
:1020A00033445B7B3B7103685B688B420AD105213B
:1020B00038460FF087F90548AD460DF091FA0C3718
:1020C000BD46F0BD052239469847F4E7189BFF1F2F
:1020D000D098FF1F289BFF1F7504000010B5114802
:1020E0000DF08CFA48B1104B1C783CB100220D4821
:1020F0001A70BDE810400DF073BA10BD0B4B0C48C0
:102100001C7001210DF010FA72B60A4BDC6062B649
:1021100072B6094BDC6062B60248BDE810400DF0B3
:102120005FBA00BF049BFF1F3498FF1FD098FF1FAA
:102130005898FF1F3C9CFF1FD498FF1F2DE9F04FBC
:10214000DFF8C493A3B0D9F8000000AF0268002301
:1021500065241421BB65FB6592693B667B66BB66A3
:10216000FB663B677B67BB67FB67C7F88030C7F8D8
:10217000843087F8544087F855109047002800F0C5
:10218000AA82D9F80030D8699C69996BDA6B3866F5
:10219000986DD3F840E09E6CDD6CFC6539671C6D72
:1021A000D96D7A67F8671A6ECC485B69FC66C7F828
:1021B00078E07E66BD66C7F88010C7F88420BB65EE
:1021C00001240DF01BFA002840F08C82C4480DF069
:1021D00015FA38B1C34B1B78002B40F0ED81C04895
:1021E0000DF0FEF9C0480DF009FA002800F0588102
:1021F000BE4B1A7C012A40F2BC8272B6DA6862B623
:10220000D317C7E90223662202233A707B703C464B
:10221000B74D0FCCC8262C4687F84060102687F8AB
:10222000416014F80C6FC7F84200C7F84610C7F8B1
:102230004A20C7F84E302046EB460021CAB2082398
:1022400012F0010F03F1FF3318BF724013F0FF03C8
:102250004FEA5202F4D10131B1F5807F00F8012F2D
:10226000ECD107F1410107F1510611F8012FA04807
:1022700053402B448E425B7BF7D1D0F8100187F896
:1022800052300368DFF884A25B68534507F14008C9
:1022900040F06382404613210FF094F8954B1A7C6E
:1022A000012ADD4640F2CE8372B6DA6862B6D317F1
:1022B000C7E90623662201233A747B7407F1100EE6
:1022C000BEE80F004FF0C80E87F840E04FF0100E48
:1022D00087F841E0C7F8420095F80CE08648C7F857
:1022E0004610C7F84A20C7F84E30EB460021CAB264
:1022F000082312F0010F03F1FF3318BF8EEA020228
:1023000013F0FF034FEA5202F3D10131B1F5807FA0
:1023100000F8012FEBD107F1410111F8012F7448AA
:1023200053402B448E425B7BF7D1D0F8100187F8E5
:10233000523003685B68534540F0178213214046D2
:102340000FF040F86D4B1A7C012ADD4640F2048400
:1023500072B6DA6862B6D317C7E90A236622042385
:1023600087F8202087F8213007F1200EBEE80F0003
:102370004FF0C80E87F840E04FF0100E87F841E0AC
:10238000C7F8420095F80CE05B48C7F84610C7F85C
:102390004A20C7F84E30EB460021CAB2082312F09B
:1023A000010F03F1FF3318BF8EEA020213F0FF039F
:1023B0004FEA5202F3D10131B1F5807F00F8012FCD
:1023C000EBD107F1410111F8012F494853402B444B
:1023D0008E425B7BF7D1D0F8100187F8523003684A
:1023E0005B68534540F0BD81132140460EF0EAFF83
:1023F000434B1A7C012ADD4640F2668372B6DA68E6
:1024000062B6D317C7E90E236622032387F830206C
:1024100087F8313007F1300EBEE80F004FF0C80EDC
:1024200087F840E04FF0100E87F841E095F80CE097
:10243000C7F84610C7F84200C7F84A20C7F84E3020
:10244000EB460021CAB20823D00703F1FF3348BF8F
:102450008EEA020213F0FF034FEA5202F4D1013177
:10246000B1F5807F04F8012FECD107F1410111F89B
:10247000012F1F4853402B448E425B7BF7D1D0F88D
:10248000100187F8523003685B68534540F0618162
:10249000404613210EF096FF1348DD460DF0A0F8DC
:1024A00018480DF0ABF8002800F082800D4B197829
:1024B000FA2400231420652287F8313087F832305F
:1024C00087F8304087F8340087F83320002900F07F
:1024D000CB80D9F800301A7902BB19E02498FF1F8D
:1024E0000498FF1F149BFF1FF498FF1F3C9CFF1FC5
:1024F000289BFF1FD498FF1F349BFF1F7898FF1F56
:10250000509CFF1F1498FF1FE898FF1F75040000E0
:10251000D3F8803093F82530002B46D1342207F1D0
:10252000880387F83220AF4D53F8580DC7F84200A2
:102530002E461B7987F84630C822052316F80C1F53
:1025400087F8402087F841306C460020C2B208234B
:1025500012F0010F03F1FF3318BF4A4013F0FF03DD
:102560004FEA5202F4D10130B0F5807F06F8012F16
:10257000ECD107F1410107F1460611F8012F994806
:1025800053402B448E425B7BF7D1D0F8100187F883
:1025900047300368944A5B68934240F047820821C1
:1025A00007F140000EF00EFFA54690480DF018F818
:1025B0008C37BD46BDE8F08F002C3FF410AE6C4662
:1025C0008EB0C82234238DF800208DF801306E467D
:1025D0000DF1020E07F1540C07F1840865460FCD8A
:1025E0004545CEF80000CEF80410CEF80820CEF80D
:1025F0000C30AC460EF1100EF0D17A4DDCF8000034
:10260000CEF80000AE4600201EF80C1FC2B2082310
:1026100012F0010F03F1FF3318BF4A4013F0FF031C
:102620004FEA5202F4D10130B0F5807F0EF8012F4D
:10263000ECD1711C06F1350E11F8012F6948534099
:102640002B448E455B7BF7D1D0F8100186F83630ED
:102650000368654A5B68934240F0D5823046372173
:102660000EF0B0FEA546BAE5322207F1880387F8DE
:1026700032205C4D53F8580DC7F842002E461B79A6
:1026800087F84630C822052316F80C0F87F840203B
:1026900087F841306C46CAB2082312F0010F03F1EB
:1026A000FF3318BF424013F0FF034FEA5202F4D148
:1026B0000131B1F5807F06F8012FECD107F141011E
:1026C00007F1460611F8012F464853402B448E422D
:1026D0005B7BF7D159E7044645480CF08FFF002893
:1026E0003FF474AD434E4FF0000869220A2306F10F
:1026F0001000A7F812803A747B740CF07FFF00285A
:102700007ED13D4E4FF0000869220B2306F11000E8
:10271000A7F8228087F8202087F821300CF06EFF80
:10272000002840F02781354E4FF0000869220C2325
:1027300006F11000A7F8328087F8302087F8313092
:102740000CF05CFF002840F0B88029480CF048FFEE
:102750003CE54146132298479EE64146132298479E
:102760009CE513224146984742E61322414698478A
:10277000E8E572B61A68586811780478587A1A7AB7
:10278000044201EA020100F035829A7A02F0030263
:1027900009B142F0040242F008029110013A997224
:1027A0000D2A3FF62BAD01A151F822F0132C0000A9
:1027B000A92C00009F2C0000A92C0000FD21000086
:1027C000952C0000132C0000132C0000952C000009
:1027D000FD210000A92C00009F2C0000A92C000066
:1027E000132C0000289BFF1F750400001498FF1F86
:1027F0002498FF1F3898FF1FB098FF1F9098FF1F65
:102800003078D24D0DF084FC11F056FFD6E902234A
:1028100011F0B8FFCE4B002211F0B4FF12F08AFA8B
:10282000788206F110000CF0DBFEAC46C823386954
:1028300087F840301CF80CEFC7F8420004236E46BE
:10284000414687F84130CAB20823D00703F1FF336D
:1028500048BF8EEA020213F0FF034FEA5202F4D19E
:102860000131B1F5807F0CF8012FECD197F842E0EF
:1028700097F8431097F844C097F84530D5F8100101
:10288000AE449EF80D20DFF8CCE2514029444A7B4B
:102890008CEA02022A44527B53401D446B7B87F82A
:1028A000463003685B68734540F09E81072107F15D
:1028B00040000EF087FDB54623E73078A34D0DF0BC
:1028C00027FC11F0F9FED6E9022311F05BFFA04BC3
:1028D000002211F057FF12F02DFA788606F1100051
:1028E0000CF07EFEAC46C823386B87F840301CF8ED
:1028F0000CEFC7F8420004236E46414687F841308A
:10290000CAB20823D00703F1FF3348BF8EEA0202A0
:1029100013F0FF034FEA5202F4D10131B1F5807F89
:102920000CF8012FECD197F8421097F8433097F844
:10293000448097F845C0D5F81001DFF818E2294423
:10294000497B594029444A7B88EA02022A44537B46
:102950008CEA03031D446B7B87F8463003685B6891
:10296000734540F03B81072107F140000EF02AFD3E
:10297000B546EAE63078754D0DF0CAFB11F09CFEC5
:10298000D6E9022311F0FEFE714B002211F0FAFE8F
:1029900012F0D0F9788406F110000CF021FEAC465C
:1029A000C823386A87F840301CF80CEFC7F842009B
:1029B00004236E46414687F84130CAB20823D00747
:1029C00003F1FF3348BF8EEA020213F0FF034FEA20
:1029D0005202F4D10131B1F5807F0CF8012FECD116
:1029E00097F842E097F8431097F844C097F84530BD
:1029F000D5F81001AE449EF80D20DFF858E15140A3
:102A000029444A7B8CEA02022A44527B53401D44EB
:102A10006B7B87F8463003685B6873450CD10721F0
:102A200007F140000EF0CEFCB5467CE6082207F127
:102A300040019847A546B8E5072207F140019847AD
:102A4000B54670E672B693E8060091F800E010789B
:102A50005A7A197A10420EEA01012DD09A7A02F0C0
:102A6000030209B142F0040242F008029110013A57
:102A700099720D2A3FF619AC01A151F822F000BF5E
:102A80008B2C0000812C0000772C0000812C000092
:102A9000AB2200006D2C00008B2C00008B2C000062
:102AA0006D2C0000AB220000812C0000772C000070
:102AB000812C00008B2C00009A7A02F0030200297E
:102AC000D4D042F00402D1E772B693E8060091F840
:102AD00000E010785A7A197A10420EEA01012DD0DE
:102AE0009A7A02F0030209B142F0040242F00802AD
:102AF0009110013A99720D2A3FF681AC01A151F86B
:102B000022F000BF632C0000592C00004F2C000065
:102B1000592C0000FF230000452C0000632C00000E
:102B2000632C0000452C0000FF230000592C0000FE
:102B30004F2C0000592C0000632C00009A7A02F000
:102B400003020029D4D042F00402D1E7289BFF1FE2
:102B500000408F407504000072B693E8060091F8BB
:102B600000E010785A7A197A10420EEA01012DD04D
:102B70009A7A02F0030209B142F0040242F008021C
:102B80009110013A99720D2A3FF6E3AB01A151F879
:102B900022F000BF3B2C0000312C0000272C00004D
:102BA000312C0000532300001D2C00003B2C0000A2
:102BB0003B2C00001D2C000053230000312C000092
:102BC000272C0000312C00003B2C00009A7A02F0E8
:102BD00003020029D4D042F00402D1E7072207F112
:102BE00040019847B546B0E5072207F140019847F4
:102BF000B54686E59A7A02F0030200293FF4CDAD8E
:102C000042F00402C9E5314637229847A546FFF74E
:102C1000E6BADA680132DA60FFF7F1BADA68023A46
:102C2000DA60FFF797BBDA680232DA60FFF792BB2F
:102C3000DA68013ADA60FFF78DBBDA680132DA60F0
:102C4000FFF788BBDA68023ADA60FFF7D9BBDA68C7
:102C50000232DA60FFF7D4BBDA68013ADA60FFF7D4
:102C6000CFBBDA680132DA60FFF7CABBDA68023A32
:102C7000DA60FFF71BBBDA680232DA60FFF716BBD7
:102C8000DA68013ADA60FFF711BBDA680132DA601C
:102C9000FFF70CBBDA68023ADA60FFF7B0BADA681D
:102CA0000232DA60FFF7ABBADA68013ADA60FFF7AE
:102CB000A6BA00BF08B508480CF05CFCFFF7F2F8B4
:102CC000FFF70CFAFFF7B8F9044B1B7803B908BDFE
:102CD000BDE80840FFF732BA5898FF1FD098FF1F91
:102CE000D0B50DF093FA27480CF066FC26480CF09E
:102CF00063FC26480CF060FC25480CF05DFC254880
:102D00000CF05AFC24480CF057FC0D2123480CF021
:102D100001FC234A234B91210024197302F1100076
:102D2000002600271460C2E902671C705C609C608A
:102D30000CF042FC1C4B03F110001C60C3E902675D
:102D40000CF03AFC194B03F11000C3E902671C6058
:102D50000CF032FC164B17489C6014221521FEF72C
:102D600051FC172216211448FEF74CFC14221521A1
:102D70001248FEF747FC172216211148FEF742FCC5
:102D8000D0BD00BF189BFF1F049BFF1F1498FF1F9F
:102D90002498FF1F0498FF1FF498FF1F5898FF1FE7
:102DA0003898FF1F289BFF1FB098FF1F9098FF1FA8
:102DB000E898FF1F3C9CFF1FD498FF1F7898FF1FC7
:102DC000509CFF1F2DE9F04FDFF800918BB0D9F830
:102DD00000400794BDF8506004900591DDF81CA0F8
:102DE0000192002A6ED01F461F2A4FEA40034FF07F
:102DF0000008C8BF2022DBB2334D03920293444641
:102E00004FF0010B9DF8083005992F4885F83B30AD
:102E100085F85EB085F85DB00CF052FC01212A48BF
:102E20000CF0F2FD019B0499274885F85EB0C8EBD1
:102E300003021F2A9DF8083085F83B30D4BFD2B278
:102E40002022012385F85DB00CF068FE95F839204A
:102E500095F8383093420AD11BE0FF220A7095F8AA
:102E6000392095F8383001349A4264B211D03919BA
:102E70003EB1D9F8000008900898CAEB0000B042B3
:102E800007D29342E9D2EA180133127E85F838302E
:102E9000E4E7039B9844019B5FFA88F89845B1D317
:102EA00066B1D9F800300993099BCAEB030AB24511
:102EB00004D3019B9C42B8BF4FF0FF3420460BB0B7
:102EC000BDE8F08F019CEBE7C88BFF1F5C9FFF1FE5
:102ED000F8B5114E47001546304601221C4686F8CB
:102EE0003B7086F85E2086F85D200CF0E9FB55B15A
:102EF000013D54FA85F5013C14F8011F06480CF019
:102F0000DFFBAC42F8D1012103480CF07DFDB0FAA3
:102F100080F04009F8BD00BFC88BFF1F00B583B02B
:102F200002AB03F8012D0122FFF7D2FF03B05DF8D9
:102F300004FB00BF00207047704700BF704700BF10
:102F4000704700BF10B5B02104460EF035FC204696
:102F500010BD00BF224B10B5044640F8043B04F0FE
:102F6000D9FF04F1100004F0D5FF04F11C0004F0B7
:102F7000D1FF04F1280005F087F804F1380004F0CF
:102F8000C9FF04F1440005F07FF804F1540004F097
:102F9000C1FF04F1600005F077F804F1740005F05A
:102FA00073F804F1840005F06FF804F1940004F064
:102FB000B1FF002300224FF07E500A4984F8A03070
:102FC0000123E066216784F8A53084F8A13084F8F5
:102FD000A23084F8A33022666266A266204610BD45
:102FE00070CD01000AD7A33C2DE9F04F95B00646FD
:102FF00068461F460C46154605F046F804A805F03D
:1030000043F896F8A23006F13809002B3DD020464F
:10301000494604F0D7FF96F8A3301BB196F8A430C8
:10302000002B57D1F36D336406F1280A5046494608
:1030300005F0E8F9444F06F1240B00254FF0FF3866
:103040005BF8044F24F000442046394612F0ACF9F6
:1030500008B12746A8460135042DF1D106EB8808B2
:103060000021D8F82840204612F080F9A8B920465F
:10307000002112F099F928B1D8F84400002112F08B
:1030800075F988B915B0BDE8F08F484606F15401CE
:1030900004F046FF00233364BDE70021D8F8440064
:1030A00012F082F90028E2D006F128000FC800F1E2
:1030B000004501F1004402F1004203F1004349469A
:1030C0005046B562F4623263736305F015F915B0CA
:1030D000BDE8F08F494604A805F094F92A686968AC
:1030E000019200236A4608A800930291AB680393FB
:1030F00004A905F093F804A90CA805F01BFA0CAA82
:1031000008A910A805F08AF810A9684604F0C2FFC3
:10311000019811F0E3FA04460D46029811F0DEFA28
:1031200022462B460FF054F80546384601F100447C
:1031300011F0D4FA02460B462846214611F06EF9EA
:1031400011F018FE30646FE700007AC40120704768
:1031500010B5034B03600446FFF7F2FE204610BD96
:103160008CCD010010B5064B03600446FFF7E8FE66
:1031700020464FF438710EF01FFB204610BD00BFF3
:103180008CCD010070B5012384B0044680F8A530D1
:1031900000F1540501A804F0BDFE01A9284604F081
:1031A000BFFE294604F1440005F02CF901A804F003
:1031B000B1FE01A904F1B00004F0B2FE01A804F0D0
:1031C000A9FE01A904F1100004F0AAFE01A804F070
:1031D000A1FE01A904F11C0004F0A2FE04F13806CE
:1031E00001A804F097FE01A9304604F099FE0025DD
:1031F000314604F1280005F005F904F52870294648
:1032000005F0CCF9294604F5F07005F0C7F90A4A33
:103210000A4BC4F8E021C4F8F421C4F80822C4F829
:103220001C22C4F8A032C4F8B432C4F8C832C4F8BE
:10323000DC3204B070BD00BF6F12833A6F12033AE4
:1032400010B50446FFF786FE2046194B40F8B03B08
:1032500004F060FE04F1C00004F016FF04F1D00099
:1032600004F012FF04F1E00005F076F904F5907027
:1032700005F072F904F5B07005F06EF904F5D07040
:1032800005F06AF904F5F07005F066F904F50870C8
:1032900005F062F904F5187005F05EF904F5287080
:1032A00005F05AF92046FFF76DFF204610BD00BF1C
:1032B0008CCD01002DE9F041A4B0044604A805F02E
:1032C0004BF9684604F0E0FED4F8B0004FF07C51B2
:1032D00011F0AEFE4FF07C510746D4F8B40011F067
:1032E000A7FE4FF07C510546D4F8B80011F0A0FEBF
:1032F00004F5087605F1004307F1004200F10041B2
:10330000C4F82832C4F83C32C4F82422C4F8582245
:10331000C4F83072C4F83802C4F84052C4F84C7291
:10332000C4F85002C4F82C12C4F84412C4F8545221
:10333000314604F5187814A805F0BEFA04F1C0056A
:1033400014A9404605F014F92A46314614A805F0A0
:1033500013FA14A9684604F09DFED4F8BC10684620
:1033600004F044FF04F5B0776946284604F09EFE59
:1033700004F5D0753A46314614A805F091F914A920
:10338000284605F0F5F84246394614A805F088F9B4
:1033900014A904A805F0ECF804A9284605F008F9DA
:1033A00004F5907604F5F072294614A805F04EF95C
:1033B00014A9304605F0DCF83046D4F8BC1005F00E
:1033C0002FF924B0BDE8F0812DE9F043B5B00446F3
:1033D000684604F059FE04A805F0BEF814A805F0EC
:1033E000BBF894F8A3301BB994F8A230002B52D04C
:1033F00024AD04F1C008284604F12801424604F136
:10340000D00904F017FF2946484604F043FE04F5AE
:10341000907604F528723146284605F017F92946BA
:1034200004A805F0A5F804A9284605F027FB2946BD
:1034300014A805F09DF804F1E00714AA31462846C7
:1034400005F02EF92946384605F092F84A463946E5
:10345000284605F091F92946684604F01BFE6946A6
:10346000404604F023FE04F5B074404604F0F6FE36
:10347000204605F00FFA3946204605F0B5F83246E9
:103480002146284605F00CF92946204605F070F83B
:1034900035B0BDE8F08324AD284604F1D00904F02E
:1034A000F3FD2946484604F0F5FD04F1C008AEE7F7
:1034B0002DE9F04790F8A13084B004460D469246BD
:1034C000002B5BD03031B03004F02AFD04F110083D
:1034D00005F140063146404604F11C0905F150074C
:1034E00004F01EFD4846394604F01AFD94F8A53054
:1034F00095F84C2084F8A420002B48D1D5E9008908
:10350000D4E92A01B8EB000069EB010111F04AFD92
:103510003D4911F041FEC4E92A89C4F8BC000021EC
:1035200011F02EFF38BB3A463146DAF874302046A7
:10353000FFF75AFD2046FFF7BDFE04F1C008204604
:1035400004F15407FFF740FF04F1440640463946B2
:1035500004F0D2FE4146304604F09CFD012339467A
:103560002B722B7605F10C0004F0DAFC314605F1E4
:103570001C0004F08FFD04B0BDE8F08701A804F042
:10358000C9FC01A904F1B00004F0CAFC9EE7D5E92A
:103590000067DAF874304A4641462046C4E92A6793
:1035A000FFF722FD002104F5087004F0F7FF002169
:1035B00004F5B07004F0F2FF4FF07C52234604F1A2
:1035C0004001C3F86021C3F86421C3F86821C3F83F
:1035D0006C2110338B42F4D104F1C00904F1380896
:1035E0004846414604F1440604F00CFF04F1540738
:1035F0004946304604F04EFD4146384604F090FC02
:10360000002384F8A530A9E7002474490CF0FEBD1E
:103610000220704710B5034B03600446FFF790FC8F
:10362000204610BDA8CD010010B5054B036004462F
:10363000FFF786FC2046E8210EF0BEF8204610BDBC
:10364000A8CD010030B5012385B080F8A53004462F
:1036500000F1540501A804F05DFC01A9284604F01E
:103660005FFC294604F1440004F0CCFE01A804F0FC
:1036700051FC01A904F1B00004F052FC01A804F0CF
:1036800049FC01A904F1100004F04AFC01A804F06F
:1036900041FC01A904F11C0004F042FC04F13805CE
:1036A00001A804F037FC01A9284604F039FC29469A
:1036B00004F1280004F0A6FE0023C4F8E03005B0B1
:1036C00030BD00BF2DE9F04F044683B0D4F8CC30B4
:1036D000D0F8B00000934FF07C5111F0A9FC4FF0EE
:1036E0007C510746D4F8B400D4F8C480D4F8C8603C
:1036F000D4F8C0A011F09CFC4FF07C518146D4F866
:10370000B80011F095FC4146834607F1004011F0E6
:103710008FFC49460546304611F08AFC0146284692
:1037200011F07CFB59460546009811F081FC0146DA
:103730002846D4F8BC5011F071FB294611F078FCF2
:10374000514611F06DFB3946C4F8C000504611F0E7
:103750006FFC59460190304611F06AFC019A01460F
:10376000104611F05DFB49460190009811F060FC95
:10377000019A0146104611F051FB294611F058FC00
:10378000414611F04DFB4946C4F8C400504611F0C3
:103790004FFC59460190404611F04AFC019A0146FF
:1037A000104611F03BFB39460190009811F040FCA7
:1037B000019A0146104611F033FB294611F038FCFE
:1037C000314611F02DFB5946C4F8C800504611F09F
:1037D0002FFC49468246404611F02AFC01465046DD
:1037E00011F01EFB39468046304611F021FC01469F
:1037F000404611F013FB294611F01AFC009911F014
:103800000FFBC4F8CC0004F1C00003B0BDE8F04FDA
:1038100004F024BD10B50446FFF79CFB2046094B7D
:1038200040F8B03B04F076FB04F1C00004F02CFC3F
:1038300004F1D00004F028FC2046FFF703FF2046E7
:1038400010BD00BFA8CD01002DE9704390F8A33052
:1038500088B01BB990F8A230002B63D000F1C005EE
:1038600004462946684604F065FE04F1740604F136
:103870002802694604A804F0D1FC04A9304604F0EB
:1038800009FC304604F0EAFC606F10F027FF0EF0F0
:10389000EFFB11F06FFA216F11F0CAFB10F01EFF61
:1038A000804689460EF0A0FB11F064FA49460646B0
:1038B00040460EF04FFBE26FD4F88030C4F89820F9
:1038C0008946A16FC4F89C308046C4F8941004F176
:1038D000940004F041FB4946404611F04BFA314652
:1038E000C4F88400D4F8940011F0A2FB3146C4F867
:1038F0008800D4F8980011F09BFB3146C4F88C0086
:10390000D4F89C0011F094FB04F18406C4F89000F4
:10391000304604F0A3FC3146284604F0D9FB284683
:1039200004F09CFC08B0BDE8708300BF2DE9F047AF
:10393000D0F8E0300D4690F8A110013384B0044671
:103940009246C0F8E03000295CD005F13001B0307B
:1039500004F0E6FA04F1100605F14008414630464D
:1039600004F11C0705F1500904F0DAFA384649461B
:1039700004F0D6FA94F8A53095F84C2084F8A420E9
:10398000002B48D1D5E90067D4E92A01301A67EB4A
:10399000010111F007FB334911F0FEFBC4E92A676E
:1039A000C4F8BC00002111F0EBFC40BBDAF8743025
:1039B0004A4641462046FFF717FB94F8A130002BFA
:1039C0004CD1204604F1C00804F15407FFF73CFF36
:1039D00004F144064046394604F08EFC4146304628
:1039E00004F058FB012339462B722B7605F10C00AD
:1039F00004F096FA314605F11C0004F04BFB04B0CC
:103A0000BDE8F08701A804F085FA01A904F1B0002F
:103A100004F086FA9EE7D5E90089DAF874303A4670
:103A20003146C4E92A89204604F1C00904F1380866
:103A3000FFF7DAFA04F144064846414604F0E2FC96
:103A400004F154074946304604F024FB4146384609
:103A500004F066FA002384F8A530C3E72046FFF798
:103A600031FEAEE7002474490CF0D0BB704700BFB4
:103A700010B5102104460DF09FFE204610BD00BF7A
:103A80000249034A0160C260704700BFC4CD010013
:103A90000110013870B504790CB1012070BD0546E4
:103AA0000E480BF0D5FC0121E8790CF0B9FDAE68A9
:103AB0000B490C4802E0172A08D0144631F8023F9F
:103AC00090FBF3F39E4204F10102F4D3064B53F84A
:103AD000243043F06053EB60012070BD908BFF1FDA
:103AE000EE000200006CDC022001020001480BF035
:103AF000EDBC00BF908BFF1FF0B505460846297945
:103B000083B017461C4661B10A2311460093224632
:103B1000089BFFF757F9001BB0FA80F0400903B08B
:103B2000F0BD384EEA68F37A1BB372B6F37AD80761
:103B3000194609D5DFF8E8E0F068DEF8001001402A
:103B4000B161CEF800101946980709D5DFF8D4E026
:103B50003069DEF80030F17A0340F361CEF80030CE
:103B60004B0705D5284973690868034033620B6029
:103B700062B63368D968914207D024481860244956
:103B8000DA6042F08040186119600021E8790CF099
:103B900041FD316847F080074FF00043CB624F632F
:103BA000CB6A002BFCDA8B6B84B1089A4FF000478C
:103BB00010190024CF624C63CB6A002BFCDA8B6BAC
:103BC00002F8013B824201D03168F3E70121E87934
:103BD0000CF020FDF37A0B491A4683B1D80703D5C0
:103BE0000C4A896911601A46990703D50A4BF16995
:103BF000F27A1960530702D5084B326A1A60012025
:103C000003B0F0BD908BFF1F88E100E001403F0052
:103C100000003F8000E100E004E100E008E100E096
:103C200080E100E084E100E0F8B505460846297926
:103C300017461C4651B11A463946069BFFF748F90C
:103C4000044600286DD001242046F8BD3A4EEA68AB
:103C5000F37A1BB372B6F37AD807194609D5DFF8A1
:103C6000FCE0F068DEF800100140B161CEF8001011
:103C70001946980709D5DFF8E8E03069DEF800302A
:103C8000F17A0340F361CEF800304B0705D52B499C
:103C900073690868034033620B6062B63368D968A1
:103CA000914207D0264818602649DA6042F08040E9
:103CB000186119600021E8790CF0ACFC31684FF014
:103CC0000043CB624F63C86A0028FCDA8B6B6CB18F
:103CD000069802194FF0004410F8013BCC624B6388
:103CE000CB6A002BFCDA82428B6BF5D10121E8799B
:103CF0000CF090FCF37A10491A46002BA3D0D80799
:103D000003D5114A896911601A46990703D50F4BEB
:103D1000F169F27A1960530795D50D4B326A1A6032
:103D200091E7079B1B78002B8ED0079A09490A4818
:103D30000DF070FD88E700BF908BFF1F88E100E069
:103D400001403F0000003F8000E100E004E100E0AE
:103D500008E100E0CCCD01008C8DFF1F80E100E088
:103D600084E100E0F8B505460846297917461E4665
:103D700081B11A463946FFF7D1F8044600286BD1C5
:103D8000069B1B78002B68D0069A354935480DF004
:103D900041FD62E0344CEB68E27A1AB372B6E27A23
:103DA000D007114609D5DFF8DCE0E068DEF8001046
:103DB0000140A161CEF800101146900709D5DFF847
:103DC000C8E02069DEF80020E17A0240E261CEF826
:103DD00000204A0705D52549626908680240226229
:103DE0000A6062B62168CA689A4207D02048086013
:103DF000204ACB6043F0804008610A600021E879E6
:103E00000CF008FC21684FF00043CB624F63C86A96
:103E10000028FCDA4FF000438A6BCB624E63CB6A1A
:103E2000002BFCDA8B6BE87901210CF0F3FBE37AD1
:103E30000D491A4683B1D80703D50F4A8969116025
:103E40001A46990703D50D4BE169E27A19605307C9
:103E500002D50B4B226A1A6001242046F8BD00BF30
:103E6000CCCD01008C8DFF1F908BFF1F88E100E0FF
:103E700001403F0000003F8000E100E004E100E07D
:103E800008E100E080E100E084E100E008460CF099
:103E9000EFBB00BF0CF0BAB910B5064B0360044687
:103EA00000F51B7009F01AFE2046FFF7DFFD2046E3
:103EB00010BD00BF30E8010010B5084B0360044698
:103EC00000F51B7009F00AFE2046FFF7CFFD2046E3
:103ED0004FF424710DF070FC204610BD30E8010055
:103EE00038B5044608460D4612F04AFC23680246DF
:103EF00029465B6820469847054620460DF072FC2F
:103F0000284438BD2DE9F04F4FF0010885B080F806
:103F1000048004468B4691469A46FFF7BBFD002875
:103F200000F0AA80BF4E01960DF10E0700974346A0
:103F3000752268212046FFF7DFFD054638B19DF860
:103F40000E30712B00F0BE80682B00F0C48001960B
:103F500000970123752269212046FFF7CDFD054614
:103F600038B19DF80E30712B00F0BD80682B00F049
:103F7000C7800F220196009701236A212046FFF790
:103F8000BBFDA84A054638B19DF80E30D72B00F08E
:103F90001C81D42B00F0C9800F22019600970123C9
:103FA0006B212046FFF7A8FD9E4A054638B19DF8D3
:103FB0000E30D72B00F03C81D42B00F0D980019635
:103FC000009701230F226A212046FFF795FD054641
:103FD00020B19DF80E30D42B00F09D800196009703
:103FE00001230F226B212046FFF786FD054620B1F5
:103FF0009DF80E30D42B00F0E68001960097012347
:10400000002268212046FFF777FD054620B19DF884
:104010000E300F2B00F0398101960097012300220A
:1040200069212046FFF768FD054620B19DF80E3056
:104030000F2B00F0348101960097012300222821E4
:104040002046FFF759FD054620B19DF80E30A02B04
:1040500000F02781019600970123002229212046A4
:10406000FFF74AFD054620B19DF80E30A02B00F069
:1040700022812046FFF73AFD002609232671A6710A
:10408000E3712046FFF706FD98B1664B01930DF1F1
:104090000E0300937522012368212046FFF72CFDB3
:1040A000054618B19DF80E30712B2BD02046FFF736
:1040B0001DFD5D495D480DF0ADFB0025284605B0AE
:1040C000BDE8F08F06226823CBF800208AF8003084
:1040D00089F80080F2E70222CBF800208AF800304D
:1040E00089F80080EAE70621692201232846CBF8F7
:1040F00000108AF8002089F8003005B0BDE8F08F84
:104100000221F1E706226823CBF800208AF800306C
:1041100089F80060D2E704216A220123CBF800105D
:104120008AF8002089F80030C8E70DF10F080192E5
:10413000CDF8008001230F221E212046FFF7DCFC72
:1041400018B19DF80F30492B10D00196CDF80080A2
:1041500001230F221D212046FFF7CEFC00283FF44B
:104160001BAF9DF80F30492B7FF416AF0521D3E725
:104170000DF10F080192CDF8008001230F221D21BF
:104180002046FFF7B9FC18B19DF80F30492B10D02D
:104190000196CDF8008001230F221E212046FFF753
:1041A000ABFC00283FF40BAF9DF80F30492B7FF498
:1041B00006AF05216B220123CBF800108AF80020FE
:1041C00089F800307AE70421F4E70DF10F08019235
:1041D000CDF8008001230F221E212046FFF78CFC22
:1041E00018B19DF80F30492B6FD00196CDF80080A3
:1041F00001230F221D212046FFF77EFC18B19DF8F8
:104200000F30492B61D00196CDF800800123272281
:1042100019212046FFF770FC054600283FF4BCAE8C
:10422000072179E7C4FD0100E4CD01008C8DFF1F5B
:104230000DF10F080192CDF8008001230F221D21FE
:104240002046FFF759FC18B19DF80F30492B3ED09E
:104250000196CDF8008001230F221E212046FFF792
:104260004BFC18B19DF80F30492B30D00196CDF89A
:1042700000800123272219212046FFF73DFC054637
:1042800000283FF49CAE072194E70821682201230F
:10429000CBF800108AF8002089F800300EE70821DA
:1042A00022E7092128220123CBF800108AF80020F8
:1042B00089F8003002E7092129220123CBF80010F8
:1042C0008AF8002089F80030F8E6032124E703216A
:1042D00070E700BFF0B40922494BC27119243222A1
:1042E0005021282700254FF07E568360C0F8A42077
:1042F00000230122C0F8A840C0F8B810022404210D
:10430000C0F8BC701027446145658565C565456684
:104310008566C56645670665032506660667C0F8B7
:10432000B0700526036103768371C361036280F870
:10433000243080F8253080F8403080F8783080F8DC
:10434000943002714271C0F8AC10C0F8B470C0F87B
:10435000C870C0F8CC700727C0F8C050C0F8C4506F
:10436000C0F8D040C0F8E450C0F8E850C0F80841A8
:10437000C0F81441C0F82841C0F8E060C0F80C61F2
:10438000C0F8D420C0F8D810C0F8DC20C0F8EC1079
:10439000C0F8F030C0F8F430C0F8F820C0F8FC10D5
:1043A000C0F80021C0F80411C0F81021C0F818218D
:1043B000C0F81C11C0F82021C0F82411C0F8302129
:1043C000C0F83431C0F83821C0F83C11C0F84021A1
:1043D000C0F82C61C0F84461C0F84851C0F84C5195
:1043E000C0F85C41C0F86051C0F86441C0F8587131
:1043F000C0F85011C0F85431C0F86821F0BC7047C3
:1044000020A10700C1EBC10170B58D000024284632
:10441000947016460BF042FFFC2801D0204670BD78
:10442000681C0BF03BFF1528F8D13446AD1B1C3639
:1044300028190BF033FF04F8010BB442F8D1012026
:1044400070BD00BF0BF0E2BE2DE9F041ADF5187D67
:10445000074600F5B672012366A89E4909F078FC6C
:1044600098AA9DF89C0112F8BC3D689987F87002E3
:1044700087F87832C7F8741207F51B7607F27923AC
:1044800007F2862012F8011F03F8011B8342F9D1BD
:104490006D9BC7F88832304609F030FB804666A82D
:1044A00009F01CFBB8F1000F49D00DF107050024FD
:1044B00006E00D2814D00A2812D00134C82C39D0B7
:1044C000304609F095FAC0B2FF2805F8010FF0D187
:1044D000304609F005FB40460DF5187DBDE8F0813A
:1044E00002AD00232B552B78232BDED013F0DF0FEA
:1044F000DBD034AA66AB7849284611F033FF022896
:104500007CD1764934A811F0CFFF10B3744934A898
:1045100011F0CAFF002862D0724934A811F0C4FF1C
:10452000E0B9714966A811F0BFFFB0FA80F0400908
:104530003871BAE702AD002385F8C730D3E73B688E
:104540003846DB689847804640460DF5187DBDE843
:10455000F08166A811F0BEF83861A6E7634934A877
:1045600011F0A2FF00283FD0614934A811F09CFF50
:1045700000283ED05F4934A811F096FF002848D0AB
:104580005D4934A811F090FF002847D05B4934A85A
:1045900011F08AFF002800F09780594934A811F0E3
:1045A00083FF002800F08B80564934A811F07CFF6F
:1045B00000287FD0544934A811F076FF002873D02A
:1045C000524934A811F070FF68BB474966A811F042
:1045D0006BFFB0FA80F0400987F8250065E766A810
:1045E00011F078F8786160E766A811F073F87871D7
:1045F0005BE766A811F06EF8B87156E72A464449A1
:1046000044480DF007F9304609F06AFA4FF0000807
:1046100061E766A811F05EF8F87146E766A811F048
:1046200059F8B86041E73C4934A811F03DFF002833
:1046300000F08885394934A811F036FF002800F0D1
:104640007885374934A811F02FFF002800F06885DD
:10465000344934A811F028FF002800F05885324969
:1046600034A811F021FF002800F048852F4934A814
:1046700011F01AFF002800F038852D4934A811F0F8
:1046800013FF002800F0B9802A4934A811F00CFF6C
:10469000002851D1144966A811F006FFB0FA80F045
:1046A000400987F8400000E766A811F013F887F882
:1046B0002400FAE666A811F00DF83862F5E666A85F
:1046C00011F008F8F861F0E666A811F003F8387602
:1046D000EBE600BFEC9CFF1F18CE010044CE0100AA
:1046E0004CCE010058CE010064CE01006CCE01001A
:1046F00074CE01007CCE010088CE010094CE010072
:10470000A4CE0100B4CE0100C4CE0100D8CE010079
:1047100024CE01008C8DFF1FE8CE0100FCCE0100ED
:104720000CCF01001CCF01002CCF01003CCF0100B9
:104730004CCF010064CF0100594934A811F0B4FEF8
:10474000002800F0C984574934A811F0ADFE0028B4
:1047500000F0B984544934A811F0A6FE002800F0F6
:10476000A984524934A811F09FFE002800F09984D2
:104770004F4934A811F098FE002800F089844D4973
:1047800034A811F091FE002800F079844A4934A839
:1047900011F08AFE002800F06984484934A811F01D
:1047A00083FE002800F05984454934A811F07CFEAE
:1047B000002800F04984434934A811F075FE002810
:1047C00000F03984404934A811F06EFE00285ED014
:1047D0003E4934A811F068FE002850D03C4934A866
:1047E00011F062FE88B93B4966A811F05DFEB0FA8F
:1047F00080F0400987F8780057E601AA364966A894
:1048000011F0B0FD019B7B674FE6344934A811F0ED
:104810004BFE002800F00684314934A811F044FE14
:10482000002800F0F5832F4934A811F03DFE002840
:1048300000F0E4832C4934A811F036FE002800F083
:10484000D3832A4934A811F02FFE002800F03B82C0
:10485000274934A811F028FE002800F02A822549B3
:1048600034A811F021FE002846D11A4966A811F09B
:104870001BFEB0FA80F0400987F8940015E601AA03
:10488000154966A811F06EFD019B3B670DE601AA74
:10489000114966A811F066FD019BFB6605E600BFA5
:1048A00080CF010094CF0100A8CF0100BCCF010050
:1048B000D0CF0100E4CF0100F8CF01000CD00100FF
:1048C00020D0010034D0010048D001005CD00100AC
:1048D00070D0010064CE0100F8CE010080D001004C
:1048E00090D00100A0D00100B0D00100C0D00100E4
:1048F000D0D00100E0D00100B14934A811F0D4FDBE
:10490000002800F05C83AF4934A811F0CDFD0028E9
:1049100000F04B83AC4934A811F0C6FD002800F02C
:104920003A83AA4934A811F0BFFD002800F02C8377
:10493000A74934A811F0B8FD002800F01E83A5494E
:1049400034A811F0B1FD002800F01083A24934A86A
:1049500011F0AAFD002800F00283A04934A811F04C
:10496000A3FD002800F0F4829D4934A811F09CFDBD
:10497000002800F0E6829B4934A811F095FD00283C
:1049800000F0D882984934A811F08EFD002800F07C
:10499000CA82964934A811F087FD002800F0BC8235
:1049A000934934A811F080FD002800F0AE829149AF
:1049B00034A811F079FD002800F0A0828E4934A8B7
:1049C00011F072FD002800F092828C4934A811F099
:1049D0006BFD002800F08482894934A811F064FD41
:1049E000002800F07682874934A811F05DFD002888
:1049F00000F06882844934A811F056FD002800F0C8
:104A00005A82824934A811F04FFD002800F04C82F0
:104A10007F4934A811F048FD002800F03E827D490E
:104A200034A811F041FD002800F030827A4934A802
:104A300011F03AFD002800F02282784934A811F0E4
:104A400033FD002800F01482754934A811F02CFDC4
:104A5000002800F00682734934A811F025FD0028D3
:104A600000F0F881704934A811F01EFD002800F014
:104A7000EA816E4934A811F017FD002800F0DC81AE
:104A80006B4934A811F010FD002800F0CE8169496F
:104A900034A811F009FD002800F0C081664934A84F
:104AA00011F002FD002800F0B281644934A811F031
:104AB000FBFC002800F0A481614934A811F0F4FC4B
:104AC000002800F096815F4934A811F0EDFC002821
:104AD00000F088815C4934A811F0E6FC002800F061
:104AE0007A815A4934A811F0DFFC002800F06C816B
:104AF000574934A811F0D8FC002800F05E815549D0
:104B000034A811F0D1FC002800F05081524934A89B
:104B100011F0CAFC002800F04281504934A811F07D
:104B2000C3FC002800F034814D4934A811F0BCFCCE
:104B3000002800F026814B4934A811F0B5FC00286C
:104B400000F01881484934A811F0AEFC002800F0AC
:104B50000A81464934A811F0A7FC002800F0FC8027
:104B6000434934A811F0A0FC002800F0EE80414930
:104B700034A811F099FC002800F0E0803E4934A8E8
:104B800011F092FC002800F0D2803C4934A811F0CA
:104B90008BFC002800F0C480394934A811F084FC53
:104BA000002800F0B680374934A811F07DFC0028B9
:104BB00000F0A880344934A811F076FC66E000BF0C
:104BC000F0D00100FCD0010008D1010014D1010097
:104BD00030D101004CD1010060D1010070D1010041
:104BE00080D101009CD10100B8D10100C8D10100E1
:104BF000D8D10100E8D10100F8D1010014D20100A0
:104C000028D201003CD2010050D201006CD2010038
:104C100080D2010094D20100B0D20100C8D20100BC
:104C2000E4D20100F8D201000CD3010020D301002E
:104C30003CD3010054D3010074D301008CD3010094
:104C4000A8D30100C0D30100D8D30100ECD30100E8
:104C50000CD4010024D4010044D401005CD4010030
:104C600074D4010084D4010094D40100A4D40100C0
:104C7000BCD40100CCD40100DCD40100F8D4010084
:104C80000CD5010024D5010034D50100002832D014
:104C9000D04934A811F008FC30B334A8CE4911F043
:104CA00003FCD0B966A810F015FDC7F86801FFF73E
:104CB000FCBB01AAC94966A811F054FB019BC7F8C7
:104CC0009030FFF7F2BB01AAC44966A811F04AFB75
:104CD000019BC7F88C30FFF7E8BB2A46C049C148A2
:104CE0000CF098FDFFF7E1BB66A810F0F3FCC7F8E5
:104CF0006401FFF7DABB66A810F0ECFCC7F86001AE
:104D0000FFF7D3BB66A810F0E5FCC7F85C01FFF71E
:104D1000CCBB66A810F0DEFCC7F85801FFF7C5BB96
:104D200066A810F0D7FCC7F85401FFF7BEBB66A811
:104D300010F0D0FCC7F85001FFF7B7BB66A810F021
:104D4000C9FCC7F84C01FFF7B0BB66A810F0C2FC65
:104D5000C7F84801FFF7A9BB66A810F0BBFCC7F86D
:104D60004401FFF7A2BB66A810F0B4FCC7F83801F5
:104D7000FFF79BBB66A810F0ADFCC7F83C01FFF73E
:104D800094BB66A810F0A6FCC7F84001FFF78DBBE6
:104D900066A810F09FFCC7F83401FFF786BB66A831
:104DA00010F098FCC7F83001FFF77FBB66A810F041
:104DB00091FCC7F82C01FFF778BB66A810F08AFCBD
:104DC000C7F82801FFF771BB66A810F083FCC7F88D
:104DD0002401FFF76ABB66A810F07CFCC7F8180135
:104DE000FFF763BB66A810F075FCC7F81C01FFF75E
:104DF0005CBB66A810F06EFCC7F82001FFF755BB3E
:104E000066A810F067FCC7F81401FFF74EBB66A850
:104E100010F060FCC7F81001FFF747BB66A810F060
:104E200059FCC7F80C01FFF740BB66A810F052FC14
:104E3000C7F80801FFF739BB66A810F04BFCC7F8AC
:104E40000401FFF732BB66A810F044FCC7F8F80075
:104E5000FFF72BBB66A810F03DFCC7F8FC00FFF77E
:104E600024BB66A810F036FCC7F80001FFF71DBB95
:104E700066A810F02FFCC7F8F400FFF716BB66A871
:104E800010F028FCC7F8F000FFF70FBB66A810F081
:104E900021FCC7F8EC00FFF708BB66A810F01AFC6D
:104EA000C7F8E800FFF701BB66A810F013FCC7F8CD
:104EB000E400FFF7FABA66A810F00CFCC7F8E000AF
:104EC000FFF7F3BA66A810F005FCC7F8D400FFF7A7
:104ED000ECBA66A810F0FEFBC7F8D800FFF7E5BAF9
:104EE00066A810F0F7FBC7F8DC00FFF7DEBA66A88B
:104EF00010F0F0FBC7F8D000FFF7D7BA66A810F0A3
:104F0000E9FBC7F8CC00FFF7D0BA66A810F0E2FBC7
:104F1000C7F8C800FFF7C9BA66A810F0DBFBC7F8EE
:104F2000C400FFF7C2BA66A810F0D4FBC7F8C000EF
:104F3000FFF7BBBA66A810F0CDFBC7F8BC00FFF7BF
:104F4000B4BA66A810F0C6FBC7F8B800FFF7ADBA50
:104F500066A810F0BFFBC7F8B400FFF7A6BA66A8B2
:104F600010F0B8FBC7F8B000FFF79FBA66A810F0C2
:104F7000B1FBC7F8AC00FFF798BA66A810F0AAFB1F
:104F8000C7F8A800FFF791BA66A810F0A3FBC7F80E
:104F9000A400FFF78ABA01AA104966A811F0E2F945
:104FA000019BC7F8A030FFF780BA01AA0B4966A899
:104FB00011F0D8F9019BC7F89C30FFF776BA01AA27
:104FC000064966A811F0CEF9019BC7F89830FFF7A3
:104FD0006CBA00BF4CD501005CD50100F8CE0100D1
:104FE0006CD501008C8DFF1F01AA5B4966A811F0EA
:104FF000B9F9019BC7F88830FFF757BA01AA56499B
:1050000066A811F0AFF9019BC7F88430FFF74DBADD
:1050100001AA514966A811F0A5F9019BC7F8803093
:10502000FFF743BA01AA4C4966A811F09BF9019B0E
:10503000FB67FFF73ABA01AA474966A811F092F94F
:10504000019BBB66FFF731BA01AA434966A811F07C
:1050500089F9019B7B66FFF728BA01AA3E4966A839
:1050600011F080F9019B3B66FFF71FBA01AA3A498C
:1050700066A811F077F9019BFB65FFF716BA01AA44
:10508000354966A811F06EF9019BBB65FFF70DBAB3
:1050900001AA314966A811F065F9019B7B65FFF70C
:1050A00004BA01AA2C4966A811F05CF9019B3B6582
:1050B000FFF7FBB901AA284966A811F053F9019B33
:1050C000FB64FFF7F2B901AA234966A811F04AF977
:1050D000019BBB64FFF7E9B901AA1F4966A811F05B
:1050E00041F9019B7B64FFF7E0B901AA1A4966A860
:1050F00011F038F9019BFB63FFF7D7B901AA1649F4
:1051000066A811F02FF9019BBB63FFF7CEB901AA86
:10511000114966A811F026F9019B7B63FFF7C5B919
:1051200001AA0D4966A811F01DF9019B3B63FFF729
:10513000BCB901AA084966A811F014F9019BFB62E9
:10514000FFF7B3B901AA044966A811F00BF9019B56
:10515000BB62FFF7AAB900BFF8CE0100F0B589B075
:105160000446FFF7B7F890F88C1261B980F8251063
:1051700001AAFFF747F918B19DF80630012B06D0B8
:10518000012009B0F0BDFFF75FF909B0F0BD029F43
:10519000039E049D05980699079A84F82530A76216
:1051A000E66225636063A163E263E9E770B50446E4
:1051B0000D46FEF765FC2046284B40F8283B02F0E0
:1051C000A9FE04F1340002F0A5FE04F1440002F04F
:1051D000A1FE04F17C0002F09DFE04F1880002F0C3
:1051E00099FE04F1980002F095FE04F51B7008F09A
:1051F00067FC284611F0C4FAC82801D82B782BBBCD
:10520000174918480CF006FB174B07CB04F5B67589
:105210001E78C4F86C012E736960AA6001210A200F
:105220000BF0FEF90A21114808F0F4FC38B1012313
:1052300084F88C322046FFF791FF204670BD84F839
:105240008C022046FFF78AFF204670BD2A46084997
:1052500004F5B67011F060F8E0E700BF30E8010037
:1052600094D501008C8DFF1FC4D50100EC9CFF1F5D
:10527000D4D5010070B500F51B74084616460D46DE
:1052800011F07EFA29460246204608F09FFB204690
:105290000122064908F09AFB314620460CF008FB33
:1052A0002046BDE870400CF09DBA00BFE0D501007B
:1052B00070B500F51B7482B0084616460D4611F015
:1052C0005FFA29460246204608F080FB012220466C
:1052D000094908F07BFB30460FF000FA0225024630
:1052E0000B46009520460CF0EBFA204602B0BDE8D4
:1052F00070400CF077BA00BFE0D5010070B500F542
:105300001B74084616460D4611F03AFA2946024625
:10531000204608F05BFB204601220C4908F056FBB2
:105320004EB9204605220A4908F050FB2046BDE848
:1053300070400CF057BA20460422064908F046FB9C
:105340002046BDE870400CF04DBA00BFE0D501002A
:10535000E4D5010064CE0100F0B590F88C3289B03C
:1053600005463BBB90F82530066B446BD0F828E02F
:10537000C76AEA6B806B8DF80230FC211523039617
:105380000494CDF804E06D460297059006928DF8DE
:1053900000108DF801306C460DF11B0601E014F889
:1053A000011F601B0AF094FFB442F8D10126304679
:1053B00009B0F0BD00F5B6742146D74808F03CFDB1
:1053C000224668461323D44908F0C2FC08AA029B6F
:1053D00012F8140D9DF8041085F87802C5F874329F
:1053E00085F8701205F51B7405F2792305F2862005
:1053F00012F8011F03F8011B9842F9D1079BC5F869
:105400008832204608F07AFB0646684608F066FBBC
:10541000002E02F0E7840222C049204608F0D6FAA6
:10542000BF492046FEF75CFD0222BC49204608F039
:10543000CDFABC492046FEF753FD0222B74920466B
:1054400008F0C4FAB8492046FEF74AFD20460CF0A1
:10545000C9F90222B149204608F0B8FAB3492046FA
:10546000FEF73EFD0222AD49204608F0AFFA0022C9
:10547000AC49204608F0AAFA20460CF0B3F92046C1
:105480000CF0B0F90222A549204608F09FFA0B2241
:10549000A749204608F09AFA20460CF0A3F9022208
:1054A0009E49204608F092FA1322A249204608F0AD
:1054B0008DFA20460CF096F902229849204608F011
:1054C00085FA38229C49204608F080FA20460CF0E4
:1054D00089F902229149204608F078FA1922974961
:1054E000204608F073FA20460CF07CF902228B4922
:1054F000204608F06BFA1B229149204608F066FA14
:1055000020460CF06FF902228449204608F05EFA2A
:105510001D228C49204608F059FA20460CF062F909
:1055200002227E49204608F051FA1122864920467F
:1055300008F04CFA20460CF055F902227749204633
:1055400008F044FA19228149204608F03FFA204623
:105550000CF048F902227149204608F037FA1E2261
:105560007B49204608F032FA20460CF03BF92A69C4
:1055700078492846FFF77EFE20460CF033F90222D8
:105580006649204608F022FA00226649204608F0C3
:105590001DFA20460CF026F902226049204608F048
:1055A00015FA13226C49204608F010FA20460CF038
:1055B00019F902225949204608F008FA3B226749A6
:1055C000204608F003FA20460CF00CF90222534959
:1055D000204608F0FBF913226149204608F0F6F94D
:1055E00020460CF0FFF802224C49204608F0EEF964
:1055F0000A225C49204608F0E9F920460CF0F2F84E
:105600006A6959492846FFF735FE20460CF0EAF84A
:1056100002224249204608F0D9F942492046FEF7C5
:105620005FFC02223D49204608F0D0F94F49204650
:10563000FEF756FC2A794E492846FFF75FFE2046C2
:105640000CF0D0F802223549204608F0BFF9354960
:105650002046FEF745FC02223049204608F0B6F904
:1056600044492046FEF73CFC6A7943492846FFF747
:1056700001FE20460CF0B6F802222849204608F028
:10568000A5F928492046FEF72BFC02222349204693
:1056900008F09CF939492046FEF722FCAA793849DE
:1056A0002846FFF7E7FD20460CF09CF802221B4934
:1056B000204608F08BF91B492046FEF711FC022218
:1056C0001649204608F082F92E492046FEF708FCCC
:1056D000EA792D492846FFF7CDFD20460CF082F8E7
:1056E00002220E49204608F071F90E492046FEF7C5
:1056F000F7FB02220949204608F068F923492046B1
:10570000FEF7EEFBAA6822492846FFF7B3FD2046C4
:105710000CF068F83EE000BFEC9CFF1FDCD50100F8
:1057200014D60100C4FD01005CD6010074D601004E
:1057300088D6010094D60100A8D60100E4D6010065
:1057400000D701001CD701003CD7010050D7010051
:105750006CD7010044CE01008CD70100A0D7010016
:10576000DCD70100F0D701004CCE0100FCD70100CE
:1057700058CE010028D801006CCE010044D80100A9
:1057800074CE010060D801007CCE010080D80100F9
:1057900088CE01000222CB49204608F017F9CA49F9
:1057A0002046FEF79DFB0222C649204608F00EF96E
:1057B000C6492046FEF794FB2A7EC5492846FFF7D6
:1057C00059FD20460CF00EF80222BE49204608F092
:1057D000FDF8BD492046FEF783FB0222B949204669
:1057E00008F0F4F8BB492046FEF77AFBEA69BA49AB
:1057F0002846FFF73FFD20460BF0F4FF0222B14997
:10580000204608F0E3F8B5492046FEF769FB02227E
:10581000AC49204608F0DAF8B1492046FEF760FBB3
:105820000222A849204608F0D1F8AE492046FEF7EA
:1058300057FB0222A349204608F0C8F8AA4920468F
:10584000FEF74EFB02229F49204608F0BFF8A74909
:105850002046FEF745FB02229A49204608F0B6F89A
:10586000A3492046FEF73CFB02229649204608F059
:10587000ADF8A0492046FEF733FB2A6A9E49284628
:10588000FFF7F8FC20460BF0ADFF02228D492046C1
:1058900008F09CF88C492046FEF722FB0222894939
:1058A000204608F093F895492046FEF719FB95F835
:1058B000242093492846FFF7DDFC20460BF092FF99
:1058C00002228049204608F081F88E492046FEF7E2
:1058D00007FB02227B49204608F078F87A492046E7
:1058E000FEF7FEFA20460BF07DFF022275492046A6
:1058F00008F06CF884492046FEF7F2FA95F8252066
:1059000082492846FFF7FAFCAA6A81492846FFF730
:10591000CFFCEA6A7F492846FFF7CAFC2A6B7E491A
:105920002846FFF7C5FC6A6B7C492846FFF7C0FC98
:10593000AA6B7B492846FFF7BBFCEA6B79492846EE
:10594000FFF7B6FC20460BF04DFF02225D492046D2
:1059500008F03CF86B492046FEF7C2FA022259498A
:10596000204608F033F858492046FEF7B9FA204699
:105970000BF038FF02225349204608F027F86A4905
:105980002046FEF7ADFA02224E49204608F01EF8E6
:1059900066492046FEF7A4FA6A6F65492846FFF774
:1059A00087FC20460BF01EFF02224649204608F0E5
:1059B0000DF854492046FEF793FA02224149204649
:1059C00008F004F840492046FEF78AFA20460BF01A
:1059D00009FF02223B49204607F0F8FF55492046BF
:1059E000FEF77EFA95F8402053492846FFF786FCDB
:1059F0006A6C52492846FFF75BFCAA6C504928465E
:105A0000FFF756FCEA6C4F492846FFF751FC2A6D18
:105A10004D492846FFF74CFC6A6D4C492846FFF774
:105A200047FCAA6D4A492846FFF742FCEA6D4949FE
:105A30002846FFF73DFC2A6E47492846FFF738FC09
:105A40006A6E46492846FFF733FCAA6E4449284649
:105A5000FFF72EFCEA6E43492846FFF729FC2A6F20
:105A600041492846FFF724FC20460BF0BBFE0222EA
:105A70001449204607F0AAFF22492046FEF730FAD3
:105A800002221049204607F0A1FF0F492046FEF7E9
:105A900027FA20460BF0A6FE02220A49204607F00C
:105AA00095FF32492046FEF71BFA95F878203049D9
:105AB0002846FFF723FCEA6F2E492846FFF7F8FB3C
:105AC0005AE000BFDCD50100C4FD010090D8010000
:105AD00094CE0100D0D80100A4CE0100FCD8010072
