:1000000000800020BD010000C54301007D430100C8
:100010007D4301007D4301007D4301007D430100DC
:100020007D4301007D4301007D430100C543010084
:10003000C54301007D4301007D5E0100815F010039
:10004000C5430100C5430100C5430100C54301008C
:10005000C5430100C5430100C5430100C54301007C
:10006000C5430100C5430100C5430100C54301006C
:10007000C5430100C5430100C5430100C54301005C
:10008000C5430100C5430100C5430100C54301004C
:10009000C5430100C5430100C5430100C54301003C
:1000A000AD680000B9680000C5430100C543010008
:1000B000C5430100C5430100C5430100C54301001C
:1000C000C5430100C5430100C5430100C54301000C
:1000D000C5430100C5430100C5430100C5430100FC
:1000E000C5430100C5430100C5430100C5430100EC
:1000F000C5430100A5650100C5430100CD4E0100C7
:10010000C5430100D1660100C5430100C54301009C
:10011000C5430100C5430100C5430100C5430100BB
:10012000C5430100C5430100C5430100C5430100AB
:10013000C5430100C5430100C5430100C54301009B
:10014000C5430100C5430100C5430100C54301008B
:10015000C5430100C5430100C5430100C54301007B
:10016000CD2F010049510100C5430100C5430100E5
:10017000C5430100C5430100C5430100C54301005B
:10018000C5430100C5430100C5430100C54301004B
:10019000C5430100C5430100C5430100C54301003B
:1001A000C5430100C5430100C5430100C54301002B
:1001B000C5430100C5430100C5430100564B4CF245
:1001C000205210B51A804DF628121A8000BF00BFC9
:1001D00014F0FCF8514B4FF010621A60504A9A60CC
:1001E000504ADA60504A136813F4807304D14F49BF
:1001F0000B604FF4A85313604D4B1A78110703D5C9
:100200001A7842F008021A704A4B4B492A221A7097
:100210004A4A4B4B8B4204D252F8040F43F8040B6A
:10022000F8E7484B484900228B4202D243F8042B9E
:10023000FAE74649464A002352F8230041F82300D2
:1002400001336F2BF8D1434B434A802103F8011B44
:100250009342FBD1414B3D4A1A60414B8A221A70AE
:10026000A3F5805324225A70A0221A709A7992071B
:10027000FCD59A79D406FCD43A4A937903F00C035E
:10028000082B384BF9D103221A7140225A719A79FE
:100290009006FCD5334A9179324B4906FBD5324A58
:1002A000324911600221516020221A709A7902F0BD
:1002B0000C020C2AFAD12E4B2E4A1A602E4B2F4AD2
:1002C0001A6000225A60072243F8042C2C4AC3F813
:1002D0000C2D62B614F066FA144B1B68DA0705D5CC
:1002E000284814F0D1F9284B284A1A60284B1B786B
:1002F0005B0609D5244C254B22689A4204D121483B
:1003000014F0C2F90023236019F06AFE14F064F8B7
:1003100016F0AAF8FEE700BF0E200540308004402A
:10032000823F04000100002B10D0034014D0034092
:1003300002D0074000E007400098FF1FD45502009C
:100340002087FF1F0098FF1F00A5FF1F0082FF1FCF
:100350000000000000E400E05FE400E008ED00E0E1
:100360000050064000400640448004400000030165
:1003700004800440C010050014E000E0FF76010096
:10038000000020209BCBDA5B1CE00340A5C3945AFD
:1003900000F00740FFFFFFFFFFFFFFFFFFFFFFFF32
:1003A000FFFFFFFFFFFFFFFFFFFFFFFFFFFFFFFF5D
:1003B000FFFFFFFFFFFFFFFFFFFFFFFFFFFFFFFF4D
:1003C000FFFFFFFFFFFFFFFFFFFFFFFFFFFFFFFF3D
:1003D000FFFFFFFFFFFFFFFFFFFFFFFFFFFFFFFF2D
:1003E000FFFFFFFFFFFFFFFFFFFFFFFFFFFFFFFF1D
:1003F000FFFFFFFFFFFFFFFFFFFFFFFFFFFFFFFF0D
:10040000FFFFFFFFFFFFFFFFFFFFFFFFDEF9FFFF23
:1004100010B5054C237833B9044B13B10448AFF33E
:1004200000800123237010BD0098FF1F0000000012
:10043000D0550200084B10B51BB108490848AFF36E
:1004400000800848036803B910BD074B002BFBD0A0
:10045000BDE81040184700BF000000000498FF1FCF
:10046000D05502000098FF1F0000000014F0ACBC43
:1004700015F074BB15F036BB0846114615F098BB55
:1004800010B514210446406915F0F8FF204610BD50
:100490001F4B10B4D3F88020136850681978047883
:1004A000507A137A044201EA03011AD0937A03F0D6
:1004B000030309B143F0040343F008039910013B1F
:1004C00091720D2B0BD8DFE803F01E0719070A14F1
:1004D0001E1E140A0719071ED368013BD36010BC07
:1004E0007047937A03F003030029E7D043F0040335
:1004F000E4E7D36810BC023BD3607047D36810BCFC
:100500000233D3607047D36810BC0133D3607047A7
:1005100048A1FF1F1F4B10B4D3F884201368506804
:1005200019780478507A137A044201EA03011AD048
:10053000937A03F0030309B143F0040343F0080383
:100540009910013B91720D2B0BD8DFE803F01E07C9
:1005500019070A141E1E140A0719071ED368013B47
:10056000D36010BC7047937A03F003030029E7D0EF
:1005700043F00403E4E7D36810BC023BD360704748
:10058000D36810BC0233D3607047D36810BC01330A
:10059000D360704748A1FF1F1F4B10B41A6913683E
:1005A000506819780478507A137A044201EA0301FA
:1005B0001AD0937A03F0030309B143F0040343F024
:1005C00008039910013B91720D2B0BD8DFE803F063
:1005D0001E0719070A141E1E140A0719071ED368DE
:1005E000013BD36010BC7047937A03F003030029EA
:1005F000E7D043F00403E4E7D36810BC023BD360C8
:100600007047D36810BC0233D3607047D36810BC06
:100610000133D360704700BF48A1FF1F1F4B10B4C8
:100620005A691368506819780478507A137A04422A
:1006300001EA03011AD0937A03F0030309B143F0EE
:10064000040343F008039910013B91720D2B0BD862
:10065000DFE803F01E0719070A141E1E140A071903
:10066000071ED368013BD36010BC7047937A03F038
:1006700003030029E7D043F00403E4E7D36810BC88
:10068000023BD3607047D36810BC0233D36070471D
:10069000D36810BC0133D360704700BF48A1FF1F6F
:1006A0001F4B10B49A691368506819780478507A0F
:1006B000137A044201EA03011AD0937A03F0030388
:1006C00009B143F0040343F008039910013B917210
:1006D0000D2B0BD8DFE803F01E0719070A141E1EA6
:1006E000140A0719071ED368013BD36010BC70477A
:1006F000937A03F003030029E7D043F00403E4E70F
:10070000D36810BC023BD3607047D36810BC02337F
:10071000D3607047D36810BC0133D360704700BF0B
:1007200048A1FF1F1F4B10B4DA691368506819788D
:100730000478507A137A044201EA03011AD0937ABA
:1007400003F0030309B143F0040343F008039910D5
:10075000013B91720D2B0BD8DFE803F01E07190740
:100760000A141E1E140A0719071ED368013BD36022
:1007700010BC7047937A03F003030029E7D043F0DD
:100780000403E4E7D36810BC023BD3607047D3682E
:1007900010BC0233D3607047D36810BC0133D36000
:1007A000704700BF48A1FF1F1F4B10B41A6A13689F
:1007B000506819780478507A137A044201EA0301E8
:1007C0001AD0937A03F0030309B143F0040343F012
:1007D00008039910013B91720D2B0BD8DFE803F051
:1007E0001E0719070A141E1E140A0719071ED368CC
:1007F000013BD36010BC7047937A03F003030029D8
:10080000E7D043F00403E4E7D36810BC023BD360B5
:100810007047D36810BC0233D3607047D36810BCF4
:100820000133D360704700BF48A1FF1F1F4B10B4B6
:100830005A6A1368506819780478507A137A044217
:1008400001EA03011AD0937A03F0030309B143F0DC
:10085000040343F008039910013B91720D2B0BD850
:10086000DFE803F01E0719070A141E1E140A0719F1
:10087000071ED368013BD36010BC7047937A03F026
:1008800003030029E7D043F00403E4E7D36810BC76
:10089000023BD3607047D36810BC0233D36070470B
:1008A000D36810BC0133D360704700BF48A1FF1F5D
:1008B0001F4B10B49A6A1368506819780478507AFC
:1008C000137A044201EA03011AD0937A03F0030376
:1008D00009B143F0040343F008039910013B9172FE
:1008E0000D2B0BD8DFE803F01E0719070A141E1E94
:1008F000140A0719071ED368013BD36010BC704768
:10090000937A03F003030029E7D043F00403E4E7FC
:10091000D36810BC023BD3607047D36810BC02336D
:10092000D3607047D36810BC0133D360704700BFF9
:1009300048A1FF1F1F4B10B4DA6A1368506819787A
:100940000478507A137A044201EA03011AD0937AA8
:1009500003F0030309B143F0040343F008039910C3
:10096000013B91720D2B0BD8DFE803F01E0719072E
:100970000A141E1E140A0719071ED368013BD36010
:1009800010BC7047937A03F003030029E7D043F0CB
:100990000403E4E7D36810BC023BD3607047D3681C
:1009A00010BC0233D3607047D36810BC0133D360EE
:1009B000704700BF48A1FF1F1F4B10B41A6B13688C
:1009C000506819780478507A137A044201EA0301D6
:1009D0001AD0937A03F0030309B143F0040343F000
:1009E00008039910013B91720D2B0BD8DFE803F03F
:1009F0001E0719070A141E1E140A0719071ED368BA
:100A0000013BD36010BC7047937A03F003030029C5
:100A1000E7D043F00403E4E7D36810BC023BD360A3
:100A20007047D36810BC0233D3607047D36810BCE2
:100A30000133D360704700BF48A1FF1F1F4B10B4A4
:100A40005A6B1368506819780478507A137A044204
:100A500001EA03011AD0937A03F0030309B143F0CA
:100A6000040343F008039910013B91720D2B0BD83E
:100A7000DFE803F01E0719070A141E1E140A0719DF
:100A8000071ED368013BD36010BC7047937A03F014
:100A900003030029E7D043F00403E4E7D36810BC64
:100AA000023BD3607047D36810BC0233D3607047F9
:100AB000D36810BC0133D360704700BF48A1FF1F4B
:100AC0001F4B10B49A6B1368506819780478507AE9
:100AD000137A044201EA03011AD0937A03F0030364
:100AE00009B143F0040343F008039910013B9172EC
:100AF0000D2B0BD8DFE803F01E0719070A141E1E82
:100B0000140A0719071ED368013BD36010BC704755
:100B1000937A03F003030029E7D043F00403E4E7EA
:100B2000D36810BC023BD3607047D36810BC02335B
:100B3000D3607047D36810BC0133D360704700BFE7
:100B400048A1FF1F1F4B10B4DA6B13685068197867
:100B50000478507A137A044201EA03011AD0937A96
:100B600003F0030309B143F0040343F008039910B1
:100B7000013B91720D2B0BD8DFE803F01E0719071C
:100B80000A141E1E140A0719071ED368013BD360FE
:100B900010BC7047937A03F003030029E7D043F0B9
:100BA0000403E4E7D36810BC023BD3607047D3680A
:100BB00010BC0233D3607047D36810BC0133D360DC
:100BC000704700BF48A1FF1F1F4B10B41A6C136879
:100BD000506819780478507A137A044201EA0301C4
:100BE0001AD0937A03F0030309B143F0040343F0EE
:100BF00008039910013B91720D2B0BD8DFE803F02D
:100C00001E0719070A141E1E140A0719071ED368A7
:100C1000013BD36010BC7047937A03F003030029B3
:100C2000E7D043F00403E4E7D36810BC023BD36091
:100C30007047D36810BC0233D3607047D36810BCD0
:100C40000133D360704700BF48A1FF1F1F4B10B492
:100C50005A6C1368506819780478507A137A0442F1
:100C600001EA03011AD0937A03F0030309B143F0B8
:100C7000040343F008039910013B91720D2B0BD82C
:100C8000DFE803F01E0719070A141E1E140A0719CD
:100C9000071ED368013BD36010BC7047937A03F002
:100CA00003030029E7D043F00403E4E7D36810BC52
:100CB000023BD3607047D36810BC0233D3607047E7
:100CC000D36810BC0133D360704700BF48A1FF1F39
:100CD0001F4B10B49A6C1368506819780478507AD6
:100CE000137A044201EA03011AD0937A03F0030352
:100CF00009B143F0040343F008039910013B9172DA
:100D00000D2B0BD8DFE803F01E0719070A141E1E6F
:100D1000140A0719071ED368013BD36010BC704743
:100D2000937A03F003030029E7D043F00403E4E7D8
:100D3000D36810BC023BD3607047D36810BC023349
:100D4000D3607047D36810BC0133D360704700BFD5
:100D500048A1FF1F1F4B10B4DA6C13685068197854
:100D60000478507A137A044201EA03011AD0937A84
:100D700003F0030309B143F0040343F0080399109F
:100D8000013B91720D2B0BD8DFE803F01E0719070A
:100D90000A141E1E140A0719071ED368013BD360EC
:100DA00010BC7047937A03F003030029E7D043F0A7
:100DB0000403E4E7D36810BC023BD3607047D368F8
:100DC00010BC0233D3607047D36810BC0133D360CA
:100DD000704700BF48A1FF1F1F4B10B41A6813686B
:100DE000506819780478507A137A044201EA0301B2
:100DF0001AD0937A03F0030309B143F0040343F0DC
:100E000008039910013B91720D2B0BD8DFE803F01A
:100E10001E0719070A141E1E140A0719071ED36895
:100E2000013BD36010BC7047937A03F003030029A1
:100E3000E7D043F00403E4E7D36810BC023BD3607F
:100E40007047D36810BC0233D3607047D36810BCBE
:100E50000133D360704700BF48A1FF1F1F4B10B480
:100E60005A681368506819780478507A137A0442E3
:100E700001EA03011AD0937A03F0030309B143F0A6
:100E8000040343F008039910013B91720D2B0BD81A
:100E9000DFE803F01E0719070A141E1E140A0719BB
:100EA000071ED368013BD36010BC7047937A03F0F0
:100EB00003030029E7D043F00403E4E7D36810BC40
:100EC000023BD3607047D36810BC0233D3607047D5
:100ED000D36810BC0133D360704700BF48A1FF1F27
:100EE0001F4B10B49A681368506819780478507AC8
:100EF000137A044201EA03011AD0937A03F0030340
:100F000009B143F0040343F008039910013B9172C7
:100F10000D2B0BD8DFE803F01E0719070A141E1E5D
:100F2000140A0719071ED368013BD36010BC704731
:100F3000937A03F003030029E7D043F00403E4E7C6
:100F4000D36810BC023BD3607047D36810BC023337
:100F5000D3607047D36810BC0133D360704700BFC3
:100F600048A1FF1F1F4B10B4DA6813685068197846
:100F70000478507A137A044201EA03011AD0937A72
:100F800003F0030309B143F0040343F0080399108D
:100F9000013B91720D2B0BD8DFE803F01E071907F8
:100FA0000A141E1E140A0719071ED368013BD360DA
:100FB00010BC7047937A03F003030029E7D043F095
:100FC0000403E4E7D36810BC023BD3607047D368E6
:100FD00010BC0233D3607047D36810BC0133D360B8
:100FE000704700BF48A1FF1F1F4B10B41A6D136854
:100FF000506819780478507A137A044201EA0301A0
:101000001AD0937A03F0030309B143F0040343F0C9
:1010100008039910013B91720D2B0BD8DFE803F008
:101020001E0719070A141E1E140A0719071ED36883
:10103000013BD36010BC7047937A03F0030300298F
:10104000E7D043F00403E4E7D36810BC023BD3606D
:101050007047D36810BC0233D3607047D36810BCAC
:101060000133D360704700BF48A1FF1F1F4B10B46E
:101070005A6D1368506819780478507A137A0442CC
:1010800001EA03011AD0937A03F0030309B143F094
:10109000040343F008039910013B91720D2B0BD808
:1010A000DFE803F01E0719070A141E1E140A0719A9
:1010B000071ED368013BD36010BC7047937A03F0DE
:1010C00003030029E7D043F00403E4E7D36810BC2E
:1010D000023BD3607047D36810BC0233D3607047C3
:1010E000D36810BC0133D360704700BF48A1FF1F15
:1010F0001F4B10B49A6D1368506819780478507AB1
:10110000137A044201EA03011AD0937A03F003032D
:1011100009B143F0040343F008039910013B9172B5
:101120000D2B0BD8DFE803F01E0719070A141E1E4B
:10113000140A0719071ED368013BD36010BC70471F
:10114000937A03F003030029E7D043F00403E4E7B4
:10115000D36810BC023BD3607047D36810BC023325
:10116000D3607047D36810BC0133D360704700BFB1
:1011700048A1FF1F1F4B10B4DA6D1368506819782F
:101180000478507A137A044201EA03011AD0937A60
:1011900003F0030309B143F0040343F0080399107B
:1011A000013B91720D2B0BD8DFE803F01E071907E6
:1011B0000A141E1E140A0719071ED368013BD360C8
:1011C00010BC7047937A03F003030029E7D043F083
:1011D0000403E4E7D36810BC023BD3607047D368D4
:1011E00010BC0233D3607047D36810BC0133D360A6
:1011F000704700BF48A1FF1F1F4B10B41A6E136841
:10120000506819780478507A137A044201EA03018D
:101210001AD0937A03F0030309B143F0040343F0B7
:1012200008039910013B91720D2B0BD8DFE803F0F6
:101230001E0719070A141E1E140A0719071ED36871
:10124000013BD36010BC7047937A03F0030300297D
:10125000E7D043F00403E4E7D36810BC023BD3605B
:101260007047D36810BC0233D3607047D36810BC9A
:101270000133D360704700BF48A1FF1F1F4B10B45C
:101280005A6E1368506819780478507A137A0442B9
:1012900001EA03011AD0937A03F0030309B143F082
:1012A000040343F008039910013B91720D2B0BD8F6
:1012B000DFE803F01E0719070A141E1E140A071997
:1012C000071ED368013BD36010BC7047937A03F0CC
:1012D00003030029E7D043F00403E4E7D36810BC1C
:1012E000023BD3607047D36810BC0233D3607047B1
:1012F000D36810BC0133D360704700BF48A1FF1F03
:101300001F4B10B49A6E1368506819780478507A9D
:10131000137A044201EA03011AD0937A03F003031B
:1013200009B143F0040343F008039910013B9172A3
:101330000D2B0BD8DFE803F01E0719070A141E1E39
:10134000140A0719071ED368013BD36010BC70470D
:10135000937A03F003030029E7D043F00403E4E7A2
:10136000D36810BC023BD3607047D36810BC023313
:10137000D3607047D36810BC0133D360704700BF9F
:1013800048A1FF1F1F4B10B4DA6E1368506819781C
:101390000478507A137A044201EA03011AD0937A4E
:1013A00003F0030309B143F0040343F00803991069
:1013B000013B91720D2B0BD8DFE803F01E071907D4
:1013C0000A141E1E140A0719071ED368013BD360B6
:1013D00010BC7047937A03F003030029E7D043F071
:1013E0000403E4E7D36810BC023BD3607047D368C2
:1013F00010BC0233D3607047D36810BC0133D36094
:10140000704700BF48A1FF1F1F4B10B41A6F13682D
:10141000506819780478507A137A044201EA03017B
:101420001AD0937A03F0030309B143F0040343F0A5
:1014300008039910013B91720D2B0BD8DFE803F0E4
:101440001E0719070A141E1E140A0719071ED3685F
:10145000013BD36010BC7047937A03F0030300296B
:10146000E7D043F00403E4E7D36810BC023BD36049
:101470007047D36810BC0233D3607047D36810BC88
:101480000133D360704700BF48A1FF1F1F4B10B44A
:101490005A6F1368506819780478507A137A0442A6
:1014A00001EA03011AD0937A03F0030309B143F070
:1014B000040343F008039910013B91720D2B0BD8E4
:1014C000DFE803F01E0719070A141E1E140A071985
:1014D000071ED368013BD36010BC7047937A03F0BA
:1014E00003030029E7D043F00403E4E7D36810BC0A
:1014F000023BD3607047D36810BC0233D36070479F
:10150000D36810BC0133D360704700BF48A1FF1FF0
:101510001F4B10B49A6F1368506819780478507A8A
:10152000137A044201EA03011AD0937A03F0030309
:1015300009B143F0040343F008039910013B917291
:101540000D2B0BD8DFE803F01E0719070A141E1E27
:10155000140A0719071ED368013BD36010BC7047FB
:10156000937A03F003030029E7D043F00403E4E790
:10157000D36810BC023BD3607047D36810BC023301
:10158000D3607047D36810BC0133D360704700BF8D
:1015900048A1FF1F1F4B10B4DA6F13685068197809
:1015A0000478507A137A044201EA03011AD0937A3C
:1015B00003F0030309B143F0040343F00803991057
:1015C000013B91720D2B0BD8DFE803F01E071907C2
:1015D0000A141E1E140A0719071ED368013BD360A4
:1015E00010BC7047937A03F003030029E7D043F05F
:1015F0000403E4E7D36810BC023BD3607047D368B0
:1016000010BC0233D3607047D36810BC0133D36081
:10161000704700BF48A1FF1F08B50B46212800F204
:101620005881DFE810F04D0144013B0132012901EE
:10163000200117010E010501FC00F300EA00E100A2
:10164000D800CF00C600BD00B400AB00A2009900D6
:10165000900087007E0075006C0063005A00510006
:1016600048003F0036002C0022009B4A9B49C2F8EC
:1016700084302120042212F047FF012008BD964A41
:101680009749C2F880302020042212F03DFF01204B
:1016900008BD914A9349D3671F20042212F034FFFA
:1016A000012008BD8C4A904993671E20042212F045
:1016B0002BFF012008BD884A8C4953671D20042256
:1016C00012F022FF012008BD834A894913671C20BC
:1016D000042212F019FF012008BD7F4A8549D36614
:1016E0001B20042212F010FF012008BD7A4A824913
:1016F00093661A20042212F007FF012008BD764AE3
:101700007E4953661920042212F0FEFE012008BD16
:10171000714A7B4913661820042212F0F5FE01205D
:1017200008BD6D4A7749D3651720042212F0ECFEFC
:10173000012008BD684A744993651620042212F0FE
:10174000E3FE012008BD644A704953651520042258
:1017500012F0DAFE012008BD5F4A6D4913651420BE
:10176000042212F0D1FE012008BD5B4A6949D3640E
:101770001320042212F0C8FE012008BD564A664913
:1017800093641220042212F0BFFE012008BD524AC9
:10179000624953641120042212F0B6FE012008BDF4
:1017A0004D4A5F4913641020042212F0ADFE01205F
:1017B00008BD494A5B49D3630F20042212F0A4FEFE
:1017C000012008BD444A584993630E20042212F0B8
:1017D0009BFE012008BD404A544953630D2004225A
:1017E00012F092FE012008BD3B4A514913630C20C0
:1017F000042212F089FE012008BD374A4D49D36208
:101800000B20042212F080FE012008BD324A4A4912
:1018100093620A20042212F077FE012008BD2E4AAE
:10182000464953620920042212F06EFE012008BDD1
:10183000294A434913620820042212F065FE012060
:1018400008BD254A3F49D3610720042212F05CFEFF
:10185000012008BD204A3C4993610620042212F071
:1018600053FE012008BD1C4A38495361052004225B
:1018700012F04AFE012008BD174A354913610422BF
:10188000104612F041FE012008BD134A3149D360D1
:101890000320042212F038FE012008BD0E4A2E4912
:1018A00093600220042212F02FFE012008BD0A4A94
:1018B0002A4953600120042212F026FE012008BDAF
:1018C000054A274913600020042212F01DFE012062
:1018D00008BD002008BD00BF48A1FF1F150500007E
:1018E0009104000095150000111500008D140000F2
:1018F0000914000085130000011300007D12000090
:10190000F911000075110000F11000006D100000C9
:10191000E90F0000550D0000D10C00004D0C000037
:10192000C90B0000450B0000C10A00003D0A000081
:10193000B909000035090000B10800002D080000B9
:10194000A907000025070000A10600001D060000F1
:1019500099050000650F0000E10E00005D0E00001B
:10196000D90D000038B50025044605708570C57096
:1019700005714571C580058145818581C5810582D7
:10198000183011F08DFA04F1200004F0CDFB84F83A
:101990003050204638BD00BF2DE9F04FD64BD74A16
:1019A000C3F81021D64BD748D74EDFF8A0A3D74FA6
:1019B000DFF89C9395B000254FF47A711D7004F008
:1019C000B7FB4FF49671D24804F0B2FB3221D148F4
:1019D00004F0AEFB6421D04804F0AAFB1E21CF48DE
:1019E00004F0A6FB4FF47A71CD4804F0A1FB4FF44C
:1019F000FA61CC4804F09CFB41F28831CA4804F0FB
:101A000097FBCA4B12934FF0110C4FF001084FF0A7
:101A10001E0B4FF01403DFF83CE3C549C54A13958C
:101A200040F2FF300D950F958DF835C08DF834B02C
:101A3000CDF838E011928DF84C308DF84E308DF89D
:101A40004D80ADF83C0010910DAC0FCC06F1040EAA
:101A5000AEE80F0094E8070086F800B08EE80700B3
:101A6000707912F083FB8346B08917F0FDFE0146C2
:101A7000306918F001F8B16817F04AFF044658467B
:101A800017F0F2FE0146204617F042FF17F096FAD3
:101A900097A3D3E90023CDE908234FF496734FF0C1
:101AA0000A0CADF828304FF00E0B41F28833069542
:101AB00007958DF818C08DF81AC00B958DF819B0E0
:101AC000ADF82A3006ACC6E90A010FCC0AF1200EA7
:101AD000AEE80F0000220023C6E9082323688AF835
:101AE00000C0CEF80030584612F0E6FD4FF47A768A
:101AF0009AF8221096FBF1F10AF1100004F018FB9D
:101B00004FF00B0A4FF00F0C8DF819C08DF818A08C
:101B10000DF1180EBEE80F0007F1200EAEE80F0021
:101B20002368CEF80030604687F800A0294612F0FE
:101B3000C3FD97F8221096FBF1F107F1100004F0B5
:101B4000F7FA4FF00C0C4FF0100E8DF819E08DF8ED
:101B500018C006AF0FCF09F120070FC7236889F817
:101B600000C070463B60294612F0A6FDDFF8E8B1E0
:101B700099F8221096FBF1F109F1100004F0D8FA5F
:101B80006D4BCBF89C3044F6206012F07BFE0BF1DD
:101B9000A00041F2883104F0CBFA4FF01E071D205F
:101BA0004FF4FA614FF4FA7240F272638DF80BA0B1
:101BB000ADF80E608DF80A708DF8088004958DF8E8
:101BC0000900ADF80C10ADF81420ADF8163002AED7
:101BD0000FCE5A4CA61CC4F8020084F800801420D2
:101BE000B260F360C4F8061014F046FC94F803A049
:101BF00094F8049006460221504612F05DFD4846D6
:101C0000022112F059FD4E4B53F83A1053F8392087
:101C100086F8088001F5007E02F500704FF47A43E3
:101C200086F80980F560C6F800E07060013BFDD1E0
:101C300091F8003292F8002203EA0803D10744BF6A
:101C400043F00203DBB2B37231465046FFF7E4FCC7
:101C5000314630744846FFF7DFFC357C61796661B8
:101C600005444FF4FA634FF47A7235743548364DB3
:101C700011F03AF940F2DC51324811F093F94FF08B
:101C8000030E1B211C220C238DF808E08DF809108F
:101C90008DF80A208DF80B3002AE0FCEAE1C85F801
:101CA00000E0C5F802001420B260F360C5F8061029
:101CB00014F0E2FB95F8039095F8048006460221A3
:101CC000484612F0F9FC4046022112F0F5FC1C4B8C
:101CD00053F8382053F8391002F5007001F50073FD
:101CE000336070600023012038E000BFAFF3008054
:101CF00000000040E17A743F189DFF1FA48DFF1F74
:101D0000849CFF1FCC9CFF1F689EFF1F5098FF1FE5
:101D10004098FF1FD89BFF1F3C9CFF1F2098FF1F70
:101D20003098FF1F889CFF1FC89BFF1F0000584171
:101D30003333534066668641948DFF1FE89BFF1F37
:101D4000204D0200009CFF1F9898FF1F309EFF1F30
:101D5000E09CFF1FCDCCB041149BFF1FF36030729D
:101D60004FF47A437072013BFDD191F8003292F842
:101D700000220340D20744BF43F00203DBB24846CF
:101D80003146B372FFF748FC3074B8F1210F02F20C
:101D9000A583DFE818F00311F910ED10E110D5105C
:101DA000C910BD10B110A51099108D1081107510BB
:101DB00069105D105110451039102D1021101510AB
:101DC0000910FD0FF10FE50FD90FCD0F7D0F710F2A
:101DD000650F590F4D0F400F2200AF4BAF49C3F8AD
:101DE00084602120042212F08FFB307C4FF0010828
:101DF00080444FF4FA634FF47A72697986F8108060
:101E0000A7486E6111F070F840F2DC51A448DFF889
:101E1000A0A211F0C7F816234FF002098DF80A307E
:101E200017224FF000038DF808908DF809208DF8E7
:101E30000B3002AE0FCE0AEB0906CAF802008AF890
:101E400000901420B260F360716014F015FB9AF8F2
:101E500003809AF804B006464946404612F02CFC2E
:101E60004946584612F028FC8E4B53F8381053F868
:101E70003B2000230120F36002F5007E01F5007392
:101E80003360C6F804E04FF47A4330727072013B5D
:101E9000FDD191F8003292F800220340D70744BFE9
:101EA00043EA0903DBB2B372B8F1210F02F22283D5
:101EB000DFE818F0A60E9D0E920E870E7C0E710EB6
:101EC000660E5B0E500E450E3A0E2F0E240E190EA6
:101ED0000E0E030EF80DED0DE20DD70DCC0DC10D5C
:101EE000B60DAB0DA00D950D8A0D7F0D740D260D51
:101EF0001B0D100D040D2200674B6849C3F8846068
:101F00000422212012F000FB4FF0010886F8108017
:101F1000BBF1210F02F2EA82DFE81BF0C30CB80C20
:101F2000AB0C9E0C910C840C770C6A0C5D0C500C65
:101F3000430C360C290C1C0C0F0C020CF50BE80B97
:101F4000DB0BCE0BC10BB40BA70B9A0B8D0B800BCD
:101F5000730B660B150B080BFB0AEE0AE00A220056
:101F60004D4B4E49C3F884600422212012F0CCFA74
:101F700096F810804FF0010BD8444FF4FA634FF4F9
:101F80007A729AF8051086F810804748CAF81460EB
:101F900010F0AAFF40F2DC514348444E11F002F821
:101FA00015234FF0040C8DF809304FF014084FF052
:101FB00001038DF808C08DF80A808DF80B300DF103
:101FC000080EBEE80F0086F800C0C6F802004046C2
:101FD000C6F80A20C6F80E30C6F8061014F04CFAFF
:101FE00096F8039096F804B080460221484612F015
:101FF00063FB5846022112F05FFB2A4B53F839105D
:1020000053F83B2001F500704FF0010388F80830C9
:1020100088F80930C8F8000002F500730020C8F8FD
:102020000430C8F80C004FF47A43013BFDD191F81D
:10203000003292F8002203F00103D00744BF43F0BE
:102040000203DBB288F80A30B9F1210F02F2628292
:10205000DFE819F0380A2E0A220A160A0A0AFE09CF
:10206000F209E609DA09CE09C209B609AA099E09E8
:10207000920986097A096E09620956094A093E09D8
:10208000320926091A090E090209F608EA08DE08CB
:10209000900884087808300048A1FF1F150500004B
:1020A000B098FF1F204D0200689CFF1F989CFF1FE7
:1020B000509CFF1FB44BB549C3F8848004222120F3
:1020C00012F022FA4FF0010988F81090BBF1210FAD
:1020D00002F21C82DFE81BF028081C080E0800082A
:1020E000F207E407D607C807BA07AC079E079007B0
:1020F00082077407660758074A073C072E07200720
:1021000012070407F606E806DA06CC06BE06B00695
:10211000A206500642063406260622009A4B9B4928
:10212000C3F884800422212012F0EEF998F8109070
:102130004FF0010BD9444FF47A724FF4FA6371797E
:1021400088F810909248C6F8148010F0CDFE40F246
:10215000DC518F488F4F10F025FF4FF47A7012F04A
:10216000D3FA8D4B8D484FF0140883F8008004F0AB
:1021700075F84FF4247014F07FF98949814606F010
:10218000E5FD854B4846C3F808900AF0A3FA824A59
:10219000036850601B6998477F4B7F495B68814AA1
:1021A000D3F88430C8604FF001091A6783F8A19012
:1021B00083F8A29083F8A3904FF47A7081F810907E
:1021C00012F0A2FA1D211E220B238DF808908DF823
:1021D00009108DF80A208DF80B300DF1080EBEE8BD
:1021E0000F0084F80090C4F802004046FB6079605C
:1021F000BA6014F041F9E27894F804B00192804694
:102200000221104612F058FA5846022112F054FAF0
:10221000654B019A53F83B1053F8320088F8089048
:1022200000F5007301F5007C4FF0000EC8F8003097
:1022300088F809904FF47A43C8F804C0C8F80CE055
:10224000013BFDD190F8003291F80012574FC907B9
:1022500003EA090344BF43F00203DBB288F80A3003
:1022600010464146FFF7D8F9414688F81000584615
:10227000FFF7D2F998F810306179C4F81480184447
:102280004FF47A724FF4FA6388F81000484810F05F
:102290002BFE40F2DC51464810F084FE4FF0030C58
:1022A0001B211C220C238DF808C08DF809108DF815
:1022B0000A208DF80B300DF1080EBEE80F0085F8EE
:1022C00000C0C5F802001420BA60FB60796014F009
:1022D000D3F895F8039095F804B08046022148465B
:1022E00012F0EAF95846022112F0E6F92E4B53F8A3
:1022F000391053F83B2001F5007002F500730027F8
:10230000C8F800000120C8F80430C8F80C704FF479
:102310007A4388F8080088F80900013BFDD191F85C
:10232000003292F800220340D20744BF43F0020378
:10233000DBB288F80A30B9F1210F02F2E380DFE85E
:1023400019F0E504DB04CF04C304B704AB049F0415
:10235000930487047B046F04630457044B043F0415
:10236000340429041E0413040804FD03F203E703E4
:10237000DC03D103C603BB03B003A5039A038F0399
:1023800046033B03390000BF48A1FF1F15050000AD
:10239000B09CFF1FEA9BFF1FCC9AFF1F0088FF1F06
:1023A0001C1702000AD7A33C204D02009A98FF1F79
:1023B000009CFF1FB44BB549C3F884800422212040
:1023C00012F0A2F84FF0010988F81090BBF1210F2C
:1023D00002F29480DFE81BF0E302D802CB02BE02D7
:1023E000B102A40297028A027D02700263025602C1
:1023F00049023C022F02220215020802FB01A00141
:102400009301860179016C014A013D013001D4013B
:10241000C701BA01AD01EE01E10122009A4B9B49CF
:10242000C3F884800422212012F06EF898F81090EE
:102430004FF0010BD9444FF4FA634FF47A72697983
:1024400088F810909248C5F8148010F04DFD40F2C5
:10245000DC518F4810F0A6FD8E48636972B60022E9
:10246000DA6062B6218A23898B4203D8C3888B4203
:1024700081F0DE878848E189A0F1200703F058FE4B
:1024800008E072B6D16862B681EAE173A3EBE1734A
:10249000032B4DDC804803F069FE00284BD17A699C
:1024A000137C012BEDD872B613685068197890F838
:1024B00000E0507A137A1EEA000F01EA030101F0EE
:1024C0007687937A03F0030309B143F0040343F0E2
:1024D00008039910013B91720D2BD3D801A151F83B
:1024E00023F000BF3126000029260000212600002D
:1024F00029260000852400001D250000312600004B
:10250000312600001D25000085240000292600003A
:10251000212600002926000031260000D368991EDC
:10252000D16062B681EAE173A3EBE173032BB1DD05
:10253000012384F83030218A2389564A8B4203D8FC
:10254000D3888B4281F06887626972B60023D360BA
:1025500062B65248DAF8142072B6D36062B6BAF89E
:102560001010BAF808308B4203D8C3888B4281F030
:1025700076874B48BAF80E10A0F1200703F0D8FD7B
:1025800009E072B6D16862B681EAE173A3EBE17348
:10259000032B01F31A85424803F0E8FD002841F0BF
:1025A00017857A69137C012BEBD872B613685068D3
:1025B000197890F800E0507A137A1EEA000F01EAC9
:1025C000030101F0FE86937A03F00303002941F032
:1025D000898743F008039910013B91720D2BD1D8E4
:1025E00001A151F823F000BF454100003B4100002C
:1025F000314100003B41000085250000B53F00004F
:102600004541000045410000B53F00008525000020
:102610003B410000314100003B41000045410000CA
:10262000D368991CD1602EE7D368591ED1602AE780
:10263000D368591CD16026E7134B1A49C3F8688048
:1026400004221A2011F060FF4FF0010B98F810904F
:10265000F0E60D4B1449C3F864800422192011F0F0
:1026600053FF4FF0010B98F81090E3E6064B0F492B
:10267000C3F860800422182011F046FF4FF0010BD0
:1026800098F81090D6E600BF48A1FF1F150500007E
:10269000B098FF1FE89BFF1F089CFF1F509CFF1F67
:1026A000709CFF1F011300007D120000F911000053
:1026B000CC4BCD49C3F85C800422172011F024FFD5
:1026C0004FF0010B98F81090B4E6C64BC749C3F819
:1026D00058800422162011F017FF4FF0010B98F8D4
:1026E0001090A7E6BF4BC249C3F8548004221520BE
:1026F00011F00AFF4FF0010B98F810909AE6B94BD1
:10270000BC49C3F850800422142011F0FDFE4FF0A4
:10271000010B98F810908DE6B24BB749C3F84C8086
:102720000422132011F0F0FE4FF0010B98F81090E6
:1027300080E6AC4BB149C3F8788004221E2011F02A
:10274000E3FE4FF0010B98F8109073E6A54BAC49EF
:10275000C3F8748004221D2011F0D6FE4FF0010B47
:1027600098F8109066E69F4BA649C3F87080042243
:102770001C2011F0C9FE4FF0010B98F8109059E69B
:10278000984BA149C3F86C8004221B2011F0BCFEB9
:102790004FF0010B98F810904CE6924B9B49C3F810
:1027A00080800422202011F0AFFE4FF0010B98F83A
:1027B00010903FE68B4B9649C3F87C8004221F2083
:1027C00011F0A2FE4FF0010B98F8109032E6854B05
:1027D0009049C3F848800422122011F095FE4FF072
:1027E000010B98F8109025E67E4B8B49C3F8448086
:1027F0000422112011F088FE4FF0010B98F8109080
:1028000018E6784B8549C3F840800422102011F067
:102810007BFE4FF0010B98F810900BE6714B80494E
:10282000C3F83C8004220F2011F06EFE4FF0010B24
:1028300098F81090FEE56B4B7A49C3F83880042273
:102840000E2011F061FE4FF0010B98F81090F1E5A9
:10285000644B7549C3F8348004220D2011F054FEF6
:102860004FF0010B98F81090E4E55E4B6F49C3F808
:10287000308004220C2011F047FE4FF0010B98F835
:102880001090D7E5574B6A49C3F82C8004220B20DF
:1028900011F03AFE4FF0010B98F81090CAE5514B39
:1028A0006449C3F8288004220A2011F02DFE4FF05D
:1028B000010B98F81090BDE54A4B5F49C3F824809E
:1028C0000422092011F020FE4FF0010B98F810901F
:1028D000B0E5444B5949C3F820800422082011F088
:1028E00013FE4FF0010B98F81090A3E53D4B5449AF
:1028F000C3F81C800422072011F006FE4FF0010BE4
:1029000098F8109096E5374B4E49C3F8188004228A
:10291000062011F0F9FD4FF0010B98F8109089E5B1
:10292000304B4949C3F814800422052011F0ECFD16
:102930004FF0010B98F810907CE52A4B4349C3F8FF
:1029400010800422104611F0DFFD4FF0010B98F8C3
:1029500010906FE5234B3E49C3F80C8004220320FE
:1029600011F0D2FD4FF0010B98F8109062E51D4B6D
:102970003849C3F808800422022011F0C5FD4FF049
:10298000010B98F8109055E5164B3349C3F80480B5
:102990000422012011F0B8FD98F810904AE5114B7F
:1029A0002E49C3F800800422002011F0ADFD4FF045
:1029B000010B98F810903DE50A4B1449C3F880804C
:1029C0000422202011F0A0FD4FF00109FCE4054B8A
:1029D0000F49C3F87C8004221F2011F095FD4FF0B1
:1029E0000109F1E448A1FF1F75110000F11000007A
:1029F0006D100000E90F0000550D000011150000DA
:102A00008D140000091400008513000091040000DB
:102A100095150000D10C00004D0C0000C90B000002
:102A2000450B0000C10A00003D0A0000B909000082
:102A300035090000B10800002D080000A9070000BA
:102A400025070000A10600001D06000099050000F2
:102A5000650F0000E10E00005D0E0000D90D0000C2
:102A6000CC4BCD49C3F8788004221E2011F04CFDD8
:102A70004FF00109A8E4C74BC849C3F87480042289
:102A80001D2011F041FD4FF001099DE4C14BC449E7
:102A9000C3F8708004221C2011F036FD4FF00109AC
:102AA00092E4BC4BBF49C3F86C8004221B2011F098
:102AB0002BFD4FF0010987E4B64BBB49C3F8688092
:102AC00004221A2011F020FD4FF001097CE4B14BE3
:102AD000B649C3F864800422192011F015FD4FF0A7
:102AE000010971E4AB4BB249C3F86080042218209D
:102AF00011F00AFD4FF0010966E4A64BAD49C3F899
:102B00005C800422172011F0FFFC4FF001095BE408
:102B1000A04BA949C3F858800422162011F0F4FCF8
:102B20004FF0010950E49B4BA449C3F854800422A0
:102B3000152011F0E9FC4FF0010945E4954BA0493F
:102B4000C3F850800422142011F0DEFC4FF001097C
:102B50003AE4904B9B49C3F84C800422132011F0B7
:102B6000D3FC4FF001092FE48A4B9749C3F8488002
:102B70000422122011F0C8FC4FF0010924E4854B17
:102B80009249C3F844800422112011F0BDFC4FF09B
:102B9000010919E47F4B8E49C3F8408004221020BC
:102BA00011F0B2FC4FF001090EE47A4B8949C3F8E9
:102BB0003C8004220F2011F0A7FC4FF0010903E430
:102BC000744B8549C3F8388004220E2011F09CFC18
:102BD0004FF00109FFF7F8BB6E4B8049C3F8348012
:102BE00004220D2011F090FC4FF00109FFF7ECBB1F
:102BF000684B7B49C3F8308004220C2011F084FC20
:102C00004FF00109FFF7E0BB624B7649C3F82C8017
:102C100004220B2011F078FC4FF00109FFF7D4BB20
:102C20005C4B7149C3F8288004220A2011F06CFC27
:102C30004FF00109FFF7C8BB564B6C49C3F824801D
:102C40000422092011F060FC4FF00109FFF7BCBB22
:102C5000504B6749C3F820800422082011F054FC2F
:102C60004FF00109FFF7B0BB4A4B6249C3F81C8023
:102C70000422072011F048FC4FF00109FFF7A4BB24
:102C8000444B5D49C3F818800422062011F03CFC37
:102C90004FF00109FFF798BB3E4B5849C3F8148029
:102CA0000422052011F030FC4FF00109FFF78CBB26
:102CB000384B5349C3F810800422104611F024FC0D
:102CC0004FF00109FFF780BB324B4E49C3F80C802F
:102CD0000422032011F018FC4FF00109FFF774BB28
:102CE0002C4B4949C3F808800422022011F00CFC47
:102CF0004FF00109FFF768BB264B4449C3F8048035
:102D00000422012011F000FCFFF75EBB214B40497B
:102D1000C3F800800422002011F0F6FB4FF00109F7
:102D2000FFF752BB1B4B3B49C3F880800422202095
:102D300011F0EAFB4FF0010B98F81090FFF7FAB989
:102D4000144B3549C3F87C8004221F2011F0DCFBB2
:102D50004FF0010B98F81090FFF7ECB90D4B0E49AE
:102D6000C3F8788004221E2011F0CEFB4FF0010B37
:102D700098F81090FFF7DEB9064B0849C3F8748045
:102D800004221D2011F0C0FB4FF0010B98F81090A9
:102D9000FFF7D0B948A1FF1F111500008D140000E6
:102DA0000914000085130000011300007D120000CB
:102DB000F911000075110000F11000006D10000005
:102DC000E90F0000550D0000D10C00004D0C000073
:102DD000C90B0000450B0000C10A00003D0A0000BD
:102DE000B909000035090000B10800002D080000F5
:102DF000A907000025070000A10600001D0600002D
:102E000099050000650F0000E10E00005D0E000056
:102E1000D90D00009104000095150000DB4BDC4942
:102E2000C3F8708004221C2011F06EFB4FF0010BE0
:102E300098F81090FFF77EB9D44BD649C3F86C8050
:102E400004221B2011F060FB4FF0010B98F810904A
:102E5000FFF770B9CD4BD049C3F8688004221A201F
:102E600011F052FB4FF0010B98F81090FFF762B988
:102E7000C64BCA49C3F864800422192011F044FBF0
:102E80004FF0010B98F81090FFF754B9BF4BC449AD
:102E9000C3F860800422182011F036FB4FF0010BBC
:102EA00098F81090FFF746B9B84BBE49C3F85C805C
:102EB0000422172011F028FB4FF0010B98F8109016
:102EC000FFF738B9B14BB849C3F85880042216202F
:102ED00011F01AFB4FF0010B98F81090FFF72AB988
:102EE000AA4BB249C3F854800422152011F00CFB00
:102EF0004FF0010B98F81090FFF71CB9A34BAC49A9
:102F0000C3F850800422142011F0FEFA4FF0010B98
:102F100098F81090FFF70EB99C4BA649C3F84C8067
:102F20000422132011F0F0FA4FF0010B98F81090E2
:102F3000FFF700B9954BA049C3F84880042212203E
:102F400011F0E2FA4FF0010B98F81090FFF7F2B889
:102F50008E4B9A49C3F844800422112011F0D4FA10
:102F60004FF0010B98F81090FFF7E4B8874B9449A5
:102F7000C3F840800422102011F0C6FA4FF0010B74
:102F800098F81090FFF7D6B8804B8E49C3F83C8074
:102F900004220F2011F0B8FA4FF0010B98F81090AE
:102FA000FFF7C8B8794B8849C3F8388004220E204F
:102FB00011F0AAFA4FF0010B98F81090FFF7BAB889
:102FC000724B8249C3F8348004220D2011F09CFA20
:102FD0004FF0010B98F81090FFF7ACB86B4B7C49A1
:102FE000C3F8308004220C2011F08EFA4FF0010B50
:102FF00098F81090FFF79EB8644B7649C3F82C8080
:1030000004220B2011F080FA4FF0010B98F8109079
:10301000FFF790B85D4B7049C3F8288004220A205E
:1030200011F072FA4FF0010B98F81090FFF782B888
:10303000564B6A49C3F824800422092011F064FA2F
:103040004FF0010B98F81090FFF774B84F4B64499C
:10305000C3F820800422082011F056FA4FF0010B2B
:1030600098F81090FFF766B8484B5E49C3F81C808B
:103070000422072011F048FA4FF0010B98F8109045
:10308000FFF758B8414B5849C3F81880042206206E
:1030900011F03AFA4FF0010B98F81090FFF74AB888
:1030A0003A4B5249C3F814800422052011F02CFA3F
:1030B0004FF0010B98F81090FFF73CB8334B4C4998
:1030C000C3F810800422104611F01EFA4FF0010BD5
:1030D00098F81090FFF72EB82C4B4649C3F80C8097
:1030E0000422032011F010FA4FF0010B98F8109011
:1030F000FFF720B8254B4049C3F80880042202207E
:1031000011F002FA4FF0010B98F81090FFF712B887
:103110001E4B3A49C3F804800422012011F0F4F94F
:1031200098F81090FFF706B8184B3549C3F800809F
:103130000422002011F0E8F94FF0010B98F81090EC
:10314000FEF7F8BF114B2F49C3F8808004222020DE
:1031500011F0DAF94FF00109FEF7B6BF0B4B2A491F
:10316000C3F87C8004221F2011F0CEF94FF0010932
:10317000FEF7AABF054B2549C3F8788004221E201C
:1031800011F0C2F94FF00109FEF79EBF48A1FF1FE1
:103190000914000085130000011300007D120000D7
:1031A000F911000075110000F11000006D10000011
:1031B000E90F0000550D0000D10C00004D0C00007F
:1031C000C90B0000450B0000C10A00003D0A0000C9
:1031D000B909000035090000B10800002D08000001
:1031E000A907000025070000A10600001D06000039
:1031F00099050000650F0000E10E00005D0E000063
:10320000D90D000091040000951500001115000073
:10321000D34BD449C3F8748004221D2011F074F9F3
:103220004FF00109FEF750BFCD4BCF49C3F8708076
:1032300004221C2011F068F94FF00109FEF744BF89
:10324000C74BCA49C3F86C8004221B2011F05CF9FB
:103250004FF00109FEF738BFC14BC549C3F868807C
:1032600004221A2011F050F94FF00109FEF72CBF8B
:10327000BB4BC049C3F864800422192011F044F903
:103280004FF00109FEF720BFB54BBB49C3F8608082
:103290000422182011F038F94FF00109FEF714BF8D
:1032A000AF4BB649C3F85C800422172011F02CF90B
:1032B0004FF00109FEF708BFA94BB149C3F8588088
:1032C0000422162011F020F94FF00109FEF7FCBE90
:1032D000A34BAC49C3F854800422152011F014F913
:1032E0004FF00109FEF7F0BE9D4BA749C3F850808F
:1032F0000422142011F008F94FF00109FEF7E4BE92
:10330000974BA249C3F84C800422132011F0FCF81B
:103310004FF00109FEF7D8BE914B9D49C3F8488094
:103320000422122011F0F0F84FF00109FEF7CCBE94
:103330008B4B9849C3F844800422112011F0E4F823
:103340004FF00109FEF7C0BE854B9349C3F840809A
:103350000422102011F0D8F84FF00109FEF7B4BE96
:103360007F4B8E49C3F83C8004220F2011F0CCF82B
:103370004FF00109FEF7A8BE794B8949C3F83880A0
:1033800004220E2011F0C0F84FF00109FEF79CBE98
:10339000734B8449C3F8348004220D2011F0B4F833
:1033A0004FF00109FEF790BE6D4B7F49C3F83080A6
:1033B00004220C2011F0A8F84FF00109FEF784BE9A
:1033C000674B7A49C3F82C8004220B2011F09CF83B
:1033D0004FF00109FEF778BE614B7549C3F82880AC
:1033E00004220A2011F090F84FF00109FEF76CBE9C
:1033F0005B4B7049C3F824800422092011F084F843
:103400004FF00109FEF760BE554B6B49C3F82080B1
:103410000422082011F078F84FF00109FEF754BE9D
:103420004F4B6649C3F81C800422072011F06CF84A
:103430004FF00109FEF748BE494B6149C3F81880B7
:103440000422062011F060F84FF00109FEF73CBE9F
:10345000434B5C49C3F814800422052011F054F852
:103460004FF00109FEF730BE3D4B5749C3F81080BD
:103470000422104611F048F84FF00109FEF724BE6F
:10348000374B5249C3F80C800422032011F03CF85A
:103490004FF00109FEF718BE314B4D49C3F80880C3
:1034A0000422022011F030F84FF00109FEF70CBEA3
:1034B0002B4B4849C3F804800422012011F024F862
:1034C000FEF702BE264B4449C3F8008004220020C8
:1034D00011F01AF84FF00109FEF7F6BD204B3F49F5
:1034E000C3F880600422202011F00EF84FF0010B89
:1034F00096F81080FEF740BD194B3949DE6704226B
:103500001F2011F001F84FF0010B96F81080FEF724
:1035100033BD134B33499E6704221E2010F0F4FF85
:103520004FF0010B96F81080FEF726BD0C4B0D49AD
:103530005E6704221D2010F0E7FF4FF0010B96F8A4
:103540001080FEF719BD064B07491E6704221C2098
:1035500010F0DAFF4FF0010B96F81080FEF70CBD6B
:1035600048A1FF1F8D1400000914000085130000FE
:10357000011300007D120000F91100007511000018
:10358000F11000006D100000E90F0000550D000063
:10359000D10C00004D0C0000C90B0000450B0000D1
:1035A000C10A00003D0A0000B90900003509000009
:1035B000B10800002D080000A90700002507000041
:1035C000A10600001D06000099050000650F00001F
:1035D000E10E00005D0E0000D90D00009104000016
:1035E0009515000011150000CB4BCC49DE66042276
:1035F0001B2010F089FF4FF0010B96F81080FEF7AA
:10360000BBBCC54BC6499E6604221A2010F07CFF45
:103610004FF0010B96F81080FEF7AEBCBE4BC149CF
:103620005E660422192010F06FFF4FF0010B96F830
:103630001080FEF7A1BCB84BBB491E6604221820BF
:1036400010F062FF4FF0010B96F81080FEF794BC6B
:10365000B14BB649DE650422172010F055FF4FF03C
:10366000010B96F81080FEF787BCAB4BB0499E6506
:103670000422162010F048FF4FF0010B96F810803E
:10368000FEF77ABCA44BAB495E650422152010F00E
:103690003BFF4FF0010B96F81080FEF76DBC9E4B80
:1036A000A5491E650422142010F02EFF4FF0010BD7
:1036B00096F81080FEF760BC974BA049DE640422A8
:1036C000132010F021FF4FF0010B96F81080FEF749
:1036D00053BC914B9A499E640422122010F014FFAF
:1036E0004FF0010B96F81080FEF746BC8A4B9549C7
:1036F0005E640422112010F007FF4FF0010B96F8D2
:103700001080FEF739BC844B8F491E6404221020C0
:1037100010F0FAFE4FF0010B96F81080FEF72CBC6B
:103720007D4B8A49DE6304220F2010F0EDFE4FF03E
:10373000010B96F81080FEF71FBC774B84499E63FF
:1037400004220E2010F0E0FE4FF0010B96F81080DE
:10375000FEF712BC704B7F495E6304220D2010F00F
:10376000D3FE4FF0010B96F81080FEF705BC6A4BB4
:1037700079491E6304220C2010F0C6FE4FF0010BA5
:1037800096F81080FEF7F8BB634B7449DE620422A2
:103790000B2010F0B9FE4FF0010B96F81080FEF7E9
:1037A000EBBB5D4B6E499E6204220A2010F0ACFE1A
:1037B0004FF0010B96F81080FEF7DEBB564B6949BF
:1037C0005E620422092010F09FFE4FF0010B96F874
:1037D0001080FEF7D1BB504B63491E6204220820C3
:1037E00010F092FE4FF0010B96F81080FEF7C4BB6C
:1037F000494B5E49DE610422072010F085FE4FF040
:10380000010B96F81080FEF7B7BB434B58499E61F9
:103810000422062010F078FE4FF0010B96F810807D
:10382000FEF7AABB3C4B53495E610422052010F011
:103830006BFE4FF0010B96F81080FEF79DBB364BE8
:103840004D491E610422104610F05EFE4FF0010B40
:1038500096F81080FEF790BB2F4B4849DE6004229B
:10386000032010F051FE4FF0010B96F81080FEF788
:1038700083BB294B42499E600422022010F044FE83
:103880004FF0010B96F81080FEF776BB224B3D49B6
:103890005E600422012010F037FE96F81080FEF7DB
:1038A0006BBB1D4B38491E600422002010F02CFE1B
:1038B0004FF0010B96F81080FEF75EBB164B3349B4
:1038C000C3F880600422202010F01EFE4FF0010893
:1038D000FEF71CBB104B2E49DE6704221F2010F0A0
:1038E00013FE4FF00108FEF711BB0B4B29499E67F1
:1038F00004221E2010F008FE4FF00108FEF706BB60
:10390000054B25495E6704221D2010F0FDFD4FF098
:103910000108FEF7FBBA00BF48A1FF1F8513000096
:10392000011300007D120000F91100007511000064
:10393000F11000006D100000E90F0000550D0000AF
:10394000D10C00004D0C0000C90B0000450B00001D
:10395000C10A00003D0A0000B90900003509000055
:10396000B10800002D080000A9070000250700008D
:10397000A10600001D06000099050000650F00006B
:10398000E10E00005D0E0000D90D00009104000062
:1039900095150000111500008D140000C24BC3499D
:1039A0001E6704221C2010F0AFFD4FF00108FEF747
:1039B000ADBABD4BBE49DE6604221B2010F0A4FD4B
:1039C0004FF00108FEF7A2BAB74BBA499E6604222F
:1039D0001A2010F099FD4FF00108FEF797BAB24B8C
:1039E000B5495E660422192010F08EFD4FF00108E3
:1039F000FEF78CBAAC4BB1491E660422182010F0B9
:103A000083FD4FF00108FEF781BAA74BAC49DE6594
:103A10000422172010F078FD4FF00108FEF776BA67
:103A2000A14BA8499E650422162010F06DFD4FF0B1
:103A30000108FEF76BBA9C4BA3495E650422152072
:103A400010F062FD4FF00108FEF760BA964B9F49F7
:103A50001E650422142010F057FD4FF00108FEF7F8
:103A600055BA914B9A49DE640422132010F04CFDA4
:103A70004FF00108FEF74ABA8B4B96499E64042228
:103A8000122010F041FD4FF00108FEF73FBA864BBF
:103A900091495E640422112010F036FD4FF00108B8
:103AA000FEF734BA804B8D491E640422102010F0BA
:103AB0002BFD4FF00108FEF729BA7B4B8849DE63E6
:103AC00004220F2010F020FD4FF00108FEF71EBA6F
:103AD000754B84499E6304220E2010F015FD4FF0B3
:103AE0000108FEF713BA704B7F495E6304220D2074
:103AF00010F00AFD4FF00108FEF708BA6A4B7B4947
:103B00001E6304220C2010F0FFFC4FF00108FEF7AA
:103B1000FDB9654B7649DE6204220B2010F0F4FCFF
:103B20004FF00108FEF7F2B95F4B72499E62042222
:103B30000A2010F0E9FC4FF00108FEF7E7B95A4BF4
:103B40006D495E620422092010F0DEFC4FF001088E
:103B5000FEF7DCB9544B69491E620422082010F0BC
:103B6000D3FC4FF00108FEF7D1B94F4B6449DE6139
:103B70000422072010F0C8FC4FF00108FEF7C6B978
:103B8000494B60499E610422062010F0BDFC4FF0B5
:103B90000108FEF7BBB9444B5B495E610422052076
:103BA00010F0B2FC4FF00108FEF7B0B93E4B574998
:103BB0001E610422104610F0A7FC4FF00108FEF72A
:103BC000A5B9394B5249DE600422032010F09CFC59
:103BD0004FF00108FEF79AB9334B4E499E6004221C
:103BE000022010F091FC4FF00108FEF78FB92E4B28
:103BF00049495E600422012010F086FCFEF786B978
:103C0000294B46491E600422002010F07DFC4FF035
:103C10000108FEF77BB9244B4149C3F8806020209E
:103C2000042210F071FC4FF00108307CFEF7E0B880
:103C30001D4B3C49DE671F20042210F065FC4FF04D
:103C40000108307CFEF7D4B8174B37499E671E2019
:103C5000042210F059FC4FF00108307CFEF7C8B880
:103C6000114B32495E671D20042210F04DFC4FF0CD
:103C70000108307CFEF7BCB80B4B0C491E671C20BA
:103C8000042210F041FC4FF00108307CFEF7B0B880
:103C9000054B0749DE661B20042210F035FC4FF06F
:103CA0000108307CFEF7A4B848A1FF1F09140000EA
:103CB00085130000011300007D120000F9110000BF
:103CC00075110000F11000006D100000E90F0000F8
:103CD000550D0000D10C00004D0C0000C90B000078
:103CE000450B0000C10A00003D0A0000B9090000B0
:103CF00035090000B10800002D080000A9070000E8
:103D000025070000A10600001D060000990500001F
:103D1000650F0000E10E00005D0E0000D90D0000EF
:103D20009104000095150000111500008D1400008D
:103D3000BA4BBB499E661A20042210F0E5FB4FF0F7
:103D40000108307CFEF754B8B44BB6495E661920C2
:103D5000042210F0D9FB4FF00108307CFEF748B880
:103D6000AE4BB1491E661820042210F0CDFB4FF077
:103D70000108307CFEF73CB8A84BAC49DE65172043
:103D8000042210F0C1FB4FF00108307CFEF730B880
:103D9000A24BA7499E651620042210F0B5FB4FF0F8
:103DA0000108307CFEF724B89C4BA2495E651520C3
:103DB000042210F0A9FB4FF00108307CFEF718B880
:103DC000964B9D491E651420042210F09DFB4FF078
:103DD0000108307CFEF70CB8904B9849DE64132044
:103DE000042210F091FB4FF00108307CFEF700B880
:103DF0008A4B93499E641220042210F085FB4FF0F9
:103E00000108307CFDF7F4BF844B8E495E641120BD
:103E1000042210F079FB4FF00108307CFDF7E8BF79
:103E20007E4B89491E641020042210F06DFB4FF078
:103E30000108307CFDF7DCBF784B8449DE630F203E
:103E4000042210F061FB4FF00108307CFDF7D0BF79
:103E5000724B7F499E630E20042210F055FB4FF0F9
:103E60000108307CFDF7C4BF6C4B7A495E630D20BE
:103E7000042210F049FB4FF00108307CFDF7B8BF79
:103E8000664B75491E630C20042210F03DFB4FF079
:103E90000108307CFDF7ACBF604B7049DE620B203F
:103EA000042210F031FB4FF00108307CFDF7A0BF79
:103EB0005A4B6B499E620A20042210F025FB4FF0FA
:103EC0000108307CFDF794BF544B66495E620920BF
:103ED000042210F019FB4FF00108307CFDF788BF79
:103EE0004E4B61491E620820042210F00DFB4FF07A
:103EF0000108307CFDF77CBF484B5C49DE61072040
:103F0000042210F001FB4FF00108307CFDF770BF78
:103F1000424B57499E610620042210F0F5FA4FF0FB
:103F20000108307CFDF764BF3C4B52495E610520BF
:103F3000042210F0E9FA4FF00108307CFDF758BF79
:103F4000364B4D491E610422104610F0DDFA4FF049
:103F50000108307CFDF74CBF304B4849DE60032040
:103F6000042210F0D1FA4FF00108307CFDF740BF79
:103F70002A4B43499E600220042210F0C5FA4FF0FC
:103F80000108307CFDF734BF244B3E495E600120C0
:103F9000042210F0B9FA307CFDF72ABF1F4B3A49D2
:103FA0001E600020042210F0AFFA4FF00108307CB0
:103FB000FDF71EBFD368991ED16062B681EAE17336
:103FC000A3EBE173032B7EF7E6AA01238AF83030D6
:103FD000BAF81010BAF808302C4A8B4203D8D388AC
:103FE0008B4280F0F881DAF8142072B60023D36097
:103FF00062B627486A6972B6D36062B6298A2B898D
:104000008B4203D8C3888B4280F035822148E989EE
:10401000A0F1200702F08CF847E000BF48A1FF1F85
:10402000011300007D120000F9110000751100005D
:10403000F11000006D100000E90F0000550D0000A8
:10404000D10C00004D0C0000C90B0000450B000016
:10405000C10A00003D0A0000B9090000350900004E
:10406000B10800002D080000A90700002507000086
:10407000A10600001D06000099050000650F000064
:10408000E10E00005D0E0000D90D0000509CFF1FE6
:104090009898FF1FB898FF1F72B6D16862B681EA80
:1040A000E173A3EBE173032B5BDCB04802F05EF835
:1040B000002859D17A69137C012BEDD872B61368A8
:1040C0005068197890F800E0507A137A1EEA000FD1
:1040D00001EA030100F04081937A03F0030309B180
:1040E00043F0040343F008039910013B91720D2B38
:1040F000D3D801A151F823F0554200004D420000F1
:10410000454200004D4200009B4000004F4100002E
:1041100055420000554200004F4100009B40000006
:104120004D420000454200004D4200005542000053
:10413000D368991CD160FEF726BAD368591ED160A6
:10414000FEF721BAD368591CD160FEF71CBAD368B8
:10415000991ED16062B681EAE173A3EBE173032B90
:10416000A3DD012385F83030298A2B89804A8B42D0
:1041700003D8D3888B4280F044816A6972B60023E9
:10418000D36062B67B48726972B6D36062B6318A18
:1041900033898B4203D8C3888B4280F0558176489F
:1041A000F189A0F1200701F0C3FF08E072B6D168E1
:1041B00062B681EAE173A3EBE173032B58DC6E482E
:1041C00001F0D4FF002856D17A69137C012BEDD879
:1041D00072B613685068197890F800E0507A137A34
:1041E0001EEA000F01EA030100F0D880937A03F081
:1041F000030309B143F0040343F008039910013BA2
:1042000091720D2BD3D801A151F823F01D4300006A
:10421000154300000D43000015430000AF410000AE
:104220005D4200001D4300001D4300005D42000090
:10423000AF410000154300000D430000154300008E
:104240001D430000D368991CD16027E7D368591E2D
:10425000D16023E7D368591CD1601FE7D368991E4A
:10426000D16062B681EAE173A3EBE173032BA6DDB3
:10427000012386F83030318A33893E4A8B4203D895
:10428000D3888B4280F0B28073693A4972B60022BB
:10429000DA6062B694F83030002B43D09AF83030B0
:1042A000002B3FD095F83030002B3BD091F83030C8
:1042B000002B37D0314B314A1B7C002B41D0536847
:1042C0001A7922B9D3F8803093F8253043B92C49B4
:1042D0002C4812F0BFF82C4A012313702B4A13709C
:1042E00001210D2010F0E8F90121032010F0E4F97C
:1042F0000121042010F0E0F90121254801F0C8FE59
:104300000A2015B0BDE8F04F0FF0FCBED368991C31
:10431000D1604DE7D368591ED16049E7D368591C75
:10432000D16045E71B49174812F094F8164A01215D
:104330001170164A02231370104B104A1B7C002B7D
:10434000BDD115490F4812F085F80F4A01211170AF
:104350000E4A02231370C3E7937A03F00303002984
:104360003FF4C2AE43F00403BEE600BFB898FF1F9F
:104370009898FF1F989CFF1FB89CFF1FCC9AFF1FA7
:10438000401702008898FF1F1D98FF1F849CFF1F85
:10439000B89EFF1F3417020028170200937A03F01B
:1043A000030300293FF42AAF43F0040326E7937A7E
:1043B00003F0030300293EF48CA843F00403FEF746
:1043C00088B8937A03F0030300293EF404A943F06C
:1043D0000403FEF700B940F2DC53994256D99389A1
:1043E000194489B24D480EF0DDFDFCE540F2DC5386
:1043F000994255D99389194489B249480EF0D2FDA2
:1044000042E740F2DC53994245D99389194489B275
:1044100044480EF0C7FDB0E640F2DC53994244D95F
:104420009389194489B240480EF0BCFDFEF78CB860
:1044300040F2DC53994247D98389194489B23A48FA
:104440000EF0B0FDFEF716B840F2DC53994240D9A9
:104450008389194489B232480EF0A4FD9FE640F2E8
:10446000DC5399422BD98389194489B22B480EF029
:1044700099FDFEF77EB840F2DC5399421AD9838940
:10448000194489B227480EF08DFDBFE5AAD05389A3
:10449000C91A89B2A6E7BBD05389C91A89B2B7E74E
:1044A000ABD05389C91A89B2A7E7BCD05389C91ABE
:1044B00089B2B8E7E6D04389C91A89B2E2E7D5D014
:1044C0004389C91A89B2D1E7B9D04389C91A89B2D7
:1044D000B5E7C0D04389C91A89B2BCE74FF00008DC
:1044E000FDF786BC43F00403FEF773B84FF0000BF2
:1044F000FDF742BD4FF00008FDF708BD4FF0000B7F
:10450000FDF798BF4FF00009FDF75EBF4FF0000BBD
:10451000FDF710BE4FF00009FDF7D6BD689CFF1FE8
:10452000B09CFF1FB098FF1F009CFF1FF0B587B025
:104530002D4800AF01F01AFE00284CD02B4B1B7801
:10454000002B48D02A4B2B4A1B683B603B681278F3
:10455000BB600024F8237A713B71BC713B1D03CB17
:10456000254DC7F81210C822082315F80C1FC7F8EC
:104570000E003A737B736E46E2B20823D00703F154
:10458000FF3348BF4A4013F0FF034FEA5202F5D110
:104590000134B4F5807F05F8012FEDD107F10D014D
:1045A00007F1150411F8012F1348534003448C42BE
:1045B0005B7BF7D1D0F81001BB7503680F4A5B68CD
:1045C00093420BD10B2107F10C0011F0F1FA0648D0
:1045D000B54601F0BDFD1C37BD46F0BD0B2207F10D
:1045E0000C019847F3E700BF4098FF1F1E98FF1F7C
:1045F00008A2FF1F849CFF1F189DFF1F7904000065
:104600002DE9F04F97B0B54800AF01F0AFFD00289D
:1046100040F05884B24801F0A9FD002840F0BE8364
:10462000B04801F0A3FD002840F04A82AE4801F0F6
:104630009DFD18B95C37BD46BDE8F08FAB4C2378C3
:104640007B7200226A236079BA723B720FF08EFD92
:104650000646A08915F008F90146206915F00CFA04
:10466000A16815F055F90546304615F0FDF80146EC
:10467000284615F04DF914F0A1FCD4E90A89024648
:104680000B464046494614F039FBD4E9082314F0A0
:10469000E9FC02460B464046494614F02FFB002237
:1046A000934BC4E90A0114F0DDFC14F08BFFB881D0
:1046B00060790FF05BFD0646A08915F0D5F801463C
:1046C000206915F0D9F9A16815F022F905463046A0
:1046D00015F0CAF80146284615F01AF914F06EFCD8
:1046E000D4E90A8902460B464046494614F006FBC7
:1046F000D4E9082314F0B6FC02460B46404649466E
:1047000014F0FCFA00227A4BC4E90A0114F0AAFC66
:1047100014F058FF15F0A8F8764915F0ADF90546E4
:10472000607F15F0A1F80146284615F08FFA0028A1
:104730005BD1A07F15F098F80146284615F0A4FA41
:10474000002852D1207FA56915F08EF86A4915F02E
:1047500093F929460646606914F0D0FF01463046B9
:1047600015F0D6F8294614F0CBFF054660790FF016
:10477000FDFC8046A08915F077F80146206915F008
:104780007BF9A16815F0C4F80646404615F06CF8B0
:104790000146304615F0BCF814F010FCD4E90A8943
:1047A00002460B464046494614F0A8FAD4E90823CD
:1047B00014F058FC02460B464046494614F09EFA57
:1047C00000224B4BC4E90A0114F04CFC14F0FAFE31
:1047D00015F04AF8474915F04FF90146284615F0FB
:1047E00049FA20B10123BB7201E00323BB72434DA0
:1047F00007F158092C4659F8500D14F80CEFB9F888
:104800000410C7F83200C8220623F986204687F82C
:10481000302087F831306E460021CAB2082312F0EA
:10482000010F03F1FF3318BF82EA0E0213F0FF03FA
:104830004FEA5202F3D10131B1F5807F00F8012F28
:10484000EBD107F1310107F1370E11F8012F2B4899
:1048500053402B448E455B7BF7D1D0F8100187F88D
:1048600038300368264A5B687A60934207F1300863
:1048700040F0C7844046092111F09AF9DFF884A07E
:10488000DFF884C0DAF89C00036800221B697A72A2
:104890000021BA7287F82C2087F82D2000224FF0D3
:1048A000000EC7E90412C7E9061263454FF064021F
:1048B000C7F820E0B546C7F824E0C7F828E03A7208
:1048C00040F0398510F080FA10B101238AF8B03039
:1048D000DFF830B0DAF89C6020E000BF3C9CFF1F9E
:1048E000D89BFF1F2098FF1F3098FF1F689EFF1F57
:1048F00000408F4000007A440000C842189DFF1F0E
:1049000079040000149BFF1F6D04000033683046DB
:104910005B699847C1B264480FF0FAF833683046D3
:104920001B6998470028F1D19AF870305F4E03F068
:10493000FF02002B00F04684311D40460FF0F6F8D0
:10494000C446BCE80F0006F1740EAEE80F00BCE8E8
:104950000F00AEE80F009CE803004EF8040B9BF834
:104960009530AEF80010002BB4D0706F14F014FB2B
:104970004BA3D3E9002314F075FBC7E90401B06F22
:1049800014F00AFB46A3D3E9002314F06BFB96F85E
:104990009630C7E90601002B40F04F84444B3B6240
:1049A000BAF9820014F060FF424914F0B1FF0646E4
:1049B000BAF9800014F058FF0146304614F0A0FE0A
:1049C0007862BAF9860014F04FFF3B4914F0A0FF5B
:1049D0000646BAF9840014F047FF0146304614F049
:1049E0008FFE6E468CB04FF0C80E28219AF88820B2
:1049F0009AF890308DF800E0B8628DF80110EE461C
:104A00000DF1020C87F82C2087F82D3007EB010AF6
:104A1000C846B8E80F00D045CCF80000CCF8041028
:104A2000CCF80820CCF80C30C1460CF1100CEFD1BA
:104A3000B9E80300CCF80410CCF80000287B002172
:104A4000CAB2082312F0010F03F1FF3318BF42402E
:104A500013F0FF034FEA5202F4D10131B1F5807F28
:104A600004F8012FECD10EF101010EF1290411F827
:104A7000012F124853402B448C425B7BF7D1D0F876
:104A800010018EF82A3003687A685B68934240F020
:104A9000058470462B2111F08BF8B546AAE300BFC0
:104AA000000000A0F2D77A3E189BFF1F149BFF1F47
:104AB000003C1CC66F12833A0AD7233C189DFF1F87
:104AC000AE4843690278197C7A7266240022012973
:104AD000BA72FA603C7240F2398472B6DA6862B631
:104AE00090F83030FA600BB90323BB72A44D07F184
:104AF00008092C464B4603CB14F80C6FC7F832005C
:104B0000C8220823C7F83610204687F8302087F8D7
:104B10003130EA460021CAB2082312F0010F03F136
:104B2000FF3318BF724013F0FF034FEA5202F4D173
:104B30000131B1F5807F00F8012FECD107F131018F
:104B400007F1390611F8012F8D4853402B448E424E
:104B50005B7BF7D1D0F8100187F83A300368894AB7
:104B60005B687A60934207F1300800F06183414648
:104B70000B229847844843690278197C7A724FF077
:104B8000660E00220129D546BA72FA6087F808E05D
:104B900040F2A48472B6DA6862B690F83030FA60F7
:104BA0000BB90323BB724B4603CBC8220823C7F8BB
:104BB000320095F80CE07548C7F8361087F83020B9
:104BC00087F83130EA460021CAB2082312F0010FFB
:104BD00003F1FF3318BF8EEA020213F0FF034FEA1E
:104BE0005202F3D10131B1F5807F00F8012FEBD1F2
:104BF00007F1310111F8012F614853402B448E42D7
:104C00005B7BF7D1D0F8100187F83A3003687A68F7
:104C10005B68934240F03E830B21404610F0C8FF92
:104C20005B4843690278197C7A724FF0660E002265
:104C30000129D546BA72FA6087F808E040F20A8482
:104C400072B6DA6862B690F83030FA600BB90323B6
:104C5000BB724B4603CBC8220823C7F8320095F835
:104C60000CE04A48C7F8361087F8302087F8313012
:104C7000EA460021CAB2082312F0010F03F1FF3304
:104C800018BF8EEA020213F0FF034FEA5202F3D17B
:104C90000131B1F5807F00F8012FEBD107F131012F
:104CA00011F8012F364853402B448E425B7BF7D1DD
:104CB000D0F8100187F83A3003687A685B6893424D
:104CC00040F0E4820B21404610F072FF3148436906
:104CD0000278197C7A724FF0660E00220129D546BF
:104CE000BA72FA6087F808E040F2708372B6DA6848
:104CF00062B690F83030FA600BB90323BB72B9E8A2
:104D00000300C8220823C7F83610297BC7F83200F1
:104D100087F8302087F83130E9460020C2B20823F6
:104D200012F0010F03F1FF3318BF4A4013F0FF03E5
:104D30004FEA5202F4D10130B0F5807F04F8012F20
:104D4000ECD107F1310111F8012F0D4853402B44EC
:104D50008E425B7BF7D1D0F8100187F83A300368B8
:104D60007A685B68934240F08D8240460B2110F0D8
:104D70001FFF0948CD4601F0EBF957E4E89BFF1F00
:104D8000189DFF1F79040000509CFF1F249DFF1FEA
:104D90009898FF1F989CFF1F2098FF1F454D68683B
:104DA00003689B699847002800F0C0816B682A78E7
:104DB0005E69D3F818E0DC69986BD96BD3F840C012
:104DC000C5F81CE0AE612C6228636963D3F848E043
:104DD000DE6C1C6D986DD96D1B6EC5F824E0AE625B
:104DE000C5F838C0EC62E86329646B646A751435F1
:104DF0002C460FCD0FC40FCD0FC40FCD0FC4A84646
:104E00002B6848F830396C468EB0C82234238DF8B0
:104E100000208DF801306E460DF1020EC446BCE84C
:104E20000F00AC45CEF80000CEF80410CEF80820F4
:104E3000CEF80C30E0460EF1100EEFD11E4DDCF82E
:104E40000000CEF80000AE4600201EF80C1FC2B2D3
:104E5000082312F0010F03F1FF3318BF4A4013F08B
:104E6000FF034FEA5202F4D10130B0F5807F0EF813
:104E7000012FECD1711C06F1350E11F8012F0E48EF
:104E800053402B448E455B7BF7D1D0F8100186F858
:104E900036300368094A5B68934240F04F823046DF
:104EA000372110F085FEA546054801F051F9FFF7BE
:104EB000B7BB00BFCC9AFF1F189DFF1F79040000ED
:104EC000D89BFF1FD14C04F1100001F04FF90028CE
:104ED0005DD094F82100CE4D0FF048F914F05CF845
:104EE000D4E90A2314F0BEF80022CA4B14F0BAF831
:104EF00014F090FB86B204F1100001F029F920783B
:104F0000BE81692207F1580300213A727872B972A2
:104F100053F8500DC7F832002E469B88FB86C822F6
:104F2000062316F80C0F87F8302087F831306C46CE
:104F3000CAB2082312F0010F03F1FF3318BF424039
:104F400013F0FF034FEA5202F4D10131B1F5807F33
:104F500006F8012FECD107F1310107F1370611F8FE
:104F6000012FAB4853402B448E425B7BF7D1D0F8E6
:104F7000100187F838300368A74A5B68934240F015
:104F80007581092107F1300010F012FEA546A34CEF
:104F900004F1100001F0EAF800285DD094F8210037
:104FA0009B4D0FF0E3F813F0F7FFD4E90A2314F058
:104FB00059F80022974B14F055F814F02BFB86B2E9
:104FC00004F1100001F0C4F82078BE81692207F1D5
:104FD000580300213A727872B97253F8500DC7F82D
:104FE00032002E469B88FB86C822062316F80C0F3B
:104FF00087F8302087F831306C46CAB2082312F0A7
:10500000010F03F1FF3318BF424013F0FF034FEAD3
:105010005202F4D10131B1F5807F06F8012FECD1B5
:1050200007F1310107F1370611F8012F7848534095
:105030002B448E425B7BF7D1D0F8100187F83830D3
:105040000368754A5B68934240F01681092107F1B5
:10505000300010F0ADFDA546714C04F1100001F0D8
:1050600085F800285DD094F82100694D0FF07EF896
:1050700013F092FFD4E90A2313F0F4FF0022654BEA
:1050800013F0F0FF14F0C6FA86B204F1100001F03C
:105090005FF82078BE81692207F1580300213A7237
:1050A0007872B97253F8500DC7F832002E469B88BB
:1050B000FB86C822062316F80C0F87F8302087F8E5
:1050C00031306C46CAB2082312F0010F03F1FF33EE
:1050D00018BF424013F0FF034FEA5202F4D10131EE
:1050E000B1F5807F06F8012FECD107F1310107F10E
:1050F000370611F8012F464853402B448E425B7B04
:10510000F7D1D0F8100187F838300368424A5B685D
:10511000934240F0A580092107F1300010F048FDCE
:10512000A546404801F014F8FFF774BA2B7C002B19
:105130007FF4BAAE6C468EB00223C8213422AB7520
:1051400005F114088DF800108DF801206E460DEB66
:10515000030E4435C446BCE80F00AC45CEF8000051
:10516000CEF80410CEF80820CEF80C30E0460EF150
:10517000100EEFD1264DDCF80000CEF80000AE4650
:1051800000201EF80C1FC2B2082312F0010F03F119
:10519000FF3318BF4A4013F0FF034FEA5202F4D125
:1051A0000130B0F5807F0EF8012FECD1711C06F1B3
:1051B000350E11F8012F164853402B448E455B7B6A
:1051C000F7D162E606F1A0003A6000F0CFFF68B1C7
:1051D00096F8B030002B00F0B68001233A6886F8CC
:1051E000B02086F8B130104800F0B2FF9AF8B13024
:1051F000002B58D00D4800F0ABFF5C37BD46BDE832
:10520000F08F414609229847FFF738BB309EFF1FB9
:10521000189DFF1F00408F40790400005098FF1F29
:10522000E09CFF1F3C9CFF1FB49BFF1F3098FF1F9B
:1052300040460B2110F0BCFC9CE4B6F97E0014F053
:1052400013FBCB4914F064FB8046B6F97C0014F0E4
:105250000BFB0146404614F053FA3862FFF7A0BB3F
:10526000092207F130019847A5465AE7092207F1BC
:1052700030019847A5468AE6092207F13001984790
:10528000A546E9E641460B22984772E50B224146C6
:1052900098471BE50B2241469847C1E471462B22F3
:1052A0009847B546A6E76E468CB02822C82103234E
:1052B0008DF800108DF80120EE460DF1020CBB7246
:1052C00007EB020AC846B8E80F00D045CCF800004A
:1052D000CCF80410CCF80820CCF80C30C1460CF106
:1052E000100CEFD1B9E80300CCF80000CCF80410A2
:1052F000297B0020C2B2082312F0010F03F1FF3313
:1053000018BF4A4013F0FF034FEA5202F4D10130B4
:10531000B0F5807F04F8012FECD10EF101010EF100
:10532000290411F8012F934853402B448C425B7B96
:10533000F7D1FFF7A4BB9847FFF7C6BA314637222B
:105340009847A546B0E586F8B1304CE772B693E8C9
:105350001400117825785C7A1A7A254201EA020154
:105360002CD09A7A02F0030209B142F0040242F012
:1053700008029110013A99720D2A3FF6AFAB01A1D4
:1053800051F822F06555000005560000FB5500005D
:1053900005560000DD4A0000F1550000655500008B
:1053A00065550000F1550000DD4A0000055600007B
:1053B000FB55000005560000655500009A7A02F082
:1053C00003020029D5D042F00402D2E772B693E876
:1053D000060091F800C092F800E05A7A197A1EEAA5
:1053E000020F0CEA01012DD09A7A02F0030209B1F2
:1053F00042F0040242F008029110013A99720D2A1B
:105400003FF675AC01A151F822F000BFE75500004E
:10541000DD550000D3550000DD550000EF4C0000C5
:10542000C9550000E7550000E7550000C9550000C8
:10543000EF4C0000DD550000D3550000DD550000A5
:10544000E75500009A7A02F003020029D4D042F016
:105450000402D1E772B693E8060091F800C092F812
:1054600000E05A7A197A1EEA020F0CEA01012DD0E7
:105470009A7A02F0030209B142F0040242F00802F3
:105480009110013A99720D2A3FF6DBAB01A151F858
:1054900022F000BFBF550000B5550000AB5500001D
:1054A000B5550000434C0000A1550000BF55000059
:1054B000BF550000A1550000434C0000B555000049
:1054C000AB550000B5550000BF5500009A7A02F0B8
:1054D00003020029D4D042F00402D1E772B693E867
:1054E000060091F800C092F800E05A7A197A1EEA94
:1054F000020F0CEA01012DD09A7A02F0030209B1E1
:1055000042F0040242F008029110013A99720D2A09
:105510003FF641AB01A151F822F000BF97550000C2
:105520008D550000835500008D550000974B0000FD
:1055300079550000975500009755000079550000F7
:10554000974B00008D550000835500008D550000DD
:10555000975500009A7A02F003020029D4D042F055
:105560000402D1E7DA680132DA60FFF7B8BA00BFA7
:105570000AD7233C189DFF1FDA68023ADA60FFF76A
:105580000BBBDA680232DA60FFF706BBDA68013A71
:10559000DA60FFF701BBDA680132DA60FFF7FCBAC4
:1055A000DA68023ADA60FFF74DBBDA680232DA6095
:1055B000FFF748BBDA68013ADA60FFF743BBDA6805
:1055C0000132DA60FFF73EBBDA68023ADA60FFF7D1
:1055D0008FBBDA680232DA60FFF78ABBDA68013A19
:1055E000DA60FFF785BBDA680132DA60FFF780BB6B
:1055F000DA68023ADA60FFF772BADA680232DA6021
:10560000FFF76DBADA68013ADA60FFF768BA00BFEF
:10561000F0B58BB000AF07F1280400230D46F92246
:105620000146F81D04F8242D7B71BB7115F026FD91
:105630008AB0C822222387F825508DF800208DF8E3
:1056400001306D460DF1020E07F1240C26460FCEF7
:105650006645CEF80000CEF80410CEF80820CEF84B
:105660000C3034460EF1100EF0D11D4E2388AEF8EA
:1056700000303446002014F80C1FC2B2082312F088
:10568000010F03F1FF3318BF4A4013F0FF034FEA45
:105690005202F4D10130B0F5807F04F8012FECD133
:1056A000691C05F1230411F8012F0D4853403344C0
:1056B000A1425B7BF7D1D0F8100185F82430036854
:1056C000084A5B68934206D12846252110F070FAFB
:1056D0002C37BD46F0BD294625229847F8E700BF84
:1056E000189DFF1F790400002DE9F047A1488AB0FA
:1056F00000F03CFD28B1A04B1B78DBB19D4800F0C9
:1057000027FD9E4B1B7813B90AB0BDE8F0879C4873
:1057100000F02CFD0028F7D09A4B1978022900F0F0
:10572000EE80012900F0EB8095480AB0BDE8F04713
:1057300000F00EBD944C207FA56914F095F89349B4
:1057400014F09AF929460646606913F0D7FF01461E
:10575000304614F0DDF8294613F0D2FF0546607993
:105760000EF004FD0746A08914F07EF8014620697A
:1057700014F082F9A16814F0CBF80646384614F00C
:1057800073F80146304614F0C3F813F017FCD4E95F
:105790000A6702460B463046394613F0AFFAD4E9A1
:1057A000082313F05FFC02460B463046394613F0DF
:1057B000A5FA0022764BC4E90A0113F053FC13F05A
:1057C00001FF14F051F8734914F056F901462846C8
:1057D00014F050FA002840F0BF8007466079DFF8E7
:1057E000A8A10EF0C3FC0646A08914F03DF80146BE
:1057F000206914F041F9A16814F08AF80546304692
:1058000014F032F80146284614F082F813F0D6FB63
:10581000D4E90A8902460B464046494613F06EFA1F
:10582000D4E9082313F01EFC02460B4640464946C5
:1058300013F064FA0022564BC4E90A0113F012FC7B
:1058400013F0C0FE14F010F8524914F015F9054693
:10585000607F14F009F80146284614F0F7F9002893
:1058600057D19AF81E0013F0FFFF0146284614F0A6
:105870000BFA00284DD1484D484AD5F89C000368E2
:105880001B69934270D10FF09FFA10B1012385F884
:10589000B030414ED5F89C4007E0236820465B6954
:1058A0009847C1B23E480EF033F9236820461B6981
:1058B00098470028F1D195F87030374C03F0FF0875
:1058C00083B3211D68460EF031F9EE46BEE80F00A5
:1058D00074340FC4BEE80F000FC49EE8030044F800
:1058E000040B96F895302180002BD3D095F8B13079
:1058F00053B3002F7FF402AF224B1F70FEE6294BFB
:105900001868FFF785FE1E480AB0BDE8F04700F0B2
:105910001FBC2549234810F09DFD1A4B02221A7026
:105920000127A8E704F1A00000F020FC0028DDD04A
:1059300094F8B030D3B1012384F8B08084F8B1304A
:105940001A4800F005FCD1E71949164810F082FD0D
:105950000C4B02221A70D1E61649124810F07AFD5B
:10596000084B01271F7039E798478EE784F8B1305C
:10597000E6E700BFC89BFF1F1D98FF1F1E98FF1F73
:10598000889CFF1F849CFF1F689EFF1F0000C84269
:1059900000408F4000007A44149BFF1F6D040000FC
:1059A000189BFF1F8898FF1F6C170200B49BFF1FF6
:1059B00060170200541702000A4B5A6972B600239E
:1059C000D36062B6084A526972B6D36062B6074ABB
:1059D000526972B6D36062B6054A526972B6D36034
:1059E00062B67047E89BFF1F509CFF1F9898FF1FEF
:1059F000989CFF1F00B5672883B017D0F82809D0FE
:105A0000662802D003B05DF804FB03B05DF804EB38
:105A1000FFF7D2BF02213E4800F03AFB3D493E4A23
:105A200001230B70137003B05DF804FB3B4B93E84C
:105A300003008AB2A2F57A73B3F57A7F0090ADF8CD
:105A40000410DFD89DF80130013B032BDAD8DFE8E2
:105A500003F036261602324B19899142D2D8D988E2
:105A60009142CFD340F2DC518A4238D999890A4415
:105A700091B22C4803B05DF804EB0DF093BA2A4BB9
:105A800019899142BED8D9889142BBD340F2DC51EA
:105A90008A4230D999890A4491B22448EAE7244BD2
:105AA00019899142AED8D9889142ABD340F2DC51EA
:105AB0008A4226D999890A4491B21E48DAE71E4BD8
:105AC000198991429ED8D98891429BD340F2DC51EA
:105AD0008A420AD999890A4491B21848CAE71DBF77
