:1000000000800020BD0100003D430100F5420100D9
:10001000F5420100F5420100F5420100F542010000
:10002000F5420100F5420100F54201003D430100A7
:100030003D430100F5420100F55D0100F95E01005C
:100040003D4301003D4301003D4301003D430100AC
:100050003D4301003D4301003D4301003D4301009C
:100060003D4301003D4301003D4301003D4301008C
:100070003D4301003D4301003D4301003D4301007C
:100080003D4301003D4301003D4301003D4301006C
:100090003D4301003D4301003D4301003D4301005C
:1000A00025680000316800003D4301003D43010028
:1000B0003D4301003D4301003D4301003D4301003C
:1000C0003D4301003D4301003D4301003D4301002C
:1000D0003D4301003D4301003D4301003D4301001C
:1000E0003D4301003D4301003D4301003D4301000C
:1000F0003D4301001D6501003D430100454E0100E7
:100100003D430100496601003D4301003D430100BC
:100110003D4301003D4301003D4301003D430100DB
:100120003D4301003D4301003D4301003D430100CB
:100130003D4301003D4301003D4301003D430100BB
:100140003D4301003D4301003D4301003D430100AB
:100150003D4301003D4301003D4301003D4301009B
:10016000452F0100C15001003D4301003D43010006
:100170003D4301003D4301003D4301003D4301007B
:100180003D4301003D4301003D4301003D4301006B
:100190003D4301003D4301003D4301003D4301005B
:1001A0003D4301003D4301003D4301003D4301004B
:1001B0003D4301003D4301003D430100564B4CF2DD
:1001C000205210B51A804DF628121A8000BF00BFC9
:1001D00014F0B8F8514B4FF010621A60504A9A6010
:1001E000504ADA60504A136813F4807304D14F49BF
:1001F0000B604FF4A85313604D4B1A78110703D5C9
:100200001A7842F008021A704A4B4B492A221A7097
:100210004A4A4B4B8B4204D252F8040F43F8040B6A
:10022000F8E7484B484900228B4202D243F8042B9E
:10023000FAE74649464A002352F8230041F82300D2
:1002400001336F2BF8D1434B434A802103F8011B44
:100250009342FBD1414B3D4A1A60414B8A221A70AE
:10026000A3F5805324225A70A0221A709A7992071B
:10027000FCD59A79D406FCD43A4A937903F00C035E
:10028000082B384BF9D103221A7140225A719A79FE
:100290009006FCD5334A9179324B4906FBD5324A58
:1002A000324911600221516020221A709A7902F0BD
:1002B0000C020C2AFAD12E4B2E4A1A602E4B2F4AD2
:1002C0001A6000225A60072243F8042C2C4AC3F813
:1002D0000C2D62B614F022FA144B1B68DA0705D510
:1002E000284814F08DF9284B284A1A60284B1B78AF
:1002F0005B0609D5244C254B22689A4204D121483B
:1003000014F07EF90023236019F026FE14F020F883
:1003100016F066F8FEE700BF0E200540308004406E
:10032000823F04000100002B10D0034014D0034092
:1003300002D0074000E007400098FF1F545502001C
:100340002087FF1F0098FF1F00A5FF1F0082FF1FCF
:100350000000000000E400E05FE400E008ED00E0E1
:100360000050064000400640448004400000030165
:1003700004800440C010050014E000E0FF76010096
:1003800000002020C23DD75B1CE00340A5C3945A67
:1003900000F00740FFFFFFFFFFFFFFFFFFFFFFFF32
:1003A000FFFFFFFFFFFFFFFFFFFFFFFFFFFFFFFF5D
:1003B000FFFFFFFFFFFFFFFFFFFFFFFFFFFFFFFF4D
:1003C000FFFFFFFFFFFFFFFFFFFFFFFFFFFFFFFF3D
:1003D000FFFFFFFFFFFFFFFFFFFFFFFFFFFFFFFF2D
:1003E000FFFFFFFFFFFFFFFFFFFFFFFFFFFFFFFF1D
:1003F000FFFFFFFFFFFFFFFFFFFFFFFFFFFFFFFF0D
:10040000FFFFFFFFFFFFFFFFFFFFFFFFDEF9FFFF23
:1004100010B5054C237833B9044B13B10448AFF33E
:1004200000800123237010BD0098FF1F0000000012
:1004300050550200084B10B51BB108490848AFF3EE
:1004400000800848036803B910BD074B002BFBD0A0
:10045000BDE81040184700BF000000000498FF1FCF
:10046000505502000098FF1F0000000014F068BC07
:1004700015F030BB15F0F2BA0846114615F054BB22
:1004800010B514210446406915F0B4FF204610BD94
:100490001F4B10B41A681368506819780478507AA2
:1004A000137A044201EA03011AD0937A03F003039A
:1004B00009B143F0040343F008039910013B917222
:1004C0000D2B0BD8DFE803F01E0719070A141E1EB8
:1004D000140A0719071ED368013BD36010BC70478C
:1004E000937A03F003030029E7D043F00403E4E721
:1004F000D36810BC023BD3607047D36810BC023392
:10050000D3607047D36810BC0133D360704700BF1D
:1005100048A1FF1F1F4B10B45A6813685068197820
:100520000478507A137A044201EA03011AD0937ACC
:1005300003F0030309B143F0040343F008039910E7
:10054000013B91720D2B0BD8DFE803F01E07190752
:100550000A141E1E140A0719071ED368013BD36034
:1005600010BC7047937A03F003030029E7D043F0EF
:100570000403E4E7D36810BC023BD3607047D36840
:1005800010BC0233D3607047D36810BC0133D36012
:10059000704700BF48A1FF1F1F4B10B49A68136833
:1005A000506819780478507A137A044201EA0301FA
:1005B0001AD0937A03F0030309B143F0040343F024
:1005C00008039910013B91720D2B0BD8DFE803F063
:1005D0001E0719070A141E1E140A0719071ED368DE
:1005E000013BD36010BC7047937A03F003030029EA
:1005F000E7D043F00403E4E7D36810BC023BD360C8
:100600007047D36810BC0233D3607047D36810BC06
:100610000133D360704700BF48A1FF1F1F4B10B4C8
:10062000D3F884201368506819780478507A137AC4
:10063000044201EA03011AD0937A03F0030309B1DB
:1006400043F0040343F008039910013B91720D2B12
:100650000BD8DFE803F01E0719070A141E1E140A40
:100660000719071ED368013BD36010BC7047937A0B
:1006700003F003030029E7D043F00403E4E7D36861
:1006800010BC023BD3607047D36810BC0233D36008
:100690007047D36810BC0133D360704748A1FF1F77
:1006A0001F4B10B4DA681368506819780478507AD0
:1006B000137A044201EA03011AD0937A03F0030388
:1006C00009B143F0040343F008039910013B917210
:1006D0000D2B0BD8DFE803F01E0719070A141E1EA6
:1006E000140A0719071ED368013BD36010BC70477A
:1006F000937A03F003030029E7D043F00403E4E70F
:10070000D36810BC023BD3607047D36810BC02337F
:10071000D3607047D36810BC0133D360704700BF0B
:1007200048A1FF1F1F4B10B41A691368506819784D
:100730000478507A137A044201EA03011AD0937ABA
:1007400003F0030309B143F0040343F008039910D5
:10075000013B91720D2B0BD8DFE803F01E07190740
:100760000A141E1E140A0719071ED368013BD36022
:1007700010BC7047937A03F003030029E7D043F0DD
:100780000403E4E7D36810BC023BD3607047D3682E
:1007900010BC0233D3607047D36810BC0133D36000
:1007A000704700BF48A1FF1F1F4B10B45A69136860
:1007B000506819780478507A137A044201EA0301E8
:1007C0001AD0937A03F0030309B143F0040343F012
:1007D00008039910013B91720D2B0BD8DFE803F051
:1007E0001E0719070A141E1E140A0719071ED368CC
:1007F000013BD36010BC7047937A03F003030029D8
:10080000E7D043F00403E4E7D36810BC023BD360B5
:100810007047D36810BC0233D3607047D36810BCF4
:100820000133D360704700BF48A1FF1F1F4B10B4B6
:100830009A691368506819780478507A137A0442D8
:1008400001EA03011AD0937A03F0030309B143F0DC
:10085000040343F008039910013B91720D2B0BD850
:10086000DFE803F01E0719070A141E1E140A0719F1
:10087000071ED368013BD36010BC7047937A03F026
:1008800003030029E7D043F00403E4E7D36810BC76
:10089000023BD3607047D36810BC0233D36070470B
:1008A000D36810BC0133D360704700BF48A1FF1F5D
:1008B0001F4B10B4DA691368506819780478507ABD
:1008C000137A044201EA03011AD0937A03F0030376
:1008D00009B143F0040343F008039910013B9172FE
:1008E0000D2B0BD8DFE803F01E0719070A141E1E94
:1008F000140A0719071ED368013BD36010BC704768
:10090000937A03F003030029E7D043F00403E4E7FC
:10091000D36810BC023BD3607047D36810BC02336D
:10092000D3607047D36810BC0133D360704700BFF9
:1009300048A1FF1F1F4B10B41A6A1368506819783A
:100940000478507A137A044201EA03011AD0937AA8
:1009500003F0030309B143F0040343F008039910C3
:10096000013B91720D2B0BD8DFE803F01E0719072E
:100970000A141E1E140A0719071ED368013BD36010
:1009800010BC7047937A03F003030029E7D043F0CB
:100990000403E4E7D36810BC023BD3607047D3681C
:1009A00010BC0233D3607047D36810BC0133D360EE
:1009B000704700BF48A1FF1F1F4B10B45A6A13684D
:1009C000506819780478507A137A044201EA0301D6
:1009D0001AD0937A03F0030309B143F0040343F000
:1009E00008039910013B91720D2B0BD8DFE803F03F
:1009F0001E0719070A141E1E140A0719071ED368BA
:100A0000013BD36010BC7047937A03F003030029C5
:100A1000E7D043F00403E4E7D36810BC023BD360A3
:100A20007047D36810BC0233D3607047D36810BCE2
:100A30000133D360704700BF48A1FF1F1F4B10B4A4
:100A40009A6A1368506819780478507A137A0442C5
:100A500001EA03011AD0937A03F0030309B143F0CA
:100A6000040343F008039910013B91720D2B0BD83E
:100A7000DFE803F01E0719070A141E1E140A0719DF
:100A8000071ED368013BD36010BC7047937A03F014
:100A900003030029E7D043F00403E4E7D36810BC64
:100AA000023BD3607047D36810BC0233D3607047F9
:100AB000D36810BC0133D360704700BF48A1FF1F4B
:100AC0001F4B10B4DA6A1368506819780478507AAA
:100AD000137A044201EA03011AD0937A03F0030364
:100AE00009B143F0040343F008039910013B9172EC
:100AF0000D2B0BD8DFE803F01E0719070A141E1E82
:100B0000140A0719071ED368013BD36010BC704755
:100B1000937A03F003030029E7D043F00403E4E7EA
:100B2000D36810BC023BD3607047D36810BC02335B
:100B3000D3607047D36810BC0133D360704700BFE7
:100B400048A1FF1F1F4B10B41A6B13685068197827
:100B50000478507A137A044201EA03011AD0937A96
:100B600003F0030309B143F0040343F008039910B1
:100B7000013B91720D2B0BD8DFE803F01E0719071C
:100B80000A141E1E140A0719071ED368013BD360FE
:100B900010BC7047937A03F003030029E7D043F0B9
:100BA0000403E4E7D36810BC023BD3607047D3680A
:100BB00010BC0233D3607047D36810BC0133D360DC
:100BC000704700BF48A1FF1F1F4B10B45A6B13683A
:100BD000506819780478507A137A044201EA0301C4
:100BE0001AD0937A03F0030309B143F0040343F0EE
:100BF00008039910013B91720D2B0BD8DFE803F02D
:100C00001E0719070A141E1E140A0719071ED368A7
:100C1000013BD36010BC7047937A03F003030029B3
:100C2000E7D043F00403E4E7D36810BC023BD36091
:100C30007047D36810BC0233D3607047D36810BCD0
:100C40000133D360704700BF48A1FF1F1F4B10B492
:100C50009A6B1368506819780478507A137A0442B2
:100C600001EA03011AD0937A03F0030309B143F0B8
:100C7000040343F008039910013B91720D2B0BD82C
:100C8000DFE803F01E0719070A141E1E140A0719CD
:100C9000071ED368013BD36010BC7047937A03F002
:100CA00003030029E7D043F00403E4E7D36810BC52
:100CB000023BD3607047D36810BC0233D3607047E7
:100CC000D36810BC0133D360704700BF48A1FF1F39
:100CD0001F4B10B4DA6B1368506819780478507A97
:100CE000137A044201EA03011AD0937A03F0030352
:100CF00009B143F0040343F008039910013B9172DA
:100D00000D2B0BD8DFE803F01E0719070A141E1E6F
:100D1000140A0719071ED368013BD36010BC704743
:100D2000937A03F003030029E7D043F00403E4E7D8
:100D3000D36810BC023BD3607047D36810BC023349
:100D4000D3607047D36810BC0133D360704700BFD5
:100D500048A1FF1F1F4B10B41A6C13685068197814
:100D60000478507A137A044201EA03011AD0937A84
:100D700003F0030309B143F0040343F0080399109F
:100D8000013B91720D2B0BD8DFE803F01E0719070A
:100D90000A141E1E140A0719071ED368013BD360EC
:100DA00010BC7047937A03F003030029E7D043F0A7
:100DB0000403E4E7D36810BC023BD3607047D368F8
:100DC00010BC0233D3607047D36810BC0133D360CA
:100DD000704700BF48A1FF1F1F4B10B45A6C136827
:100DE000506819780478507A137A044201EA0301B2
:100DF0001AD0937A03F0030309B143F0040343F0DC
:100E000008039910013B91720D2B0BD8DFE803F01A
:100E10001E0719070A141E1E140A0719071ED36895
:100E2000013BD36010BC7047937A03F003030029A1
:100E3000E7D043F00403E4E7D36810BC023BD3607F
:100E40007047D36810BC0233D3607047D36810BCBE
:100E50000133D360704700BF48A1FF1F1F4B10B480
:100E60009A6C1368506819780478507A137A04429F
:100E700001EA03011AD0937A03F0030309B143F0A6
:100E8000040343F008039910013B91720D2B0BD81A
:100E9000DFE803F01E0719070A141E1E140A0719BB
:100EA000071ED368013BD36010BC7047937A03F0F0
:100EB00003030029E7D043F00403E4E7D36810BC40
:100EC000023BD3607047D36810BC0233D3607047D5
:100ED000D36810BC0133D360704700BF48A1FF1F27
:100EE0001F4B10B4DA6C1368506819780478507A84
:100EF000137A044201EA03011AD0937A03F0030340
:100F000009B143F0040343F008039910013B9172C7
:100F10000D2B0BD8DFE803F01E0719070A141E1E5D
:100F2000140A0719071ED368013BD36010BC704731
:100F3000937A03F003030029E7D043F00403E4E7C6
:100F4000D36810BC023BD3607047D36810BC023337
:100F5000D3607047D36810BC0133D360704700BFC3
:100F600048A1FF1F1F4B10B41A6D13685068197801
:100F70000478507A137A044201EA03011AD0937A72
:100F800003F0030309B143F0040343F0080399108D
:100F9000013B91720D2B0BD8DFE803F01E071907F8
:100FA0000A141E1E140A0719071ED368013BD360DA
:100FB00010BC7047937A03F003030029E7D043F095
:100FC0000403E4E7D36810BC023BD3607047D368E6
:100FD00010BC0233D3607047D36810BC0133D360B8
:100FE000704700BF48A1FF1F1F4B10B45A6D136814
:100FF000506819780478507A137A044201EA0301A0
:101000001AD0937A03F0030309B143F0040343F0C9
:1010100008039910013B91720D2B0BD8DFE803F008
:101020001E0719070A141E1E140A0719071ED36883
:10103000013BD36010BC7047937A03F0030300298F
:10104000E7D043F00403E4E7D36810BC023BD3606D
:101050007047D36810BC0233D3607047D36810BCAC
:101060000133D360704700BF48A1FF1F1F4B10B46E
:101070009A6D1368506819780478507A137A04428C
:1010800001EA03011AD0937A03F0030309B143F094
:10109000040343F008039910013B91720D2B0BD808
:1010A000DFE803F01E0719070A141E1E140A0719A9
:1010B000071ED368013BD36010BC7047937A03F0DE
:1010C00003030029E7D043F00403E4E7D36810BC2E
:1010D000023BD3607047D36810BC0233D3607047C3
:1010E000D36810BC0133D360704700BF48A1FF1F15
:1010F0001F4B10B4DA6D1368506819780478507A71
:10110000137A044201EA03011AD0937A03F003032D
:1011100009B143F0040343F008039910013B9172B5
:101120000D2B0BD8DFE803F01E0719070A141E1E4B
:10113000140A0719071ED368013BD36010BC70471F
:10114000937A03F003030029E7D043F00403E4E7B4
:10115000D36810BC023BD3607047D36810BC023325
:10116000D3607047D36810BC0133D360704700BFB1
:1011700048A1FF1F1F4B10B41A6E136850681978EE
:101180000478507A137A044201EA03011AD0937A60
:1011900003F0030309B143F0040343F0080399107B
:1011A000013B91720D2B0BD8DFE803F01E071907E6
:1011B0000A141E1E140A0719071ED368013BD360C8
:1011C00010BC7047937A03F003030029E7D043F083
:1011D0000403E4E7D36810BC023BD3607047D368D4
:1011E00010BC0233D3607047D36810BC0133D360A6
:1011F000704700BF48A1FF1F1F4B10B45A6E136801
:10120000506819780478507A137A044201EA03018D
:101210001AD0937A03F0030309B143F0040343F0B7
:1012200008039910013B91720D2B0BD8DFE803F0F6
:101230001E0719070A141E1E140A0719071ED36871
:10124000013BD36010BC7047937A03F0030300297D
:10125000E7D043F00403E4E7D36810BC023BD3605B
:101260007047D36810BC0233D3607047D36810BC9A
:101270000133D360704700BF48A1FF1F1F4B10B45C
:101280009A6E1368506819780478507A137A044279
:1012900001EA03011AD0937A03F0030309B143F082
:1012A000040343F008039910013B91720D2B0BD8F6
:1012B000DFE803F01E0719070A141E1E140A071997
:1012C000071ED368013BD36010BC7047937A03F0CC
:1012D00003030029E7D043F00403E4E7D36810BC1C
:1012E000023BD3607047D36810BC0233D3607047B1
:1012F000D36810BC0133D360704700BF48A1FF1F03
:101300001F4B10B4DA6E1368506819780478507A5D
:10131000137A044201EA03011AD0937A03F003031B
:1013200009B143F0040343F008039910013B9172A3
:101330000D2B0BD8DFE803F01E0719070A141E1E39
:10134000140A0719071ED368013BD36010BC70470D
:10135000937A03F003030029E7D043F00403E4E7A2
:10136000D36810BC023BD3607047D36810BC023313
:10137000D3607047D36810BC0133D360704700BF9F
:1013800048A1FF1F1F4B10B41A6F136850681978DB
:101390000478507A137A044201EA03011AD0937A4E
:1013A00003F0030309B143F0040343F00803991069
:1013B000013B91720D2B0BD8DFE803F01E071907D4
:1013C0000A141E1E140A0719071ED368013BD360B6
:1013D00010BC7047937A03F003030029E7D043F071
:1013E0000403E4E7D36810BC023BD3607047D368C2
:1013F00010BC0233D3607047D36810BC0133D36094
:10140000704700BF48A1FF1F1F4B10B45A6F1368ED
:10141000506819780478507A137A044201EA03017B
:101420001AD0937A03F0030309B143F0040343F0A5
:1014300008039910013B91720D2B0BD8DFE803F0E4
:101440001E0719070A141E1E140A0719071ED3685F
:10145000013BD36010BC7047937A03F0030300296B
:10146000E7D043F00403E4E7D36810BC023BD36049
:101470007047D36810BC0233D3607047D36810BC88
:101480000133D360704700BF48A1FF1F1F4B10B44A
:101490009A6F1368506819780478507A137A044266
:1014A00001EA03011AD0937A03F0030309B143F070
:1014B000040343F008039910013B91720D2B0BD8E4
:1014C000DFE803F01E0719070A141E1E140A071985
:1014D000071ED368013BD36010BC7047937A03F0BA
:1014E00003030029E7D043F00403E4E7D36810BC0A
:1014F000023BD3607047D36810BC0233D36070479F
:10150000D36810BC0133D360704700BF48A1FF1FF0
:101510001F4B10B4DA6F1368506819780478507A4A
:10152000137A044201EA03011AD0937A03F0030309
:1015300009B143F0040343F008039910013B917291
:101540000D2B0BD8DFE803F01E0719070A141E1E27
:10155000140A0719071ED368013BD36010BC7047FB
:10156000937A03F003030029E7D043F00403E4E790
:10157000D36810BC023BD3607047D36810BC023301
:10158000D3607047D36810BC0133D360704700BF8D
:1015900048A1FF1F1F4B10B4D3F880201368506878
:1015A00019780478507A137A044201EA03011AD0B8
:1015B000937A03F0030309B143F0040343F00803F3
:1015C0009910013B91720D2B0BD8DFE803F01E0739
:1015D00019070A141E1E140A0719071ED368013BB7
:1015E000D36010BC7047937A03F003030029E7D05F
:1015F00043F00403E4E7D36810BC023BD3607047B8
:10160000D36810BC0233D3607047D36810BC013379
:10161000D360704748A1FF1F08B50B46212800F290
:101620005881DFE810F04D0144013B0132012901EE
:10163000200117010E010501FC00F300EA00E100A2
:10164000D800CF00C600BD00B400AB00A2009900D6
:10165000900087007E0075006C0063005A00510006
:1016600048003F0036002C0022009B4A9B49C2F8EC
:1016700084302120042212F003FF012008BD964A85
:101680009749C2F880302020042212F0F9FE012090
:1016900008BD914A9349D3671F20042212F0F0FE3F
:1016A000012008BD8C4A904993671E20042212F045
:1016B000E7FE012008BD884A8C4953671D2004229B
:1016C00012F0DEFE012008BD834A894913671C2001
:1016D000042212F0D5FE012008BD7F4A8549D36659
:1016E0001B20042212F0CCFE012008BD7A4A824958
:1016F00093661A20042212F0C3FE012008BD764A28
:101700007E4953661920042212F0BAFE012008BD5A
:10171000714A7B4913661820042212F0B1FE0120A1
:1017200008BD6D4A7749D3651720042212F0A8FE40
:10173000012008BD684A744993651620042212F0FE
:101740009FFE012008BD644A70495365152004229C
:1017500012F096FE012008BD5F4A6D491365142002
:10176000042212F08DFE012008BD5B4A6949D36452
:101770001320042212F084FE012008BD564A664957
:1017800093641220042212F07BFE012008BD524A0D
:10179000624953641120042212F072FE012008BD38
:1017A0004D4A5F4913641020042212F069FE0120A3
:1017B00008BD494A5B49D3630F20042212F060FE42
:1017C000012008BD444A584993630E20042212F0B8
:1017D00057FE012008BD404A544953630D2004229E
:1017E00012F04EFE012008BD3B4A514913630C2004
:1017F000042212F045FE012008BD374A4D49D3624C
:101800000B20042212F03CFE012008BD324A4A4956
:1018100093620A20042212F033FE012008BD2E4AF2
:10182000464953620920042212F02AFE012008BD15
:10183000294A434913620820042212F021FE0120A4
:1018400008BD254A3F49D3610720042212F018FE43
:10185000012008BD204A3C4993610620042212F071
:101860000FFE012008BD1C4A38495361052004229F
:1018700012F006FE012008BD174A35491361042203
:10188000104612F0FDFD012008BD134A3149D36016
:101890000320042212F0F4FD012008BD0E4A2E4957
:1018A00093600220042212F0EBFD012008BD0A4AD9
:1018B0002A4953600120042212F0E2FD012008BDF4
:1018C000054A274913600020042212F0D9FD0120A7
:1018D00008BD002008BD00BF48A1FF1F1D06000075
:1018E00095150000111500008D140000091400006A
:1018F00085130000011300007D120000F9110000A3
:1019000075110000F11000006D100000E90F0000DB
:10191000650F0000E10E00005D0E0000D90D000013
:10192000550D0000D10C00004D0C0000C90B00004B
:10193000450B0000C10A00003D0A0000B909000083
:1019400035090000B10800002D080000A9070000BB
:1019500025070000A10600009905000015050000FC
:101960009104000038B50025044605708570C570E7
:1019700005714571C580058145818581C5810582D7
:10198000183011F049FA04F1200004F089FB84F8C2
:101990003050204638BD00BF2DE9F04FD64BD74A16
:1019A000C3F81021D64BD748D74EDFF898A3DFF8FD
:1019B0009883DFF8989395B000254FF47A711D70E5
:1019C00004F072FB4FF49671D04804F06DFB3221A5
:1019D000CF4804F069FB6421CE4804F065FB1E216A
:1019E000CD4804F061FB4FF47A71CC4804F05CFB05
:1019F0004FF4FA61CA4804F057FB41F28831C948F4
:101A000004F052FBC84B12934FF0110C01274FF01A
:101A10001E0B4FF01403DFF838E3C449C44A139592
:101A200040F2FF300D950F958DF835C08DF834B02C
:101A3000CDF838E011928DF84C308DF84E308DF89D
:101A40004D70ADF83C0010910DAC0FCC06F1040EBA
:101A5000AEE80F0094E8070086F800B08EE80700B3
:101A6000707912F03FFB8346B08917F0B9FE01464A
:101A7000306917F0BDFFB16817F006FF04465846FD
:101A800017F0AEFE0146204617F0FEFE17F052FAA0
:101A900097A3D3E90023CDE908234FF496734FF0C1
:101AA0000A0CADF828304FF00E0B41F28833069542
:101AB00007958DF818C08DF81AC00B958DF819B0E0
:101AC000ADF82A3006ACC6E90A010FCC0AF1200EA7
:101AD000AEE80F0000220023C6E9082323688AF835
:101AE00000C0CEF80030584612F0A2FD4FF47A76CE
:101AF0009AF8221096FBF1F10AF1100004F0D4FAE2
:101B00004FF00B0A4FF00F0C8DF819C08DF818A08C
:101B10000DF1180EBEE80F0008F1200EAEE80F0020
:101B20002368CEF80030604688F800A0294612F0FD
:101B30007FFD98F8221096FBF1F108F1100004F0F7
:101B4000B3FA4FF00C084FF0100C8DF819C08DF857
:101B500018800DF1180EBEE80F0009F1200EAEE856
:101B60000F002368CEF80030604689F800802946CF
:101B700012F05EFDDFF8DCB199F8221096FBF1F16E
:101B800009F1100004F090FA6A4BCBF89C3044F64F
:101B9000206012F033FE0BF1A00041F2883104F016
:101BA00083FA4FF01E0E1D204FF4FA614FF4FA72C3
:101BB00040F272638DF80AE08DF80BA0ADF80E606C
:101BC0008DF8087004958DF80900ADF80C10ADF88B
:101BD0001420ADF8163002AE0FCE574CDFF87881E6
:101BE000C4F80200A61C27701420B260F360C4F889
:101BF000061014F0FDFB94F803A094F80490064638
:101C00000221504612F014FD4846022112F010FD48
:101C100058F83A1058F83920377201F5007E02F56D
:101C200000704FF47A437772F560C6F800E0706098
:101C3000013BFDD191F8003292F800223B40D507DC
:101C400044BF43F00203DBB2B37231465046FFF7A4
:101C5000E3FC314630744846FFF7DEFC357C6179A1
:101C6000666105444FF4FA634FF47A723574334871
:101C7000334D11F0F5F840F2DC51304811F04EF9D7
:101C800003271B211C220C238DF808708DF80910E6
:101C90008DF80A208DF80B3002AE0FCEAE1CC5F8C1
:101CA00002002F701420B260F360C5F8061014F023
:101CB0009FFB95F803902F7906460221484612F0C3
:101CC000B7FC3846022112F0B3FC58F8391058F826
:101CD000372001F5007302F5007033607060002357
:101CE0000120F36030724FF47A43707236E000BF27
:101CF00000000040E17A743F189DFF1FA48DFF1F74
:101D0000849CFF1FCC9CFF1F689EFF1F4098FF1FF5
:101D1000D89BFF1F3C9CFF1F2098FF1F3098FF1F80
:101D2000889CFF1FC89BFF1F00005841333353405E
:101D300066668641948DFF1FE89BFF1F009CFF1F76
:101D40009898FF1F309EFF1F5098FF1FE09CFF1FB9
:101D5000CDCCB041149BFF1FA04C0200013BFDD134
:101D600091F8003292F800220340D00744BF43F0BC
:101D70000203DBB248463146B372FFF74DFC3074C4
:101D8000212F02F29983DFE817F035112B11201172
:101D900015110A11FF10B010A5109A108F108410A1
:101DA00079106E10631058104D10421037102C101F
:101DB000211016100B100010F50FEA0FDF0FD40FD3
:101DC000C90FBE0FB30FA80F9D0F910F22009C4BA0
:101DD0009C49C3F884602120042212F051FB307C1E
:101DE000012707444FF4FA634FF47A726979377424
:101DF00095486E6111F034F840F2DC519248934EF0
:101E000011F08CF84FF002094FF0000B1722162347
:101E10008DF808908DF809208DF80A308DF80BB0F8
:101E200002AF0FCF06EB0907C6F8020086F8009054
:101E30001420FB607960BA6014F0DAFAF27896F850
:101E400004A0019207464946104612F0F1FB4946AC
:101E5000504612F0EDFB019A58F83A1058F832004B
:101E6000C7F80CB000F500734FF0010E01F5007CCF
:101E70003B60C7F804C04FF47A4387F808E087F85E
:101E800009E0013BFDD190F8003291F8001203EA1D
:101E90000E03C90744BF43EA0903DBB2BB72104615
:101EA0003946FFF7B9FB394638745046FFF7B4FBA3
:101EB00097F810E071797761864487F810E04FF465
:101EC000FA634FF47A726248624F10F0C9FF40F231
:101ED000DC515F4811F022F815234FF0040C8DF807
:101EE00009304FF014094FF001038DF808C08DF848
:101EF0000A908DF80B300DF1080EBEE80F0007F1C7
:101F0000020E87F800C0C7F802004846CEF8041059
:101F1000CEF80820CEF80C3014F06AFA97F803A037
:101F200097F804B081460221504612F081FB5846D2
:101F3000022112F07DFB58F83A0058F83B104FF0A0
:101F4000010389F808304FF0010200F5007389F8A9
:101F50000920C9F8003001F500720023C9F80420F7
:101F6000C9F80C304FF47A42013AFDD190F80022C2
:101F700091F8001202F00102C80744BF42F00202C9
:101F8000D2B289F80A20BAF1210F02F2A082DFE86A
:101F90001AF0810E770E6B0E5F0E530E470E3B0E3E
:101FA000EB0DDF0DD30DC70DBB0DAF0DA30D970DC1
:101FB0008B0D7F0D730D670D5B0D4F0D430D370DB1
:101FC0002B0D1F0D130D070DFB0CEF0CE30CD70CA5
:101FD000CB0CBF0C22001A4A1A49C2F88490212067
:101FE000042212F04DFA4FF0010A89F810A0BBF15B
:101FF000210F02F26882DFE81BF07D0C710C630C8C
:10200000550C470C390C2B0C1D0C0F0CBE0BB00BD8
:10201000A20B940B860B780B6A0B5C0B4E0B400BE0
:10202000320B240B160B080BFA0AEC0ADE0AD00A54
:10203000C20AB40AA60A980A8A0A7C0A2F0000BFBC
:1020400048A1FF1F1D060000B098FF1F509CFF1FF6
:10205000689CFF1F989CFF1F7E4B7F49C3F88490AC
:102060000422212012F00CFA99F810A04FF0010B75
:102070007A487B4940F8049CDA444FF47A724FF472
:10208000FA6389F810A0A0F118074979DFF8E4B1E4
:1020900010F0E6FE40F2DC5107F1180010F03EFFB0
:1020A0004FF014094FF47A7012F0EAFA8BF80090AE
:1020B0006C486D4F04F08EF84FF4247014F098F9CA
:1020C0006A49824606F0FEFD5046CBF808A00AF0A9
:1020D000BDFA0368CBF804001B699847DBF80430AD
:1020E000634AD3F88430CBF80C004FF0010A1A672A
:1020F00083F8A1A083F8A2A083F8A3A04FF47A707C
:102100008BF810A012F0BCFA1D211E220B238DF8B3
:1021100008A08DF809108DF80A208DF80B300DF10C
:10212000080EBEE80F0084F800A0C4F8020048467C
:102130007960BA60FB6014F05BF9E378227901936F
:10214000814617461846022112F072FA38460221DB
:1021500012F06EFA019B58F8372058F8331089F8BE
:1021600008A001F5007E02F500704FF0000CC9F8E0
:1021700000E089F809A04FF47A4EC9F80400C9F8C4
:102180000CC0BEF1010EFCD191F8001292F80002D1
:1021900001EA0A02C10744BF42F00202D2B289F842
:1021A0000A20212B02F2A381DFE813F098098C09A1
:1021B000810976096B09600955094A09FA08EF088F
:1021C000E408D908CE08C308B808AD08A2089708E3
:1021D0008C08810876086B08600855084A083F0893
:1021E000340829081E0813080808FD07F207220012
:1021F000184B1949C3F884900422212012F040F9A9
:10220000012389F81030212F02F26D81DFE817F0E9
:10221000B207A60798078A077C076E076007520770
:10222000440736072807D606C806BA06AC069E0637
:10223000900682067406660658064A063C062E0676
:10224000200612060406F605E805DA05CC05BE05EB
:10225000B005340048A1FF1F1D060000B09CFF1F01
:10226000989CFF1F0088FF1FEA9BFF1F9C1602001F
:102270000AD7A33CCC9AFF1FA54BA649C3F884906C
:102280000422212012F0FCF801231F4699F8103097
:102290006179C4F814903A461A4410464FF4FA6330
:1022A0004FF47A7289F810009B489C4F10F0D8FDCB
:1022B00040F2DC51984810F031FE4FF0030C1B2126
:1022C0001C220C238DF808C08DF809108DF80A2007
:1022D0008DF80B300DF1080EBEE80F0085F800C038
:1022E000C5F802001420BA607960FB6014F080F831
:1022F0002B7995F803A081461F465046022112F023
:1023000097F93846022112F093F958F83A0058F834
:10231000371000F5007E01F500720023C9F800E0D7
:102320004FF0010EC9F80420C9F80C304FF47A427E
:1023300089F808E089F809E0013AFDD190F8002217
:1023400091F8001202EA0E02CB0744BF42F00202EB
:10235000D2B289F80A20BAF1210F02F2C080DFE878
:102360001AF0FB04F104E504D904CD04C104B5045A
:10237000A9049D0491048504350429041E04130452
:102380000804FD03F203E703DC03D103C603BB0328
:10239000B003A5039A038F03840379036E036303D9
:1023A00058034D0322005A4A5A49C2F8849021200A
:1023B000042212F065F84FF0010A89F810A0212FCD
:1023C00002F28980DFE817F00D030203F502E8024C
:1023D000DB02CE02C102B402A7029A028D02800281
:1023E00040023302260219020C02FF01F20197019A
:1023F0008A017D0170016301560149013C01CB0155
:10240000BE01B101A401E501D8012200404B4149C0
:10241000C3F884900422212012F032F8012399F8A5
:1024200010A01F463B4653449A464FF47A724FF42D
:10243000FA63697989F810A03948C5F8149010F04A
:102440000FFD40F2DC51364810F068FD35486369F5
:1024500072B60022DA6062B6218A23898B4203D8E1
:10246000C3888B4281F0D2872F48E189A0F12008F0
:1024700003F01AFE08E072B6D16862B681EAE17331
:10248000A3EBE173032B5BDC274803F02BFE002852
:1024900059D1D8F81420137C012BECD872B61368EC
:1024A0005068197890F800E0507A137A1EEA000F0D
:1024B00001EA030101F06987937A03F0030309B18C
:1024C00043F0040343F008039910013B91720D2B74
:1024D000D2D801A151F823F039260000312600009E
:1024E0002926000031260000792400002D25000057
:1024F00039260000392600002D250000792400002F
:10250000312600002926000031260000392600006F
:1025100048A1FF1F1D060000009CFF1F9A98FF1F87
:10252000B098FF1FE89BFF1F089CFF1FD368991EF0
:10253000D16062B681EAE173A3EBE173032BA3DD03
:10254000012384F83030218A2389C64A8B4203D87C
:10255000D3888B4281F04E87626972B60023D360C4
:1025600062B6C148726972B6D36062B6318A338985
:102570008B4203D8C3888B4281F05F87BB48F189C7
:10258000A0F1200803F090FD09E072B6D16862B6B0
:1025900081EAE173A3EBE173032B01F34185B348B7
:1025A00003F0A0FD002841F03E85D8F81420137CEC
:1025B000012BEAD872B613685068197890F800E0D9
:1025C000507A137A1EEA000F01EA030101F0E78650
:1025D000937A03F00303002941F0718743F0080365
:1025E0009910013B91720D2BD0D801A151F823F025
:1025F000194100000F410000054100000F4100009B
:102600008D2500000B400000194100001941000019
:102610000B4000008D2500000F4100000541000027
:102620000F41000019410000D368991CD16024E7D4
:10263000D368591ED16020E7D368591CD1601CE7CC
:102640008B4B8C49C3F8689004221A2011F018FFB4
:1026500001231F4699F810A0E4E6854B8649C3F88C
:1026600064900422192011F00BFF01231F4699F8F2
:1026700010A0D7E67E4B8149C3F860900422182051
:1026800011F0FEFE01231F4699F810A0CAE6784B10
:102690007B49C3F85C900422172011F0F1FE01235E
:1026A0001F4699F810A0BDE6714B7649C3F85890C3
:1026B0000422162011F0E4FE01231F4699F810A011
:1026C000B0E66B4B7049C3F854900422152011F00A
:1026D000D7FE01231F4699F810A0A3E6644B6B496F
:1026E000C3F850900422142011F0CAFE01231F46A3
:1026F00099F810A096E65E4B6549C3F84C90042209
:10270000132011F0BDFE01231F4699F810A089E6A1
:10271000574B6049C3F8789004221E2011F0B0FE98
:1027200001231F4699F810A07CE6514B5A49C3F883
:10273000749004221D2011F0A3FE01231F4699F876
:1027400010A06FE64A4B5549C3F8709004221C2034
:1027500011F096FE01231F4699F810A062E6444B43
:102760004F49C3F86C9004221B2011F089FE01230D
:102770001F4699F810A055E63D4B4A49C3F8809092
:102780000422202011F07CFE01231F4699F810A09E
:1027900048E6374B4449C3F87C9004221F2011F0CF
:1027A0006FFE01231F4699F810A03BE6304B3F49CE
:1027B000C3F848900422122011F062FE01231F4644
:1027C00099F810A02EE62A4B3949C3F84490042208
:1027D000112011F055FE01231F4699F810A021E6A3
:1027E000234B3449C3F840900422102011F048FED6
:1027F00001231F4699F810A014E61D4B2E49C3F87B
:102800003C9004220F2011F03BFE01231F4699F853
:1028100010A007E6164B2949C3F8389004220E2071
:1028200011F02EFE01231F4699F810A0FAE5104B77
:102830002349C3F8349004220D2011F021FE012316
:102840001F4699F810A0EDE5094B1E49C3F83090DA
:1028500004220C2011F014FE01231F4699F810A049
:10286000E0E500BFE89BFF1F509CFF1F709CFF1F0F
:1028700048A1FF1F7D120000F91100007511000032
:10288000F11000006D100000E90F0000650F00005E
:10289000E10E00008D1400000914000085130000F3
:1028A0000113000095150000111500005D0E0000D9
:1028B000D90D0000550D0000D10C00004D0C00009A
:1028C000C90B0000450B0000C64BC749C3F82C904C
:1028D00004220B2011F0D4FD01231F4699F810A00B
:1028E000A0E5C04BC149C3F8289004220A2011F08A
:1028F000C7FD01231F4699F810A093E5B94BBC49C9
:10290000C3F824900422092011F0BAFD01231F46C8
:1029100099F810A086E5B34BB649C3F8209004227D
:10292000082011F0ADFD01231F4699F810A079E5AC
:10293000AC4BB149C3F81C900422072011F0A0FD54
:1029400001231F4699F810A06CE5A64BAB49C3F8CC
:1029500018900422062011F093FD01231F4699F8D8
:1029600010A05FE59F4BA649C3F8149004220520F0
:1029700011F086FD01231F4699F810A052E5994BEE
:10298000A049C3F810900422104611F079FD0123EC
:102990001F4699F810A045E5924B9B49C3F80C904F
:1029A0000422032011F06CFD01231F4699F810A0AA
:1029B00038E58C4B9549C3F808900422022011F0A9
:1029C0005FFD01231F4699F810A02BE5854A904929
:1029D000C2F804900120042211F052FD99F810A0D1
:1029E00020E5804B8B49C3F800900422002011F0B1
:1029F00047FD01231F4699F810A013E5794A86493F
:102A0000C2F880902020042211F03AFD4FF0010A14
:102A1000D3E4744A8149C2F87C901F20042211F04B
:102A20002FFD4FF0010AC8E46E4A7D49C2F8789044
:102A30001E20042211F024FD4FF0010ABDE4694A72
:102A40007849C2F874901D20042211F019FD4FF04E
:102A5000010AB2E4634A7449C2F870901C2004224F
:102A600011F00EFD4FF0010AA7E45E4A6F49C2F86B
:102A70006C901B20042211F003FD4FF0010A9CE42E
:102A8000584A6B49C2F868901A20042211F0F8FCE9
:102A90004FF0010A91E4534A6649C2F86490192044
:102AA000042211F0EDFC4FF0010A86E44D4A624920
:102AB000C2F860901820042211F0E2FC4FF0010AE5
:102AC0007BE4484A5D49C2F85C901720042211F06B
:102AD000D7FC4FF0010A70E4424A5949C2F85890B5
:102AE0001620042211F0CCFC4FF0010A65E43D4AA7
:102AF0005449C2F854901520042211F0C1FC4FF043
:102B0000010A5AE4374A5049C2F85090142004226E
:102B100011F0B6FC4FF0010A4FE4324A4B49C2F8BB
:102B20004C901320042211F0ABFC4FF0010A44E456
:102B30002C4A4749C2F848901220042211F0A0FC08
:102B40004FF0010A39E4274A4249C2F84490112063
:102B5000042211F095FC4FF0010A2EE4214A3E496F
:102B6000C2F840901020042211F08AFC4FF0010AB4
:102B700023E41C4A3949C2F83C900F20042211F08A
:102B80007FFC4FF0010A18E4164A3549C2F8389024
:102B90000E20042211F074FC4FF0010A0DE4114ADA
:102BA0003049C2F834900D20042211F069FC4FF036
:102BB000010A02E40B4A2C49C2F830900C2004228E
:102BC00011F05EFC4FF0010AFFF7F7BB054A06491A
:102BD000C2F82C900B20042211F052FC4FF0010A95
:102BE000FFF7EBBB48A1FF1FC10A00003D0A000030
:102BF000B909000035090000B10800002D080000E7
:102C0000A907000025070000A106000099050000A3
:102C10001505000091040000951500001115000035
:102C20008D1400000914000085130000011300003A
:102C30007D120000F911000075110000F110000074
:102C40006D100000E90F0000650F0000E10E0000AC
:102C50005D0E0000D90D0000550D0000D10C0000E4
:102C60004D0C0000C90B0000450B0000DA4ADB499F
:102C7000C2F828900A20042211F002FC4FF0010A49
:102C8000FFF79BBBD44AD649C2F8249009200422FE
:102C900011F0F6FB4FF0010AFFF78FBBCE4AD14986
:102CA000C2F820900820042211F0EAFB4FF0010A3C
:102CB000FFF783BBC84ACC49C2F81C900720042206
:102CC00011F0DEFB4FF0010AFFF777BBC24AC7499C
:102CD000C2F818900620042211F0D2FB4FF0010A2E
:102CE000FFF76BBBBC4AC249C2F81490052004220E
:102CF00011F0C6FB4FF0010AFFF75FBBB64ABD49B2
:102D0000C2F810900422104611F0BAFB4FF0010AED
:102D1000FFF753BBB04AB849C2F80C900320042215
:102D200011F0AEFB4FF0010AFFF747BBAA4AB349C7
:102D3000C2F808900220042211F0A2FB4FF0010A11
:102D4000FFF73BBBA44AAE49C2F80490012004221D
:102D500011F096FBFFF731BB9F4AAA49C2F80090D9
:102D60000020042211F08CFB4FF0010AFFF725BB75
:102D7000994BA549C3F880900422202011F080FBD4
:102D800001231F4699F81030FFF782BA924B9F49F2
:102D9000C3F87C9004221F2011F072FB01231F4610
:102DA00099F81030FFF774BA8B4B9949C3F87890B3
:102DB00004221E2011F064FB01231F4699F81030F5
:102DC000FFF766BA844B9349C3F8749004221D2020
:102DD00011F056FB01231F4699F81030FFF758BA3F
:102DE0007D4B8D49C3F8709004221C2011F048FBE4
:102DF00001231F4699F81030FFF74ABA764B8749EE
:102E0000C3F86C9004221B2011F03AFB01231F46EB
:102E100099F81030FFF73CBA6F4B8149C3F86890BE
:102E200004221A2011F02CFB01231F4699F81030C0
:102E3000FFF72EBA684B7B49C3F86490042219202F
:102E400011F01EFB01231F4699F81030FFF720BA3E
:102E5000614B7549C3F860900422182011F010FBF3
:102E600001231F4699F81030FFF712BA5A4B6F49E9
:102E7000C3F85C900422172011F002FB01231F46C7
:102E800099F81030FFF704BA534B6949C3F85890CA
:102E90000422162011F0F4FA01231F4699F810308D
:102EA000FFF7F6B94C4B6349C3F854900422152040
:102EB00011F0E6FA01231F4699F81030FFF7E8B940
:102EC000454B5D49C3F850900422142011F0D8FA04
:102ED00001231F4699F81030FFF7DAB93E4B5749E6
:102EE000C3F84C900422132011F0CAFA01231F46A4
:102EF00099F81030FFF7CCB9374B5149C3F84890D7
:102F00000422122011F0BCFA01231F4699F8103058
:102F1000FFF7BEB9304B4B49C3F84490042211204F
:102F200011F0AEFA01231F4699F81030FFF7B0B93F
:102F3000294B4549C3F840900422102011F0A0FA13
:102F400001231F4699F81030FFF7A2B9224B3F49E1
:102F5000C3F83C9004220F2011F092FA01231F467F
:102F600099F81030FFF794B91B4B3949C3F83890E2
:102F700004220E2011F084FA01231F4699F8103024
:102F8000FFF786B9144B3349C3F8349004220D205F
:102F900011F076FA01231F4699F81030FFF778B93F
:102FA0000D4B2D49C3F8309004220C2011F068FA23
:102FB00001231F4699F81030FFF76AB9064B2749DD
:102FC000C3F82C9004220B2011F05AFA01231F465B
:102FD00099F81030FFF75CB948A1FF1F3D0A0000C7
:102FE000B909000035090000B10800002D080000F3
:102FF000A907000025070000A106000099050000B0
:103000001505000091040000951500001115000041
:103010008D14000009140000851300000113000046
:103020007D120000F911000075110000F110000080
:103030006D100000E90F0000650F0000E10E0000B8
:103040005D0E0000D90D0000550D0000D10C0000F0
:103050004D0C0000C90B0000450B0000C10A000028
:10306000D54BD649C3F8289004220A2011F008FA5B
:1030700001231F4699F81030FFF70AB9CE4BD0490B
:10308000C3F824900422092011F0FAF901231F4605
:1030900099F81030FFF7FCB8C74BCA49C3F8209025
:1030A0000422082011F0ECF901231F4699F8103092
:1030B000FFF7EEB8C04BC449C3F81C9004220720A8
:1030C00011F0DEF901231F4699F81030FFF7E0B840
:1030D000B94BBE49C3F818900422062011F0D0F96C
:1030E00001231F4699F81030FFF7D2B8B24BB84908
:1030F000C3F814900422052011F0C2F901231F46E1
:1031000099F81030FFF7C4B8AB4BB249C3F8109030
:103110000422104611F0B4F901231F4699F810302B
:10312000FFF7B6B8A44BAC49C3F80C9004220320B7
:1031300011F0A6F901231F4699F81030FFF7A8B83F
:103140009D4BA649C3F808900422022011F098F97B
:1031500001231F4699F81030FFF79AB8964BA04903
:10316000C3F804900422012011F08AF999F8103074
:10317000FFF78EB8904B9B49C3F8009004220020C3
:1031800011F07EF901231F4699F81030FFF780B83F
:10319000894B9549C3F880900422202011F070F9E2
:1031A0000123FFF72EB8844B9049C3F87C9004228A
:1031B0001F2011F065F90123FFF723B87E4B8C49DE
:1031C000C3F8789004221E2011F05AF90123FFF76A
:1031D00018B8794B8749C3F8749004221D2011F068
:1031E0004FF90123FFF70DB8734B8349C3F8709073
:1031F00004221C2011F044F90123FFF702B86E4BA2
:103200007E49C3F86C9004221B2011F039F9012388
:10321000FEF7F7BF684B7A49C3F8689004221A207A
:1032200011F02EF90123FEF7ECBF634B7549C3F88B
:1032300064900422192011F023F90123FEF7E1BF65
:103240005D4B7149C3F860900422182011F018F901
:103250000123FEF7D6BF584B6C49C3F85C9004229B
:10326000172011F00DF90123FEF7CBBF524B68492F
:10327000C3F858900422162011F002F90123FEF73A
:10328000C0BF4D4B6349C3F854900422152011F080
:10329000F7F80123FEF7B5BF474B5F49C3F85090DD
:1032A0000422142011F0ECF80123FEF7AABF424BD0
:1032B0005A49C3F84C900422132011F0E1F801237D
:1032C000FEF79FBF3C4B5649C3F84890042212209A
:1032D00011F0D6F80123FEF794BF374B5149C3F8DC
:1032E00044900422112011F0CBF80123FEF789BF8E
:1032F000314B4D49C3F840900422102011F0C0F822
:103300000123FEF77EBF2C4B4849C3F83C900422B2
:103310000F2011F0B5F80123FEF773BF264B444987
:10332000C3F8389004220E2011F0AAF80123FEF70A
:1033300068BF214B3F49C3F8349004220D2011F09F
:103340009FF80123FEF75DBF1B4B3B49C3F830904C
:1033500004220C2011F094F80123FEF752BF164B03
:103360003649C3F82C9004220B2011F089F8012370
:10337000FEF747BF104B1149C3F8289004220A20DA
:1033800011F07EF80123FEF73CBF0B4B0C49C3F84C
:1033900024900422092011F073F80123FEF731BFB5
:1033A000054B0849C3F820900422082011F068F862
:1033B0000123FEF726BF00BF48A1FF1F3D0A000002
:1033C000B909000035090000B10800002D0800000F
:1033D000A907000025070000A106000099050000CC
:1033E000150500009104000095150000111500005E
:1033F0008D14000009140000851300000113000063
:103400007D120000F911000075110000F11000009C
:103410006D100000E90F0000650F0000E10E0000D4
:103420005D0E0000D90D0000550D0000D10C00000C
:103430004D0C0000C90B0000450B0000C10A000044
:10344000D44BD549C3F81C900422072011F018F87A
:103450000123FEF7D6BECF4BD049C3F81890042203
:10346000062011F00DF80123FEF7CBBEC94BCC4965
:10347000C3F814900422052011F002F80123FEF78E
:10348000C0BEC44BC749C3F810900422104610F0C8
:10349000F7FF0123FEF7B5BEBE4BC349C3F80C903E
:1034A0000422032010F0ECFF0123FEF7AABEB94B63
:1034B000BE49C3F808900422022010F0E1FF012366
:1034C000FEF79FBEB34ABA49C2F804900120042215
:1034D000019310F0D5FF019BFEF793BEAD4BB549AC
:1034E000C3F800900422002010F0CAFF0123FEF769
:1034F00088BEA84BB049C3F880900422202010F069
:10350000BFFF4FF0010B99F810A0FEF7B1BDA14B22
:10351000AA49C3F87C9004221F2010F0B1FF4FF09D
:10352000010B99F810A0FEF7A3BD9A4BA449C3F86C
:10353000789004221E2010F0A3FF4FF0010B99F8A1
:1035400010A0FEF795BD934B9E49C3F874900422DA
:103550001D2010F095FF4FF0010B99F810A0FEF719
:1035600087BD8C4B9849C3F8709004221C2010F042
:1035700087FF4FF0010B99F810A0FEF779BD854B3E
:103580009249C3F86C9004221B2010F079FF4FF091
:10359000010B99F810A0FEF76BBD7E4B8C49C3F868
:1035A000689004221A2010F06BFF4FF0010B99F87D
:1035B00010A0FEF75DBD774B8649C3F864900422E6
:1035C000192010F05DFF4FF0010B99F810A0FEF7E5
:1035D0004FBD704B8049C3F860900422182010F052
:1035E0004FFF4FF0010B99F810A0FEF741BD694B5A
:1035F0007A49C3F85C900422172010F041FF4FF085
:10360000010B99F810A0FEF733BD624B7449C3F863
:1036100058900422162010F033FF4FF0010B99F858
:1036200010A0FEF725BD5B4B6E49C3F854900422F1
:10363000152010F025FF4FF0010B99F810A0FEF7B0
:1036400017BD544B6849C3F850900422142010F061
:1036500017FF4FF0010B99F810A0FEF709BD4D4B75
:103660006249C3F84C900422132010F009FF4FF078
:10367000010B99F810A0FEF7FBBC464B5C49C3F860
:1036800048900422122010F0FBFE4FF0010B99F835
:1036900010A0FEF7EDBC3F4B5649C3F844900422FE
:1036A000112010F0EDFE4FF0010B99F810A0FEF77D
:1036B000DFBC384B5049C3F840900422102010F072
:1036C000DFFE4FF0010B99F810A0FEF7D1BC314B93
:1036D0004A49C3F83C9004220F2010F0D1FE4FF06D
:1036E000010B99F810A0FEF7C3BC2A4B4449C3F85C
:1036F000389004220E2010F0C3FE4FF0010B99F811
:1037000010A0FEF7B5BC234B3E49C3F83490042209
:103710000D2010F0B5FE4FF0010B99F810A0FEF748
:10372000A7BC1C4B3849C3F8309004220C2010F081
:10373000A7FE4FF0010B99F810A0FEF799BC154BAE
:103740003249C3F82C9004220B2010F099FE4FF060
:10375000010B99F810A0FEF78BBC0E4B2C49C3F857
:10376000289004220A2010F08BFE4FF0010B99F8EC
:1037700010A0FEF77DBC074B2649C3F82490042215
:10378000092010F07DFE4FF0010B99F810A0FEF714
:103790006FBC00BF48A1FF1FB10800002D0800004A
:1037A000A907000025070000A106000099050000F8
:1037B000150500009104000095150000111500008A
:1037C0008D1400000914000085130000011300008F
:1037D0007D120000F911000075110000F1100000C9
:1037E0006D100000E90F0000650F0000E10E000001
:1037F0005D0E0000D90D0000550D0000D10C000039
:103800004D0C0000C90B0000450B0000C10A000070
:103810003D0A0000B9090000D94BDA49C3F82090ED
:103820000422082010F02CFE4FF0010B99F810A094
:10383000FEF71EBCD24BD449C3F81C9004220720CB
:1038400010F01EFE4FF0010B99F810A0FEF710BC0F
:10385000CB4BCE49C3F818900422062010F010FE7E
:103860004FF0010B99F810A0FEF702BCC44BC849F9
:10387000C3F814900422052010F002FE4FF0010B53
:1038800099F810A0FEF7F4BBBD4BC249C3F81090E5
:103890000422104610F0F4FD4FF0010B99F810A02F
:1038A000FEF7E6BBB64BBC49C3F80C9004220320DC
:1038B00010F0E6FD4FF0010B99F810A0FEF7D8BB11
:1038C000AF4BB649C3F808900422022010F0D8FD8F
:1038D0004FF0010B99F810A0FEF7CABBA84AB049F7
:1038E000C2F804900120042210F0CAFD99F810A03B
:1038F000FEF7BEBBA24BAB49C3F8009004220020E8
:1039000010F0BEFD4FF0010B99F810A0FEF7B0BB10
:103910009B4AA549C2F880902020042210F0B0FDF7
:103920004FF0010AFEF761BB954AA049C2F87C90AE
:103930001F20042210F0A4FD4FF0010AFEF755BB32
:103940008F4A9B49C2F878901E20042210F098FDFF
:103950004FF0010AFEF749BB894A9649C2F87490B4
:103960001D20042210F08CFD4FF0010AFEF73DBB34
:10397000834A9149C2F870901C20042210F080FD07
:103980004FF0010AFEF731BB7D4A8C49C2F86C90BA
:103990001B20042210F074FD4FF0010AFEF725BB36
:1039A000774A8749C2F868901A20042210F068FD0F
:1039B0004FF0010AFEF719BB714A8249C2F86490C0
:1039C0001920042210F05CFD4FF0010AFEF70DBB38
:1039D0006B4A7D49C2F860901820042210F050FD17
:1039E0004FF0010AFEF701BB654A7849C2F85C90C6
:1039F0001720042210F044FD4FF0010AFEF7F5BA3B
:103A00005F4A7349C2F858901620042210F038FD1E
:103A10004FF0010AFEF7E9BA594A6E49C2F85490CC
:103A20001520042210F02CFD4FF0010AFEF7DDBA3C
:103A3000534A6949C2F850901420042210F020FD26
:103A40004FF0010AFEF7D1BA4D4A6449C2F84C90D2
:103A50001320042210F014FD4FF0010AFEF7C5BA3E
:103A6000474A5F49C2F848901220042210F008FD2E
:103A70004FF0010AFEF7B9BA414A5A49C2F84490D8
:103A80001120042210F0FCFC4FF0010AFEF7ADBA41
:103A90003B4A5549C2F840901020042210F0F0FC37
:103AA0004FF0010AFEF7A1BA354A5049C2F83C90DE
:103AB0000F20042210F0E4FC4FF0010AFEF795BA43
:103AC0002F4A4B49C2F838900E20042210F0D8FC3F
:103AD0004FF0010AFEF789BA294A4649C2F83490E4
:103AE0000D20042210F0CCFC4FF0010AFEF77DBA45
:103AF000234A4149C2F830900C20042210F0C0FC47
:103B00004FF0010AFEF771BA1D4A3C49C2F82C90E9
:103B10000B20042210F0B4FC4FF0010AFEF765BA46
:103B2000174A3749C2F828900A20042210F0A8FC4E
:103B30004FF0010AFEF759BA114A3249C2F82490EF
:103B40000920042210F09CFC4FF0010AFEF74DBA48
:103B50000B4A0C49C2F820900820042210F090FC77
:103B60004FF0010AFEF741BA054A0749C2F81C9016
:103B70000720042210F084FC4FF0010AFEF735BA4A
:103B800048A1FF1F35090000B10800002D08000002
:103B9000A907000025070000A10600009905000004
:103BA0001505000091040000951500001115000096
:103BB0008D1400000914000085130000011300009B
:103BC0007D120000F911000075110000F1100000D5
:103BD0006D100000E90F0000650F0000E10E00000D
:103BE0005D0E0000D90D0000550D0000D10C000045
:103BF0004D0C0000C90B0000450B0000C10A00007D
:103C00003D0A0000B9090000BD4ABE49C2F818903B
:103C10000620042210F034FC4FF0010AFEF7E5B94B
:103C2000B74AB949C2F814900520042210F028FCC4
:103C30004FF0010AFEF7D9B9B14AB449C2F8109061
:103C40000422104610F01CFC4FF0010AFEF7CDB91B
:103C5000AB4AAF49C2F80C900320042210F010FCCC
:103C60004FF0010AFEF7C1B9A54AAA49C2F8089067
:103C70000220042210F004FC4FF0010AFEF7B5B94F
:103C80009F4AA549C2F804900120042210F0F8FBD5
:103C9000FEF7ABB99A4AA149C2F80090002004226D
:103CA00010F0EEFB4FF0010AFEF79FB9944B9C49D0
:103CB000C3F880602020042210F0E2FB0127307C52
:103CC000FEF78FB88E4B9749DE671F20042210F055
:103CD000D7FB0127307CFEF784B8894B92499E6759
:103CE0001E20042210F0CCFB0127307CFEF779B8AF
:103CF000834B8E495E671D20042210F0C1FB012713
:103D0000307CFEF76EB87E4B89491E671C2004226A
:103D100010F0B6FB0127307CFEF763B8784B85497D
:103D2000DE661B20042210F0ABFB0127307CFEF77F
:103D300058B8734B80499E661A20042210F0A0FBED
:103D40000127307CFEF74DB86D4B7C495E6619202B
:103D5000042210F095FB0127307CFEF742B8684B37
:103D600077491E661820042210F08AFB0127307C58
:103D7000FEF737B8624B7349DE651720042210F056
:103D80007FFB0127307CFEF72CB85D4B6E499E65AA
:103D90001620042210F074FB0127307CFEF721B8B6
:103DA000574B6A495E651520042210F069FB012714
:103DB000307CFEF716B8524B65491E65142004226C
:103DC00010F05EFB0127307CFEF70BB84C4B6149CD
:103DD000DE641320042210F053FB0127307CFEF731
:103DE00000B8474B5C499E641220042210F048FB47
:103DF0000127307CFDF7F5BF414B58495E64112027
:103E0000042210F03DFB0127307CFDF7EABF3C4B5C
:103E100053491E641020042210F032FB0127307C2D
:103E2000FDF7DFBF364B4F49DE630F20042210F051
:103E300027FB0127307CFDF7D4BF314B4A499E63F5
:103E40000E20042210F01CFB0127307CFDF7C9BFB7
:103E50002B4B46495E630D20042210F011FB012715
:103E6000307CFDF7BEBF264B41491E630C20042267
:103E700010F006FB0127307CFDF7B3BF204B3D4916
:103E8000DE620B20042210F0FBFA0127307CFDF7E4
:103E9000A8BF1B4B38499E620A20042210F0F0FA9A
:103EA0000127307CFDF79DBF154B34495E62092028
:103EB000042210F0E5FA0127307CFDF792BF104B89
:103EC0002F491E620820042210F0DAFA0127307C04
:103ED000FDF787BF0A4B2B49DE610720042210F053
:103EE000CFFA0127307CFDF77CBF054B05499E6169
:103EF0000620042210F0C4FA0127307CFDF771BFC0
:103F000048A1FF1F2D080000A90700002507000099
:103F1000A1060000990500001505000091040000AD
:103F200095150000111500008D1400000914000003
:103F300085130000011300007D120000F91100003C
:103F400075110000F11000006D100000E90F000075
:103F5000650F0000E10E00005D0E0000D90D0000AD
:103F6000550D0000D10C00004D0C0000C90B0000E5
:103F7000450B0000C10A00003D0A0000B90900001D
:103F800035090000B1080000AA4BAB495E6105206D
:103F9000042210F075FA0127307CFDF722BFA54BF3
:103FA000A6491E610422104610F06AFA0127307CEF
:103FB000FDF717BF9F4BA249DE600320042210F0DB
:103FC0005FFA0127307CFDF70CBF9A4B9D499E603C
:103FD0000220042210F054FA0127307CFDF701BFC3
:103FE000944B99495E600120042210F049FA307C1C
:103FF000FDF7F7BE8F4B95491E600020042210F09C
:104000003FFA0127307CFDF7ECBED368991ED160E2
:1040100062B681EAE173A3EBE173032B7EF7BFAADB
:10402000012386F83030318A3389894A8B4203D89C
:10403000D3888B4280F0BD81726972B60023D36051
:1040400062B684486A6972B6D36062B6298A2B89DF
:104050008B4203D8C3888B4280F0FB817E48E9897C
:10406000A0F1200802F020F808E072B6D16862B62C
:1040700081EAE173A3EBE173032B5CDC764802F089
:1040800031F800285AD1D8F81420137C012BECD831
:1040900072B613685068197890F800E0507A137A75
:1040A0001EEA000F01EA030100F05D81937A03F03C
:1040B000030309B143F0040343F008039910013BE3
:1040C00091720D2BD2D801A151F823F02D4200009E
:1040D000254200001D420000254200006D40000006
:1040E000234100002D4200002D420000234100002A
:1040F0006D400000254200001D42000025420000E6
:104100002D420000D368991CD160FEF740BAD368F5
:10411000591ED160FEF73BBAD368591CD160FEF737
:1041200036BAD368991ED16062B681EAE173A3EB17
:10413000E173032BA2DD012385F83030298A2B8916
:10414000444A8B4203D8D3888B4280F048816A6905
:1041500072B60023D36062B64048426972B6D3603B
:1041600062B6018A03898B4203D8C3888B4280F0F0
:1041700059813A4BD98903F12000984601F094FF08
:1041800008E072B6D16862B681EAE173A3EBE1732D
:10419000032B71DC324801F0A5FF002870D1D8F85C
:1041A0001420137C012BECD872B613685068197870
:1041B00090F800E0507A137A1EEA000F01EA03013A
:1041C00000F0DA80937A03F0030309B143F00403AB
:1041D00043F008039910013B91720D2BD2D801A135
:1041E00051F823F02B430000234300001B43000041
:1041F0002343000085410000654200002B4300007E
:104200002B4300006542000085410000234300006D
:104210001B430000234300002B430000D368991C7C
:10422000D16024E7D368591ED16020E7D368591CB8
:10423000D1601CE748A1FF1FA90700002507000067
:10424000A10600009905000015050000910400007A
:10425000509CFF1F9898FF1FB898FF1F989CFF1F46
:10426000B89CFF1FD368991ED16062B681EAE173E2
:10427000A3EBE173032B8DDD9E4A012382F83030DE
:104280009C4B9C4A198A1B898B4203D8D3888B424A
:1042900080F09A80974B97495B6972B60022DA608A
:1042A00062B694F83030002B43D096F83030002BB3
:1042B0003FD095F83030002B3BD091F83030002BB8
:1042C00037D09BF810308C4A002B41D053681A79B4
:1042D00022B9D3F8803093F8253043B9874988480C
:1042E00012F074F8874A01231370874A1370012172
:1042F0000D2010F09DF90121032010F099F9012102
:10430000042010F095F90121804801F07DFE0A207B
:1043100015B0BDE8F04F0FF0B1BED368991CD16065
:1043200031E7D368591ED1602DE7D368591CD1609D
:1043300029E77749724812F049F8724A0121117051
:10434000714A022313709BF810306B4A002BBDD1C9
:1043500070496B4812F03AF86A4A012111706A4AB2
:1043600002231370C3E7937A03F0030300293FF499
:10437000A5AE43F00403A1E6937A03F003030029FA
:104380003FF428AF43F0040324E7937A03F00303D8
:1043900000293EF499A843F00403FEF795B8937AF8
:1043A00003F0030300293EF41BA943F00403FEF7C6
:1043B00017B940F2DC53994256D99389194489B20E
:1043C00055480EF0ABFD37E640F2DC53994255D923
:1043D0009389194489B251480EF0A0FD5AE740F282
:1043E000DC53994245D99389194489B24C480EF05F
:1043F00095FDACE640F2DC53994244D993891944C7
:1044000089B248480EF08AFDFEF7A6B840F2DC53A8
:10441000994247D98389194489B242480EF07EFDFA
:10442000FEF722B840F2DC53994240D983891944FF
:1044300089B23A480EF072FD9BE640F2DC53994295
:104440002BD98389194489B233480EF067FDFEF7F2
:1044500095B840F2DC5399421AD98389194489B23C
:104460002F480EF05BFDF9E5AAD05389C91A89B22D
:10447000A6E7BBD05389C91A89B2B7E7ABD0538935
:10448000C91A89B2A7E7BCD05389C91A89B2B8E75B
:10449000E6D04389C91A89B2E2E7D5D04389C91A5F
:1044A00089B2D1E7B9D04389C91A89B2B5E7C0D07A
:1044B0004389C91A89B2BCE70027FDF792BC43F0D3
:1044C0000403FEF78BB84FF0000BFDF7D1BD4FF0A2
:1044D000000AFDF78ABD00231F46FDF7A3BF4FF07A
:1044E000000AFDF76ABF00221746FDF7D1BE002380
:1044F000FDF787BE989CFF1FCC9AFF1FC0160200D5
:104500008898FF1F1D98FF1F849CFF1FB89EFF1FE8
:10451000B4160200A8160200689CFF1FB09CFF1F83
:10452000B098FF1F009CFF1FF0B587B02D4800AF6B
:1045300001F0D8FD00284CD02B4B1B78002B48D025
:104540002A4B2B4A1B683B603B681278BB600024F7
:10455000F8237A713B71BC713B1D03CB254DC7F825
:104560001210C822082315F80C1FC7F80E003A7362
:104570007B736E46E2B20823D00703F1FF3348BFD6
:104580004A4013F0FF034FEA5202F5D10134B4F56B
:10459000807F05F8012FEDD107F10D0107F115041A
:1045A00011F8012F1348534003448C425B7BF7D131
:1045B000D0F81001BB7503680F4A5B6893420BD1BA
:1045C0000B2107F10C0011F0AFFA0648B54601F0D7
:1045D0007BFD1C37BD46F0BD0B2207F10C0198474F
:1045E000F3E700BF4098FF1F1E98FF1F08A2FF1FA0
:1045F000849CFF1F189DFF1F79040000FFFFFFFF31
:104600002DE9F04F97B0B54800AF01F06BFD0028E1
:1046100040F06284B24801F065FD002840F0C88394
:10462000B04801F05FFD002840F05482AE4801F030
:1046300059FD18B95C37BD46BDE8F08FAB4C237807
:104640007B7200226A236079BA723B720FF04AFDD6
:104650000646A08915F0C4F80146206915F0C8F98E
:10466000A16815F011F90546304615F0B9F8014674
:10467000284615F009F914F05DFCD4E90A890246D0
:104680000B464046494614F0F5FAD4E9082314F0E5
:10469000A5FC02460B464046494614F0EBFA0022C0
:1046A000934BC4E90A0114F099FC14F047FFB88158
:1046B00060790FF017FD0646A08915F091F80146C4
:1046C000206915F095F9A16815F0DEF80546304629
:1046D00015F086F80146284615F0D6F814F02AFCA5
:1046E000D4E90A8902460B464046494614F0C2FA0C
:1046F000D4E9082314F072FC02460B4640464946B2
:1047000014F0B8FA00227A4BC4E90A0114F066FCEE
:1047100014F014FF15F064F8764915F069F90546B0
:10472000607F15F05DF80146284615F04BFA002829
:104730005BD1A07F15F054F80146284615F060FAC9
:10474000002852D1207FA56915F04AF86A4915F072
:104750004FF929460646606914F08CFF0146304641
:1047600015F092F8294614F087FF054660790FF09E
:10477000B9FC8046A08915F033F80146206915F090
:1047800037F9A16815F080F80646404615F028F87C
:104790000146304615F078F814F0CCFBD4E90A89CC
:1047A00002460B464046494614F064FAD4E9082311
:1047B00014F014FC02460B464046494614F05AFADF
:1047C00000224B4BC4E90A0114F008FC14F0B6FEB9
:1047D00015F006F8474915F00BF90146284615F083
:1047E00005FA20B10123BB7201E00323BB72434CE5
:1047F00007F1580A25465AF8500D15F80CEFBAF88B
:104800000410C7F83200C8220623F986284687F824
:10481000302087F831306E460021CAB2082312F0EA
:10482000010F03F1FF3318BF82EA0E0213F0FF03FA
:104830004FEA5202F3D10131B1F5807F00F8012F28
:10484000EBD107F1310107F1370E11F8012F2B4899
:10485000534023448E455B7BF7D1D0F8100187F895
:1048600038300368264A5B687A60934207F1300863
:1048700040F0CB844046092111F056F9DFF88490CE
:10488000DFF884C0D9F89C00036800221B697A72A3
:104890000021BA7287F82C2087F82D2000224FF0D3
:1048A000000EC7E90412C7E9061263454FF064021F
:1048B000C7F820E0B546C7F824E0C7F828E03A7208
:1048C00040F0F68410F03CFA10B1012389F8B030C2
:1048D000DFF830B0D9F89C6020E000BF3C9CFF1F9F
:1048E000D89BFF1F2098FF1F3098FF1F689EFF1F57
:1048F00000408F4000007A440000C842189DFF1F0E
:1049000079040000149BFF1F6D04000033683046DB
:104910005B699847C1B268480FF0B6F83368304613
:104920001B6998470028F1D199F87030634E03F065
:10493000FF02002B00F05084311D40460FF0B2F80A
:10494000C446BCE80F0006F1740EAEE80F00BCE8E8
:104950000F00AEE80F009CE803004EF8040B9BF834
:104960009530AEF80010002BB4D0706F14F0D0FA70
:104970004FA3D3E9002314F031FBC7E90401B06F62
:1049800014F0C6FA4AA3D3E9002314F027FB96F8E3
:104990009630C7E90601002B40F05484484B3B6237
:1049A000B9F9820014F01CFF464914F06DFF064669
:1049B000B9F9800014F014FF0146304614F05CFE93
:1049C0007862B9F9860014F00BFF3F4914F05CFFE0
:1049D0000646B9F9840014F003FF0146304614F08E
:1049E0004BFE6E468CB04FF0C80E282199F88820F7
:1049F00099F890308DF800E0B8628DF80110EE461D
:104A00000DF1020C87F82C2087F82D3007EB0109F7
:104A1000D046B8E80F00C845CCF80000CCF8041028
:104A2000CCF80820CCF80C30C2460CF1100CEFD1B9
:104A3000BAE80300CCF80410CCF80000207B002179
:104A4000CAB2082312F0010F03F1FF3318BF42402E
:104A500013F0FF034FEA5202F4D10131B1F5807F28
:104A600005F8012FECD10EF101010EF1290511F825
:104A7000012F1648534023448D425B7BF7D1D0F879
:104A800010018EF82A3003687A685B68934240F020
:104A9000218570462B2111F047F8B5460C4801F0EE
:104AA00013FB5C37BD46BDE8F08F00BFAFF300805D
:104AB000000000A0F2D77A3E189BFF1F149BFF1F37
:104AC000003C1CC66F12833A0AD7233C189DFF1F77
:104AD0003098FF1FAE4843690278197C7A726624C9
:104AE00000220129BA72FA603C7240F2E78372B682
:104AF000DA6862B690F83030FA600BB90323BB7203
:104B0000A44C07F1080A2546534603CB15F80C6F51
:104B1000C7F83200C8220823C7F83610284687F89D
:104B2000302087F83130E9460021CAB2082312F05C
:104B3000010F03F1FF3318BF724013F0FF034FEA78
:104B40005202F4D10131B1F5807F00F8012FECD190
:104B500007F1310107F1390611F8012F8D48534053
:104B600023448E425B7BF7D1D0F8100187F83A30AE
:104B70000368894A5B687A60934207F1300800F065
:104B8000498341460B229847844843690278197C3F
:104B90007A724FF0660E00220129CD46BA72FA6091
:104BA00087F808E040F2528472B6DA6862B690F88C
:104BB0003030FA600BB90323BB72534603CBC822D3
:104BC0000823C7F8320094F80CE07548C7F836108F
:104BD00087F8302087F83130E9460021CAB208232F
:104BE00012F0010F03F1FF3318BF8EEA020213F037
:104BF000FF034FEA5202F3D10131B1F5807F00F893
:104C0000012FEBD107F1310111F8012F6148534019
:104C100023448E425B7BF7D1D0F8100187F83A30FD
:104C200003687A685B68934240F039830B21404601
:104C300010F07AFF5B4843690278197C7A724FF072
:104C4000660E00220129CD46BA72FA6087F808E0A4
:104C500040F2B88372B6DA6862B690F83030FA6023
:104C60000BB90323BB72534603CBC8220823C7F8F2
:104C7000320094F80CE04A48C7F8361087F8302024
:104C800087F83130E9460021CAB2082312F0010F3B
:104C900003F1FF3318BF8EEA020213F0FF034FEA5D
:104CA0005202F3D10131B1F5807F00F8012FEBD131
:104CB00007F1310111F8012F3648534023448E4249
:104CC0005B7BF7D1D0F8100187F83A3003687A6837
:104CD0005B68934240F0DF820B21404610F024FFD6
:104CE000314843690278197C7A724FF0660E0022CF
:104CF0000129CD46BA72FA6087F808E040F21E83B7
:104D000072B6DA6862B690F83030FA600BB90323F5
:104D1000BB72BAE80300C8220823C7F83610217B0B
:104D2000C7F8320087F8302087F83130E946002094
:104D3000C2B2082312F0010F03F1FF3318BF4A403B
:104D400013F0FF034FEA5202F4D10130B0F5807F37
:104D500005F8012FECD107F1310111F8012F0D48B1
:104D6000534023448E425B7BF7D1D0F8100187F883
:104D70003A3003687A685B68934240F08882404624
:104D80000B2110F0D1FE0948CD4601F09DF94DE40C
:104D9000E89BFF1F189DFF1F79040000509CFF1F18
:104DA000249DFF1F9898FF1F989CFF1F2098FF1FAE
:104DB000454C606803689B699847002800F0C081F3
:104DC000636822785E69D3F818E0DD69986BD96B67
:104DD000D3F840C0C4F81CE0A6612562206361637B
:104DE000D3F848E0DE6C1D6D986DD96D1B6EC4F86C
:104DF00024E0A662C4F838C0E562E063216463641D
:104E00006275143425460FCC0FC50FCC0FC50FCCDF
:104E10000FC5A046236848F830396D468EB0C822C9
:104E200034238DF800208DF801306E460DF1020E0E
:104E3000C446BCE80F00A445CEF80000CEF804102C
:104E4000CEF80820CEF80C30E0460EF1100EEFD16F
:104E50001E4CDCF80000CEF80000A64600201EF82C
:104E60000C1FC2B2082312F0010F03F1FF3318BF69
:104E70004A4013F0FF034FEA5202F4D10130B0F57B
:104E8000807F0EF8012FECD1711C06F1350E11F860
:104E9000012F0E48534023448E455B7BF7D1D0F859
:104EA000100186F836300368094A5B68934240F087
:104EB000FA813046372110F037FEAD46054801F043
:104EC00003F9FFF7ADBB00BFCC9AFF1F189DFF1F72
:104ED00079040000D89BFF1FD14D05F1100001F0AF
:104EE00001F900285DD095F82100CE4C0FF0FAF8BA
:104EF00014F00EF8D5E90A2314F070F80022CA4B1A
:104F000014F06CF814F042FB86B205F1100001F0C9
:104F1000DBF82878BE81692207F1580300213A7234
:104F20007872B97253F8500DC7F8320026469B8844
:104F3000FB86C822062316F80C0F87F8302087F866
:104F400031306D46CAB2082312F0010F03F1FF336E
:104F500018BF424013F0FF034FEA5202F4D101316F
:104F6000B1F5807F06F8012FECD107F1310107F18F
:104F7000370611F8012FAB48534023448E425B7B28
:104F8000F7D1D0F8100187F838300368A74A5B687A
:104F9000934240F07681092107F1300010F0C4FD02
:104FA000AD46A34D05F1100001F09CF800285DD03E
:104FB00095F821009B4C0FF095F813F0A9FFD5E967
:104FC0000A2314F00BF80022974B14F007F814F0A2
:104FD000DDFA86B205F1100001F076F82878BE817E
:104FE000692207F1580300213A727872B97253F8B6
:104FF000500DC7F8320026469B88FB86C822062340
:1050000016F80C0F87F8302087F831306D46CAB299
:10501000082312F0010F03F1FF3318BF424013F0D1
:10502000FF034FEA5202F4D10131B1F5807F06F857
:10503000012FECD107F1310107F1370611F8012FEB
:105040007848534023448E425B7BF7D1D0F810015F
:1050500087F838300368754A5B68934240F00B81EB
:10506000092107F1300010F05FFDAD46714D05F1EB
:10507000100001F037F800285DD095F82100694C48
:105080000FF030F813F044FFD5E90A2313F0A6FF20
:105090000022654B13F0A2FF14F078FA86B205F1F6
:1050A000100001F011F82878BE81692207F1580339
:1050B00000213A727872B97253F8500DC7F8320075
:1050C00026469B88FB86C822062316F80C0F87F815
:1050D000302087F831306D46CAB2082312F0010F34
:1050E00003F1FF3318BF424013F0FF034FEA5202AF
:1050F000F4D10131B1F5807F06F8012FECD107F131
:10510000310107F1370611F8012F46485340234477
:105110008E425B7BF7D1D0F8100187F838300368F6
:10512000424A5B68934240F0A080092107F13000B9
:1051300010F0FAFCAD46404800F0C6FFFFF76ABA2F
:10514000237C002B7FF4BAAE6D468EB00223C821BB
:105150003422A37504F114088DF800108DF8012095
:105160006E460DEB030E4434C446BCE80F00A44564
:10517000CEF80000CEF80410CEF80820CEF80C309F
:10518000E0460EF1100EEFD1264CDCF80000CEF810
:105190000000A64600201EF80C1FC2B2082312F021
:1051A000010F03F1FF3318BF4A4013F0FF034FEA2A
:1051B0005202F4D10130B0F5807F0EF8012FECD10E
:1051C000711C06F1350E11F8012F16485340234487
:1051D0008E455B7BF7D162E606F1A0007A6000F0B5
:1051E00081FF00283FF45AAC96F8B030002B62D013
:1051F00001237A6886F8B02086F8B1300F4800F0B5
:1052000063FF0F4800F060FF4BE4414609229847D6
:10521000FFF734BB40460B2110F086FCB4E400BF1E
:10522000309EFF1F189DFF1F00408F407904000033
:105230005098FF1FE09CFF1F3C9CFF1FB49BFF1F6B
:105240003098FF1FB6F97E0014F0CAFAC54914F071
:105250001BFB8046B6F97C0014F0C2FA01464046BA
:1052600014F00AFA3862FFF79BBB092207F13001FC
:105270009847AD465FE7092207F130019847AD46F0
:10528000F4E6092207F130019847AD4689E6414628
:105290000B22984777E50B224146984720E50B22E1
:1052A00041469847C6E4314637229847AD4605E661
:1052B0009847FFF709BB86F8B1309FE772B693E8CD
:1052C0001400117825785C7A1A7A254201EA0201E5
:1052D0002CD09A7A02F0030209B142F0040242F0A3
:1052E00008029110013A99720D2A3FF601AC01A112
:1052F00051F822F0E15400007D5500007355000084
:105300007D550000F14A000069550000E15400009D
:10531000E154000069550000F14A00007D5500008D
:10532000735500007D550000E15400009A7A02F0A8
:1053300003020029D5D042F00402D2E772B693E806
:10534000060091F800C092F800E05A7A197A1EEA35
:10535000020F0CEA01012DD09A7A02F0030209B182
:1053600042F0040242F008029110013A99720D2AAB
:105370003FF6C7AC01A151F822F000BF595500001B
:105380004F550000455500004F550000034D0000EB
:105390003B55000059550000595500003B55000091
:1053A000034D00004F550000455500004F550000CB
:1053B000595500009A7A02F003020029D4D042F035
:1053C0000402D1E772B693E8060091F800C092F8A3
:1053D00000E05A7A197A1EEA020F0CEA01012DD078
:1053E0009A7A02F0030209B142F0040242F0080284
:1053F0009110013A99720D2A3FF62DAC01A151F896
:1054000022F000BF31550000275500001D55000057
:1054100027550000574C000013550000315500007F
:105420003155000013550000574C0000275500006F
:105430001D55000027550000315500009A7A02F0F2
:1054400003020029D4D042F00402D1E772B693E8F7
:10545000060091F800C092F800E05A7A197A1EEA24
:10546000020F0CEA01012DD09A7A02F0030209B171
:1054700042F0040242F008029110013A99720D2A9A
:105480003FF693AB01A151F822F000BF095500008F
:10549000FF540000F5540000FF540000AB4B000027
:1054A000EB5400000955000009550000EB540000C2
:1054B000AB4B0000FF540000F5540000FF54000007
:1054C000095500009A7A02F003020029D4D042F074
:1054D0000402D1E771462B229847B546FFF7DEBAA2
:1054E000DA680132DA60FFF704BBDA68023ADA60A0
:1054F000FFF75CBBDA680232DA60FFF757BBDA68A5
:10550000013ADA60FFF752BBDA680132DA60FFF77E
:105510004DBBDA68023ADA60FFF79EBBDA68023206
:10552000DA60FFF799BBDA68013ADA60FFF794BBFB
:10553000DA680132DA60FFF78FBBDA68023ADA60C4
:10554000FFF7E0BBDA680232DA60FFF7DBBBDA684C
:10555000013ADA60FFF7D6BBDA680132DA60FFF7AA
:10556000D1BB00BF0AD7233CDA68023ADA60FFF702
:10557000C0BADA680232DA60FFF7BBBADA68013A19
:10558000DA60FFF7B6BA00BFF0B58BB000AF07F135
:10559000280400230D46F9220146F81D04F8242DA5
:1055A0007B71BB7115F02AFD8AB0C822222387F8CF
:1055B00025508DF800208DF801306D460DF1020E5A
:1055C00007F1240C26460FCE6645CEF80000CEF833
:1055D0000410CEF80820CEF80C3034460EF1100E30
:1055E000F0D11D4E2388AEF800303446002014F868
:1055F0000C1FC2B2082312F0010F03F1FF3318BFD2
:105600004A4013F0FF034FEA5202F4D10130B0F5E3
:10561000807F04F8012FECD1691C05F1230411F8F7
:10562000012F0D4853403344A1425B7BF7D1D0F8A2
:10563000100185F824300368084A5B68934206D15C
:105640002846252110F070FA2C37BD46F0BD2946BA
:1056500025229847F8E700BF189DFF1F7904000036
:105660002DE9F047A1488AB000F03CFD28B1A04BDD
:105670001B78DBB19D4800F027FD9E4B1B7813B9CA
:105680000AB0BDE8F0879C4800F02CFD0028F7D058
:105690009A4B1978022900F0EE80012900F0EB8086
:1056A00095480AB0BDE8F04700F00EBD944C207F4D
:1056B000A56914F095F8934914F09AF9294606461D
:1056C000606913F0D7FF0146304614F0DDF8294633
:1056D00013F0D2FF054660790EF004FD0746A0895D
:1056E00014F07EF80146206914F082F9A16814F0E4
:1056F000CBF80646384614F073F80146304614F0ED
:10570000C3F813F017FCD4E90A6702460B4630468B
:10571000394613F0AFFAD4E9082313F05FFC0246D0
:105720000B463046394613F0A5FA0022764BC4E901
:105730000A0113F053FC13F001FF14F051F8734900
:1057400014F056F90146284614F050FA002840F0AB
:10575000BF8007466079DFF8A8A10EF0C3FC0646BB
:10576000A08914F03DF80146206914F041F9A168C0
:1057700014F08AF80546304614F032F801462846FF
:1057800014F082F813F0D6FBD4E90A8902460B46DE
:105790004046494613F06EFAD4E9082313F01EFC84
:1057A00002460B464046494613F064FA0022564B27
:1057B000C4E90A0113F012FC13F0C0FE14F010F853
:1057C000524914F015F90546607F14F009F80146B6
:1057D000284614F0F7F9002857D19AF81E0013F064
:1057E000FFFF0146284614F00BFA00284DD1484D22
:1057F000484AD5F89C0003681B69934270D10FF0AA
:105800009FFA10B1012385F8B030414ED5F89C4085
:1058100007E0236820465B699847C1B23E480EF016
:1058200033F9236820461B6998470028F1D195F881
:105830007030374C03F0FF0883B3211D68460EF02B
:1058400031F9EE46BEE80F0074340FC4BEE80F0015
:105850000FC49EE8030044F8040B96F895302180AD
:10586000002BD3D095F8B13053B3002F7FF402AFA3
:10587000224B1F70FEE6294B1868FFF785FE1E4875
:105880000AB0BDE8F04700F01FBC2549234810F0DE
:105890009DFD1A4B02221A700127A8E704F1A0000F
:1058A00000F020FC0028DDD094F8B030D3B1012303
:1058B00084F8B08084F8B1301A4800F005FCD1E7D4
:1058C0001949164810F082FD0C4B02221A70D1E6DD
:1058D0001649124810F07AFD084B01271F7039E76E
:1058E00098478EE784F8B130E6E700BFC89BFF1FFA
:1058F0001D98FF1F1E98FF1F889CFF1F849CFF1F81
:10590000689EFF1F0000C84200408F4000007A449C
:10591000149BFF1F6D040000189BFF1F8898FF1F3A
:10592000EC160200B49BFF1FE0160200D416020022
:105930000A4B5A6972B60023D36062B6084A5269AC
:1059400072B6D36062B6074A526972B6D36062B665
:10595000054A526972B6D36062B67047E89BFF1F72
:10596000509CFF1F9898FF1F989CFF1F00B5672849
:1059700083B017D0F82809D0662802D003B05DF8AC
:1059800004FB03B05DF804EBFFF7D2BF02213E48F1
:1059900000F03AFB3D493E4A01230B70137003B0FF
:1059A0005DF804FB3B4B93E803008AB2A2F57A73DF
:1059B000B3F57A7F0090ADF80410DFD89DF8013080
:1059C000013B032BDAD8DFE803F036261602324B10
:1059D00019899142D2D8D9889142CFD340F2DC5173
:1059E0008A4238D999890A4491B22C4803B05DF8AB
:1059F00004EB0DF093BA2A4B19899142BED8D9888D
:105A00009142BBD340F2DC518A4230D999890A4491
:105A100091B22448EAE7244B19899142AED8D9883B
:105A20009142ABD340F2DC518A4226D999890A448B
:105A300091B21E48DAE71E4B198991429ED8D98847
:105A400091429BD340F2DC518A420AD999890A4497
:105A500091B21848CAE71DBF5989521A91B211462E
:105A6000C3E71DBF5989521A91B21146F1E71DBF14
:105A70005989521A91B21146CBE71DBF5989521A62
:105A800091B21146D5E700BFB89EFF1F1E98FF1FB9
:105A90004C9CFF1FCC98FF1F989CFF1FB09CFF1FC2
:105AA0009898FF1FB098FF1F509CFF1F689CFF1F16
:105AB000E89BFF1F009CFF1F2DE9F843574C584FF0
:105AC000584EDFF86481254610F004F8002849DDBF
:105AD0002378032BF8D8DFE803F05B724702D4F891
