:1000000000800020BD010000F1410100A941010074
:10001000A9410100A9410100A9410100A941010034
:10002000A9410100A9410100A9410100F1410100DC
:10003000F1410100A9410100A95C0100AD5D010091
:10004000F1410100F1410100F1410100F1410100E4
:10005000F1410100F1410100F1410100F1410100D4
:10006000F1410100F1410100F1410100F1410100C4
:10007000F1410100F1410100F1410100F1410100B4
:10008000F1410100F1410100F1410100F1410100A4
:10009000F1410100F1410100F1410100F141010094
:1000A000D9660000E5660000F1410100F141010060
:1000B000F1410100F1410100F1410100F141010074
:1000C000F1410100F1410100F1410100F141010064
:1000D000F1410100F1410100F1410100F141010054
:1000E000F1410100F1410100F1410100F141010044
:1000F000F1410100CD630100F1410100F94C010023
:10010000F1410100F9640100F1410100F1410100F8
:10011000F1410100F1410100F1410100F141010013
:10012000F1410100F1410100F1410100F141010003
:10013000F1410100F1410100F1410100F1410100F3
:10014000F1410100F1410100F1410100F1410100E3
:10015000F1410100F1410100F1410100F1410100D3
:10016000F92D0100754F0100F1410100F14101003D
:10017000F1410100F1410100F1410100F1410100B3
:10018000F1410100F1410100F1410100F1410100A3
:10019000F1410100F1410100F1410100F141010093
:1001A000F1410100F1410100F1410100F141010083
:1001B000F1410100F1410100F1410100564B4CF2C7
:1001C000205210B51A804DF628121A8000BF00BFC9
:1001D00014F012F8514B4FF010621A60504A9A60B6
:1001E000504ADA60504A136813F4807304D14F49BF
:1001F0000B604FF4A85313604D4B1A78110703D5C9
:100200001A7842F008021A704A4B4B492A221A7097
:100210004A4A4B4B8B4204D252F8040F43F8040B6A
:10022000F8E7484B484900228B4202D243F8042B9E
:10023000FAE74649464A002352F8230041F82300D2
:1002400001336F2BF8D1434B434A802103F8011B44
:100250009342FBD1414B3D4A1A60414B8A221A70AE
:10026000A3F5805324225A70A0221A709A7992071B
:10027000FCD59A79D406FCD43A4A937903F00C035E
:10028000082B384BF9D103221A7140225A719A79FE
:100290009006FCD5334A9179324B4906FBD5324A58
:1002A000324911600221516020221A709A7902F0BD
:1002B0000C020C2AFAD12E4B2E4A1A602E4B2F4AD2
:1002C0001A6000225A60072243F8042C2C4AC3F813
:1002D0000C2D62B614F07CF9144B1B68DA0705D5B7
:1002E000284814F0E7F8284B284A1A60284B1B7856
:1002F0005B0609D5244C254B22689A4204D121483B
:1003000014F0D8F80023236019F07EFD13F07AFF73
:1003100015F0BEFFFEE700BF0E2005403080044010
:10032000823F04000100002B10D0034014D0034092
:1003300002D0074000E007400098FF1F145402005D
:100340002087FF1F0098FF1F30A5FF1F0082FF1F9F
:100350000000000000E400E05FE400E008ED00E0E1
:100360000050064000400640448004400000030165
:1003700004800440C010050014E000E0FF76010096
:1003800000002020472DDB5B1CE00340A5C3945AEE
:1003900000F00740FFFFFFFFFFFFFFFFFFFFFFFF32
:1003A000FFFFFFFFFFFFFFFFFFFFFFFFFFFFFFFF5D
:1003B000FFFFFFFFFFFFFFFFFFFFFFFFFFFFFFFF4D
:1003C000FFFFFFFFFFFFFFFFFFFFFFFFFFFFFFFF3D
:1003D000FFFFFFFFFFFFFFFFFFFFFFFFFFFFFFFF2D
:1003E000FFFFFFFFFFFFFFFFFFFFFFFFFFFFFFFF1D
:1003F000FFFFFFFFFFFFFFFFFFFFFFFFFFFFFFFF0D
:10040000FFFFFFFFFFFFFFFFFFFFFFFFDEF9FFFF23
:1004100010B5054C237833B9044B13B10448AFF33E
:1004200000800123237010BD0098FF1F0000000012
:1004300010540200084B10B51BB108490848AFF32F
:1004400000800848036803B910BD074B002BFBD0A0
:10045000BDE81040184700BF000000000498FF1FCF
:10046000105402000098FF1F0000000015F08CBA25
:1004700015F04EBA0846114615F0B0BA14F0BABBE2
:1004800010B514210446406915F00CFF204610BD3C
:100490001F4B10B4DA6F1368506819780478507ADB
:1004A000137A044201EA03011AD0937A03F003039A
:1004B00009B143F0040343F008039910013B917222
:1004C0000D2B0BD8DFE803F01E0719070A141E1EB8
:1004D000140A0719071ED368013BD36010BC70478C
:1004E000937A03F003030029E7D043F00403E4E721
:1004F000D36810BC023BD3607047D36810BC023392
:10050000D3607047D36810BC0133D360704700BF1D
:1005100078A1FF1F1F4B10B4D3F8802013685068D8
:1005200019780478507A137A044201EA03011AD048
:10053000937A03F0030309B143F0040343F0080383
:100540009910013B91720D2B0BD8DFE803F01E07C9
:1005500019070A141E1E140A0719071ED368013B47
:10056000D36010BC7047937A03F003030029E7D0EF
:1005700043F00403E4E7D36810BC023BD360704748
:10058000D36810BC0233D3607047D36810BC01330A
:10059000D360704778A1FF1F1F4B10B4DA6E136849
:1005A000506819780478507A137A044201EA0301FA
:1005B0001AD0937A03F0030309B143F0040343F024
:1005C00008039910013B91720D2B0BD8DFE803F063
:1005D0001E0719070A141E1E140A0719071ED368DE
:1005E000013BD36010BC7047937A03F003030029EA
:1005F000E7D043F00403E4E7D36810BC023BD360C8
:100600007047D36810BC0233D3607047D36810BC06
:100610000133D360704700BF78A1FF1F1F4B10B498
:100620001A6F1368506819780478507A137A044264
:1006300001EA03011AD0937A03F0030309B143F0EE
:10064000040343F008039910013B91720D2B0BD862
:10065000DFE803F01E0719070A141E1E140A071903
:10066000071ED368013BD36010BC7047937A03F038
:1006700003030029E7D043F00403E4E7D36810BC88
:10068000023BD3607047D36810BC0233D36070471D
:10069000D36810BC0133D360704700BF78A1FF1F3F
:1006A0001F4B10B45A6F1368506819780478507A49
:1006B000137A044201EA03011AD0937A03F0030388
:1006C00009B143F0040343F008039910013B917210
:1006D0000D2B0BD8DFE803F01E0719070A141E1EA6
:1006E000140A0719071ED368013BD36010BC70477A
:1006F000937A03F003030029E7D043F00403E4E70F
:10070000D36810BC023BD3607047D36810BC02337F
:10071000D3607047D36810BC0133D360704700BF0B
:1007200078A1FF1F1F4B10B49A6F13685068197897
:100730000478507A137A044201EA03011AD0937ABA
:1007400003F0030309B143F0040343F008039910D5
:10075000013B91720D2B0BD8DFE803F01E07190740
:100760000A141E1E140A0719071ED368013BD36022
:1007700010BC7047937A03F003030029E7D043F0DD
:100780000403E4E7D36810BC023BD3607047D3682E
:1007900010BC0233D3607047D36810BC0133D36000
:1007A000704700BF78A1FF1F1F4B10B41A68136871
:1007B000506819780478507A137A044201EA0301E8
:1007C0001AD0937A03F0030309B143F0040343F012
:1007D00008039910013B91720D2B0BD8DFE803F051
:1007E0001E0719070A141E1E140A0719071ED368CC
:1007F000013BD36010BC7047937A03F003030029D8
:10080000E7D043F00403E4E7D36810BC023BD360B5
:100810007047D36810BC0233D3607047D36810BCF4
:100820000133D360704700BF78A1FF1F1F4B10B486
:100830005A681368506819780478507A137A044219
:1008400001EA03011AD0937A03F0030309B143F0DC
:10085000040343F008039910013B91720D2B0BD850
:10086000DFE803F01E0719070A141E1E140A0719F1
:10087000071ED368013BD36010BC7047937A03F026
:1008800003030029E7D043F00403E4E7D36810BC76
:10089000023BD3607047D36810BC0233D36070470B
:1008A000D36810BC0133D360704700BF78A1FF1F2D
:1008B0001F4B10B49A681368506819780478507AFE
:1008C000137A044201EA03011AD0937A03F0030376
:1008D00009B143F0040343F008039910013B9172FE
:1008E0000D2B0BD8DFE803F01E0719070A141E1E94
:1008F000140A0719071ED368013BD36010BC704768
:10090000937A03F003030029E7D043F00403E4E7FC
:10091000D36810BC023BD3607047D36810BC02336D
:10092000D3607047D36810BC0133D360704700BFF9
:1009300078A1FF1F1F4B10B4DA6C13685068197848
:100940000478507A137A044201EA03011AD0937AA8
:1009500003F0030309B143F0040343F008039910C3
:10096000013B91720D2B0BD8DFE803F01E0719072E
:100970000A141E1E140A0719071ED368013BD36010
:1009800010BC7047937A03F003030029E7D043F0CB
:100990000403E4E7D36810BC023BD3607047D3681C
:1009A00010BC0233D3607047D36810BC0133D360EE
:1009B000704700BF78A1FF1F1F4B10B41A6D13685A
:1009C000506819780478507A137A044201EA0301D6
:1009D0001AD0937A03F0030309B143F0040343F000
:1009E00008039910013B91720D2B0BD8DFE803F03F
:1009F0001E0719070A141E1E140A0719071ED368BA
:100A0000013BD36010BC7047937A03F003030029C5
:100A1000E7D043F00403E4E7D36810BC023BD360A3
:100A20007047D36810BC0233D3607047D36810BCE2
:100A30000133D360704700BF78A1FF1F1F4B10B474
:100A40005A6D1368506819780478507A137A044202
:100A500001EA03011AD0937A03F0030309B143F0CA
:100A6000040343F008039910013B91720D2B0BD83E
:100A7000DFE803F01E0719070A141E1E140A0719DF
:100A8000071ED368013BD36010BC7047937A03F014
:100A900003030029E7D043F00403E4E7D36810BC64
:100AA000023BD3607047D36810BC0233D3607047F9
:100AB000D36810BC0133D360704700BF78A1FF1F1B
:100AC0001F4B10B49A6D1368506819780478507AE7
:100AD000137A044201EA03011AD0937A03F0030364
:100AE00009B143F0040343F008039910013B9172EC
:100AF0000D2B0BD8DFE803F01E0719070A141E1E82
:100B0000140A0719071ED368013BD36010BC704755
:100B1000937A03F003030029E7D043F00403E4E7EA
:100B2000D36810BC023BD3607047D36810BC02335B
:100B3000D3607047D36810BC0133D360704700BFE7
:100B400078A1FF1F1F4B10B4DA6D13685068197835
:100B50000478507A137A044201EA03011AD0937A96
:100B600003F0030309B143F0040343F008039910B1
:100B7000013B91720D2B0BD8DFE803F01E0719071C
:100B80000A141E1E140A0719071ED368013BD360FE
:100B900010BC7047937A03F003030029E7D043F0B9
:100BA0000403E4E7D36810BC023BD3607047D3680A
:100BB00010BC0233D3607047D36810BC0133D360DC
:100BC000704700BF78A1FF1F1F4B10B41A6E136847
:100BD000506819780478507A137A044201EA0301C4
:100BE0001AD0937A03F0030309B143F0040343F0EE
:100BF00008039910013B91720D2B0BD8DFE803F02D
:100C00001E0719070A141E1E140A0719071ED368A7
:100C1000013BD36010BC7047937A03F003030029B3
:100C2000E7D043F00403E4E7D36810BC023BD36091
:100C30007047D36810BC0233D3607047D36810BCD0
:100C40000133D360704700BF78A1FF1F1F4B10B462
:100C50005A6E1368506819780478507A137A0442EF
:100C600001EA03011AD0937A03F0030309B143F0B8
:100C7000040343F008039910013B91720D2B0BD82C
:100C8000DFE803F01E0719070A141E1E140A0719CD
:100C9000071ED368013BD36010BC7047937A03F002
:100CA00003030029E7D043F00403E4E7D36810BC52
:100CB000023BD3607047D36810BC0233D3607047E7
:100CC000D36810BC0133D360704700BF78A1FF1F09
:100CD0001F4B10B49A6E1368506819780478507AD4
:100CE000137A044201EA03011AD0937A03F0030352
:100CF00009B143F0040343F008039910013B9172DA
:100D00000D2B0BD8DFE803F01E0719070A141E1E6F
:100D1000140A0719071ED368013BD36010BC704743
:100D2000937A03F003030029E7D043F00403E4E7D8
:100D3000D36810BC023BD3607047D36810BC023349
:100D4000D3607047D36810BC0133D360704700BFD5
:100D500078A1FF1F1F4B10B4DA6813685068197828
:100D60000478507A137A044201EA03011AD0937A84
:100D700003F0030309B143F0040343F0080399109F
:100D8000013B91720D2B0BD8DFE803F01E0719070A
:100D90000A141E1E140A0719071ED368013BD360EC
:100DA00010BC7047937A03F003030029E7D043F0A7
:100DB0000403E4E7D36810BC023BD3607047D368F8
:100DC00010BC0233D3607047D36810BC0133D360CA
:100DD000704700BF78A1FF1F1F4B10B41A6913683A
:100DE000506819780478507A137A044201EA0301B2
:100DF0001AD0937A03F0030309B143F0040343F0DC
:100E000008039910013B91720D2B0BD8DFE803F01A
:100E10001E0719070A141E1E140A0719071ED36895
:100E2000013BD36010BC7047937A03F003030029A1
:100E3000E7D043F00403E4E7D36810BC023BD3607F
:100E40007047D36810BC0233D3607047D36810BCBE
:100E50000133D360704700BF78A1FF1F1F4B10B450
:100E60005A691368506819780478507A137A0442E2
:100E700001EA03011AD0937A03F0030309B143F0A6
:100E8000040343F008039910013B91720D2B0BD81A
:100E9000DFE803F01E0719070A141E1E140A0719BB
:100EA000071ED368013BD36010BC7047937A03F0F0
:100EB00003030029E7D043F00403E4E7D36810BC40
:100EC000023BD3607047D36810BC0233D3607047D5
:100ED000D36810BC0133D360704700BF78A1FF1FF7
:100EE0001F4B10B49A691368506819780478507AC7
:100EF000137A044201EA03011AD0937A03F0030340
:100F000009B143F0040343F008039910013B9172C7
:100F10000D2B0BD8DFE803F01E0719070A141E1E5D
:100F2000140A0719071ED368013BD36010BC704731
:100F3000937A03F003030029E7D043F00403E4E7C6
:100F4000D36810BC023BD3607047D36810BC023337
:100F5000D3607047D36810BC0133D360704700BFC3
:100F600078A1FF1F1F4B10B4DA6913685068197815
:100F70000478507A137A044201EA03011AD0937A72
:100F800003F0030309B143F0040343F0080399108D
:100F9000013B91720D2B0BD8DFE803F01E071907F8
:100FA0000A141E1E140A0719071ED368013BD360DA
:100FB00010BC7047937A03F003030029E7D043F095
:100FC0000403E4E7D36810BC023BD3607047D368E6
:100FD00010BC0233D3607047D36810BC0133D360B8
:100FE000704700BF78A1FF1F1F4B10B41A6A136827
:100FF000506819780478507A137A044201EA0301A0
:101000001AD0937A03F0030309B143F0040343F0C9
:1010100008039910013B91720D2B0BD8DFE803F008
:101020001E0719070A141E1E140A0719071ED36883
:10103000013BD36010BC7047937A03F0030300298F
:10104000E7D043F00403E4E7D36810BC023BD3606D
:101050007047D36810BC0233D3607047D36810BCAC
:101060000133D360704700BF78A1FF1F1F4B10B43E
:101070005A6A1368506819780478507A137A0442CF
:1010800001EA03011AD0937A03F0030309B143F094
:10109000040343F008039910013B91720D2B0BD808
:1010A000DFE803F01E0719070A141E1E140A0719A9
:1010B000071ED368013BD36010BC7047937A03F0DE
:1010C00003030029E7D043F00403E4E7D36810BC2E
:1010D000023BD3607047D36810BC0233D3607047C3
:1010E000D36810BC0133D360704700BF78A1FF1FE5
:1010F0001F4B10B49A6A1368506819780478507AB4
:10110000137A044201EA03011AD0937A03F003032D
:1011100009B143F0040343F008039910013B9172B5
:101120000D2B0BD8DFE803F01E0719070A141E1E4B
:10113000140A0719071ED368013BD36010BC70471F
:10114000937A03F003030029E7D043F00403E4E7B4
:10115000D36810BC023BD3607047D36810BC023325
:10116000D3607047D36810BC0133D360704700BFB1
:1011700078A1FF1F1F4B10B4DA6A13685068197802
:101180000478507A137A044201EA03011AD0937A60
:1011900003F0030309B143F0040343F0080399107B
:1011A000013B91720D2B0BD8DFE803F01E071907E6
:1011B0000A141E1E140A0719071ED368013BD360C8
:1011C00010BC7047937A03F003030029E7D043F083
:1011D0000403E4E7D36810BC023BD3607047D368D4
:1011E00010BC0233D3607047D36810BC0133D360A6
:1011F000704700BF78A1FF1F1F4B10B41A6B136814
:10120000506819780478507A137A044201EA03018D
:101210001AD0937A03F0030309B143F0040343F0B7
:1012200008039910013B91720D2B0BD8DFE803F0F6
:101230001E0719070A141E1E140A0719071ED36871
:10124000013BD36010BC7047937A03F0030300297D
:10125000E7D043F00403E4E7D36810BC023BD3605B
:101260007047D36810BC0233D3607047D36810BC9A
:101270000133D360704700BF78A1FF1F1F4B10B42C
:101280005A6B1368506819780478507A137A0442BC
:1012900001EA03011AD0937A03F0030309B143F082
:1012A000040343F008039910013B91720D2B0BD8F6
:1012B000DFE803F01E0719070A141E1E140A071997
:1012C000071ED368013BD36010BC7047937A03F0CC
:1012D00003030029E7D043F00403E4E7D36810BC1C
:1012E000023BD3607047D36810BC0233D3607047B1
:1012F000D36810BC0133D360704700BF78A1FF1FD3
:101300001F4B10B49A6B1368506819780478507AA0
:10131000137A044201EA03011AD0937A03F003031B
:1013200009B143F0040343F008039910013B9172A3
:101330000D2B0BD8DFE803F01E0719070A141E1E39
:10134000140A0719071ED368013BD36010BC70470D
:10135000937A03F003030029E7D043F00403E4E7A2
:10136000D36810BC023BD3607047D36810BC023313
:10137000D3607047D36810BC0133D360704700BF9F
:1013800078A1FF1F1F4B10B4DA6B136850681978EF
:101390000478507A137A044201EA03011AD0937A4E
:1013A00003F0030309B143F0040343F00803991069
:1013B000013B91720D2B0BD8DFE803F01E071907D4
:1013C0000A141E1E140A0719071ED368013BD360B6
:1013D00010BC7047937A03F003030029E7D043F071
:1013E0000403E4E7D36810BC023BD3607047D368C2
:1013F00010BC0233D3607047D36810BC0133D36094
:10140000704700BF78A1FF1F1F4B10B41A6C136800
:10141000506819780478507A137A044201EA03017B
:101420001AD0937A03F0030309B143F0040343F0A5
:1014300008039910013B91720D2B0BD8DFE803F0E4
:101440001E0719070A141E1E140A0719071ED3685F
:10145000013BD36010BC7047937A03F0030300296B
:10146000E7D043F00403E4E7D36810BC023BD36049
:101470007047D36810BC0233D3607047D36810BC88
:101480000133D360704700BF78A1FF1F1F4B10B41A
:101490005A6C1368506819780478507A137A0442A9
:1014A00001EA03011AD0937A03F0030309B143F070
:1014B000040343F008039910013B91720D2B0BD8E4
:1014C000DFE803F01E0719070A141E1E140A071985
:1014D000071ED368013BD36010BC7047937A03F0BA
:1014E00003030029E7D043F00403E4E7D36810BC0A
:1014F000023BD3607047D36810BC0233D36070479F
:10150000D36810BC0133D360704700BF78A1FF1FC0
:101510001F4B10B49A6C1368506819780478507A8D
:10152000137A044201EA03011AD0937A03F0030309
:1015300009B143F0040343F008039910013B917291
:101540000D2B0BD8DFE803F01E0719070A141E1E27
:10155000140A0719071ED368013BD36010BC7047FB
:10156000937A03F003030029E7D043F00403E4E790
:10157000D36810BC023BD3607047D36810BC023301
:10158000D3607047D36810BC0133D360704700BF8D
:1015900078A1FF1F1F4B10B4D3F884201368506844
:1015A00019780478507A137A044201EA03011AD0B8
:1015B000937A03F0030309B143F0040343F00803F3
:1015C0009910013B91720D2B0BD8DFE803F01E0739
:1015D00019070A141E1E140A0719071ED368013BB7
:1015E000D36010BC7047937A03F003030029E7D05F
:1015F00043F00403E4E7D36810BC023BD3607047B8
:10160000D36810BC0233D3607047D36810BC013379
:10161000D360704778A1FF1F08B50B46212800F260
:101620005881DFE810F04D0144013B0132012901EE
:10163000200117010E010501FC00F300EA00E100A2
:10164000D800CF00C600BD00B400AB00A2009900D6
:10165000900087007E0075006C0063005A00510006
:1016600048003F0036002C0022009B4A9B49C2F8EC
:1016700084302120042212F05DFE012008BD964A2C
:101680009749C2F880302020042212F053FE012036
:1016900008BD914A9349D3671F20042212F04AFEE5
:1016A000012008BD8C4A904993671E20042212F045
:1016B00041FE012008BD884A8C4953671D20042241
:1016C00012F038FE012008BD834A894913671C20A7
:1016D000042212F02FFE012008BD7F4A8549D366FF
:1016E0001B20042212F026FE012008BD7A4A8249FE
:1016F00093661A20042212F01DFE012008BD764ACE
:101700007E4953661920042212F014FE012008BD00
:10171000714A7B4913661820042212F00BFE012047
:1017200008BD6D4A7749D3651720042212F002FEE6
:10173000012008BD684A744993651620042212F0FE
:10174000F9FD012008BD644A704953651520042243
:1017500012F0F0FD012008BD5F4A6D4913651420A9
:10176000042212F0E7FD012008BD5B4A6949D364F9
:101770001320042212F0DEFD012008BD564A6649FE
:1017800093641220042212F0D5FD012008BD524AB4
:10179000624953641120042212F0CCFD012008BDDF
:1017A0004D4A5F4913641020042212F0C3FD01204A
:1017B00008BD494A5B49D3630F20042212F0BAFDE9
:1017C000012008BD444A584993630E20042212F0B8
:1017D000B1FD012008BD404A544953630D20042245
:1017E00012F0A8FD012008BD3B4A514913630C20AB
:1017F000042212F09FFD012008BD374A4D49D362F3
:101800000B20042212F096FD012008BD324A4A49FD
:1018100093620A20042212F08DFD012008BD2E4A99
:10182000464953620920042212F084FD012008BDBC
:10183000294A434913620820042212F07BFD01204B
:1018400008BD254A3F49D3610720042212F072FDEA
:10185000012008BD204A3C4993610620042212F071
:1018600069FD012008BD1C4A384953610520042246
:1018700012F060FD012008BD174A354913610422AA
:10188000104612F057FD012008BD134A3149D360BC
:101890000320042212F04EFD012008BD0E4A2E49FD
:1018A00093600220042212F045FD012008BD0A4A7F
:1018B0002A4953600120042212F03CFD012008BD9A
:1018C000054A274913600020042212F033FD01204D
:1018D00008BD002008BD00BF78A1FF1F95150000BE
:1018E000150500009104000025070000A106000076
:1018F0001D06000099050000D10C00004D0C0000F1
:10190000C90B0000450B0000C10A00003D0A0000A1
:10191000B909000035090000111500008D14000000
:101920000914000085130000011300007D1200005F
:10193000F911000075110000F11000006D10000099
:10194000E90F0000650F0000E10E00005D0E0000D1
:10195000D90D0000550D0000B10800002D08000051
:10196000A907000038B50025044605708570C570CC
:1019700005714571C580058145818581C5810582D7
:10198000183011F0A3F904F1200004F0E3FA84F810
:101990003050204638BD00BF2DE9F04F012195B0F1
:1019A000032012F09FFD0121042012F09BFD012174
:1019B000032012F091FD0121042012F08DFDC24B95
:1019C000C24AC3F81021C24BC248C34EDFF844A339
:1019D000C24FDFF8449300254FF47A711D7004F074
:1019E000BDFA4FF49671BE4804F0B8FA3221BD48F2
:1019F00004F0B4FA6421BC4804F0B0FA1E21BB48DC
:101A000004F0ACFA4FF47A71B94804F0A7FA4FF435
:101A1000FA61B84804F0A2FA41F28831B64804F0FD
:101A20009DFAB64B12934FF0110C4FF001084FF096
:101A30001E0B4FF01403DFF8E4E2B149B14A1395ED
:101A400040F2FF300D950F958DF835C08DF834B00C
:101A5000CDF838E011928DF84C308DF84E308DF87D
:101A60004D80ADF83C0010910DAC0FCC06F1040E8A
:101A7000AEE80F0094E8070086F800B08EE8070093
:101A8000707912F089FA8346B08917F001FE014699
:101A9000306917F005FFB16817F04EFE044658464E
:101AA00017F0F6FD0146204617F046FE17F09AF9AA
:101AB00083A3D3E90023CDE908234FF00A0C4FF0AC
:101AC0000E0B4FF4967241F28833069507958DF808
:101AD00018C08DF81AC00B958DF819B0ADF82820F4
:101AE000ADF82A3006ACC6E90A010FCC0AF1200E87
:101AF000AEE80F0000220023C6E9082323688AF815
:101B000000C0CEF80030584612F0ECFC4FF47A7664
:101B10009AF8221096FBF1F10AF1100004F01EFA77
:101B20004FF00B0A4FF00F0C8DF819C08DF818A06C
:101B30000DF1180EBEE80F0007F1200EAEE80F0001
:101B40002368CEF80030604687F800A0294612F0DE
:101B5000C9FC97F8221096FBF1F107F1100004F090
:101B6000FDF94FF00C0C4FF0100E8DF819E08DF8C8
:101B700018C006AF0FCF09F120070FC7236889F8F7
:101B800000C070463B60294612F0ACFCDFF890B113
:101B900099F8221096FBF1F109F1100004F0DEF93A
:101BA000594BCBF89C3044F6206012F081FD0BF1CC
:101BB000C8004FF4FA6104F0D1F94FF01E071D2060
:101BC0004FF4FA614FF4FA7240F272638DF80BA091
:101BD000ADF80E608DF80A708DF8088004958DF8C8
:101BE0000900ADF80C10ADF81420ADF8163002AEB7
:101BF0000FCE464C04F10209C4F8020084F80080BC
:101C00001420C9F80820C9F80C30C9F8041014F0E1
:101C100047FB94F803A094F804B00646022150460E
:101C200012F060FC5846022112F05CFC384B53F86D
:101C30003A1053F83B2086F8088001F5007E02F543
:101C400000704FF47A4386F80980F560C6F800E02A
:101C50007060013BFDD191F8003292F8002203EA56
:101C60000803D10744BF43F00203DBB2B372BAF1F9
:101C7000210F02F2DA83DFE81AF084117B11701170
:101C8000651116110B110011F510EA10DF10D410B8
:101C9000C910BE10B310A8109D10921087107C10B0
:101CA000711066105B10501045103A102F10241060
:101CB00019100E100310F80FED0FE10F550000BFC3
:101CC00000000040E17A743F489DFF1FA48DFF1F74
:101CD000B49CFF1FFC9CFF1F989EFF1F5098FF1F86
:101CE0004098FF1F089CFF1F6C9CFF1F2098FF1F40
:101CF0003098FF1FB89CFF1FF89BFF1F0000584142
:101D00003333534066668641948DFF1F189CFF1F36
:101D1000604B0200609EFF1F109DFF1FCDCCB041A5
:101D2000189BFF1F7A4B7B49C3F884600422212053
:101D300012F000FB4FF0010A86F810A0BBF1210F52
:101D400002F27F83DFE81BF06D0F620F550F480F23
:101D50003B0F2E0FDE0ED10EC40EB70EAA0E9D0E37
:101D6000900E830E760E690E5C0E4F0E420E350EEF
:101D7000280E1B0E0E0E010EF40DE70DDA0DCD0D23
:101D8000C00DB30DA60D990D8B0D2200604B61495E
:101D9000C3F884600422212012F0CCFA96F810A037
:101DA0004FF0010BDA444FF4FA634FF47A72617921
:101DB00086F810A05848666110F0ACFF40F2DC5184
:101DC0005548564D11F004F84FF0030E1B211C220C
:101DD0000C238DF808E08DF809108DF80A208DF895
:101DE0000B3002AE0FCEAE1C85F800E0C5F8020045
:101DF0001420B260F360C5F8061014F051FA95F89B
:101E0000038095F804A006460221404612F06AFBC2
:101E10005046022112F066FB414B53F83A2053F82A
:101E2000381002F5007001F5007333607060002314
:101E30000120F36030724FF47A437072013BFDD1A0
:101E400091F8003292F800220340D20744BF43F0D9
:101E50000203DBB2B372B8F1210F02F2EE82DFE8C7
:101E600018F0F30CEA0CDF0CD40CC90C7A0C6F0CD4
:101E7000640C590C4E0C430C380C2D0C220C170C16
:101E80000C0C010CF60BEB0BE00BD50BCA0BBF0BCC
:101E9000B40BA90B9E0B930B880B7D0B720B670B7E
:101EA0005C0B500B22001A4B1A49C3F884600422C1
:101EB000212012F03FFA4FF0010886F81080BAF1A5
:101EC000210F02F2CD82DFE81AF00F0B040BF70AA4
:101ED000EA0ADD0AD00AC30A740A670A5A0A4D0AD6
:101EE000400A330A260A190A0C0AFF09F209E50911
:101EF000D809CB09BE09B109A40997098A097D0946
:101F000070096309560949093C092E092D0000BFD3
:101F100078A1FF1F95150000309CFF1F9898FF1FA8
:101F2000604B0200C34BC449C3F8846004222120E3
:101F300012F000FA96F810804FF0010AD0444FF4E6
:101F4000FA634FF47A72697986F81080BB486E6143
:101F500010F0E0FE40F2DC51B848DFF804B310F0B6
:101F600037FF16234FF002088DF80A3017224FF082
:101F700000038DF808808DF809208DF80B3002AE33
:101F80000FCE0BEB0806CBF802008BF80080142074
:101F9000F3607160B26014F083F99BF803209BF842
:101FA00004A0019206464146104612F09BFA4146B3
:101FB000504612F097FAA24B019A53F83A1053F890
:101FC000320000234FF0010EF36001F5007C00F5B4
:101FD00000733360C6F804C04FF47A4386F808E013
:101FE00086F809E0013BFDD190F8003291F800122B
:101FF00003EA0E03CF0744BF43EA0803DBB2B37220
:1020000010463146FFF708FB314630745046FFF763
:1020100003FB96F810E09BF80510CBF8146086449B
:1020200086F810E04FF4FA634FF47A728548864ED2
:1020300010F070FE40F2DC51824810F0C9FE15230A
:102040004FF0040C8DF809304FF014084FF00103E5
:102050008DF808C08DF80A808DF80B300DF1080E50
:10206000BEE80F0086F800C0C6F802004046C6F879
:102070000E30C6F80610C6F80A2014F011F9F278EE
:1020800096F804A0019280460221104612F02AFA26
:102090005046022112F026FA694B019A53F83A1081
:1020A00053F832004FF0010300F5007E88F8083045
:1020B00088F80930C8F800E001F500734FF0000E11
:1020C000C8F80430C8F80CE04FF47A43013BFDD166
:1020D00090F8003291F8001203F00103C80744BFE2
:1020E00043F00203DBB288F80A3010464146FFF79E
:1020F00093FA414688F810005046FFF78DFA98F899
:1021000010E07179C6F81480864488F810E04FF426
:102110007A724FF4FA634D4810F0FCFD40F2DC5146
:102120004A4810F055FE4FF47A7012F003FA484B0B
:1021300048484FF0140A83F800A003F0A5FF4FF4BD
:10214000247014F0ADF84449804606F015FD404B6C
:102150004046C3F808800AF0D3F93D4A036850604E
:102160001B6998473A4B3A495B683C4AD3F884303C
:10217000C8604FF001081A6783F8A18083F8A28035
:1021800083F8A3804FF47A7081F8108012F0D2F9AE
:102190001D211E220B238DF808808DF809108DF863
:1021A0000A208DF80B300DF1080EBEE80F0084F800
:1021B0000080C4F802005046C9F80820C9F804108D
:1021C000C9F80C3014F06CF8E37894F804A001938B
:1021D00081460221184612F085F95046022112F07C
:1021E00081F9174A019B52F83A1052F8330089F8E6
:1021F000088000F5007201F5007C4FF0000EC9F870
:10220000002089F809804FF47A42C9F804C0C9F85F
:102210000CE0013AFDD190F8002291F8001202EA98
:102220000802C90744BF42F00202D2B289F80A206C
:1022300018E000BF78A1FF1F95150000B098FF1FA0
:10224000604B0200989CFF1FC89CFF1FE09CFF1F73
:10225000CC9AFF1F0088FF1F5C1502000AD7A33C21
:10226000809CFF1F212B02F2F880DFE813F051075A
:1022700045073A072F0724071907C906BE06B30604
:10228000A8069D06920687067C06710666065B0612
:10229000500645063A062F06240619060E060306C2
:1022A000F805ED05E205D705CC05C105B605AB057A
:1022B0002200A84BA849C3F884900422212012F0E0
:1022C00039F80123494689F810305046FFF7A4F940
:1022D00099F810306179C4F8149018444FF47A7268
:1022E0004FF4FA6389F810009C489D4F10F012FDDE
:1022F00040F2DC51994810F06BFD4FF0030C1B21AC
:102300001C220C238DF808C08DF809108DF80A20C6
:102310008DF80B300DF1080EBEE80F0085F800C0F7
:10232000C5F802001420BA60FB60796013F0B8FFB2
:1023300095F8039095F804A080460221484612F0D3
:10234000D1F85046022112F0CDF8864B53F83910DF
:1023500053F83A2001F5007002F500730027C8F821
:1023600000000120C8F80430C8F80C704FF47A431C
:1023700088F8080088F80900013BFDD191F8003287
:1023800092F800220340D20744BF43F00203DBB2BD
:1023900088F80A30B9F1210F02F25B80DFE819F00A
:1023A0000605FC04F004E404D804CC04C004B4041E
:1023B000A8049C0490043F04330427041C04110463
:1023C0000604FB03F003E503DA03CF03C403B903F8
:1023D000AE03A30398038D03820377036C036103A9
:1023E000560322005B4B5C49C3F884800422212001
:1023F00011F0A0FF4FF0010988F81090BAF1210FF9
:1024000002F22380DFE81AF015030A03FD02F0024E
:10241000E302D602C902BC02AF02A2029502880200
:1024200048023B022E02210214020702FA019F0118
:102430009201850178016B015E0151014401D301D4
:10244000C601B901AC01ED01E0012200414B424956
:10245000C3F884800422212011F06CFF98F81090BA
:102460004FF0010AD1444FF4FA634FF47A7269795C
:1024700088F810903C48C5F8148010F04BFC40F2EE
:10248000DC51394810F0A4FC4FF47A7012F052F885
:102490003648636972B60022DA6062B6218A2389FF
:1024A0008B4203D8C3888B4281F069873048E18929
:1024B000A0F1200703F052FD08E072B6D16862B6C1
:1024C00081EAE173A3EBE173032B5DDC284803F0A1
:1024D00063FD00285BD17A69137C012BEDD872B6BD
:1024E00013685068197890F800E0507A137A1EEA61
:1024F000000F01EA030101F00187937A03F003035F
:1025000009B143F0040343F008039910013B9172B1
:102510000D2BD3D801A151F823F000BF892600006C
:10252000812600007926000081260000BD240000DD
:102530007525000089260000892600007525000009
:10254000BD240000812600007926000081260000BD
:102550008926000078A1FF1F95150000309CFF1F01
:102560009A98FF1F604B0200B098FF1F189CFF1F36
:10257000389CFF1FD368991ED16062B681EAE1736F
:10258000A3EBE173032BA1DD012384F83030218A12
:102590002389C84A8B4203D8D3888B4281F0E386D3
:1025A000626972B60023D36062B6C348DBF81420B8
:1025B00072B6D36062B6BBF81010BBF808308B421D
:1025C00003D8C3888B4281F0F186BC48BBF80E105B
:1025D000A0F1200703F0C2FC09E072B6D16862B630
:1025E00081EAE173A3EBE173032B01F3E084B348C9
:1025F00003F0D2FC002841F0DD847A69137C012BC2
:10260000EBD872B613685068197890F800E0507AE9
:10261000137A1EEA000F01EA030101F07986937A2A
:1026200003F00303002941F0048743F008039910E5
:10263000013B91720D2BD1D801A151F823F000BFBD
:10264000AD400000A340000099400000A3400000FE
:10265000DD250000993F0000AD400000AD400000C6
:10266000993F0000DD250000A340000099400000D4
:10267000A3400000AD400000D368991CD1601EE764
:10268000D368591ED1601AE7D368591CD16016E788
:102690008B4B8C49C3F8688004221A2011F04AFE43
:1026A0004FF0010A98F81090DCE6854B8649C3F894
:1026B00064800422192011F03DFE4FF0010A98F8C1
:1026C0001090CFE67E4B8149C3F860800422182029
:1026D00011F030FE4FF0010A98F81090C2E6784BE6
:1026E0007B49C3F85C800422172011F023FE4FF0D1
:1026F000010A98F81090B5E6714B7649C3F85880F6
:102700000422162011F016FE4FF0010A98F81090DE
:10271000A8E66B4B7049C3F854800422152011F0D1
:1027200009FE4FF0010A98F810909BE6644B6B4944
:10273000C3F850800422142011F0FCFD4FF0010A70
:1027400098F810908EE65E4B6549C3F84C800422E1
:10275000132011F0EFFD4FF0010A98F8109081E678
:10276000574B6049C3F8788004221E2011F0E2FD27
:102770004FF0010A98F8109074E6514B5A49C3F88B
:10278000748004221D2011F0D5FD4FF0010A98F845
:10279000109067E64A4B5549C3F8708004221C200C
:1027A00011F0C8FD4FF0010A98F810905AE6444B1A
:1027B0004F49C3F86C8004221B2011F0BBFD4FF081
:1027C000010A98F810904DE63D4B4A49C3F88080C5
:1027D0000422202011F0AEFD4FF0010A98F810906D
:1027E00040E6374B4449C3F87C8004221F2011F097
:1027F000A1FD4FF0010A98F8109033E6304B3F49A5
:10280000C3F848800422122011F094FD4FF0010A11
:1028100098F8109026E62A4B3949C3F844800422E0
:10282000112011F087FD4FF0010A98F8109019E679
:10283000234B3449C3F840800422102011F07AFD64
:102840004FF0010A98F810900CE61D4B2E49C3F882
:102850003C8004220F2011F06DFD4FF0010A98F822
:102860001090FFE5164B2949C3F8388004220E204A
:1028700011F060FD4FF0010A98F81090F2E5104B4E
:102880002349C3F8348004220D2011F053FD4FF08A
:10289000010A98F81090E5E5094B1E49C3F830800D
:1028A00004220C2011F046FD4FF0010A98F8109018
:1028B000D8E500BF189CFF1F809CFF1FA09CFF1F36
:1028C00078A1FF1FD10C00004D0C0000C90B0000C7
:1028D000450B0000C10A00003D0A0000B9090000D4
:1028E0003509000025070000A10600001D060000B4
:1028F0009905000015050000910400001115000065
:102900008D1400000914000085130000011300005D
:102910007D120000F9110000C74BC849C3F82C8094
:1029200004220B2011F006FD4FF0010A98F81090D8
:1029300098E5C14BC249C3F8288004220A2011F04F
:10294000F9FC4FF0010A98F810908BE5BA4BBD499D
:10295000C3F824800422092011F0ECFC4FF0010A96
:1029600098F810907EE5B44BB749C3F82080042254
:10297000082011F0DFFC4FF0010A98F8109071E583
:10298000AD4BB249C3F81C800422072011F0D2FCE1
:102990004FF0010A98F8109064E5A74BAC49C3F8D2
:1029A00018800422062011F0C5FC4FF0010A98F8A7
:1029B000109057E5A04BA749C3F8148004220520C6
:1029C00011F0B8FC4FF0010A98F810904AE59A4BC4
:1029D000A149C3F810800422104611F0ABFC4FF05F
:1029E000010A98F810903DE5934B9C49C3F80C8080
:1029F0000422032011F09EFC4FF0010A98F8109079
:102A000030E58D4B9649C3F808800422022011F06E
:102A100091FC4FF0010A98F8109023E5864B9149FC
:102A2000C3F804800422012011F084FC98F810906F
:102A300018E5814B8C49C3F800800422002011F076
:102A400079FC4FF0010A98F810900BE57A4B874912
:102A5000C3F880800422202011F06CFC4FF00109A3
:102A6000CAE4754B8249C3F87C8004221F2011F010
:102A700061FC4FF00109BFE46F4B7E49C3F87880D9
:102A800004221E2011F056FC4FF00109B4E46A4BF9
:102A90007949C3F8748004221D2011F04BFC4FF0DB
:102AA0000109A9E4644B7549C3F8708004221C2015
:102AB00011F040FC4FF001099EE45F4B7049C3F8F0
:102AC0006C8004221B2011F035FC4FF0010993E4C7
:102AD000594B6C49C3F8688004221A2011F02AFC73
:102AE0004FF0010988E4544B6749C3F8648004221D
:102AF000192011F01FFC4FF001097DE44E4B634992
:102B0000C3F860800422182011F014FC4FF0010972
:102B100072E4494B5E49C3F85C800422172011F02F
:102B200009FC4FF0010967E4434B5A49C3F8588048
:102B30000422162011F0FEFB4FF001095CE43E4B2D
:102B40005549C3F854800422152011F0F3FB4FF0CF
:102B5000010951E4384B5149C3F850800422142034
:102B600011F0E8FB4FF0010946E4334B4C49C3F840
:102B70004C800422132011F0DDFB4FF001093BE4EF
:102B80002D4B4849C3F848800422122011F0D2FB93
:102B90004FF0010930E4284B4349C3F84480042234
:102BA000112011F0C7FB4FF0010925E4224B3F49EA
:102BB000C3F840800422102011F0BCFB4FF0010943
:102BC0001AE41D4B3A49C3F83C8004220F2011F04F
:102BD000B1FB4FF001090FE4174B3649C3F83880B9
:102BE00004220E2011F0A6FB4FF0010904E4124B61
:102BF0003149C3F8348004220D2011F09BFB4FF0C3
:102C00000109FFF7F9BB0C4B2C49C3F830800422B3
:102C10000C2011F08FFB4FF00109FFF7EDBB064BC5
:102C20000649C3F82C8004220B2011F083FB4FF0DF
:102C30000109FFF7E1BB00BF78A1FF1F751100007C
:102C4000F11000006D100000E90F0000650F00009A
:102C5000E10E00005D0E0000D90D0000550D0000D2
:102C6000B10800002D080000A907000015050000AC
:102C70009104000025070000A10600001D060000C9
:102C800099050000D10C00004D0C0000C90B00009C
:102C9000450B0000C10A00003D0A0000B909000010
:102CA00035090000111500008D1400000914000002
:102CB00085130000011300007D120000F9110000CF
:102CC000D54BD649C3F8288004220A2011F032FBE4
:102CD0004FF00109FFF790BBCF4BD149C3F82480D7
:102CE0000422092011F026FB4FF00109FFF784BBF5
:102CF000C94BCC49C3F820800422082011F01AFBEC
:102D00004FF00109FFF778BBC34BC749C3F81C80DC
:102D10000422072011F00EFB4FF00109FFF76CBBF6
:102D2000BD4BC249C3F818800422062011F002FBF3
:102D30004FF00109FFF760BBB74BBD49C3F81480E2
:102D40000422052011F0F6FA4FF00109FFF754BBF9
:102D5000B14BB849C3F810800422104611F0EAFACA
:102D60004FF00109FFF748BBAB4BB349C3F80C80E8
:102D70000422032011F0DEFA4FF00109FFF73CBBFB
:102D8000A54BAE49C3F808800422022011F0D2FA04
:102D90004FF00109FFF730BB9F4BA949C3F80480EE
:102DA0000422012011F0C6FAFFF726BB9A4BA54971
:102DB000C3F800800422002011F0BCFA4FF0010992
:102DC000FFF71ABB944BA049C3F88090042220203F
:102DD00011F0B0FA0123FFF775BA8F4B9B49C3F886
:102DE0007C9004221F2011F0A5FA0123FFF76ABA94
:102DF000894B9749C3F8789004221E2011F09AFA63
:102E00000123FFF75FBA844B9249C3F87490042200
:102E10001D2011F08FFA0123FFF754BA7E4B8E4923
:102E2000C3F8709004221C2011F084FA0123FFF7EC
:102E300049BA794B8949C3F86C9004221B2011F0E0
:102E400079FA0123FFF73EBA734B8549C3F86890BE
:102E500004221A2011F06EFA0123FFF733BA6E4BE9
:102E60008049C3F864900422192011F063FA012309
:102E7000FFF728BA684B7C49C3F8609004221820F9
:102E800011F058FA0123FFF71DBA634B7749C3F8D5
:102E90005C900422172011F04DFA0123FFF712BABB
:102EA0005D4B7349C3F858900422162011F042FA82
:102EB0000123FFF707BA584B6E49C3F85490042218
:102EC000152011F037FA0123FFF7FCB9524B6A497C
:102ED000C3F850900422142011F02CFA0123FFF7BC
:102EE000F1B94D4B6549C3F84C900422132011F001
:102EF00021FA0123FFF7E6B9474B6149C3F848902F
:102F00000422122011F016FA0123FFF7DBB9424B1D
:102F10005C49C3F844900422112011F00BFA0123FC
:102F2000FFF7D0B93C4B5849C3F840900422102019
:102F300011F000FA0123FFF7C5B9374B5349C3F825
:102F40003C9004220F2011F0F5F90123FFF7BAB9E4
:102F5000314B4F49C3F8389004220E2011F0EAF9A2
:102F60000123FFF7AFB92C4B4A49C3F83490042230
:102F70000D2011F0DFF90123FFF7A4B9264B4649D4
:102F8000C3F8309004220C2011F0D4F90123FFF78C
:102F900099B9214B4149C3F82C9004220B2011F020
:102FA000C9F90123FFF78EB91B4B1C49C3F82890C0
:102FB00004220A2011F0BEF90123FFF783B9164B52
:102FC0001749C3F824900422092011F0B3F9012312
:102FD000FFF778B9104B1349C3F82090042208205A
:102FE00011F0A8F90123FFF76DB90B4B0E49C3F897
:102FF0001C900422072011F09DF90123FFF762B90C
:10300000054B0A49C3F818900422062011F092F9E2
:103010000123FFF757B900BF78A1FF1FF11000008F
:103020006D100000E90F0000650F0000E10E0000C8
:103030005D0E0000D90D0000550D0000B108000024
:103040002D080000A90700001505000091040000EC
:1030500025070000A10600001D06000099050000DC
:10306000D10C00004D0C0000C90B0000450B000006
:10307000C10A00003D0A0000B9090000350900003E
:10308000111500008D1400000914000085130000C4
:10309000011300007D120000F911000075110000FD
:1030A000CA4BCB49C3F814900422052011F042F911
:1030B0000123FFF707B9C54BC649C3F81090042296
:1030C000104611F037F90123FFF7FCB8BF4BC24996
:1030D000C3F80C900422032011F02CF90123FFF710
:1030E000F1B8BA4BBD49C3F808900422022011F090
:1030F00021F90123FFF7E6B8B44AB949C2F80490B0
:1031000001200422019311F015F9019BFFF7DAB8B1
:10311000AE4BB449C3F800900422002011F00AF924
:103120000123FFF7CFB8A94BAF49C3F88060042251
:10313000202011F0FFF84FF0010A96F81080FEF7FA
:10314000FDBEA24BA949DE6704221F2011F0F2F850
:103150004FF0010A96F81080FEF7F0BE9B4BA44991
:103160009E6704221E2011F0E5F84FF0010A96F840
:103170001080FEF7E3BE954B9E495E6704221D203A
:1031800011F0D8F84FF0010A96F81080FEF7D6BE7D
:103190008E4B99491E6704221C2011F0CBF84FF08A
:1031A000010A96F81080FEF7C9BE884B9349DE6687
:1031B00004221B2011F0BEF84FF0010A96F810808F
:1031C000FEF7BCBE814B8E499E6604221A2011F088
:1031D000B1F84FF0010A96F81080FEF7AFBE7B4BB6
:1031E00088495E660422192011F0A4F84FF0010A04
:1031F00096F81080FEF7A2BE744B83491E66042227
:10320000182011F097F84FF0010A96F81080FEF799
:1032100095BE6E4B7D49DE650422172011F08AF8B9
:103220004FF0010A96F81080FEF788BE674B784988
:103230009E650422162011F07DF84FF0010A96F8E1
:103240001080FEF77BBE614B72495E65042215203B
:1032500011F070F84FF0010A96F81080FEF76EBE7C
:103260005A4B6D491E650422142011F063F84FF08B
:10327000010A96F81080FEF761BE544B6749DE6480
:103280000422132011F056F84FF0010A96F810802E
:10329000FEF754BE4D4B62499E640422122011F089
:1032A00049F84FF0010A96F81080FEF747BE474BE9
:1032B0005C495E640422112011F03CF84FF0010AD1
:1032C00096F81080FEF73ABE404B57491E64042220
:1032D000102011F02FF84FF0010A96F81080FEF739
:1032E0002DBE3A4B5149DE6304220F2011F022F823
:1032F0004FF0010A96F81080FEF720BE334B4C4980
:103300009E6304220E2011F015F84FF0010A96F882
:103310001080FEF713BE2D4B46495E6304220D203C
:1033200011F008F84FF0010A96F81080FEF706BE7B
:10333000264B41491E6304220C2010F0FBFF4FF086
:10334000010A96F81080FEF7F9BD204B3B49DE627A
:1033500004220B2010F0EEFF4FF0010A96F81080C7
:10336000FEF7ECBD194B36499E6204220A2010F08C
:10337000E1FF4FF0010A96F81080FEF7DFBD134B16
:1033800030495E620422092010F0D4FF4FF0010A98
:1033900096F81080FEF7D2BD0C4B2B491E6204221A
:1033A000082010F0C7FF4FF0010A96F81080FEF7D2
:1033B000C5BD064B2549DE610422072010F0BAFF87
:1033C0004FF0010A96F81080FEF7B8BD78A1FF1FF4
:1033D0005D0E0000D90D0000550D0000B108000081
:1033E0002D080000A9070000150500009104000049
:1033F00025070000A10600001D0600009905000039
:10340000D10C00004D0C0000C90B0000450B000062
:10341000C10A00003D0A0000B9090000350900009A
:10342000111500008D140000091400008513000020
:10343000011300007D120000F91100007511000059
:10344000F11000006D100000E90F0000650F000092
:10345000C64BC7499E610422062010F06BFF4FF057
:10346000010A96F81080FEF769BDC04BC1495E6144
:103470000422052010F05EFF4FF0010A96F810803C
:10348000FEF75CBDB94BBC491E610422104610F02A
:1034900051FF4FF0010A96F81080FEF74FBDB34B75
:1034A000B649DE600422032010F044FF4FF0010A09
:1034B00096F81080FEF742BDAC4BB1499E600422E5
:1034C000022010F037FF4FF0010A96F81080FEF747
:1034D00035BDA64BAB495E600422012010F02AFFE7
:1034E00096F81080FEF72ABDA04BA7491E60042263
:1034F000002010F01FFF4FF0010A96F81080FEF731
:103500001DBD9A4BA149C3F880600422202010F011
:1035100011FF4FF00108FEF7D0BC944B9C49DE67C9
:1035200004221F2010F006FF4FF00108FEF7C5BC73
:103530008E4B98499E6704221E2010F0FBFE4FF030
:103540000108FEF7BABC894B93495E6704221D202F
:1035500010F0F0FE4FF00108FEF7AFBC834B8F492F
:103560001E6704221C2010F0E5FE4FF00108FEF754
:10357000A4BC7E4B8A49DE6604221B2010F0DAFED2
:103580004FF00108FEF799BC784B86499E660422ED
:103590001A2010F0CFFE4FF00108FEF78EBC734BDF
:1035A00081495E660422192010F0C4FE4FF0010824
:1035B000FEF783BC6D4B7D491E660422182010F077
:1035C000B9FE4FF00108FEF778BC684B7849DE651C
:1035D0000422172010F0AEFE4FF00108FEF76DBC7C
:1035E000624B74499E650422162010F0A3FE4FF032
:1035F0000108FEF762BC5D4B6F495E650422152031
:1036000010F098FE4FF00108FEF757BC574B6B497E
:103610001E650422142010F08DFE4FF00108FEF705
:103620004CBC524B6649DE640422132010F082FE2B
:103630004FF00108FEF741BC4C4B62499E640422E6
:10364000122010F077FE4FF00108FEF736BC474B12
:103650005D495E640422112010F06CFE4FF00108F9
:10366000FEF72BBC414B59491E640422102010F078
:1036700061FE4FF00108FEF720BC3C4B5449DE636D
:1036800004220F2010F056FE4FF00108FEF715BC83
:10369000364B50499E6304220E2010F04BFE4FF033
:1036A0000108FEF70ABC314B4B495E6304220D2032
:1036B00010F040FE4FF00108FEF7FFBB2B4B4749CF
:1036C0001E6304220C2010F035FE4FF00108FEF7B7
:1036D000F4BB264B4249DE6204220B2010F02AFE86
:1036E0004FF00108FEF7E9BB204B3E499E620422E1
:1036F0000A2010F01FFE4FF00108FEF7DEBB1B4B47
:1037000039495E620422092010F014FE4FF00108CE
:10371000FEF7D3BB154B35491E620422082010F07A
:1037200009FE4FF00108FEF7C8BB104B3049DE61BF
:103730000422072010F0FEFD4FF00108FEF7BDBB8C
:103740000A4B0B499E610422062010F0F3FD4FF056
:103750000108FEF7B2BB054B06495E610422052055
:1037600010F0E8FD4FF00108FEF7A7BB78A1FF1F9E
:10377000E10E00005D0E0000D90D0000550D0000A7
:10378000B10800002D080000A90700001505000081
:103790009104000025070000A10600001D0600009E
:1037A00099050000D10C00004D0C0000C90B000071
:1037B000450B0000C10A00003D0A0000B9090000E5
:1037C00035090000111500008D14000009140000D7
:1037D00085130000011300007D120000F9110000A4
:1037E00075110000F11000006D100000E90F0000DD
:1037F000650F0000CA4BCB491E610422104610F031
:1038000099FD4FF00108FEF758BBC54BC649DE6075
:103810000422032010F08EFD4FF00108FEF74DBB8F
:10382000BF4BC2499E600422022010F083FD4FF07E
:103830000108FEF742BBBA4BBD495E60042201207D
:1038400010F078FDFEF739BBB54BBA491E60042273
:10385000002010F06FFD4FF00108FEF72EBBB04BBB
:10386000B549C3F880600422202010F063FD4FF0BA
:10387000010B96F810A0FEF795BAA94BAF49DE6789
:1038800004221F2010F056FD4FF0010B96F810A0F7
:10389000FEF788BAA24BAA499E6704221E2010F0A8
:1038A00049FD4FF0010B96F810A0FEF77BBA9C4B38
:1038B000A4495E6704221D2010F03CFD4FF0010B6F
:1038C00096F810A0FEF76EBA954B9F491E6704222A
:1038D0001C2010F02FFD4FF0010B96F810A0FEF702
:1038E00061BA8F4B9949DE6604221B2010F022FD3D
:1038F0004FF0010B96F810A0FEF754BA884B94498C
:103900009E6604221A2010F015FD4FF0010B96F868
:1039100010A0FEF747BA824B8E495E66042219203A
:1039200010F008FD4FF0010B96F810A0FEF73ABA20
:103930007B4B89491E660422182010F0FBFC4FF0D7
:10394000010B96F810A0FEF72DBA754B8349DE6582
:103950000422172010F0EEFC4FF0010B96F810A097
:10396000FEF720BA6E4B7E499E650422162010F0A9
:10397000E1FC4FF0010B96F810A0FEF713BA684B6C
:1039800078495E650422152010F0D4FC4FF0010B3D
:1039900096F810A0FEF706BA614B73491E65042223
:1039A000142010F0C7FC4FF0010B96F810A0FEF7A2
:1039B000F9B95B4B6D49DE640422132010F0BAFCA8
:1039C0004FF0010B96F810A0FEF7ECB9544B684984
:1039D0009E640422122010F0ADFC4FF0010B96F80B
:1039E00010A0FEF7DFB94E4B62495E64042211203D
:1039F00010F0A0FC4FF0010B96F810A0FEF7D2B922
:103A0000474B5D491E640422102010F093FC4FF0D8
:103A1000010B96F810A0FEF7C5B9414B5749DE637C
:103A200004220F2010F086FC4FF0010B96F810A036
:103A3000FEF7B8B93A4B52499E6304220E2010F0AB
:103A400079FC4FF0010B96F810A0FEF7ABB9344BA0
:103A50004C495E6304220D2010F06CFC4FF0010B0A
:103A600096F810A0FEF79EB92D4B47491E6304221D
:103A70000C2010F05FFC4FF0010B96F810A0FEF741
:103A800091B9274B4149DE6204220B2010F052FC11
:103A90004FF0010B96F810A0FEF784B9204B3C497B
:103AA0009E6204220A2010F045FC4FF0010B96F8AC
:103AB00010A0FEF777B91A4B36495E62042209203E
:103AC00010F038FC4FF0010B96F810A0FEF76AB921
:103AD000134B31491E620422082010F02BFC4FF0DA
:103AE000010B96F810A0FEF75DB90D4B2B49DE6176
:103AF0000422072010F01EFC4FF0010B96F810A0D6
:103B0000FEF750B9064B26499E610422062010F0AC
:103B100011FC4FF0010B96F810A0FEF743B900BF5F
:103B200078A1FF1FD90D0000550D0000B10800005D
:103B30002D080000A90700001505000091040000F1
:103B400025070000A10600001D06000099050000E1
:103B5000D10C00004D0C0000C90B0000450B00000B
:103B6000C10A00003D0A0000B90900003509000043
:103B7000111500008D1400000914000085130000C9
:103B8000011300007D120000F91100007511000002
:103B9000F11000006D100000E90F0000650F00003B
:103BA000E10E0000C54BC6495E610422052010F0FD
:103BB000C1FB4FF0010B96F810A0FEF7F3B8BF4B16
:103BC000C0491E610422104610F0B4FB4FF0010BF7
:103BD00096F810A0FEF7E6B8B84BBB49DE600422A9
:103BE000032010F0A7FB4FF0010B96F810A0FEF792
:103BF000D9B8B24BB5499E600422022010F09AFB5E
:103C00004FF0010B96F810A0FEF7CCB8AB4BB049C3
:103C10005E600422012010F08DFB96F810A0FEF7E4
:103C2000C1B8A64BAB491E600422002010F082FBF5
:103C30004FF0010B96F810A0FEF7B4B89F4BA649C1
:103C4000C3F880600422202010F074FB4FF0010ABA
:103C5000FEF772B8994BA149DE6704221F2010F0CD
:103C600069FB4FF0010AFEF767B8944B9C499E67C9
:103C700004221E2010F05EFB4FF0010AFEF75CB834
:103C80008E4B98495E6704221D2010F053FB4FF0C5
:103C9000010AFEF751B8894B93491E6704221C2084
:103CA00010F048FB4FF0010AFEF746B8834B8F49EE
:103CB000DE6604221B2010F03DFB4FF0010AFEF7E8
:103CC0003BB87E4B8A499E6604221A2010F032FBD4
:103CD0004FF0010AFEF730B8784B86495E66042241
:103CE000192010F027FB4FF0010AFEF725B8734B9F
:103CF00081491E660422182010F01CFB4FF0010AB7
:103D0000FEF71AB86D4B7D49DE650422172010F0CE
:103D100011FB4FF0010AFEF70FB8684B78499E651A
:103D20000422162010F006FB4FF0010AFEF704B83B
:103D3000624B74495E650422152010F0FBFA4FF0C7
:103D4000010AFDF7F9BF5D4B6F491E65042214207F
:103D500010F0F0FA4FF0010AFDF7EEBF574B6B4938
:103D6000DE640422132010F0E5FA4FF0010AFDF79B
:103D7000E3BF524B66499E640422122010F0DAFA27
:103D80004FF0010AFDF7D8BF4C4B62495E64042234
:103D9000112010F0CFFA4FF0010AFDF7CDBF474BCD
:103DA0005D491E640422102010F0C4FA4FF0010A8D
:103DB000FDF7C2BF414B5949DE6304220F2010F0CA
:103DC000B9FA4FF0010AFDF7B7BF3C4B54499E6367
:103DD00004220E2010F0AEFA4FF0010AFDF7ACBF3E
:103DE000364B50495E6304220D2010F0A3FA4FF0C9
:103DF000010AFDF7A1BF314B4B491E6304220C2081
:103E000010F098FA4FF0010AFDF796BF2B4B474987
:103E1000DE6204220B2010F08DFA4FF0010AFDF74C
:103E20008BBF264B42499E6204220A2010F082FA80
:103E30004FF0010AFDF780BF204B3E495E6204222D
:103E4000092010F077FA4FF0010AFDF775BF1B4B00
:103E500039491E620422082010F06CFA4FF0010A62
:103E6000FDF76ABF154B3549DE610422072010F0CB
:103E700061FA4FF0010AFDF75FBF104B30499E61B8
:103E80000422062010F056FA4FF0010AFDF754BF45
:103E90000A4B0B495E610422052010F04BFA4FF0EB
:103EA000010AFDF749BF054B06491E610422104671
:103EB00010F040FA4FF0010AFDF73EBF78A1FF1F56
:103EC0005D0E0000D90D0000550D0000B108000086
:103ED0002D080000A907000015050000910400004E
:103EE00025070000A10600001D060000990500003E
:103EF000D10C00004D0C0000C90B0000450B000068
:103F0000C10A00003D0A0000B9090000350900009F
:103F1000111500008D140000091400008513000025
:103F2000011300007D120000F9110000751100005E
:103F3000F11000006D100000E90F0000650F000097
:103F4000E10E00009F4BA049DE600422032010F028
:103F5000F1F94FF0010AFDF7EFBE9A4B9B499E60C5
:103F60000422022010F0E6F94FF0010AFDF7E4BE4A
:103F7000944B97495E600422012010F0DBF9FDF7B5
:103F8000DBBE904B93491E600422002010F0D2F952
:103F90004FF0010AFDF7D0BED368991ED16062B61A
:103FA00081EAE173A3EBE173032B7EF720AB0123DE
:103FB0008BF83030BBF81010BBF80830864A8B42C3
:103FC00003D8D3888B4280F0AD81DBF8142072B621
:103FD0000023D36062B681486A6972B6D36062B664
:103FE000298A2B898B4203D8C3888B4280F0EA81CF
:103FF0007B48E989A0F1200701F0B0FF08E072B624
:10400000D16862B681EAE173A3EBE173032B5CDC58
:10401000734801F0C1FF00285AD17A69137C012B43
:10402000EDD872B613685068197890F800E0507AAD
:10403000137A1EEA000F01EA030100F04D81937A22
:1040400003F0030309B143F0040343F0080399109C
:10405000013B91720D2BD3D801A151F823F000BF81
:10406000BD410000B5410000AD410000B541000078
:1040700001400000B7400000BD410000BD4100000C
:10408000B740000001400000B5410000AD41000014
:10409000B5410000BD410000D368991CD160FEF716
:1040A0009EBAD368591ED160FEF799BAD368591CDD
:1040B000D160FEF794BAD368991ED16062B681EAE6
:1040C000E173A3EBE173032BA2DD012385F830300C
:1040D000298A2B89414A8B4203D8D3888B4280F0AE
:1040E00037816A6972B60023D36062B63D4872694F
:1040F00072B6D36062B6318A33898B4203D8C388E3
:104100008B4280F048813848F189A0F1200701F006
:1041100025FF08E072B6D16862B681EAE173A3EBCD
:10412000E173032B6CDC304801F036FF00286AD1C4
:104130007A69137C012BEDD872B613685068197830
:1041400090F800E0507A137A1EEA000F01EA0301AA
:1041500000F0CB80937A03F0030309B143F004032A
:1041600043F008039910013B91720D2BD3D801A1A4
:1041700051F823F09D420000954200008D4200005E
:104180009542000017410000ED4100009D420000F3
:104190009D420000ED4100001741000095420000E3
:1041A0008D420000954200009D420000D368991C9A
:1041B000D16026E7D368591ED16022E7D368591C25
:1041C000D1601EE778A1FF1F550D0000B108000067
:1041D0002D080000A9070000809CFF1F9898FF1F72
:1041E000B898FF1FC89CFF1FE89CFF1FD368991E4B
:1041F000D16062B681EAE173A3EBE173032B92DD38
:10420000012386F83030318A3389974A8B4203D8AC
:10421000D3888B4280F091807369934972B60022F3
:10422000DA6062B694F83030002B3BD09BF8303027
:10423000002B37D095F83030002B33D091F8303048
:10424000002B2FD0894B894A1B7C002B39D0536817
:104250001A7922B9D3F8803093F8253043B98449CC
:10426000844812F00BF8844A01231370834A1370B8
:1042700001210D2010F036F90121814801F01EFEC8
:104280000A2015B0BDE8F04F0FF052BED368991C5C
:10429000D16041E7D368591ED1603DE7D368591C0E
:1042A000D16039E77749734811F0E8FF724A01217C
:1042B0001170724A022313706C4B6C4A1B7C002BEA
:1042C000C5D171496B4811F0D9FF6B4A01211170BA
:1042D0006A4A02231370CBE7937A03F003030029A1
:1042E0003FF4B5AE43F00403B1E6937A03F0030361
:1042F00000293FF437AF43F0040333E7937A03F028
:10430000030300293EF401A943F00403FEF7FDB8BE
:10431000937A03F0030300293EF489A943F00403D0
:10432000FEF785B940F2DC53994256D99389194476
:1043300089B256480EF04CFD47E640F2DC539942F4
:1043400055D99389194489B251480EF041FD63E76C
:1043500040F2DC53994245D99389194489B24D48BA
:104360000EF036FDBDE640F2DC53994244D9938904
:10437000194489B248480EF02BFDFEF711B940F2FE
:10438000DC53994247D98389194489B242480EF0D7
:104390001FFDFEF78BB840F2DC53994240D9838968
:1043A000194489B23A480EF013FDACE640F2DC53F2
:1043B00099422BD98389194489B234480EF008FDFB
:1043C000FEF703B940F2DC5399421AD983891944A4
:1043D00089B230480EF0FCFC0AE6AAD05389C91A0B
:1043E00089B2A6E7BBD05389C91A89B2B7E7ABD067
:1043F0005389C91A89B2A7E7BCD05389C91A89B2AF
:10440000B8E7E6D04389C91A89B2E2E7D5D0438933
:10441000C91A89B2D1E7B9D04389C91A89B2B5E7B7
:10442000C0D04389C91A89B2BCE74FF0000AFDF732
:1044300083BC43F00403FEF7F8B84FF00008FDF723
:104440003CBD4FF0000BFDF7ADBC4FF0000AFEF78E
:1044500009B84FF00009FDF7CFBF0023FDF732BFC9
:104460004FF0000AFDF76ABDC89CFF1FCC9AFF1FE2
:10447000801502008898FF1F1D98FF1FB49CFF1F26
:10448000E89EFF1F7415020068150200989CFF1F2C
:10449000E09CFF1FB098FF1F309CFF1FF0B587B056
:1044A0002D4800AF01F078FD00284CD02B4B1B7835
:1044B000002B48D02A4B2B4A1B683B603B68127884
:1044C000BB600024F8237A713B71BC713B1D03CBA8
:1044D000254DC7F81210C822082315F80C1FC7F87D
:1044E0000E003A737B736E46E2B20823D00703F1E5
:1044F000FF3348BF4A4013F0FF034FEA5202F5D1A1
:104500000134B4F5807F05F8012FEDD107F10D01DD
:1045100007F1150411F8012F1348534003448C424E
:104520005B7BF7D1D0F81001BB7503680F4A5B685D
:1045300093420BD10B2107F10C0011F04FFA064802
:10454000B54601F01BFD1C37BD46F0BD0B2207F13F
:104550000C019847F3E700BF4098FF1F1E98FF1F0C
:1045600038A2FF1FB49CFF1F489DFF1F7504000069
:104570002DE9F04F6C4E6D4A8DB0D6F89C00036863
:104580001B69934200AF40F0EC8510F033FB10B193
:10459000012386F8D830644C04F1C80001F0FCFC1B
:1045A00060B194F8D830002B40F09F8084F8D93067
:1045B00000235F4886F8DA3001F0E0FC5A4DD6F867
:1045C0009C4007E0236820465B699847C1B2594880
:1045D0000FF0B4F9236820461B6998470028F1D1F1
:1045E00096F87030DFF84081002B64D008F10401A8
:1045F00007F108000FF0B0F907F1080EBEE80F0050
:1046000008F174040FC4BEE80F000FC49EE8030055
:1046100044F8040B95F895302180002BCFD0D8F8C2
:10462000740014F0CDFB3EA3D3E9002314F02EFC5C
:10463000C8E92A01D8F8780014F0C2FB38A3D3E9FE
:10464000002314F023FC98F89630C8E92C01002BC5
:1046500052D1394BC8F8B830B6F9820015F018F8C5
:10466000364915F069F80446B6F9800015F010F8DF
:104670000146204614F058FFC6F8BC00B6F9860083
:1046800015F006F82E4915F057F80446B6F98400DF
:1046900014F0FEFF0146204614F046FF96F88810FD
:1046A00096F89020C6F8C000012386F8C41086F85A
:1046B000C52086F8DA30234801F06EFC002840F06F
:1046C000D383214801F068FC002840F037831F485D
:1046D00001F062FC002840F0D3811D4801F05CFC31
:1046E000C0BB3437BD46BDE8F08F0122002384F8FB
:1046F000D92084F8D8305BE7B8F97E0014F0C8FF01
:104700000F4915F019F80446B8F97C0014F0C0FF01
:104710000146204614F008FFC8F8B8009CE700BF27
:10472000000000A0F2D77A3E189BFF1F7D04000016
:10473000E09BFF1F1C9BFF1F003C1CC66F12833AAF
:104740000AD7233C6C9CFF1F089CFF1F2098FF1F6B
:104750003098FF1FC14C23787B7000226A23607958
:10476000BA703B700FF018FC8046A08914F090FFDF
:104770000146206915F094F8A16814F0DDFF0546A4
:10478000404614F085FF0146284614F0D5FF14F08A
:1047900029FBD4E90A8902460B464046494614F0F3
:1047A000C1F9D4E9082314F071FB02460B464046D8
:1047B000494614F0B7F90022A94BC4E90A0114F0E4
:1047C00065FB14F013FEB88060790FF0E5FB8046BE
:1047D000A08914F05DFF0146206915F061F8A16819
:1047E00014F0AAFF0546404614F052FF0146284641
:1047F00014F0A2FF14F0F6FAD4E90A8902460B4637
:104800004046494614F08EF9D4E9082314F03EFBE3
:1048100002460B464046494614F084F90022904B6C
:10482000C4E90A0114F032FB14F0E0FD14F030FF8B
:104830008C4915F035F80546607F14F029FF0146D4
:10484000284615F017F900285BD1A07F14F020FF4F
:104850000146284615F02CF9002852D1207FA56981
:1048600014F016FF804915F01BF829468046606950
:1048700014F058FE0146404614F05EFF294614F03D
:1048800053FE054660790FF087FB8146A08914F03E
:10489000FFFE0146206915F003F8A16814F04CFFF3
:1048A0008046484614F0F4FE0146404614F044FFAA
:1048B00014F098FAD4E90A8902460B464046494664
:1048C00014F030F9D4E9082314F0E0FA02460B465C
:1048D0004046494614F026F90022614BC4E90A011A
:1048E00014F0D4FA14F082FD14F0D2FE5D4914F0F5
:1048F000D7FF0146284615F0D1F820B10123BB703F
:1049000001E00323BB7007F13003584D53F8300D1D
:10491000C7F80A002C469B8814F80CEFFB81C822CC
:104920000623A4463A727B72E9460021CAB20823E4
:10493000D00703F1FF3348BF82EA0E0213F0FF03F2
:104940004FEA5202F4D10131B1F5807F0CF8012F0A
:10495000ECD107F1090107F10F0E11F8012F4348BF
:1049600053402B448E455B7BF7D1D0F810013B744C
:104970000368DFF804815B68434540F0F583092153
:1049800007F1080011F02AF896F8D920384BCD46E7
:10499000002A00F0F48393F8DA20002A00F01A8449
:1049A000002283F8A2206E46DFF8D0C08CB0C82267
:1049B00028238DF800208DF80130EE460DF1020914
:1049C0000CF1200BE246BAE80F00DA45C9F8000006
:1049D000C9F80410C9F80820C9F80C30D44609F108
:1049E0001009EFD1BCE80300C9F80410C9F80000B1
:1049F000287B0021CAB2082312F0010F03F1FF3314
:104A000018BF424013F0FF034FEA5202F4D10131C4
:104A1000B1F5807F04F8012FECD10EF101010EF108
:104A2000290411F8012F114853402B448C425B7B21
:104A3000F7D1D0F810018EF82A3003685B6843453F
:104A400040F0CD8370462B2110F0C8FF0948B546D1
:104A500001F094FA3437BD46BDE8F08F989EFF1FF1
:104A600000408F4000007A440000C842489DFF1F6C
:104A7000189BFF1F3098FF1F75040000B89BFF1F95
:104A8000A6494B690A78187C7A70662400220128AE
:104A9000BA707A603C7040F2B78372B6DA6862B678
:104AA00091F830307A600BB90323BB709C4D3B46C4
:104AB0002C4603CB14F80CEFC7F80A00C8220823D1
:104AC000C7F80E1020463A727B72EA460021CAB23D
:104AD000082312F0010F03F1FF3318BF8EEA020220
:104AE00013F0FF034FEA5202F3D10131B1F5807F99
:104AF00000F8012FEBD107F1090107F1110B11F8B3
:104B0000012F874853402B448B455B7BF7D1D0F86E
:104B10001001BB740368DFF820825B68434507F12E
:104B2000080900F0308349460B2298477D484369C5
:104B30000278197C7A704FF0660E00220129D54662
:104B4000BA707A6087F800E040F2268472B6DA68BC
:104B500062B690F830307A600BB90323BB703B46E5
:104B600003CBC8220823C7F80A0095F80CE06E486A
:104B7000C7F80E103A727B72EA460021CAB20823C7
:104B800012F0010F03F1FF3318BF82EA0E0213F097
:104B9000FF034FEA5202F3D10131B1F5807F00F8F3
:104BA000012FEBD107F1090111F8012F5C485340A7
:104BB0002B448B455B7BF7D1D0F81001BB740368A5
:104BC0005B68434540F013830B21484610F006FF15
:104BD000564843690278197C7A704FF0660E0022BD
:104BE0000129D546BA707A6087F800E040F29083D8
:104BF00072B6DA6862B690F830307A600BB9032387
:104C0000BB703B4603CBC8220823C7F80A0095F8BF
:104C10000CE04548C7F80E103A727B72EA46002154
:104C2000CAB2082312F0010F03F1FF3318BF82EA62
:104C30000E0213F0FF034FEA5202F3D10131B1F536
:104C4000807F00F8012FEBD107F1090111F8012F46
:104C5000334853402B448B455B7BF7D1D0F8100190
:104C6000BB7403685B68434540F0BD820B21484636
:104C700010F0B4FE2E4843690278197C7A704FF028
:104C8000660E00220129D546BA707A6087F800E0E6
:104C900040F2FA8272B6DA6862B690F830307A6022
:104CA0000BB90323BB703B4603CBC8220823C7F8CC
:104CB0000E10297BC7F80A003A727B72EA46002080
:104CC000C2B2082312F0010F03F1FF3318BF4A40AC
:104CD00013F0FF034FEA5202F4D10130B0F5807FA8
:104CE00004F8012FECD107F1090111F8012F0C484C
:104CF00053402B448B455B7BF7D1D0F81001BB743C
:104D000003685B68434540F0768248460B2110F00B
:104D100065FE0848D54601F031F9DEE4189CFF1F16
:104D2000489DFF1F809CFF1F549DFF1F9898FF1FE9
:104D3000C89CFF1F2098FF1F75040000464D68683F
:104D400003689B699847002800F0BE816B682A7849
:104D50009969D3F814C0D3F81CE09C6BD86BE96157
:104D6000196CC5F818C0C5F820E02C636863A96306
:104D7000D3F848C0D3F84CE01C6D986DD96D1B6E0C
:104D8000C5F824C0C5F828E0EC62E86329646B64C8
:104D90006A7514352C460FCD0FC40FCD0FC40FCD3F
:104DA0000FC4A9462B6849F830396C468EB0C8222A
:104DB00034238DF800208DF80130EE460DF1020C01
:104DC000C846B8E80F00A845CCF80000CCF804109D
:104DD000CCF80820CCF80C30C1460CF1100CEFD107
:104DE0001E4DD8F80000CCF80000AC4600201CF89E
:104DF0000C1FC2B2082312F0010F03F1FF3318BFDA
:104E00004A4013F0FF034FEA5202F4D10130B0F5EB
:104E1000807F0CF8012FECD10EF101010EF1350C61
:104E200011F8012F0D4853402B448C455B7BF7D183
:104E3000D0F810018EF836300368094A5B68934257
:104E400040F0DD817046372110F0C8FDA5460548C9
:104E500001F094F83BE400BFCC9AFF1F489DFF1F70
:104E600075040000089CFF1FD24C04F1100001F0F3
:104E700093F800285CD094F82100CF4D0FF08CF807
:104E800013F09EFFD4E90A2314F000F80022CB4B64
:104E900013F0FCFF14F0D2FA1FFA80F804F11000AE
:104EA00001F06CF82078A7F80480692207F130033C
:104EB00000213A707870B97053F8300DC7F80A00C5
:104EC000AE469B88FB81C82206231EF80C0F3A725F
:104ED0007B726C46CAB2082312F0010F03F1FF3354
:104EE00018BF424013F0FF034FEA5202F4D10131E0
:104EF000B1F5807F0EF8012FECD107F1090107F120
:104F00000F0E11F8012FAC4853402B448E455B7BAC
:104F1000F7D1D0F810013B740368A94A5B6893424B
:104F200040F04281092107F1080010F057FDA54625
:104F3000A44C04F1100001F02FF800285CD094F884
:104F400021009D4D0FF028F813F03AFFD4E90A2311
:104F500013F09CFF0022994B13F098FF14F06EFAA7
:104F60001FFA80F804F1100001F008F82078A7F883
:104F70000480692207F1300300213A707870B9701B
:104F800053F8300DC7F80A00AE469B88FB81C82253
:104F900006231EF80C0F3A727B726C46CAB20823C5
:104FA00012F0010F03F1FF3318BF424013F0FF036B
:104FB0004FEA5202F4D10131B1F5807F0EF8012F92
:104FC000ECD107F1090107F10F0E11F8012F7A4812
:104FD00053402B448E455B7BF7D1D0F810013B74D6
:104FE0000368774A5B68934240F0D880092107F153
:104FF000080010F0F3FCA546734C04F1100000F01B
:10500000CBFF00285BD094F821006B4D0EF0C4FF5D
:1050100013F0D6FED4E90A2313F038FF0022674BC1
:1050200013F034FF14F00AFA1FFA80F804F11000AC
:1050300000F0A4FF2078A7F80480692207F130036C
:1050400000213A707870B97053F8300DC7F80A0033
:10505000AE469B88FB81C82206231EF80C0F3A72CD
:105060007B726C46CAB2082312F0010F03F1FF33C2
:1050700018BF424013F0FF034FEA5202F4D101314E
:10508000B1F5807F0EF8012FECD107F1090107F18E
:105090000F0E11F8012F484853402B448E455B7B7F
:1050A000F7D1D0F810013B740368454A5B6893421E
:1050B0006ED1092107F1080010F090FCA546434885
:1050C00000F05CFFFFF7FDBA2B7C002B7FF4BFAE36
:1050D0006C468EB00223C8213422AB7505F114084A
:1050E0008DF800108DF80120EE460DEB03094435D4
:1050F000C446BCE80F00AC45C9F80000C9F804106C
:10510000C9F80820C9F80C30E04609F11009EFD1C0
:10511000294DDCF80000C9F80000AC4600201CF85E
:105120000C1FC2B2082312F0010F03F1FF3318BFA6
:105130004A4013F0FF034FEA5202F4D10130B0F5B8
:10514000807F0CF8012FECD10EF101010EF1350C2E
:1051500011F8012F184853402B448C455B7BF7D145
:1051600066E69847FFF713BA092207F10801984746
:1051700096F8D920164BCD46002A7FF40CAC0322BA
:1051800083F8A2200FE448460B2110F027FCCDE461
:10519000092207F108019847A54690E7092207F17F
:1051A00008019847A54627E7092207F10801984713
:1051B000A546BDE6609EFF1F489DFF1F00408F4033
:1051C000750400005098FF1F109DFF1F6C9CFF1F6F
:1051D000189BFF1F012283F8A220FFF7E4BB714652
:1051E0002B22984732E40B224946984742E50B228E
:1051F00049469847ECE449460B22984789E57146B1
:1052000037229847A54622E672B693E81400107834
:1052100025785C7A1A7A254200EA02002CD09A7A24
:1052200002F0030208B142F0040242F008029010BA
:10523000013A98720D2A3FF631AC01A050F822F0E5
:105240001D540000B3540000A9540000B3540000E2
:105250009D4A00009F5400001D5400001D54000092
:105260009F5400009D4A0000B3540000A954000060
:10527000B35400001D5400009A7A02F00302002883
:10528000D5D042F00402D2E772B693E8060091F856
:1052900000C092F800E05A7A197A1EEA020F0CEA6E
:1052A00001012DD09A7A02F0030209B142F0040202
:1052B00042F008029110013A99720D2A3FF6EBACC8
:1052C00001A151F822F000BF955400008D54000058
:1052D000855400008D540000974C00007D54000060
:1052E00095540000955400007D540000974C000038
:1052F0008D540000855400008D540000955400002A
:105300009A7A02F003020029D4D042F00402D1E7D5
:1053100072B693E8060091F800C092F800E05A7A5D
:10532000197A1EEA020F0CEA01012DD09A7A02F0D6
:10533000030209B142F0040242F008029110013A5E
:1053400099720D2A3FF655AC01A151F822F000BF29
:1053500073540000695400005F5400006954000059
:10536000F34B0000555400007354000073540000C8
:1053700055540000F34B0000695400005F540000D6
:1053800069540000735400009A7A02F00302002965
:10539000D4D042F00402D1E772B693E8060091F847
:1053A00000C092F800E05A7A197A1EEA020F0CEA5D
:1053B00001012BD09A7A02F00302002947D142F072
:1053C00008029110013A99720D2A3FF6C0AB01A173
:1053D00051F822F0455400003B54000031540000C5
:1053E0003B5400004F4B0000275400004554000080
:1053F00045540000275400004F4B00003B54000070
:10540000315400003B540000455400009A7A02F0E9
:1054100003020029D5D042F00402D2E7DA68013253
:10542000DA60FFF73CBBDA68023ADA60FFF790BB5C
:10543000DA680232DA60FFF78BBBDA68013ADA60C9
:10544000FFF786BBDA680132DA60FFF781BB42F012
:105450000402B4E7DA68023ADA60FFF7CBBBDA6835
:105460000232DA60FFF7C6BBDA68013ADA60FFF7AA
:10547000C1BBDA680132DA60FFF7BCBBDA68023A16
:10548000DA6009E4DA680232DA6005E4DA68013ADF
:10549000DA6001E4DA680132DA60FFF7FDBBDA684E
:1054A000023ADA60FFF7FBBADA680232DA60FFF735
:1054B000F6BADA68013ADA60FFF7F1BAF0B58BB004
:1054C00000AF07F1280400230D46F9220146F81D1C
:1054D00004F8242D7B71BB7115F0E0FC8AB0C82262
:1054E000222387F825508DF800208DF801306D4675
:1054F0000DF1020E07F1240C26460FCE6645CEF8BC
:105500000000CEF80410CEF80820CEF80C30344657
:105510000EF1100EF0D11D4E2388AEF80030344647
:10552000002014F80C1FC2B2082312F0010F03F17F
:10553000FF3318BF4A4013F0FF034FEA5202F4D181
:105540000130B0F5807F04F8012FECD1691C05F122
:10555000230411F8012F0D4853403344A1425B7BD3
:10556000F7D1D0F8100185F824300368084A5B6849
:10557000934206D12846252110F030FA2C37BD463B
:10558000F0BD294625229847F8E700BF489DFF1F38
:10559000750400002DE9F041784800F0FDFC28B1C9
:1055A000774B1B78D3B1754800F0E8FC754B1B783E
:1055B0000BB9BDE8F081744800F0EEFC60B1734BAC
:1055C0001978022900F0B280012900F0AF806E48FE
:1055D000BDE8F04100F0D2BCBDE8F0816C4C207F0A
:1055E000A56914F055F86B4914F05AF92946064696
:1055F000606913F097FF0146304614F09DF8294684
:1056000013F092FF054660790EF0C6FC0746A089AC
:1056100014F03EF80146206914F042F9A16814F034
:105620008BF80646384614F033F80146304614F03D
:1056300083F813F0D7FBD4E90A6702460B463046DD
:10564000394613F06FFAD4E9082313F01FFC024621
:105650000B463046394613F065FA00224E4BC4E93A
:105660000A0113F013FC13F0C1FE14F011F84B49BA
:1056700014F016F90146284614F010FA002872D1E9
:1056800005466079DFF808810EF086FC0746A089A0
:1056900013F0FEFF0146206914F002F9A16814F02E
:1056A0004BF80646384613F0F3FF0146304614F037
:1056B00043F813F097FBD4E90A6702460B463046DD
:1056C000394613F02FFAD4E9082313F0DFFB024622
:1056D0000B463046394613F025FA00222E4BC4E91A
:1056E0000A0113F0D3FB13F081FE13F0D1FF2B4915
:1056F00014F0D6F80646607F13F0CAFF0146304624
:1057000014F0B8F9D8B998F81E0013F0C1FF01469B
:10571000304614F0CDF990B9214B93F8D9305BB3F2
:10572000002D7FF440AF194B1D703CE71D4B1868EE
:10573000FFF7C4FE1448BDE8F04100F01FBC1A4951
:105740001848124E10F09AFD154B93F8D9300222EA
:105750003270002B7FF427AF1449124810F08EFDF1
:10576000022333701FE712490E48084E10F086FDE1
:1057700001203070054684E7044EEDE7F89BFF1FDB
:105780001D98FF1F1E98FF1FB89CFF1FB49CFF1F92
:10579000989EFF1F0000C84200408F4000007A44DE
:1057A000189BFF1F8898FF1FAC150200A015020070
:1057B000941502000A4B5A6972B60023D36062B690
:1057C000084A526972B6D36062B6074A526972B625
:1057D000D36062B6054A526972B6D36062B670474A
:1057E000189CFF1F809CFF1F9898FF1FC89CFF1FDD
:1057F00000B5672883B017D0F82809D0662802D0F2
:1058000003B05DF804FB03B05DF804EBFFF7D2BF13
:1058100002213E4800F052FB3D493E4A01230B70F5
:10582000137003B05DF804FB3B4B93E803008AB2AE
:10583000A2F57A73B3F57A7F0090ADF80410DFD843
:105840009DF80130013B032BDAD8DFE803F0362660
:105850001602324B19899142D2D8D9889142CFD3BE
:1058600040F2DC518A4238D999890A4491B22C48D5
:1058700003B05DF804EB0DF0ABBA2A4B19899142E5
:10588000BED8D9889142BBD340F2DC518A4230D98C
:1058900099890A4491B22448EAE7244B1989914234
:1058A000AED8D9889142ABD340F2DC518A4226D996
:1058B00099890A4491B21E48DAE71E4B1989914230
:1058C0009ED8D98891429BD340F2DC518A420AD9B2
:1058D00099890A4491B21848CAE71DBF5989521ADA
:1058E00091B21146C3E71DBF5989521A91B21146B0
:1058F000F1E71DBF5989521A91B21146CBE71DBF7E
:105900005989521A91B21146D5E700BFE89EFF1F90
:105910001E98FF1F7C9CFF1FCC98FF1FC89CFF1F79
:10592000E09CFF1F9898FF1FB098FF1F809CFF1FEF
:10593000989CFF1F189CFF1F309CFF1F2DE9F84308
:10594000574C584F584EDFF86481254610F01CF82C
:10595000002849DD2378032BF8D8DFE803F05B72D9
:105960004702D4F8100103685B69BB4240F08680AF
:105970000FF0CEFF431CE9D0D5F8089095F80CE065
:10598000DFF82CC1C0B20021CAB2082312F0010F07
:1059900003F1FF3318BF82EA0E0213F0FF034FEA50
:1059A0005202F3D10131B1F5807F0CF8012FEBD118
:1059B000B9F1000F6AD019461A46715C01324B40AA
:1059C000D2B255FA83F391455B7B1146F5D800229C
:1059D00083422A706A60AA605CD13078FFF708FFC2
:1059E0000FF0D2FF0028B5DCBDE8F883D4F8100131
:1059F00003685B69BB4243D10FF08AFF421C6368B6
:105A000002D0F05401336360A2689A429EDC032303
:105A100023709BE7D4F8100103681B69434533D119
:105A20000FF0B2FF002891DDD4F8100103685B6924
:105A3000BB422DD10FF06CFFC82887D10123237002
:105A400084E7D4F8100103681B6943451AD10FF0AD
:105A50009BFF002803DC4FF0FF33A36076E7D4F808
:105A6000100103685B69BB4217D10FF051FFA060C2
:105A700001303FF46BAF0223237067E7984779E763
:105A80009847BBE79847E4E79847CBE74B469EE744
:105A90009847D1E76FF00100A0E79847E7E700BF1C
:105AA000489DFF1F71040000CC98FF1F6D0400008B
:105AB000549DFF1F08B540F2DC510A480DF088F9EB
:105AC00040F2DC5108480DF083F940F2DC51074800
:105AD0000DF07EF940F2DC510548BDE808400DF0BC
