:1000000000800020BD010000553A01000D3A0100BA
:100010000D3A01000D3A01000D3A01000D3A0100C0
:100020000D3A01000D3A01000D3A0100553A010068
:10003000553A01000D3A01000D550100115601001D
:10004000553A0100553A0100553A0100553A010070
:10005000553A0100553A0100553A0100553A010060
:10006000553A0100553A0100553A0100553A010050
:10007000553A0100553A0100553A0100553A010040
:10008000553A0100553A0100553A0100553A010030
:10009000553A0100553A0100553A0100553A010020
:1000A0003D5F0000495F0000553A0100553A0100EC
:1000B000553A0100553A0100553A0100553A010000
:1000C000553A0100553A0100553A0100553A0100F0
:1000D000553A0100553A0100553A0100553A0100E0
:1000E000553A0100553A0100553A0100553A0100D0
:1000F000553A0100355C0100553A01005D450100AB
:10010000553A0100615D0100553A0100553A010080
:10011000553A0100553A0100553A0100553A01009F
:10012000553A0100553A0100553A0100553A01008F
:10013000553A0100553A0100553A0100553A01007F
:10014000553A0100553A0100553A0100553A01006F
:10015000553A0100553A0100553A0100553A01005F
:100160005D260100D9470100553A0100553A0100CA
:10017000553A0100553A0100553A0100553A01003F
:10018000553A0100553A0100553A0100553A01002F
:10019000553A0100553A0100553A0100553A01001F
:1001A000553A0100553A0100553A0100553A01000F
:1001B000553A0100553A0100553A0100564B4CF2B0
:1001C000205210B51A804DF628121A8000BF00BFC9
:1001D00013F044FC514B4FF010621A60504A9A6081
:1001E000504ADA60504A136813F4807304D14F49BF
:1001F0000B604FF4A85313604D4B1A78110703D5C9
:100200001A7842F008021A704A4B4B492A221A7097
:100210004A4A4B4B8B4204D252F8040F43F8040B6A
:10022000F8E7484B484900228B4202D243F8042B9E
:10023000FAE74649464A002352F8230041F82300D2
:1002400001336F2BF8D1434B434A802103F8011B44
:100250009342FBD1414B3D4A1A60414B8A221A70AE
:10026000A3F5805324225A70A0221A709A7992071B
:10027000FCD59A79D406FCD43A4A937903F00C035E
:10028000082B384BF9D103221A7140225A719A79FE
:100290009006FCD5334A9179324B4906FBD5324A58
:1002A000324911600221516020221A709A7902F0BD
:1002B0000C020C2AFAD12E4B2E4A1A602E4B2F4AD2
:1002C0001A6000225A60072243F8042C2C4AC3F813
:1002D0000C2D62B613F0AEFD144B1B68DA0705D582
:1002E000284813F019FD284B284A1A60284B1B7820
:1002F0005B0609D5244C254B22689A4204D121483B
:1003000013F00AFD0023236019F0D8F913F0ACFBB9
:1003100015F0F2FBFEE700BF0E20054030800440E0
:10032000823F04000100002B10D0034014D0034092
:1003300002D0074000E007400098FF1FCC4C0200AD
:100340002087FF1F0098FF1FC8A4FF1F0082FF1F08
:100350000000000000E400E05FE400E008ED00E0E1
:100360000050064000400640448004400000030165
:1003700004800440C010050014E000E0FF76010096
:10038000000020207B5CC75B1CE00340A5C3945A9F
:1003900000F00740FFFFFFFFFFFFFFFFFFFFFFFF32
:1003A000FFFFFFFFFFFFFFFFFFFFFFFFFFFFFFFF5D
:1003B000FFFFFFFFFFFFFFFFFFFFFFFFFFFFFFFF4D
:1003C000FFFFFFFFFFFFFFFFFFFFFFFFFFFFFFFF3D
:1003D000FFFFFFFFFFFFFFFFFFFFFFFFFFFFFFFF2D
:1003E000FFFFFFFFFFFFFFFFFFFFFFFFFFFFFFFF1D
:1003F000FFFFFFFFFFFFFFFFFFFFFFFFFFFFFFFF0D
:10040000FFFFFFFFFFFFFFFFFFFFFFFFDEF9FFFF23
:1004100010B5054C237833B9044B13B10448AFF33E
:1004200000800123237010BD0098FF1F0000000012
:10043000C84C0200084B10B51BB108490848AFF37F
:1004400000800848036803B910BD074B002BFBD0A0
:10045000BDE81040184700BF000000000498FF1FCF
:10046000C84C02000098FF1F0000000014F0BEBE40
:1004700014F080BE0846114614F0E2BE10B51421F7
:100480000446006915F042FB204610BD1F4B10B416
:100490001A681368506819780478507A137A0442FD
:1004A00001EA03011AD0937A03F0030309B143F080
:1004B000040343F008039910013B91720D2B0BD8F4
:1004C000DFE803F01E0719070A141E1E140A071995
:1004D000071ED368013BD36010BC7047937A03F0CA
:1004E00003030029E7D043F00403E4E7D36810BC1A
:1004F000023BD3607047D36810BC0233D3607047AF
:10050000D36810BC0133D360704700BF10A1FF1F38
:100510001F4B10B45A681368506819780478507AE1
:10052000137A044201EA03011AD0937A03F0030319
:1005300009B143F0040343F008039910013B9172A1
:100540000D2B0BD8DFE803F01E0719070A141E1E37
:10055000140A0719071ED368013BD36010BC70470B
:10056000937A03F003030029E7D043F00403E4E7A0
:10057000D36810BC023BD3607047D36810BC023311
:10058000D3607047D36810BC0133D360704700BF9D
:1005900010A1FF1F1F4B10B49A6813685068197898
:1005A0000478507A137A044201EA03011AD0937A4C
:1005B00003F0030309B143F0040343F00803991067
:1005C000013B91720D2B0BD8DFE803F01E071907D2
:1005D0000A141E1E140A0719071ED368013BD360B4
:1005E00010BC7047937A03F003030029E7D043F06F
:1005F0000403E4E7D36810BC023BD3607047D368C0
:1006000010BC0233D3607047D36810BC0133D36091
:10061000704700BF10A1FF1F1F4B10B4DA681368AA
:10062000506819780478507A137A044201EA030179
:100630001AD0937A03F0030309B143F0040343F0A3
:1006400008039910013B91720D2B0BD8DFE803F0E2
:100650001E0719070A141E1E140A0719071ED3685D
:10066000013BD36010BC7047937A03F00303002969
:10067000E7D043F00403E4E7D36810BC023BD36047
:100680007047D36810BC0233D3607047D36810BC86
:100690000133D360704700BF10A1FF1F1F4B10B480
:1006A0001A691368506819780478507A137A0442EA
:1006B00001EA03011AD0937A03F0030309B143F06E
:1006C000040343F008039910013B91720D2B0BD8E2
:1006D000DFE803F01E0719070A141E1E140A071983
:1006E000071ED368013BD36010BC7047937A03F0B8
:1006F00003030029E7D043F00403E4E7D36810BC08
:10070000023BD3607047D36810BC0233D36070479C
:10071000D36810BC0133D360704700BF10A1FF1F26
:100720001F4B10B45A691368506819780478507ACE
:10073000137A044201EA03011AD0937A03F0030307
:1007400009B143F0040343F008039910013B91728F
:100750000D2B0BD8DFE803F01E0719070A141E1E25
:10076000140A0719071ED368013BD36010BC7047F9
:10077000937A03F003030029E7D043F00403E4E78E
:10078000D36810BC023BD3607047D36810BC0233FF
:10079000D3607047D36810BC0133D360704700BF8B
:1007A00010A1FF1F1F4B10B49A6913685068197885
:1007B0000478507A137A044201EA03011AD0937A3A
:1007C00003F0030309B143F0040343F00803991055
:1007D000013B91720D2B0BD8DFE803F01E071907C0
:1007E0000A141E1E140A0719071ED368013BD360A2
:1007F00010BC7047937A03F003030029E7D043F05D
:100800000403E4E7D36810BC023BD3607047D368AD
:1008100010BC0233D3607047D36810BC0133D3607F
:10082000704700BF10A1FF1F1F4B10B4DA69136897
:10083000506819780478507A137A044201EA030167
:100840001AD0937A03F0030309B143F0040343F091
:1008500008039910013B91720D2B0BD8DFE803F0D0
:100860001E0719070A141E1E140A0719071ED3684B
:10087000013BD36010BC7047937A03F00303002957
:10088000E7D043F00403E4E7D36810BC023BD36035
:100890007047D36810BC0233D3607047D36810BC74
:1008A0000133D360704700BF10A1FF1F1F4B10B46E
:1008B0001A6A1368506819780478507A137A0442D7
:1008C00001EA03011AD0937A03F0030309B143F05C
:1008D000040343F008039910013B91720D2B0BD8D0
:1008E000DFE803F01E0719070A141E1E140A071971
:1008F000071ED368013BD36010BC7047937A03F0A6
:1009000003030029E7D043F00403E4E7D36810BCF5
:10091000023BD3607047D36810BC0233D36070478A
:10092000D36810BC0133D360704700BF10A1FF1F14
:100930001F4B10B45A6A1368506819780478507ABB
:10094000137A044201EA03011AD0937A03F00303F5
:1009500009B143F0040343F008039910013B91727D
:100960000D2B0BD8DFE803F01E0719070A141E1E13
:10097000140A0719071ED368013BD36010BC7047E7
:10098000937A03F003030029E7D043F00403E4E77C
:10099000D36810BC023BD3607047D36810BC0233ED
:1009A000D3607047D36810BC0133D360704700BF79
:1009B00010A1FF1F1F4B10B49A6A13685068197872
:1009C0000478507A137A044201EA03011AD0937A28
:1009D00003F0030309B143F0040343F00803991043
:1009E000013B91720D2B0BD8DFE803F01E071907AE
:1009F0000A141E1E140A0719071ED368013BD36090
:100A000010BC7047937A03F003030029E7D043F04A
:100A10000403E4E7D36810BC023BD3607047D3689B
:100A200010BC0233D3607047D36810BC0133D3606D
:100A3000704700BF10A1FF1F1F4B10B4DA6A136884
:100A4000506819780478507A137A044201EA030155
:100A50001AD0937A03F0030309B143F0040343F07F
:100A600008039910013B91720D2B0BD8DFE803F0BE
:100A70001E0719070A141E1E140A0719071ED36839
:100A8000013BD36010BC7047937A03F00303002945
:100A9000E7D043F00403E4E7D36810BC023BD36023
:100AA0007047D36810BC0233D3607047D36810BC62
:100AB0000133D360704700BF10A1FF1F1F4B10B45C
:100AC0001A6B1368506819780478507A137A0442C4
:100AD00001EA03011AD0937A03F0030309B143F04A
:100AE000040343F008039910013B91720D2B0BD8BE
:100AF000DFE803F01E0719070A141E1E140A07195F
:100B0000071ED368013BD36010BC7047937A03F093
:100B100003030029E7D043F00403E4E7D36810BCE3
:100B2000023BD3607047D36810BC0233D360704778
:100B3000D36810BC0133D360704700BF10A1FF1F02
:100B40001F4B10B45A6B1368506819780478507AA8
:100B5000137A044201EA03011AD0937A03F00303E3
:100B600009B143F0040343F008039910013B91726B
:100B70000D2B0BD8DFE803F01E0719070A141E1E01
:100B8000140A0719071ED368013BD36010BC7047D5
:100B9000937A03F003030029E7D043F00403E4E76A
:100BA000D36810BC023BD3607047D36810BC0233DB
:100BB000D3607047D36810BC0133D360704700BF67
:100BC00010A1FF1F1F4B10B49A6B1368506819785F
:100BD0000478507A137A044201EA03011AD0937A16
:100BE00003F0030309B143F0040343F00803991031
:100BF000013B91720D2B0BD8DFE803F01E0719079C
:100C00000A141E1E140A0719071ED368013BD3607D
:100C100010BC7047937A03F003030029E7D043F038
:100C20000403E4E7D36810BC023BD3607047D36889
:100C300010BC0233D3607047D36810BC0133D3605B
:100C4000704700BF10A1FF1F1F4B10B4DA6B136871
:100C5000506819780478507A137A044201EA030143
:100C60001AD0937A03F0030309B143F0040343F06D
:100C700008039910013B91720D2B0BD8DFE803F0AC
:100C80001E0719070A141E1E140A0719071ED36827
:100C9000013BD36010BC7047937A03F00303002933
:100CA000E7D043F00403E4E7D36810BC023BD36011
:100CB0007047D36810BC0233D3607047D36810BC50
:100CC0000133D360704700BF10A1FF1F1F4B10B44A
:100CD0001A6C1368506819780478507A137A0442B1
:100CE00001EA03011AD0937A03F0030309B143F038
:100CF000040343F008039910013B91720D2B0BD8AC
:100D0000DFE803F01E0719070A141E1E140A07194C
:100D1000071ED368013BD36010BC7047937A03F081
:100D200003030029E7D043F00403E4E7D36810BCD1
:100D3000023BD3607047D36810BC0233D360704766
:100D4000D36810BC0133D360704700BF10A1FF1FF0
:100D50001F4B10B45A6C1368506819780478507A95
:100D6000137A044201EA03011AD0937A03F00303D1
:100D700009B143F0040343F008039910013B917259
:100D80000D2B0BD8DFE803F01E0719070A141E1EEF
:100D9000140A0719071ED368013BD36010BC7047C3
:100DA000937A03F003030029E7D043F00403E4E758
:100DB000D36810BC023BD3607047D36810BC0233C9
:100DC000D3607047D36810BC0133D360704700BF55
:100DD00010A1FF1F1F4B10B49A6C1368506819784C
:100DE0000478507A137A044201EA03011AD0937A04
:100DF00003F0030309B143F0040343F0080399101F
:100E0000013B91720D2B0BD8DFE803F01E07190789
:100E10000A141E1E140A0719071ED368013BD3606B
:100E200010BC7047937A03F003030029E7D043F026
:100E30000403E4E7D36810BC023BD3607047D36877
:100E400010BC0233D3607047D36810BC0133D36049
:100E5000704700BF10A1FF1F1F4B10B4DA6C13685E
:100E6000506819780478507A137A044201EA030131
:100E70001AD0937A03F0030309B143F0040343F05B
:100E800008039910013B91720D2B0BD8DFE803F09A
:100E90001E0719070A141E1E140A0719071ED36815
:100EA000013BD36010BC7047937A03F00303002921
:100EB000E7D043F00403E4E7D36810BC023BD360FF
:100EC0007047D36810BC0233D3607047D36810BC3E
:100ED0000133D360704700BF10A1FF1F1F4B10B438
:100EE0001A6D1368506819780478507A137A04429E
:100EF00001EA03011AD0937A03F0030309B143F026
:100F0000040343F008039910013B91720D2B0BD899
:100F1000DFE803F01E0719070A141E1E140A07193A
:100F2000071ED368013BD36010BC7047937A03F06F
:100F300003030029E7D043F00403E4E7D36810BCBF
:100F4000023BD3607047D36810BC0233D360704754
:100F5000D36810BC0133D360704700BF10A1FF1FDE
:100F60001F4B10B45A6D1368506819780478507A82
:100F7000137A044201EA03011AD0937A03F00303BF
:100F800009B143F0040343F008039910013B917247
:100F90000D2B0BD8DFE803F01E0719070A141E1EDD
:100FA000140A0719071ED368013BD36010BC7047B1
:100FB000937A03F003030029E7D043F00403E4E746
:100FC000D36810BC023BD3607047D36810BC0233B7
:100FD000D3607047D36810BC0133D360704700BF43
:100FE00010A1FF1F1F4B10B49A6D13685068197839
:100FF0000478507A137A044201EA03011AD0937AF2
:1010000003F0030309B143F0040343F0080399100C
:10101000013B91720D2B0BD8DFE803F01E07190777
:101020000A141E1E140A0719071ED368013BD36059
:1010300010BC7047937A03F003030029E7D043F014
:101040000403E4E7D36810BC023BD3607047D36865
:1010500010BC0233D3607047D36810BC0133D36037
:10106000704700BF10A1FF1F1F4B10B4DA6D13684B
:10107000506819780478507A137A044201EA03011F
:101080001AD0937A03F0030309B143F0040343F049
:1010900008039910013B91720D2B0BD8DFE803F088
:1010A0001E0719070A141E1E140A0719071ED36803
:1010B000013BD36010BC7047937A03F0030300290F
:1010C000E7D043F00403E4E7D36810BC023BD360ED
:1010D0007047D36810BC0233D3607047D36810BC2C
:1010E0000133D360704700BF10A1FF1F1F4B10B426
:1010F0001A6E1368506819780478507A137A04428B
:1011000001EA03011AD0937A03F0030309B143F013
:10111000040343F008039910013B91720D2B0BD887
:10112000DFE803F01E0719070A141E1E140A071928
:10113000071ED368013BD36010BC7047937A03F05D
:1011400003030029E7D043F00403E4E7D36810BCAD
:10115000023BD3607047D36810BC0233D360704742
:10116000D36810BC0133D360704700BF10A1FF1FCC
:101170001F4B10B45A6E1368506819780478507A6F
:10118000137A044201EA03011AD0937A03F00303AD
:1011900009B143F0040343F008039910013B917235
:1011A0000D2B0BD8DFE803F01E0719070A141E1ECB
:1011B000140A0719071ED368013BD36010BC70479F
:1011C000937A03F003030029E7D043F00403E4E734
:1011D000D36810BC023BD3607047D36810BC0233A5
:1011E000D3607047D36810BC0133D360704700BF31
:1011F00010A1FF1F1F4B10B49A6E13685068197826
:101200000478507A137A044201EA03011AD0937ADF
:1012100003F0030309B143F0040343F008039910FA
:10122000013B91720D2B0BD8DFE803F01E07190765
:101230000A141E1E140A0719071ED368013BD36047
:1012400010BC7047937A03F003030029E7D043F002
:101250000403E4E7D36810BC023BD3607047D36853
:1012600010BC0233D3607047D36810BC0133D36025
:10127000704700BF10A1FF1F1F4B10B4DA6E136838
:10128000506819780478507A137A044201EA03010D
:101290001AD0937A03F0030309B143F0040343F037
:1012A00008039910013B91720D2B0BD8DFE803F076
:1012B0001E0719070A141E1E140A0719071ED368F1
:1012C000013BD36010BC7047937A03F003030029FD
:1012D000E7D043F00403E4E7D36810BC023BD360DB
:1012E0007047D36810BC0233D3607047D36810BC1A
:1012F0000133D360704700BF10A1FF1F1F4B10B414
:101300001A6F1368506819780478507A137A044277
:1013100001EA03011AD0937A03F0030309B143F001
:10132000040343F008039910013B91720D2B0BD875
:10133000DFE803F01E0719070A141E1E140A071916
:10134000071ED368013BD36010BC7047937A03F04B
:1013500003030029E7D043F00403E4E7D36810BC9B
:10136000023BD3607047D36810BC0233D360704730
:10137000D36810BC0133D360704700BF10A1FF1FBA
:101380001F4B10B45A6F1368506819780478507A5C
:10139000137A044201EA03011AD0937A03F003039B
:1013A00009B143F0040343F008039910013B917223
:1013B0000D2B0BD8DFE803F01E0719070A141E1EB9
:1013C000140A0719071ED368013BD36010BC70478D
:1013D000937A03F003030029E7D043F00403E4E722
:1013E000D36810BC023BD3607047D36810BC023393
:1013F000D3607047D36810BC0133D360704700BF1F
:1014000010A1FF1F1F4B10B49A6F13685068197812
:101410000478507A137A044201EA03011AD0937ACD
:1014200003F0030309B143F0040343F008039910E8
:10143000013B91720D2B0BD8DFE803F01E07190753
:101440000A141E1E140A0719071ED368013BD36035
:1014500010BC7047937A03F003030029E7D043F0F0
:101460000403E4E7D36810BC023BD3607047D36841
:1014700010BC0233D3607047D36810BC0133D36013
:10148000704700BF10A1FF1F1F4B10B4D3F884207A
:101490001368506819780478507A137A044201EA84
:1014A00003011AD0937A03F0030309B143F0040354
:1014B00043F008039910013B91720D2B0BD8DFE824
:1014C00003F01E0719070A141E1E140A0719071E27
:1014D000D368013BD36010BC7047937A03F00303D9
:1014E0000029E7D043F00403E4E7D36810BC023BD3
:1014F000D3607047D36810BC0233D3607047D368A1
:1015000010BC0133D360704710A1FF1F1F4B10B4F4
:10151000DA6F1368506819780478507A137A0442A5
:1015200001EA03011AD0937A03F0030309B143F0EF
:10153000040343F008039910013B91720D2B0BD863
:10154000DFE803F01E0719070A141E1E140A071904
:10155000071ED368013BD36010BC7047937A03F039
:1015600003030029E7D043F00403E4E7D36810BC89
:10157000023BD3607047D36810BC0233D36070471E
:10158000D36810BC0133D360704700BF10A1FF1FA8
:101590001F4B10B4D3F88020136850681978047872
:1015A000507A137A044201EA03011AD0937A03F0C5
:1015B000030309B143F0040343F008039910013B0E
:1015C00091720D2B0BD8DFE803F01E0719070A14E0
:1015D0001E1E140A0719071ED368013BD36010BCF6
:1015E0007047937A03F003030029E7D043F0040324
:1015F000E4E7D36810BC023BD3607047D36810BCEB
:101600000233D3607047D36810BC0133D360704796
:1016100010A1FF1F38B50025044605708570C57000
:1016200005714571C580058145818581143010F0B3
:101630007FFF04F11C0004F0BFF884F82C50204612
:1016400038BD00BFF0B583B0244800AF04F0D6F831
:1016500000283CD0224B1B78002B38D0214E224B47
:1016600034461B78FB70C8210222F82314F80C0FB3
:1016700039707A70BB706D460021CAB2082312F02F
:10168000010F03F1FF3318BF424013F0FF034FEA8D
:101690005202F4D10131B1F5807F04F8012FECD171
:1016A000BB78FA78D6F81001104933445B7B53407D
:1016B00033445B7B3B7103685B688B420AD1052135
:1016C000384613F0BDFD0548AD4604F089F80C37E7
:1016D000BD46F0BD052239469847F4E76098FF1FE4
:1016E0001C98FF1FE09CFF1F559CFF1F7504000006
:1016F0002DE9F04F97B0C24800AF04F07FF8002802
:1017000040F08A83BF4D2B7C002B40F0FB82BE480B
:1017100004F074F8002840F08B81BC4804F06EF8A7
:1017200018B95C37BD46BDE8F08FB94CB94D237888
:1017300060797B726A233B7212F060F80646A089DA
:1017400017F0DAFB0146206917F0DEFCA16817F0FC
:1017500027FC0446304617F0CFFB0146204617F021
:101760001FFCAD4917F01CFC17F0E0FD2C4607F1FB
:10177000580A788114F80CEF5AF8500DC7F8320067
:10178000C8220423204687F8302087F831306E467F
:101790000021CAB2082312F0010F03F1FF3318BF72
:1017A0008EEA020213F0FF034FEA5202F3D1013135
:1017B000B1F5807F00F8012FEBD197F832E097F870
:1017C000331097F834C097F83530D5F81001AE448F
:1017D00007F130089EF80D20514029448F4A7A6065
:1017E0004A7B8CEA02022A44527B53402B448B4AA8
:1017F0005B7B87F8363003685B68934240F058841F
:101800004046072113F01CFD00220023C7E90423F2
:10181000C7E90623DFF80C92002200237A7287F8CA
:101820002C2087F82D2064223B62B546CB467B6294
:10183000BB623A72D9F89C6007E0336830465B6956
:101840009847C1B2764811F0ABFC336830461B694B
:1018500098470028F1D199F87030724E002B00F0B3
:10186000C180311D404611F0A9FCC446BCE80F0000
:1018700006F1740EAEE80F00BCE80F00AEE80F00F2
:101880009CE803004EF8040B9BF89530AEF800106E
:10189000002BCFD0706F16F0C7FE57A3D3E90023FB
:1018A00016F028FFC7E90401B06F16F0BDFE52A381
:1018B000D3E9002316F01EFF96F89630C7E906011B
:1018C000002B00F01184B6F97E0017F015FB564985
:1018D00017F066FB8046B6F97C0017F00DFB014659
:1018E000404617F055FA3862B9F9820017F004FB48
:1018F0004E4917F055FB0646B9F9800017F0FCFA7F
:101900000146304617F044FA7862B9F9860017F0BC
:10191000F3FA454917F044FB0646B9F9840017F07D
:10192000EBFA0146304617F033FA6E468CB04FF0B2
:10193000C80E282199F8882099F890308DF800E099
:10194000B8628DF80110EE460DF1020C87F82C20DC
:1019500087F82D3007EB0109D046B8E80F00C845DD
:10196000CCF80000CCF80410CCF80820CCF80C30EF
:10197000C2460CF1100CEFD1BAE80300CCF800001D
:10198000CCF80410297B0020C2B2082312F0010F0A
:1019900003F1FF3318BF4A4013F0FF034FEA52022E
:1019A000F4D10130B0F5807F04F8012FECD10EF1B5
:1019B00001010EF1290411F8012F164853402B4460
:1019C000A1425B7BF7D1D0F810018EF82A30036872
:1019D0007A685B68934240F0978370462B2113F03E
:1019E0002FFCB546094803F0FBFE5C37BD46BDE859
:1019F000F08F00BFAFF30080000000A0F2D77A3E66
:101A0000449CFF1FE89AFF1F909EFF1F5098FF1FE6
:101A1000509EFF1FE09CFF1F00007A4475040000E9
:101A2000349BFF1F309BFF1F0AD7233C6F12833A62
:101A3000AC490B691A7C012A40F2A48372B6DA68B9
:101A400062B6D317C7E904230B787B7207F1080A43
:101A500066233B725446A44D0FCCC8262C4687F80B
:101A60003060102687F8316014F80C6FC7F8320028
:101A7000C7F83610C7F83A20C7F83E302046E94686
:101A80000021CAB2082312F0010F03F1FF3318BF7F
:101A9000724013F0FF034FEA5202F4D10131B1F565
:101AA000807F00F8012FECD107F1310107F14106E9
:101AB00011F8012F8C4853402B448E425B7BF7D1A9
:101AC000D0F8100187F842300368884A5B687A6072
:101AD000934207F1300800F0F08241461322984704
:101AE00083490B691A7C012ACD4640F28C8372B679
:101AF000DA6862B6D317C7E904230B787B726623D2
:101B00003B72D646BEE80F004FF0C80E87F830E0B3
:101B10004FF0100E87F831E0C7F8320095F80CE06E
:101B20007448C7F83610C7F83A20C7F83E30E9467F
:101B30000021CAB2082312F0010F03F1FF3318BFCE
:101B40008EEA020213F0FF034FEA5202F3D1013191
:101B5000B1F5807F00F8012FEBD107F1310111F8C9
:101B6000012F614853402B448E425B7BF7D1D0F864
:101B7000100187F8423003687A685B68934240F04E
:101B8000BF821321404613F05BFB5B490B691A7C53
:101B9000012ACD4640F2BD8272B6DA6862B6D3172A
:101BA000C7E904230B787B7266233B72D646BEE8F6
:101BB0000F004FF0C80E87F830E04FF0100E87F896
:101BC00031E0C7F8320095F80CE04A48C7F8361003
:101BD000C7F83A20C7F83E30E9460021CAB20823C8
:101BE00012F0010F03F1FF3318BF8EEA020213F067
:101BF000FF034FEA5202F3D10131B1F5807F00F8C3
:101C0000012FEBD107F1310111F8012F3648534074
:101C10002B448E425B7BF7D1D0F8100187F842301D
:101C200003687A685B68934240F0668213214046FD
:101C300013F006FB31490B691A7C012ACD4640F2AC
:101C40001B8372B6DA6862B6D317C7E904230B7830
:101C50007B7266233B72BAE80F004FF0C80E87F81C
:101C600030E04FF0100E87F831E095F80CE0C7F83F
:101C70003610C7F83200C7F83A20C7F83E30E946B8
:101C80000021CAB20823D00703F1FF3348BF8EEA10
:101C9000020213F0FF034FEA5202F4D10131B1F511
:101CA000807F04F8012FECD107F1310111F8012FE9
:101CB0000D4853402B44B1425B7BF7D1D0F8100163
:101CC00087F8423003687A685B68934240F010827C
:101CD0004046132113F0B4FA0948CD4603F080FDC5
:101CE0001BE500BFF49BFF1FE09CFF1F7504000075
:101CF0002098FF1FEC9CFF1FB898FF1F689CFF1FD8
:101D0000909EFF1F686803689B69984700283FF40E
:101D1000FEAC6B682A785869D3F818E0DE699C6BD2
:101D2000D96BD3F84080D3F84CC0A861C5F81CE04B
:101D3000986CD3F850E02E622C639E6DDC6D696365
:101D4000196E68626523C5F83880D148C5F828C087
:101D5000C5F82CE0EE632C6469646A752B7503F09A
:101D60004DFD00283FF4D3AC6C468EB0C82234231E
:101D700005F114088DF800208DF801306E460DF144
:101D8000020E4435C446BCE80F00AC45CEF8000056
:101D9000CEF80410CEF80820CEF80C30E0460EF154
:101DA000100EEFD1BB4DDCF80000CEF80000AE46BF
:101DB00000211EF80C0FCAB2082312F0010F03F124
:101DC000FF3318BF424013F0FF034FEA5202F4D131
:101DD0000131B1F5807F0EF8012FECD1711C06F1B5
:101DE000350E11F8012FAB4853402B448E455B7BD9
:101DF000F7D1D0F8100186F836300368A64A5B6840
:101E0000934240F0A9823046372113F019FAA048D6
:101E1000A54603F0E5FC7AE4A04C04F1100003F0C1
:101E2000EDFC002860D094F821009A4D11F0E6FCFA
:101E300016F0FAFBD4E90A2316F05CFC0022984B5A
:101E400016F058FC16F02EFF86B204F1100003F0D5
:101E5000C7FC22787E8169232E467A723B72B8686D
:101E600016F80C1FC7F83200C822042387F8302068
:101E700087F831306C460020C2B2082312F0010FFF
:101E800003F1FF3318BF4A4013F0FF034FEA520239
:101E9000F4D10130B0F5807F06F8012FECD197F82E
:101EA00032E097F8331097F8343097F835C0D5F80A
:101EB0001001794EAE449EF80D20514029444A7BD2
:101EC0005A402A44537B8CEA03031D446B7B87F8FA
:101ED000363003685B68B34240F00081072107F1A8
:101EE000300013F0ADF9A5466E4C04F1100003F07C
:101EF00085FC002860D094F82100664D11F07EFC2E
:101F000016F092FBD4E90A2316F0F4FB0022644B8E
:101F100016F0F0FB16F0C6FE86B204F1100003F0D6
:101F20005FFC22787E8169232E467A723B72B86804
:101F300016F80C1FC7F83200C822042387F8302097
:101F400087F831306C460020C2B2082312F0010F2E
:101F500003F1FF3318BF4A4013F0FF034FEA520268
:101F6000F4D10130B0F5807F06F8012FECD197F85D
:101F700032E097F8331097F834C097F83530D5F839
:101F80001001454EAE449EF80D20514029444A7B35
:101F90008CEA02022A44527B53401D446B7B87F833
:101FA000363003685B68B34240F09280072107F146
:101FB000300013F045F9A5463B4C04F1100003F046
:101FC0001DFC00285FD094F82100324D11F016FC62
:101FD00016F02AFBD4E90A2316F08CFB0022304BC2
:101FE00016F088FB16F05EFE86B204F1100003F0D6
:101FF000F7FB22787E8169232E467A723B72B8689D
:1020000016F80C1FC7F83200C822042387F83020C6
:1020100087F831306C460020C2B2082312F0010F5D
:1020200003F1FF3318BF4A4013F0FF034FEA520297
:10203000F4D10130B0F5807F06F8012FECD197F88C
:1020400032E097F8331097F834C097F83530D5F868
:102050001001114EAE449EF80D20514029444A7B98
:102060008CEA02022A44527B53401D446B7B87F862
:10207000363003685B68B34224D1072107F1300092
:1020800013F0DEF8A546094803F0AAFBFFF73ABBB8
:10209000E49BFF1FE09CFF1F75040000189EFF1FBC
:1020A00000408F407098FF1FA89CFF1F449CFF1F9B
:1020B000414607229847FFF7A7BB4046132113F07C
:1020C000BFF80DE5072207F130019847A546DAE78A
:1020D000072207F130019847A5466DE7072207F16F
:1020E00030019847A546FFE6B94B3B62FFF7FCBBC2
:1020F000414613229847EFE513224146984799E558
:1021000013224146984740E571462B229847B54631
:1021100068E472B693E8050090F800C092F800E019
:102120005A7A187A1EEA020F0CEA000062D19A7AF3
:1021300002F0030208B142F004029010013A9872D2
:102140000D2A3FF62AAD01A050F822F0C723000067
:10215000BD230000B3230000BD2300009B1B000033
:10216000A9230000C7230000C7230000A923000003
:102170009B1B0000BD230000B3230000BD23000013
:10218000C723000072B693E81400107825785C7AB3
:102190001A7A254200EA020040F0B0809A7A02F0F2
:1021A000030208B142F004029010013A98720D2A1D
:1021B0003FF645AC01A050F822F000BF6B230000B1
:1021C0006123000037230000612300003F1A000054
:1021D0002D2300006B2300006B2300002D23000043
:1021E0003F1A000061230000372300006123000034
:1021F0006B2300009A7A02F00302002840F0D1809D
:1022000042F0080299E772B693E8050090F800C022
:1022100092F800E05A7A187A1EEA020F0CEA0000DF
:1022200064D19A7A02F0030208B142F004029010DD
:10223000013A98720D2A3FF65BAC01A050F822F0EB
:10224000992300008F230000852300008F230000C6
:10225000F11A00007B23000099230000992300005D
:102260007B230000F11A00008F230000852300006B
:102270008F2300009923000072B693E8050090F8C0
:1022800000C092F800E05A7A187A1EEA020F0CEAAF
:1022900000003AD19A7A02F0030208B142F0040237
:1022A0009010013A98720D2A3FF6CCAC01A050F87C
:1022B00022F000BF1F23000049230000412300003B
:1022C00049230000451C0000512300001F2300008B
:1022D0001F23000051230000451C0000492300007B
:1022E00041230000492300001F2300009A7A02F0D6
:1022F000030200283ED142F0080298E79A7A02F0E1
:10230000030280B942F008024EE79A7A02F0030213
:1023100010B942F00802C3E742F00402F9E7DA68B4
:102320000132DA608FE442F00402EBE7DA68023A45
:10233000DA60FFF785BBDA680232DA60FFF780BB4C
:10234000DA680232DA607EE4DA68013ADA607AE466
:10235000DA68023ADA6076E431463722984756E581
:10236000DA68013ADA60FFF76BBBDA680132DA60EB
:10237000FFF766BB42F00402BDE7DA68023ADA60B2
:10238000FFF7B7BBDA680232DA60FFF7B2BBDA6890
:10239000013ADA60FFF7ADBBDA680132DA60FFF7C5
:1023A000A8BB42F004022BE7DA68023ADA60FFF7D2
:1023B000F5BBDA680232DA60FFF7F0BBDA68013A9F
:1023C000DA60FFF7EBBBDA680132DA60FFF7E6BBF1
:1023D000003C1CC6F0B58BB000AF07F128040D46D9
:1023E000F92200230146B81D04F8242D7B7118F052
:1023F000B5F98AB007F1280CC82221230CF8045D36
:102400008DF800208DF801306D460DF1020E264644
:102410000FCE6645CEF80000CEF80410CEF80820A6
:10242000CEF80C3034460EF1100EF0D11C4E23784D
:102430008EF800303446002014F80C1FC2B2082376
:1024400012F0010F03F1FF3318BF4A4013F0FF03EE
:102450004FEA5202F4D10130B0F5807F04F8012F29
:10246000ECD1691C05F1220411F8012F0C485340EE
:102470003344A1425B7BF7D1D0F8100185F82330BB
:102480000368084A5B68934206D12846242112F06B
:10249000D7FE2C37BD46F0BD294624229847F8E7E1
:1024A000E09CFF1F750400002DE9F0415B4803F03C
:1024B000A5F950B15A4B1B78F3B15A4B1B7833B97D
:1024C0005648BDE8F04103F08BB9BDE8F0815648AD
:1024D00003F094F90028F3D0544B1978022900F046
:1024E0008F80012900F08C804F4803F079F94B4828
:1024F000BDE8F04103F074B94D4C207FA56916F09A
:10250000FBFC4C4916F000FE29460646606916F0B1
:102510003DFC0146304616F043FD294616F038FCD6
:102520000546607911F06AF90746A08916F0E4FCC7
:102530000146206916F0E8FDA16816F031FD064657
:10254000384616F0D9FC0146304616F029FD3A49C6
:1025500016F026FD16F0EAFE16F0CEFC364916F00F
:10256000D3FD0146284616F0CDFE00284DD12F4D53
:1025700028706079DFF8B88011F040F90746A0892B
:1025800016F0BAFC0146206916F0BEFDA16816F0EF
:1025900007FD0646384616F0AFFC0146304616F0F9
:1025A000FFFC254916F0FCFC16F0C0FE16F0A4FC5A
:1025B000214916F0A9FD0646607F16F09DFC0146F4
:1025C000304616F08BFE78B998F81E0016F094FC91
:1025D0000146304616F0A0FE30B9124B28701B7829
:1025E000002B3FF46DAF72E71449154813F07AFAE7
:1025F00002232B700B4B1B78002B3FF461AF66E777
:102600000F4B1868FFF7E6FE6EE70E490C48074DC2
:1026100013F068FA01232B70ABE700BFD09BFF1FBC
:10262000E09BFF1F1C98FF1F589CFF1F559CFF1F1E
:10263000509EFF1F0000C84200007A44280E02008E
:10264000A898FF1F1C0E02000A4B1A6972B60023DD
:10265000D36062B6084A126972B6D36062B6074A9E
:10266000126972B6D36062B6054A126972B6D36057
:1026700062B67047F49BFF1F2098FF1FB898FF1F9A
:10268000689CFF1F00B5672883B017D0F82809D0D1
:10269000662802D003B05DF804FB03B05DF804EBDC
:1026A000FFF7D2BF02213C4803F03EF83B493C4AC9
:1026B00001230B70137003B05DF804FB394B1B68EA
:1026C00001931A0CA2F57A73B3F57A7FE2D89DF8DC
:1026D0000530013B032BDDD8DFE803F03626160278
:1026E000314B19899142D5D8D9889142D2D340F241
:1026F000DC518A4238D999890A4491B22B4803B0F7
:102700005DF804EB0FF096BF294B19899142C1D8AF
:10271000D9889142BED340F2DC518A4230D999899E
:102720000A4491B22348EAE7234B19899142B1D870
:10273000D9889142AED340F2DC518A4226D9998998
:102740000A4491B21D48DAE71D4B19899142A1D87C
:10275000D98891429ED340F2DC518A420AD99989A4
:102760000A4491B21748CAE71DBF5989521A91B25B
:102770001146C3E71DBF5989521A91B21146F1E7BC
:102780001DBF5989521A91B21146CBE71DBF598915
:10279000521A91B21146D5E7F49DFF1F1C98FF1FF6
:1027A000549CFF1FE898FF1F689CFF1F7C9CFF1F25
:1027B000B898FF1FCC98FF1F2098FF1F3498FF1F69
:1027C000F49BFF1F089CFF1F2DE9F843574C584FFF
:1027D000584EDFF86481254612F008FD002849DDD7
:1027E0002378032BF8D8DFE803F05B724702D4F8B4
:1027F000100103685B69BB4240F0868012F0BAFCAE
:10280000431CE9D0D5F8089095F80CE0DFF82CC10E
:10281000C0B20021CAB2082312F0010F03F1FF3346
:1028200018BF82EA0E0213F0FF034FEA5202F3D1FF
:102830000131B1F5807F0CF8012FEBD1B9F1000F18
:102840006AD019461A46715C01324B40D2B255FA31
:1028500083F391455B7B1146F5D883425FD100231A
:1028600030782B706B60AB60FFF70CFF12F0BEFC92
:102870000028B5DCBDE8F883D4F8100103685B6973
:10288000BB4243D112F076FC421C636802D0F05484
:1028900001336360A2689A429EDC032323709BE7A6
:1028A000D4F8100103681B69434533D112F09EFC34
:1028B000002891DDD4F8100103685B69BB4231D177
:1028C00012F058FCC82887D10123237084E7D4F87C
:1028D000100103681B6943451AD112F087FC0028D8
:1028E00003DC4FF0FF33A36076E7D4F810010368F0
:1028F0005B69BB4218D112F03DFCA06001303FF48F
:102900006BAF0223237067E7984779E79847BBE7E7
:102910009847E4E79847CBE74B4683429FD06FF058
:102920000100A1E79847CDE79847E6E7E09CFF1F45
:1029300071040000E898FF1F6D040000EC9CFF1F6D
:1029400008B540F2DC510A480FF074FE40F2DC5149
:1029500008480FF06FFE40F2DC5107480FF06AFEA6
:1029600040F2DC510548BDE808400FF063BE00BFEF
:10297000089CFF1F3498FF1FCC98FF1F7C9CFF1FF3
:102980002DE9F04FC44BC54AC3F81021C44BC548CC
:10299000C54CDFF85CA3DFF85C93DFF85CB399B05B
:1029A00000254FF47A711D7002F00AFF4FF4967102
:1029B000BE4802F005FF1421BD4802F001FF64216A
:1029C000BC4802F0FDFE1E21BB4802F0F9FE4FF4A8
:1029D0007A71BA4802F0F4FE4FF47A71B84802F006
:1029E000EFFE4FF47A71B74802F0EAFEB64B169349
:1029F00001264FF01E074FF014034FF0110EB3499C
:102A0000B34A179540F2FF30119513958DF8447035
:102A10008DF845E0129415928DF85C308DF85E309B
:102A20008DF85D60ADF84C0014910DF1440CBCE8DC
:102A30000F00DFF8C8E20A950EF104040FC49CE809
:102A4000070003C492A1D1E9000124F8022B4FF042
:102A50000A0C120C8EF8007022700B950F958DF8F1
:102A600028C0CDE90C014FF00E084FF4967241F2E8
:102A700088338DF82AC08DF82980ADF83820ADF85C
:102A80003A300AAC0FCC0AF1200EAEE80F002368F2
:102A90008AF800C0CEF80030404611F055F94FF4E6
:102AA0007A789AF8221098FBF1F10AF1100002F0FE
:102AB00087FE4FF00B0A4FF00F0C8DF829C08DF8F0
:102AC00028A00DF1280EBEE80F0009F1200EAEE897
:102AD0000F002368CEF80030604689F800A0294630
:102AE00011F032F999F8221098FBF1F109F1100078
:102AF00002F066FE4FF00C094FF0100C8DF829C063
:102B00008DF828900DF1280EBEE80F00714FDFF808
:102B1000F0A187F8009007F1200EAEE80F002368BF
:102B2000CEF800306046294611F00EF997F82210D1
:102B300098FBF1F107F1100002F042FE4FF0140390
:102B400065488BF8003002F0D1FE4FF4247012F08B
:102B5000DBFF6249019005F041FC019BCBF8083096
:102B6000184609F0FFF80368CBF804001B695C4CB9
:102B70009847DBF804305B4AD3F88430CBF80C007C
:102B800083F8A16083F8A26083F8A3601A673046D7
:102B90008BF8106011F000F9534B544AC3F89C2095
:102BA00044F6206011F0B6F91D214FF4FA624FF09F
:102BB0001E038DF80E308DF80F90ADF812808DF851
:102BC0000C6005950DEB09038DF80D10ADF8102084
:102BD00007CB2670C4F802001420C4F80A20C4F8F9
:102BE000061012F091FF94F8038094F804900746C1
:102BF0000221404611F0A8F84846022111F0A4F83D
:102C00005AF838105AF839203E7201F5007E02F564
:102C100000704FF47A437E72FD60C7F800E0786080
:102C2000013BFDD191F8003292F800223340D007E9
:102C300044BF43F00203DBB2BB72B8F1210F02F2D2
:102C40009983DFE818F0B911B011A5119A118F110D
:102C5000841179116E11631158114D114211371100
:102C60002C11211116110B110011F510EA10DF10B3
:102C7000901085107A106F10641059104E10431088
:102C800038102D10221016105F0000BFAFF3008027
:102C900000000040E17A743FE09CFF1FA48DFF1FFD
:102CA000559CFF1F989CFF1FCDCCB0416098FF1F23
:102CB000E49BFF1F449CFF1F909EFF1F5098FF1F27
:102CC000589CFF1FD09BFF1F0000584133335340D7
:102CD00066668641A89CFF1F0088FF1F380E020011
:102CE000F49BFF1F0AD7A33C309BFF1F948DFF1F4F
:102CF000189EFF1F7098FF1FE89AFF1F509EFF1F2E
:102D000014440200784B7949C3F8847004222120CE
:102D100010F042FF4FF0010887F81080B9F1210F41
:102D200002F22483DFE819F0980F8D0F800F730FE4
:102D3000660F590F4C0F3F0F320F250F180F0B0F57
:102D4000FE0EF10EE40ED70ECA0EBD0EB00EA30E8F
:102D5000960E450E380E2B0E1E0E110E040EF70D9C
:102D6000EA0DDD0DD00DC30DB50D22005E4B5F49A0
:102D7000C3F884700422212010F00EFF97F8108011
:102D80004FF00109C8444FF4FA634FF47A72617945
:102D900087F81080564827610FF0EEFB40F2DC51B7
:102DA0005348544D0FF046FC4FF002090023172101
:102DB00016228DF80F308DF80C908DF80D108DF8CF
:102DC0000E2003AE07CE05EB0906C5F8020085F814
:102DD000009014200193B260716012F095FEEF78BC
:102DE00095F8048006464946384610F0ADFF49463E
:102DF000404610F0A9FF5AF837105AF83820019BC6
:102E0000F360012001F5007302F5007E3360C6F81F
:102E100004E04FF47A4330727072013BFDD191F8B7
:102E2000003292F800220340D10744BF43EA09036D
:102E3000DBB2B372212F02F2AD82DFE817F0200D72
:102E4000170D0D0D030DF90CEF0CE50CDB0CD10C7F
:102E5000C70CBD0CB30CA90C9F0C950C8B0C810CF2
:102E6000770C6D0C630C590C4F0C450C3B0CEC0BA8
:102E7000E20BD80BCE0BC40BBA0BB00BA60B9B0B03
:102E80002200194B1949C3F884600422212010F054
:102E900083FE01273774B8F1210F02F27782DFE851
:102EA00018F05D0B530B470B3B0B2F0B230B170B32
:102EB0000B0BFF0AF30AE70ADB0ACF0AC30AB70AB9
:102EC000AB0A9F0A930A870A7B0A6F0A630A570AAA
:102ED0004B0AFB09EF09E309D709CB09BF09B3097D
:102EE000A7099A092B0000BF10A1FF1F8914000039
:102EF000089CFF1F2098FF1FA84BA949C3F88460B6
:102F00000422212010F048FE377C4FF0010847448E
:102F10004FF4FA634FF47A7269793774A1482E61DD
:102F20000FF02AFB40F2DC519E489F4E0FF082FBCF
:102F300003271B211C220B238DF80C708DF80F30FA
:102F40008DF80D108DF80E2003AB07CB3770C6F847
:102F500002001420C6F80A20C6F8061012F0D4FDAC
:102F600096F8038096F8049007460221404610F038
:102F7000EBFE4846022110F0E7FE5AF838105AF8E6
:102F8000392001F5007302F500703B607860002382
:102F90000120FB6038724FF47A437872013BFDD117
:102FA00091F8003292F800220340D20744BF43F068
:102FB0000203DBB2BB72B8F1210F02F2F281DFE84B
:102FC00018F0FF08F608EB08E008D508CA08BF08A3
:102FD000B408A9089E08930888087D087208670845
:102FE0005C08510846083B08300825081A080F08F5
:102FF0000408F907AB07A00795078A077F0774073E
:1030000069075D072200654B6549C3F88470042297
:10301000212010F0C1FD4FF0010887F81080B9F1B0
:10302000210F02F2BA81DFE819F01C07110704072B
:10303000F706EA06DD06D006C306B606A9069C0614
:103040008F068206750668065B064E064106340644
:1030500027061A060D060006F305A1059405870547
:103060007A056D05600553054605380522004B4B72
:103070004B49C3F884700422212010F08DFD97F88D
:1030800010804FF00109C8444FF4FA634FF47A728C
:10309000717987F81080454837610FF06DFA40F27A
:1030A000DC514248424F0FF0C5FA15224FF0040E92
:1030B0004FF0140C8DF80D204FF001028DF80CE04C
:1030C0008DF80EC08DF80F2003AB07CB87F800E01A
:1030D000C7F802006046C7F80A20C7F8061012F0C9
:1030E00013FD97F803903B790193804602214846EF
:1030F00010F02AFE0198022110F026FE019B5AF8DA
:1031000039005AF8331000F5007E4FF0010301F545
:10311000007288F8083088F80930C8F800E0002309
:103120004FF47A4EC8F80420C8F80C307246013AC1
:10313000FDD190F8002291F8001202F00102CB07B5
:1031400044BF42F00202D2B288F80A20B9F1210F3E
:1031500002F21881DFE819F095048B047F047304F0
:1031600067045B044F04430437042C042104160451
:103170000B040004F503EA03DF03D403C903BE0311
:10318000B303A8039D03920387037C033003250345
:103190001A030F030403F902EE022E0010A1FF1F11
:1031A000891400003498FF1FB898FF1FCC98FF1FA8
:1031B000689CFF1FAE4AAF49C2F8848021200422D8
:1031C00010F0EAFC4FF00109019B88F81090212BC8
:1031D00002F2D480DFE813F0A102960289027C0299
:1031E0006F026202550248023B022E0221021402C3
:1031F0000702FA01ED01E001D301C601B901AC01FA
:103200009F019201850178013F01320125011801DA
:103210000B01FE00F100E400D7002200944B954919
:10322000C3F884800422212010F0B6FC012398F812
:1032300010900193019B79798F48C7F810804B4417
:1032400099464FF47A724FF4FA6388F810900FF0B1
:1032500093F940F2DC518848DFF86492DFF8648229
:103260000FF0E8F9FFF7F0F906A802F0A5FA06A8B2
:103270004FF4FA7102F0A4FA06A802F0BFFA00288F
:1032800041F0A2872389B3F5E16F05D8B9F806307C
:10329000B3F5E16F81F0E0862B89B3F5E16F05D8D6
:1032A000B8F80630B3F5E16F81F0E08633897348F2
:1032B000B3F5E16F04D8C388B3F5E16F81F0E08620
:1032C0003B896F48B3F5E16F04D8C388B3F5E16F6C
:1032D00081F07D8623691A7C012A41F2848672B6C8
:1032E000DA6862B6002AC7D02B691A7C012A41F23B
:1032F0001D8772B6DA6862B6002ABDD033691A7CBF
:10330000012A41F2878772B6DA6862B6002AB3D022
:103310003B691A7C012A41F2D38772B6DA6862B639
:10332000002AA9D0FFF70CFBFFF78EF99BF81030AD
:10333000544A002B01F05A8753681A7922B9D3F8FE
:10334000803093F8253043B94F49504812F0CAFBFA
:103350004F4A012313704F4A137001210D2010F0C2
:10336000F3FC0121032010F0EFFC0121042010F0F8
:10337000EBFC0121484802F0D7F90A2010F00AFAC4
:1033800019B0BDE8F08F3A4B4449C3F8808004225D
:10339000202010F001FC0123019398F8109049E7D8
:1033A000334B3F49C3F87C8004221F2010F0F4FB0C
:1033B0000123019398F810903CE72D4B3949C3F84D
:1033C000788004221E2010F0E7FB0123019398F877
:1033D00010902FE7264B3449C3F8748004221D2037
:1033E00010F0DAFB0123019398F8109022E7204BAC
:1033F0002E49C3F8708004221C2010F0CDFB01235D
:10340000019398F8109015E7194B2949C3F86C807F
:1034100004221B2010F0C0FB0123019398F81090A8
:1034200008E7134B2349C3F8688004221A2010F0E0
:10343000B3FB0123019398F81090FBE60C4B1E4957
:10344000C3F864800422192010F0A6FB0123019325
:1034500098F81090EEE6064B1849C3F860800422F5
:10346000182010F099FB0123019398F81090E1E6E1
:1034700010A1FF1F891400007C9CFF1FB898FF1F3C
:10348000689CFF1FE89AFF1F5C0E0200A898FF1FB0
:10349000E09BFF1F559CFF1FF49DFF1F911500002F
:1034A0000D1500000514000081130000FD1200003E
:1034B00079120000F511000071110000ED100000FC
:1034C000F49BFF1F2098FF1FC14BC249C3F85C80CB
:1034D0000422172010F060FB0123019398F810904C
:1034E000A8E6BB4BBC49C3F858800422162010F054
:1034F00053FB0123019398F810909BE6B44BB74916
:10350000C3F854800422152010F046FB01230193D8
:1035100098F810908EE6AE4BB149C3F85080042263
:10352000142010F039FB0123019398F8109081E6E4
:10353000A74BAC49C3F84C800422132010F02CFB9D
:103540000123019398F8109074E6A14BA649C3F8A3
:1035500048800422122010F01FFB0123019398F8E9
:10356000109067E69A4BA149C3F8448004221120C9
:1035700010F012FB0123019398F810905AE6944B37
:103580009B49C3F840800422102010F005FB012362
:10359000019398F810904DE68D4B9649C3F83C8006
:1035A00004220F2010F0F8FA0123019398F81090EC
:1035B00040E6874B9049C3F8388004220E2010F073
:1035C000EBFA0123019398F8109033E6804B8B4976
:1035D000C3F8348004220D2010F0DEFA0123019399
:1035E00098F8109026E67A4B8549C3F8308004227B
:1035F0000C2010F0D1FA0123019398F8109019E6ED
:10360000734B8049C3F82C8004220B2010F0C4FABD
:103610000123019398F810900CE66D4B7A49C3F89A
:10362000288004220A2010F0B7FA0123019398F8A9
:103630001090FFE5664B7549C3F8248004220920E9
:1036400010F0AAFA0123019398F81090F2E5604B6C
:103650006F49C3F820800422082010F09DFA01234E
:10366000019398F81090E5E5594B6A49C3F81C801E
:103670000422072010F090FA0123019398F810908B
:10368000D8E5534B6449C3F818800422062010F093
:1036900083FA0123019398F81090CBE54C4B5F49D6
:1036A000C3F814800422052010F076FA0123019358
:1036B00098F81090BEE5464B5949C3F81080042293
:1036C000104610F069FA0123019398F81090B1E5C3
:1036D0003F4B5449C3F80C800422032010F05CFADD
:1036E0000123019398F81090A4E5394B4E49C3F893
:1036F00008800422022010F04FFA0123019398F869
:10370000109097E5324A4949C2F80480012004220A
:1037100010F042FA98F810908CE52D4B4449C3F80C
:1037200000800422002010F037FA0123019398F85A
:1037300010907FE5264A3F49C2F88080202004226D
:1037400010F02AFA4FF001093EE5214A3A49C2F841
:103750007C801F20042210F01FFA4FF0010933E58E
:103760001B4A3649C2F878801E20042210F014FA51
:103770004FF0010928E5164A3149C2F874801D202E
:10378000042210F009FA4FF001091DE5104A2D49F5
:10379000C2F870801C20042210F0FEF94FF00109DD
:1037A00012E50B4A2849C2F86C801B20042210F055
:1037B000F3F94FF0010907E5054A2449C2F868808A
:1037C0001A20042210F0E8F94FF00109FCE400BFD0
:1037D00010A1FF1F69100000E50F0000610F00003D
:1037E000DD0E0000590E0000D50D0000510D000047
:1037F000CD0C0000490C0000C50B0000410B00007F
:10380000BD0A0000390A0000B509000031090000B6
:10381000AD08000029080000A507000021070000EE
:103820009D06000019060000950500001105000026
:103830008D040000911500000D1500000514000016
:1038400081130000FD12000079120000F511000044
:10385000CD4ACE49C2F864801920042210F09CF9A8
:103860004FF00109B0E4C84AC949C2F86080182085
:10387000042210F091F94FF00109A5E4C24AC549AC
:10388000C2F85C801720042210F086F94FF001097D
:103890009AE4BD4AC049C2F858801620042210F0AC
:1038A0007BF94FF001098FE4B74ABC49C2F8548054
:1038B0001520042210F070F94FF0010984E4B24A97
:1038C000B749C2F850801420042210F065F94FF077
:1038D000010979E4AC4AB349C2F84C8013200422B0
:1038E00010F05AF94FF001096EE4A74AAE49C2F848
:1038F00048801220042210F04FF94FF0010963E4D0
:10390000A14AAA49C2F844801120042210F044F9C7
:103910004FF0010958E49C4AA549C2F840801020A4
:10392000042210F039F94FF001094DE4964AA149FB
:10393000C2F83C800F20042210F02EF94FF001094C
:1039400042E4914A9C49C2F838800E20042210F0CB
:1039500023F94FF0010937E48B4A9849C2F83480C3
:103960000D20042210F018F94FF001092CE4864ACA
:103970009349C2F830800C20042210F00DF94FF06A
:10398000010921E4804A8F49C2F82C800B200422CF
:1039900010F002F94FF0010916E47B4A8A49C2F897
:1039A00028800A20042210F0F7F84FF001090BE4F8
:1039B000754A8649C2F824800920042210F0ECF8E8
:1039C0004FF0010900E4704A8149C2F820800820C4
:1039D000042210F0E1F84FF00109FFF7F5BB6A4A45
:1039E0007C49C2F81C800720042210F0D5F84FF063
:1039F0000109FFF7E9BB644A7749C2F8188006203D
:103A0000042210F0C9F84FF00109FFF7DDBB5E4A50
:103A10007249C2F814800520042210F0BDF84FF05E
:103A20000109FFF7D1BB584A6D49C2F81080042242
:103A3000104610F0B1F84FF00109FFF7C5BB524A2C
:103A40006849C2F80C800320042210F0A5F84FF05A
:103A50000109FFF7B9BB4C4A6349C2F8088002204C
:103A6000042210F099F84FF00109FFF7ADBB464A68
:103A70005E49C2F804800120042210F08DF8FFF79F
:103A8000A3BB414A5A49C2F800800020042210F02A
:103A900083F84FF00109FFF797BB3B4B5549C3F83B
:103AA00080700422202010F077F84FF0010997F879
:103AB0001080FFF7E8BA344B4F49DF6704221F201C
:103AC00010F06AF84FF0010997F81080FFF7DBBAA1
:103AD0002D4B4A499F6704221E2010F05DF84FF0DD
:103AE000010997F81080FFF7CEBA274B44495F676A
:103AF00004221D2010F050F84FF0010997F81080B3
:103B0000FFF7C1BA204B3F491F6704221C2010F069
:103B100043F84FF0010997F81080FFF7B4BA1A4B39
:103B20003949DF6604221B2010F036F84FF00109F6
:103B300097F81080FFF7A7BA134B34499F66042209
:103B40001A2010F029F84FF0010997F81080FFF7BC
:103B50009ABA0D4B0D495F660422192010F01CF82B
:103B60004FF0010997F81080FFF78DBA064B08490E
:103B70001F660422182010F00FF84FF0010997F883
:103B80001080FFF780BA00BF10A1FF1F7111000065
:103B9000ED10000069100000E50F0000610F00004B
:103BA000DD0E0000590E0000D50D0000510D000083
:103BB000CD0C0000490C0000C50B0000410B0000BB
:103BC000BD0A0000390A0000B509000031090000F3
:103BD000AD08000029080000A5070000210700002B
:103BE0009D06000019060000950500001105000063
:103BF0008D040000911500000D1500000514000053
:103C000081130000FD12000079120000F511000080
:103C1000C74BC849DF65042217200FF0BDFF4FF0E6
:103C2000010997F81080FFF72EBAC14BC2499F6572
:103C3000042216200FF0B0FF4FF0010997F8108012
:103C4000FFF721BABA4BBD495F65042215200FF07A
:103C5000A3FF4FF0010997F81080FFF714BAB44B97
:103C6000B7491F65042214200FF096FF4FF0010999
:103C700097F81080FFF707BAAD4BB249DF64042212
:103C800013200FF089FF4FF0010997F81080FFF71C
:103C9000FAB9A74BAC499F64042212200FF07CFFB5
:103CA0004FF0010997F81080FFF7EDB9A04BA74935
:103CB0005F64042211200FF06FFF4FF0010997F8A5
:103CC0001080FFF7E0B99A4BA1491F64042210202D
:103CD0000FF062FF4FF0010997F81080FFF7D3B99A
:103CE000934B9C49DF6304220F200FF055FF4FF0E8
:103CF000010997F81080FFF7C6B98D4B96499F636D
:103D000004220E200FF048FF4FF0010997F81080B1
:103D1000FFF7B9B9864B91495F6304220D200FF07C
:103D20003BFF4FF0010997F81080FFF7ACB9804BCB
:103D30008B491F6304220C200FF02EFF4FF0010966
:103D400097F81080FFF79FB9794B8649DF6204220C
:103D50000B200FF021FF4FF0010997F81080FFF7BB
:103D600092B9734B80499F6204220A200FF014FF1E
:103D70004FF0010997F81080FFF785B96C4B7B492C
:103D80005F62042209200FF007FF4FF0010997F846
:103D90001080FFF778B9664B75491F62042208202E
:103DA0000FF0FAFE4FF0010997F81080FFF76BB99A
:103DB0005F4B7049DF61042207200FF0EDFE4FF0EA
:103DC000010997F81080FFF75EB9594B6A499F6166
:103DD000042206200FF0E0FE4FF0010997F8108052
:103DE000FFF751B9524B65495F61042205200FF07E
:103DF000D3FE4FF0010997F81080FFF744B94C4B00
:103E00005F491F61042210460FF0C6FE4FF0010902
:103E100097F81080FFF737B9454B5A49DF60042205
:103E200003200FF0B9FE4FF0010997F81080FFF75B
:103E30002AB93F4B54499F60042202200FF0ACFE88
:103E40004FF0010997F81080FFF71DB9384B4F4923
:103E50005F60042201200FF09FFE97F81080FFF7AB
:103E600012B9334B4A491F60042200200FF094FE20
:103E70004FF0010997F81080FFF705B92C4B454921
:103E8000C3F88070042220200FF086FE4FF0010856
:103E9000FFF7C3B8264B4049DF6704221F200FF00D
:103EA0007BFE4FF00108FFF7B8B8214B3B499F67F5
:103EB00004221E200FF070FE4FF00108FFF7ADB88E
:103EC0001B4B37495F6704221D200FF065FE4FF042
:103ED0000108FFF7A2B8164B32491F6704221C20C5
:103EE0000FF05AFE4FF00108FFF797B8104B2E491C
:103EF000DF6604221B200FF04FFE4FF00108FFF792
:103F00008CB80B4B29499F6604221A200FF044FEFF
:103F10004FF00108FFF781B8054B25495F66042281
:103F200019200FF039FE4FF00108FFF776B800BFF7
:103F300010A1FF1F69100000E50F0000610F0000D5
:103F4000DD0E0000590E0000D50D0000510D0000DF
:103F5000CD0C0000490C0000C50B0000410B000017
:103F6000BD0A0000390A0000B5090000310900004F
:103F7000AD08000029080000A50700002107000087
:103F80009D060000190600009505000011050000BF
:103F90008D040000911500000D15000005140000AF
:103FA00081130000FD12000079120000F5110000DD
:103FB00071110000BE4BBF491F66042218200FF08C
:103FC000EBFD4FF00108FFF728B8B94BBA49DF65A0
:103FD000042217200FF0E0FD4FF00108FFF71DB895
:103FE000B34BB6499F65042216200FF0D5FD4FF064
:103FF0000108FFF712B8AE4BB1495F6504221520E6
:104000000FF0CAFD4FF00108FFF707B8A84BAD4904
:104010001F65042214200FF0BFFD4FF00108FEF7CA
:10402000FCBFA34BA849DF64042213200FF0B4FDAA
:104030004FF00108FEF7F1BF9D4BA4499F64042295
:1040400012200FF0A9FD4FF00108FEF7E6BF984BD4
:104050009F495F64042211200FF09EFD4FF001087C
:10406000FEF7DBBF924B9B491F64042210200FF028
:1040700093FD4FF00108FEF7D0BF8D4B9649DF63EB
:1040800004220F200FF088FD4FF00108FEF7C5BF96
:10409000874B92499F6304220E200FF07DFD4FF065
:1040A0000108FEF7BABF824B8D495F6304220D20E1
:1040B0000FF072FD4FF00108FEF7AFBF7C4B89494E
:1040C0001F6304220C200FF067FD4FF00108FEF77C
:1040D000A4BF774B8449DF6204220B200FF05CFD04
:1040E0004FF00108FEF799BF714B80499F6204228F
:1040F0000A200FF051FD4FF00108FEF78EBF6C4B08
:104100007B495F62042209200FF046FD4FF0010851
:10411000FEF783BF664B77491F62042208200FF029
:104120003BFD4FF00108FEF778BF614B7249DF613C
:10413000042207200FF030FD4FF00108FEF76DBF9D
:104140005B4B6E499F61042206200FF025FD4FF066
:104150000108FEF762BF564B69495F6104220520E2
:104160000FF01AFD4FF00108FEF757BF504B65499D
:104170001F61042210460FF00FFD4FF00108FEF7FB
:104180004CBF4B4B6049DF60042203200FF004FD5D
:104190004FF00108FEF741BF454B5C499F60042288
:1041A00002200FF0F9FC4FF00108FEF736BF404B3C
:1041B00057495F60042201200FF0EEFCFEF72DBF8F
:1041C0003B4B54491F60042200200FF0E5FC4FF0E8
:1041D0000108FEF722BF364B4F49C3F88060042226
:1041E00020200FF0D9FC4FF00108377CFEF78FBE7E
:1041F0002F4B4A49DE6704221F200FF0CDFC4FF001
:104200000108377CFEF783BE294B45499E6704228F
:104210001E200FF0C1FC4FF00108377CFEF777BE7F
:10422000234B40495E6704221D200FF0B5FC4FF080
:104230000108377CFEF76BBE1D4B3B491E6704220D
:104240001C200FF0A9FC4FF00108377CFEF75FBE81
:10425000174B3649DE6604221B200FF09DFC4FF001
:104260000108377CFEF753BE114B31499E6604228C
:104270001A200FF091FC4FF00108377CFEF747BE83
:104280000B4B2C495E66042219200FF085FC4FF081
:104290000108377CFEF73BBE054B06491E6604222B
:1042A00018200FF079FC4FF00108377CFEF72FBE85
:1042B00010A1FF1FED10000069100000E50F0000C5
:1042C000610F0000DD0E0000590E0000D50D00004A
:1042D000510D0000CD0C0000490C0000C50B000082
:1042E000410B0000BD0A0000390A0000B5090000BA
:1042F00031090000AD08000029080000A5070000F2
:10430000210700009D060000190600009505000029
:10431000110500008D040000911500000D1500002E
:104320000514000081130000FD1200007912000046
:10433000F511000071110000BC4BBD49DE6504227F
:1043400017200FF029FC4FF00108377CFEF7DFBD86
:10435000B64BB8499E65042216200FF01DFC4FF0A5
:104360000108377CFEF7D3BDB04BB3495E6504222C
:1043700015200FF011FC4FF00108377CFEF7C7BD88
:10438000AA4BAE491E65042214200FF005FC4FF025
:104390000108377CFEF7BBBDA44BA949DE640422AB
:1043A00013200FF0F9FB4FF00108377CFEF7AFBD8B
:1043B0009E4BA4499E64042212200FF0EDFB4FF0A7
:1043C0000108377CFEF7A3BD984B9F495E64042229
:1043D00011200FF0E1FB4FF00108377CFEF797BD8D
:1043E000924B9A491E64042210200FF0D5FB4FF027
:1043F0000108377CFEF78BBD8C4B9549DE630422A8
:104400000F200FF0C9FB4FF00108377CFEF77FBD8E
:10441000864B90499E6304220E200FF0BDFB4FF0A7
:104420000108377CFEF773BD804B8B495E63042225
:104430000D200FF0B1FB4FF00108377CFEF767BD90
:104440007A4B86491E6304220C200FF0A5FB4FF027
:104450000108377CFEF75BBD744B8149DE620422A4
:104460000B200FF099FB4FF00108377CFEF74FBD92
:104470006E4B7C499E6204220A200FF08DFB4FF0A8
:104480000108377CFEF743BD684B77495E62042222
:1044900009200FF081FB4FF00108377CFEF737BD94
:1044A000624B72491E62042208200FF075FB4FF028
:1044B0000108377CFEF72BBD5C4B6D49DE610422A1
:1044C00007200FF069FB4FF00108377CFEF71FBD96
:1044D000564B68499E61042206200FF05DFB4FF0A9
:1044E0000108377CFEF713BD504B63495E6104221F
:1044F00005200FF051FB4FF00108377CFEF707BD98
:104500004A4B5E491E61042210460FF045FB4FF0F6
:104510000108377CFEF7FBBC444B5949DE6004229E
:1045200003200FF039FB4FF00108377CFEF7EFBC9A
:104530003E4B54499E60042202200FF02DFB4FF0A9
:104540000108377CFEF7E3BC384B4F495E6004221C
:1045500001200FF021FB377CFEF7D9BC334B4B49D0
:104560001E60042200200FF017FB4FF00108377C7B
:10457000FEF7CDBC2D4B4649C3F8806004222020B5
:104580000FF00AFB0127FEF785BC284B4149DE6787
:1045900004221F200FF000FB0127FEF77BBC234BFA
:1045A0003D499E6704221E200FF0F6FA0127FEF710
:1045B00071BC1E4B39495E6704221D200FF0ECFAD6
:1045C0000127FEF767BC194B35491E6704221C20E2
:1045D0000FF0E2FA0127FEF75DBC144B3149DE66AD
:1045E00004221B200FF0D8FA0127FEF753BC0F4B13
:1045F0002D499E6604221A200FF0CEFA0127FEF7FD
:1046000049BC0A4B29495E66042219200FF0C4FAFE
:104610000127FEF73FBC054B25491E6604221820E2
:104620000FF0BAFA0127FEF735BC00BF10A1FF1F3B
:1046300069100000E50F0000610F0000DD0E0000B2
:10464000590E0000D50D0000510D0000CD0C0000EA
:10465000490C0000C50B0000410B0000BD0A000022
:10466000390A0000B509000031090000AD0800005A
:1046700029080000A5070000210700009D06000092
:104680001906000095050000110500008D040000CA
:10469000911500000D1500000514000081130000A5
:1046A000FD12000079120000F511000071110000E8
:1046B000ED100000C54BC649DE65042217200FF03F
:1046C0006BFA0127FEF7E6BBC04BC2499E65042288
:1046D00016200FF061FA0127FEF7DCBBBB4BBE4989
:1046E0005E65042215200FF057FA0127FEF7D2BBB2
:1046F000B64BBA491E65042214200FF04DFA01276B
:10470000FEF7C8BBB14BB649DE64042213200FF09C
:1047100043FA0127FEF7BEBBAC4BB2499E640422AC
:1047200012200FF039FA0127FEF7B4BBA74BAE49B0
:104730005E64042211200FF02FFA0127FEF7AABBB6
:10474000A24BAA491E64042210200FF025FA01276B
:10475000FEF7A0BB9D4BA649DE6304220F200FF09D
:104760001BFA0127FEF796BB984BA2499E630422D1
:104770000E200FF011FA0127FEF78CBB934B9E49D8
:104780005E6304220D200FF007FA0127FEF782BBBB
:104790008E4B9A491E6304220C200FF0FDF901276D
:1047A000FEF778BB894B9649DE6204220B200FF09E
:1047B000F3F90127FEF76EBB844B92499E620422F7
:1047C0000A200FF0E9F90127FEF764BB7F4B8E4901
:1047D0005E62042209200FF0DFF90127FEF75ABBC1
:1047E0007A4B8A491E62042208200FF0D5F901276E
:1047F000FEF750BB754B8649DE61042207200FF09F
:10480000CBF90127FEF746BB704B82499E6104221B
:1048100006200FF0C1F90127FEF73CBB6B4B7E4928
:104820005E61042205200FF0B7F90127FEF732BBC5
:10483000664B7A491E61042210460FF0ADF901273C
:10484000FEF728BB614B7649DE60042203200FF09F
:10485000A3F90127FEF71EBB5C4B72499E60042240
:1048600002200FF099F90127FEF714BB574B6E4950
:104870005E60042201200FF08FF9FEF70BBB534B53
:104880006A491E60042200200FF086F90127FEF716
:1048900001BB4E4B6649C3F88070042220200FF004
:1048A0007BF94FF0010997F81080FEF76BBA474B80
:1048B0006049DF6704221F200FF06EF94FF00109F5
:1048C00097F81080FEF75EBA404B5B499F67042261
:1048D0001E200FF061F94FF0010997F81080FEF7E4
:1048E00051BA3A4B55495F6704221D200FF054F925
:1048F0004FF0010997F81080FEF744BA334B504946
:104900001F6704221C200FF047F94FF0010997F8A8
:104910001080FEF737BA2D4B4A49DF6604221B2070
:104920000FF03AF94FF0010997F81080FEF72ABA14
:10493000264B45499F6604221A200FF02DF94FF0AF
:10494000010997F81080FEF71DBA204B3F495F66BA
:10495000042219200FF020F94FF0010997F8108078
:10496000FEF710BA194B3A491F66042218200FF0BF
:1049700013F94FF0010997F81080FEF703BA134BB3
:104980001349DF65042217200FF006F94FF00109E3
:1049900097F81080FEF7F6B90C4B0E499F6504227C
:1049A00016200FF0F9F84FF0010997F81080FEF784
:1049B000E9B9064B08495F65042215200FF0ECF8B1
:1049C0004FF0010997F81080FEF7DCB910A1FF1F26
:1049D00069100000E50F0000610F0000DD0E00000F
:1049E000590E0000D50D0000510D0000CD0C000047
:1049F000490C0000C50B0000410B0000BD0A00007F
:104A0000390A0000B509000031090000AD080000B6
:104A100029080000A5070000210700009D060000EE
:104A20001906000095050000110500008D04000026
:104A3000911500000D150000051400008113000001
:104A4000FD12000079120000F51100007111000044
:104A5000ED100000C94BCA491F65042214200FF055
:104A60009BF84FF0010997F81080FEF78BB9C34B04
:104A7000C449DF64042213200FF08EF84FF00109BF
:104A800097F81080FEF77EB9BC4BBF499F640422A3
:104A900012200FF081F84FF0010997F81080FEF70F
:104AA00071B9B64BB9495F64042211200FF074F854
:104AB0004FF0010997F81080FEF764B9AF4BB44985
:104AC0001F64042210200FF067F84FF0010997F8D7
:104AD0001080FEF757B9A94BAE49DF6304220F20BF
:104AE0000FF05AF84FF0010997F81080FEF74AB915
:104AF000A24BA9499F6304220E200FF04DF84FF0FE
:104B0000010997F81080FEF73DB99C4BA3495F63FC
:104B100004220D200FF040F84FF0010997F81080A3
:104B2000FEF730B9954B9E491F6304220C200FF00D
:104B300033F84FF0010997F81080FEF723B98F4B37
:104B40009849DF6204220B200FF026F84FF001098C
:104B500097F81080FEF716B9884B93499F6204229C
:104B60000A200FF019F84FF0010997F81080FEF7AE
:104B700009B9824B8D495F62042209200FF00CF8BD
:104B80004FF0010997F81080FEF7FCB87B4B88497D
:104B90001F62042208200EF0FFFF4FF0010997F872
:104BA0001080FEF7EFB8754B8249DF6104220720C1
:104BB0000EF0F2FF4FF0010997F81080FEF7E2B80F
:104BC0006E4B7D499F61042206200EF0E5FF4FF0F9
:104BD000010997F81080FEF7D5B8684B77495F61F7
:104BE000042205200EF0D8FF4FF0010997F810803D
:104BF000FEF7C8B8614B72491F61042210460EF0DF
:104C0000CBFF4FF0010997F81080FEF7BBB85B4B64
:104C10006C49DF60042203200EF0BEFF4FF0010953
:104C200097F81080FEF7AEB8544B67499F60042296
:104C300002200EF0B1FF4FF0010997F81080FEF747
:104C4000A1B84E4B61495F60042201200EF0A4FF21
:104C500097F81080FEF796B8484B5D491F60042214
:104C600000200EF099FF4FF0010997F81080FEF731
:104C700089B8424B5749C3F88070042220200EF0B7
:104C80008BFF4FF00108FEF747B83C4B5249DF67F6
:104C900004221F200EF080FF4FF00108FEF73CB801
:104CA000364B4E499F6704221E200EF075FF4FF0D1
:104CB0000108FEF731B8314B49495F6704221D20D6
:104CC0000EF06AFF4FF00108FEF726B82B4B45495E
:104CD0001F6704221C200EF05FFF4FF00108FEF753
:104CE0001BB8264B4049DF6604221B200EF054FF00
:104CF0004FF00108FEF710B8204B3C499F66042294
:104D00001A200EF049FF4FF00108FEF705B81B4BC3
:104D100037495F66042219200EF03EFF4FF001086C
:104D2000FDF7FABF154B33491F66042218200EF019
:104D300033FF4FF00108FDF7EFBF104B2E49DF6541
:104D4000042217200EF028FF4FF00108FDF7E4BF02
:104D50000A4B2A499F65042216200EF01DFF4FF0D2
:104D60000108FDF7D9BF054B25495F6504221520D1
:104D70000EF012FF4FF00108FDF7CEBF10A1FF1F8C
:104D8000DD0E0000590E0000D50D0000510D000091
:104D9000CD0C0000490C0000C50B0000410B0000C9
:104DA000BD0A0000390A0000B50900003109000001
:104DB000AD08000029080000A50700002107000039
:104DC0009D06000019060000950500001105000071
:104DD0008D040000911500000D1500000514000061
:104DE00081130000FD12000079120000F51100008F
:104DF00071110000ED10000069100000E50F0000C7
:104E0000610F0000B14BB2491F65042214200EF05F
:104E1000C3FE4FF00108FDF77FBFAC4BAD49DF6427
:104E2000042213200EF0B8FE4FF00108FDF774BF06
:104E3000A64BA9499F64042212200EF0ADFE4FF04C
:104E40000108FDF769BFA14BA4495F64042211204A
:104E50000EF0A2FE4FF00108FDF75EBF9B4BA0498C
:104E60001F64042210200EF097FE4FF00108FDF79A
:104E700053BF964B9B49DF6304220F200EF08CFE3C
:104E80004FF00108FDF748BF904B97499F630422FC
:104E90000E200EF081FE4FF00108FDF73DBF8B4B59
:104EA00092495F6304220D200EF076FE4FF0010858
:104EB000FDF732BF854B8E491F6304220C200EF094
:104EC0006BFE4FF00108FDF727BF804B8949DF6279
:104ED00004220B200EF060FE4FF00108FDF71CBF0E
:104EE0007A4B85499F6204220A200EF055FE4FF04E
:104EF0000108FDF711BF754B80495F62042209204C
:104F00000EF04AFE4FF00108FDF706BF6F4B7C49DB
:104F10001F62042208200EF03FFE4FF00108FDF74B
:104F2000FBBE6A4B7749DF61042207200EF034FE96
:104F30004FF00108FDF7F0BE644B73499F610422F6
:104F400006200EF029FE4FF00108FDF7E5BE5F4B8D
:104F50006E495F61042205200EF01EFE4FF001082D
:104F6000FDF7DABE594B6A491F61042210460EF064
:104F700013FE4FF00108FDF7CFBE544B6549DF60CB
:104F8000042203200EF008FE4FF00108FDF7C4BE16
:104F90004E4B61499F60042202200EF0FDFD4FF050
:104FA0000108FDF7B9BE494B5C495F60042201204E
:104FB0000EF0F2FDFDF7B0BE444B59491F600422CC
:104FC00000200EF0E9FD4FF00108FDF7A5BE818934
:104FD00001F5E16189B214300DF02CFB23691A7CD4
:104FE000012A3EF67CA972B693E8060091F800E02B
:104FF00010785A7A197A10420EEA01015DD09A7A35
:1050000002F0030209B142F0040242F008029110DA
:10501000013A99720D2A3EF663A901A151F822F0D6
:10502000B1500000A75000009D500000A7500000A4
:10503000E132000093500000B1500000B150000078
:1050400093500000E1320000A75000009D50000086
:10505000A7500000B1500000B9F80C10314801F51C
:10506000E16189B20DF0E6FAFEF716B9B8F80C1056
:105070002D4801F5E16189B20DF0DCFAFEF716B9B1
:10508000818901F5E16189B214300DF0D3FAFEF7A0
:1050900017B9DA68023ADA60FEF723B9DA68023241
:1050A000DA60FEF71EB9DA68013ADA60FEF719B97C
:1050B000DA680132DA60FEF714B99A7A02F0030274
:1050C0000029A4D042F00402A1E700BF10A1FF1FF5
:1050D000DD0E0000590E0000D50D0000510D00003E
:1050E000CD0C0000490C0000C50B0000410B000076
:1050F000BD0A0000390A0000B509000031090000AE
:10510000AD08000029080000A507000021070000E5
:105110009D0600001906000095050000110500001D
:105120008D040000089CFF1F3498FF1F72B693E89F
:10513000060091F800E010785A7A197A10420EEAC7
:1051400001015FD09A7A02F0030209B142F0040231
:1051500042F008029110013A99720D2A3EF6CAA84F
:1051600001A151F822F000BFBF510000B55100006D
:10517000AB510000B5510000F5320000A151000014
:10518000BF510000BF510000A1510000F5320000E6
:10519000B5510000AB510000B5510000BF510000F7
:1051A000DA68023ADA60FEF7A6B8DA680232DA6044
:1051B000FEF7A1B8DA68013ADA60FEF79CB8DA685F
:1051C0000132DA60FEF797B8FDF73EFA7749784882
:1051D00010F088FC774A01211170774A022313707E
:1051E0009BF81030754A002B7EF4A6A874497048CD
:1051F00010F078FC6F4A012111706F4A022313707E
:10520000FEF7ABB89A7A02F003020029A2D042F06E
:1052100004029FE772B693E8060091F800E0107868
:105220005A7A197A10420EEA010141D09A7A02F0B4
:10523000030209B142F0040242F008029110013A5F
:1052400099720D2A3EF660A801A151F822F000BF24
:10525000A75200009D520000935200009D52000092
:105260000933000089520000A7520000A752000035
:1052700089520000093300009D5200009352000043
:105280009D520000A7520000DA68023ADA60FEF789
:105290003CB8DA680232DA60FEF737B8DA68013A09
:1052A000DA60FEF732B8DA680132DA60FEF72DB85C
:1052B0009A7A02F003020029C0D042F00402BDE74E
:1052C00072B693E8060091F800E010785A7A197ADD
:1052D00010420EEA010141D09A7A02F0030209B1AC
:1052E00042F0040242F008029110013A99720D2A2C
:1052F0003EF614A801A151F822F000BF535300005C
:10530000495300003F530000495300001D33000083
:105310003553000053530000535300003553000031
:105320001D330000495300003F5300004953000063
:1053300053530000DA68023ADA60FDF7F0BFDA682A
:105340000232DA60FDF7EBBFDA68013ADA60FDF7A6
:10535000E6BFDA680132DA60FDF7E1BF9A7A02F05F
:1053600003020029C0D042F00402BDE74FF000095B
:10537000FDF708BD4FF00008FDF7CEBC00230193F8
:10538000FDF758BF4FF00009FDF71EBF4FF00008B2
:10539000FDF7BDBD0027FDF77DBD4FF00009FDF70E
:1053A00072BE4FF00008FDF738BE00BF500E02007D
:1053B000A898FF1FE09BFF1F559CFF1FE89AFF1F47
:1053C000440E020008B50F4800F018FA48B10E4B21
:1053D0001A783AB100221A700A48BDE8084000F075
:1053E000FFB908BD094B0A481A70012100F09CF969
:1053F000FDF7A6FAFDF728F90248BDE8084000F0DD
:10540000EFB900BF989CFF1F549CFF1F1C98FF1F03
:10541000F49DFF1F10B51E4800F0ACF91D4B1C7821
:10542000012C1DD00FD3022C0CD1002103200EF033
:1054300085FC1948012100F077F91748BDE81040B4
:1054400000F098B910BD002104200EF077FC134B3A
:105450001B780121A3B10320BDE810400EF06EBC03
:1054600021460F4800F060F921460B4800F05CF936
:105470000B4800F07FF90848BDE8104000F07AB909
:10548000074800F051F90648BDE8104000F072B935
:10549000F49DFF1F559CFF1F709EFF1F1C98FF1F50
:1054A000249CFF1F08B5FFF7B5FFFDF78DF9FCF74A
:1054B000FBFFFFF787FFFCF7C5F8044B1B7803B928
:1054C00008BDBDE80840FCF713B900BF1C98FF1FDA
:1054D0002DE9F0470EF010FA7548DFF82492DFF856
:1054E0002482DFF824A2734D00F066F9724800F0C0
:1054F00063F9724800F060F9714800F05DF9714895
:1055000000F05AF9704800F057F9704800F054F96B
:105510006F4800F051F96F4B6F48912200241A73C5
:105520000D211C705C609C6000F0F4F804216B4855
:1055300000F0F0F803216A4800F0ECF8002600279C
:1055400089F8004009F11000C9E90267C9F8044070
:1055500000F032F9C9E90A6789F8204089F821404A
:1055600089F82240A9F83040A9F8324088F8004074
:1055700008F11000C8E90267C8F8044000F01CF9FF
:10558000C8E90A6788F8204088F8214088F8224056
:10559000A8F83040A8F832400AF11000CAE90267C2
:1055A0008AF80040CAF8044000F006F94D4BDFF8D5
:1055B0005C81DFF85C911C70002265215C751975B7
:1055C0009A61DA611A625A629A62DA621A635A63FB
:1055D0009A63DA631A645A64CAE90A672846424E33
:1055E000DC601C748AF820408AF821408AF8224046
:1055F000AAF83040AAF83240FCF70CF84246494677
:10560000284614F045F8394D394F3046FCF702F87A
:1056100042464946304614F03BF82846FBF7FAFF6D
:1056200042464946284614F033F8324D324E384649
:10563000FBF7F0FF42464946384614F029F8284661
:1056400000F8044B0DF0B8F805F18900AC676C6701
:10565000A5F87C40A5F87E40A5F88040A5F88240DA
:10566000A5F88440A5F8864085F888400DF022FE14
:105670002146304685F8904085F8914085F8924063
:1056800085F8934085F8944085F8954085F89640D4
:1056900085F8974085F8984085F8994010F000FA11
:1056A000424630461549BDE8F04713F0F1BF00BF50
:1056B0006098FF1FF49BFF1F989CFF1FD09BFF1F4C
:1056C000449CFF1FE49BFF1F909EFF1F5098FF1FED
:1056D000589CFF1FE09CFF1FF49DFF1F709EFF1F43
:1056E000249CFF1FE89AFF1F2098FF1FB898FF1FF8
:1056F000689CFF1F309BFF1FA898FF1F215A0100C5
:10570000189EFF1F7098FF1FA89CFF1FFC87FF1F9C
:105710007D04000038B504460D4600F04DF8002326
:105720002582A383204638BD827F8A420FD038B5B8
:1057300005460C46A97700F07DF8012C09D00DD361
:10574000022C05D1084B6B610C23AB6138BD70474F
:1057500038BD064B6B610423AB6138BD044B6B61F4
:105760000423AB6138BD00BF780E0200900E02002A
:10577000700E0200818B8269914202D300228283E3
:10578000704710B5044600F039F870B1A38B626918
:10579000D9070BD432F8131001B10121207C0EF08F
:1057A000CDFAA38B0133A38310BD10BD204632F880
:1057B000131000F005F8F4E700220273704700BFF1
:1057C000037B4BB9054B816082B01B680193019B41
:1057D00003600123037302B0704700BFD0A1FF1F15
:1057E000054B82B01B680193037B019A02600BB9E1
:1057F0000123037302B07047D0A1FF1F0346007B53
:10580000A0B110B40A4A1C681268996883B001926A
:10581000019A5A60121B8A4204D300221A7303B001
:1058200010BC7047002003B010BC704701207047C7
:10583000D0A1FF1F00230373704700BF00207047F3
:1058400090F8392090F83800101A704790F83830E6
:1058500090F839209A4205D95A1C034480F8382020
:10586000187E70474FF0FF30704700BF90F8383017
:1058700090F839209A4286BF1B18187E4FF0FF30EF
:10588000704700BF704700BF38B50546B0F85E00EE
:1058900090B195F85D301446C3F1210294420CD8C2
:1058A00005F13B00184422460DF0C8FD95F85D3027
:1058B000234485F85D30204638BD01201446287108
:1058C000EEE700BFB0F85E306BB190F85D30202B92
:1058D00007D8C218013380F85D30012082F83B10F0
:1058E0007047012303710020704700BF0023426905
:1058F00080F8383080F8393080F85C3080F85D30DE
:1059000080F85E3080F85F3006CA30B40D680469F4
:1059100043662A4383660A60A370426990F8613047
:105920001649146813441D7A5B7B01EBC5051B0205
:105930006D6803F4E06343F064032B6090F8623019
:1059400013449D7CDB7D01EBC5011B02496803F418
:10595000E06343F064030B6021685368194205D08B
:10596000036927225A70036904229A71036920226D
:105970005A71036980229A7030BC70471444020047
:1059800010B50269D378DBB2D90604463DD51021A3
:105990005806D17038D503F0040303F0FF02002B42
:1059A00051D03D49626E00230B7084F85D30002AAF
:1059B0005BD0904794F85D30002B56D02369D022FD
:1059C0009A70236994F83B201A712369012284F8A4
:1059D0005C200222DA7010BD304B84F860009C42DB
:1059E0004AD02F4B9C4252D094F8391013791F297A
:1059F000DBB207D82848007820B16018013184F85C
:105A0000391003760223D37010BD5906C3D49178A0
:105A100001F0100101F0FF000029DDD013F00103B7
:105A20001ED194F85C1094F85D00884281BF4B1C35
:105A3000091984F85C3091F83B3013712369D02246
:105A40009A702269DEE7236984F83920C0229A70AF
:105A50002369114A1979012111700222DA7010BDEF
:105A6000C023937022691379CCE70122002384F8C4
:105A70005D2084F83B30A1E7626994F86130094900
:105A800013440322187A0EF087F82269ACE76269A2
:105A900094F861300449F3E7A09EFF1F0088FF1FC0
:105AA0006C88FF1F095B0000155B00000369DB7851
:105AB00003F0200373B190F860300133DBB2012BA7
:105AC00080F860301AD9426990F861301344187A2E
:105AD0000EF0DEB870B5426903F0FF0590F8613052
