:1000000000800020BD0100003D430100F5420100D9
:10001000F5420100F5420100F5420100F542010000
:10002000F5420100F5420100F54201003D430100A7
:100030003D430100F5420100F55D0100F95E01005C
:100040003D4301003D4301003D4301003D430100AC
:100050003D4301003D4301003D4301003D4301009C
:100060003D4301003D4301003D4301003D4301008C
:100070003D4301003D4301003D4301003D4301007C
:100080003D4301003D4301003D4301003D4301006C
:100090003D4301003D4301003D4301003D4301005C
:1000A00025680000316800003D4301003D43010028
:1000B0003D4301003D4301003D4301003D4301003C
:1000C0003D4301003D4301003D4301003D4301002C
:1000D0003D4301003D4301003D4301003D4301001C
:1000E0003D4301003D4301003D4301003D4301000C
:1000F0003D4301001D6501003D430100454E0100E7
:100100003D430100496601003D4301003D430100BC
:100110003D4301003D4301003D4301003D430100DB
:100120003D4301003D4301003D4301003D430100CB
:100130003D4301003D4301003D4301003D430100BB
:100140003D4301003D4301003D4301003D430100AB
:100150003D4301003D4301003D4301003D4301009B
:10016000452F0100C15001003D4301003D43010006
:100170003D4301003D4301003D4301003D4301007B
:100180003D4301003D4301003D4301003D4301006B
:100190003D4301003D4301003D4301003D4301005B
:1001A0003D4301003D4301003D4301003D4301004B
:1001B0003D4301003D4301003D430100564B4CF2DD
:1001C000205210B51A804DF628121A8000BF00BFC9
:1001D00014F0B8F8514B4FF010621A60504A9A6010
:1001E000504ADA60504A136813F4807304D14F49BF
:1001F0000B604FF4A85313604D4B1A78110703D5C9
:100200001A7842F008021A704A4B4B492A221A7097
:100210004A4A4B4B8B4204D252F8040F43F8040B6A
:10022000F8E7484B484900228B4202D243F8042B9E
:10023000FAE74649464A002352F8230041F82300D2
:1002400001336F2BF8D1434B434A802103F8011B44
:100250009342FBD1414B3D4A1A60414B8A221A70AE
:10026000A3F5805324225A70A0221A709A7992071B
:10027000FCD59A79D406FCD43A4A937903F00C035E
:10028000082B384BF9D103221A7140225A719A79FE
:100290009006FCD5334A9179324B4906FBD5324A58
:1002A000324911600221516020221A709A7902F0BD
:1002B0000C020C2AFAD12E4B2E4A1A602E4B2F4AD2
:1002C0001A6000225A60072243F8042C2C4AC3F813
:1002D0000C2D62B614F022FA144B1B68DA0705D510
:1002E000284814F08DF9284B284A1A60284B1B78AF
:1002F0005B0609D5244C254B22689A4204D121483B
:1003000014F07EF90023236019F046FE14F020F863
:1003100016F066F8FEE700BF0E200540308004406E
:10032000823F04000100002B10D0034014D0034092
:1003300002D0074000E007400098FF1F94550200DC
:100340002087FF1F0098FF1F20A5FF1F0082FF1FAF
:100350000000000000E400E05FE400E008ED00E0E1
:100360000050064000400640448004400000030165
:1003700004800440C010050014E000E0FF76010096
:10038000000020209737E85B1CE00340A5C3945A87
:1003900000F00740FFFFFFFFFFFFFFFFFFFFFFFF32
:1003A000FFFFFFFFFFFFFFFFFFFFFFFFFFFFFFFF5D
:1003B000FFFFFFFFFFFFFFFFFFFFFFFFFFFFFFFF4D
:1003C000FFFFFFFFFFFFFFFFFFFFFFFFFFFFFFFF3D
:1003D000FFFFFFFFFFFFFFFFFFFFFFFFFFFFFFFF2D
:1003E000FFFFFFFFFFFFFFFFFFFFFFFFFFFFFFFF1D
:1003F000FFFFFFFFFFFFFFFFFFFFFFFFFFFFFFFF0D
:10040000FFFFFFFFFFFFFFFFFFFFFFFFDEF9FFFF23
:1004100010B5054C237833B9044B13B10448AFF33E
:1004200000800123237010BD0098FF1F0000000012
:1004300090550200084B10B51BB108490848AFF3AE
:1004400000800848036803B910BD074B002BFBD0A0
:10045000BDE81040184700BF000000000498FF1FCF
:10046000905502000098FF1F0000000015F032BBFD
:1004700015F0F4BA0846114615F056BB14F060BCEE
:1004800010B514210446406915F0B4FF204610BD94
:100490001F4B10B4D3F88020136850681978047883
:1004A000507A137A044201EA03011AD0937A03F0D6
:1004B000030309B143F0040343F008039910013B1F
:1004C00091720D2B0BD8DFE803F01E0719070A14F1
:1004D0001E1E140A0719071ED368013BD36010BC07
:1004E0007047937A03F003030029E7D043F0040335
:1004F000E4E7D36810BC023BD3607047D36810BCFC
:100500000233D3607047D36810BC0133D3607047A7
:1005100068A1FF1F1F4B10B4D3F8842013685068E4
:1005200019780478507A137A044201EA03011AD048
:10053000937A03F0030309B143F0040343F0080383
:100540009910013B91720D2B0BD8DFE803F01E07C9
:1005500019070A141E1E140A0719071ED368013B47
:10056000D36010BC7047937A03F003030029E7D0EF
:1005700043F00403E4E7D36810BC023BD360704748
:10058000D36810BC0233D3607047D36810BC01330A
:10059000D360704768A1FF1F1F4B10B41A6E136819
:1005A000506819780478507A137A044201EA0301FA
:1005B0001AD0937A03F0030309B143F0040343F024
:1005C00008039910013B91720D2B0BD8DFE803F063
:1005D0001E0719070A141E1E140A0719071ED368DE
:1005E000013BD36010BC7047937A03F003030029EA
:1005F000E7D043F00403E4E7D36810BC023BD360C8
:100600007047D36810BC0233D3607047D36810BC06
:100610000133D360704700BF68A1FF1F1F4B10B4A8
:100620005A6E1368506819780478507A137A044225
:1006300001EA03011AD0937A03F0030309B143F0EE
:10064000040343F008039910013B91720D2B0BD862
:10065000DFE803F01E0719070A141E1E140A071903
:10066000071ED368013BD36010BC7047937A03F038
:1006700003030029E7D043F00403E4E7D36810BC88
:10068000023BD3607047D36810BC0233D36070471D
:10069000D36810BC0133D360704700BF68A1FF1F4F
:1006A0001F4B10B49A6E1368506819780478507A0A
:1006B000137A044201EA03011AD0937A03F0030388
:1006C00009B143F0040343F008039910013B917210
:1006D0000D2B0BD8DFE803F01E0719070A141E1EA6
:1006E000140A0719071ED368013BD36010BC70477A
:1006F000937A03F003030029E7D043F00403E4E70F
:10070000D36810BC023BD3607047D36810BC02337F
:10071000D3607047D36810BC0133D360704700BF0B
:1007200068A1FF1F1F4B10B4DA6E13685068197868
:100730000478507A137A044201EA03011AD0937ABA
:1007400003F0030309B143F0040343F008039910D5
:10075000013B91720D2B0BD8DFE803F01E07190740
:100760000A141E1E140A0719071ED368013BD36022
:1007700010BC7047937A03F003030029E7D043F0DD
:100780000403E4E7D36810BC023BD3607047D3682E
:1007900010BC0233D3607047D36810BC0133D36000
:1007A000704700BF68A1FF1F1F4B10B41A6F13687A
:1007B000506819780478507A137A044201EA0301E8
:1007C0001AD0937A03F0030309B143F0040343F012
:1007D00008039910013B91720D2B0BD8DFE803F051
:1007E0001E0719070A141E1E140A0719071ED368CC
:1007F000013BD36010BC7047937A03F003030029D8
:10080000E7D043F00403E4E7D36810BC023BD360B5
:100810007047D36810BC0233D3607047D36810BCF4
:100820000133D360704700BF68A1FF1F1F4B10B496
:100830005A6F1368506819780478507A137A044212
:1008400001EA03011AD0937A03F0030309B143F0DC
:10085000040343F008039910013B91720D2B0BD850
:10086000DFE803F01E0719070A141E1E140A0719F1
:10087000071ED368013BD36010BC7047937A03F026
:1008800003030029E7D043F00403E4E7D36810BC76
:10089000023BD3607047D36810BC0233D36070470B
:1008A000D36810BC0133D360704700BF68A1FF1F3D
:1008B0001F4B10B49A6F1368506819780478507AF7
:1008C000137A044201EA03011AD0937A03F0030376
:1008D00009B143F0040343F008039910013B9172FE
:1008E0000D2B0BD8DFE803F01E0719070A141E1E94
:1008F000140A0719071ED368013BD36010BC704768
:10090000937A03F003030029E7D043F00403E4E7FC
:10091000D36810BC023BD3607047D36810BC02336D
:10092000D3607047D36810BC0133D360704700BFF9
:1009300068A1FF1F1F4B10B4DA6F13685068197855
:100940000478507A137A044201EA03011AD0937AA8
:1009500003F0030309B143F0040343F008039910C3
:10096000013B91720D2B0BD8DFE803F01E0719072E
:100970000A141E1E140A0719071ED368013BD36010
:1009800010BC7047937A03F003030029E7D043F0CB
:100990000403E4E7D36810BC023BD3607047D3681C
:1009A00010BC0233D3607047D36810BC0133D360EE
:1009B000704700BF68A1FF1F1F4B10B41A6813686F
:1009C000506819780478507A137A044201EA0301D6
:1009D0001AD0937A03F0030309B143F0040343F000
:1009E00008039910013B91720D2B0BD8DFE803F03F
:1009F0001E0719070A141E1E140A0719071ED368BA
:100A0000013BD36010BC7047937A03F003030029C5
:100A1000E7D043F00403E4E7D36810BC023BD360A3
:100A20007047D36810BC0233D3607047D36810BCE2
:100A30000133D360704700BF68A1FF1F1F4B10B484
:100A40005A681368506819780478507A137A044207
:100A500001EA03011AD0937A03F0030309B143F0CA
:100A6000040343F008039910013B91720D2B0BD83E
:100A7000DFE803F01E0719070A141E1E140A0719DF
:100A8000071ED368013BD36010BC7047937A03F014
:100A900003030029E7D043F00403E4E7D36810BC64
:100AA000023BD3607047D36810BC0233D3607047F9
:100AB000D36810BC0133D360704700BF68A1FF1F2B
:100AC0001F4B10B49A681368506819780478507AEC
:100AD000137A044201EA03011AD0937A03F0030364
:100AE00009B143F0040343F008039910013B9172EC
:100AF0000D2B0BD8DFE803F01E0719070A141E1E82
:100B0000140A0719071ED368013BD36010BC704755
:100B1000937A03F003030029E7D043F00403E4E7EA
:100B2000D36810BC023BD3607047D36810BC02335B
:100B3000D3607047D36810BC0133D360704700BFE7
:100B400068A1FF1F1F4B10B4DA681368506819784A
:100B50000478507A137A044201EA03011AD0937A96
:100B600003F0030309B143F0040343F008039910B1
:100B7000013B91720D2B0BD8DFE803F01E0719071C
:100B80000A141E1E140A0719071ED368013BD360FE
:100B900010BC7047937A03F003030029E7D043F0B9
:100BA0000403E4E7D36810BC023BD3607047D3680A
:100BB00010BC0233D3607047D36810BC0133D360DC
:100BC000704700BF68A1FF1F1F4B10B41A6913685C
:100BD000506819780478507A137A044201EA0301C4
:100BE0001AD0937A03F0030309B143F0040343F0EE
:100BF00008039910013B91720D2B0BD8DFE803F02D
:100C00001E0719070A141E1E140A0719071ED368A7
:100C1000013BD36010BC7047937A03F003030029B3
:100C2000E7D043F00403E4E7D36810BC023BD36091
:100C30007047D36810BC0233D3607047D36810BCD0
:100C40000133D360704700BF68A1FF1F1F4B10B472
:100C50005A691368506819780478507A137A0442F4
:100C600001EA03011AD0937A03F0030309B143F0B8
:100C7000040343F008039910013B91720D2B0BD82C
:100C8000DFE803F01E0719070A141E1E140A0719CD
:100C9000071ED368013BD36010BC7047937A03F002
:100CA00003030029E7D043F00403E4E7D36810BC52
:100CB000023BD3607047D36810BC0233D3607047E7
:100CC000D36810BC0133D360704700BF68A1FF1F19
:100CD0001F4B10B49A691368506819780478507AD9
:100CE000137A044201EA03011AD0937A03F0030352
:100CF00009B143F0040343F008039910013B9172DA
:100D00000D2B0BD8DFE803F01E0719070A141E1E6F
:100D1000140A0719071ED368013BD36010BC704743
:100D2000937A03F003030029E7D043F00403E4E7D8
:100D3000D36810BC023BD3607047D36810BC023349
:100D4000D3607047D36810BC0133D360704700BFD5
:100D500068A1FF1F1F4B10B4DA6913685068197837
:100D60000478507A137A044201EA03011AD0937A84
:100D700003F0030309B143F0040343F0080399109F
:100D8000013B91720D2B0BD8DFE803F01E0719070A
:100D90000A141E1E140A0719071ED368013BD360EC
:100DA00010BC7047937A03F003030029E7D043F0A7
:100DB0000403E4E7D36810BC023BD3607047D368F8
:100DC00010BC0233D3607047D36810BC0133D360CA
:100DD000704700BF68A1FF1F1F4B10B41A6A136849
:100DE000506819780478507A137A044201EA0301B2
:100DF0001AD0937A03F0030309B143F0040343F0DC
:100E000008039910013B91720D2B0BD8DFE803F01A
:100E10001E0719070A141E1E140A0719071ED36895
:100E2000013BD36010BC7047937A03F003030029A1
:100E3000E7D043F00403E4E7D36810BC023BD3607F
:100E40007047D36810BC0233D3607047D36810BCBE
:100E50000133D360704700BF68A1FF1F1F4B10B460
:100E60005A6A1368506819780478507A137A0442E1
:100E700001EA03011AD0937A03F0030309B143F0A6
:100E8000040343F008039910013B91720D2B0BD81A
:100E9000DFE803F01E0719070A141E1E140A0719BB
:100EA000071ED368013BD36010BC7047937A03F0F0
:100EB00003030029E7D043F00403E4E7D36810BC40
:100EC000023BD3607047D36810BC0233D3607047D5
:100ED000D36810BC0133D360704700BF68A1FF1F07
:100EE0001F4B10B49A6A1368506819780478507AC6
:100EF000137A044201EA03011AD0937A03F0030340
:100F000009B143F0040343F008039910013B9172C7
:100F10000D2B0BD8DFE803F01E0719070A141E1E5D
:100F2000140A0719071ED368013BD36010BC704731
:100F3000937A03F003030029E7D043F00403E4E7C6
:100F4000D36810BC023BD3607047D36810BC023337
:100F5000D3607047D36810BC0133D360704700BFC3
:100F600068A1FF1F1F4B10B4DA6A13685068197824
:100F70000478507A137A044201EA03011AD0937A72
:100F800003F0030309B143F0040343F0080399108D
:100F9000013B91720D2B0BD8DFE803F01E071907F8
:100FA0000A141E1E140A0719071ED368013BD360DA
:100FB00010BC7047937A03F003030029E7D043F095
:100FC0000403E4E7D36810BC023BD3607047D368E6
:100FD00010BC0233D3607047D36810BC0133D360B8
:100FE000704700BF68A1FF1F1F4B10B41A6B136836
:100FF000506819780478507A137A044201EA0301A0
:101000001AD0937A03F0030309B143F0040343F0C9
:1010100008039910013B91720D2B0BD8DFE803F008
:101020001E0719070A141E1E140A0719071ED36883
:10103000013BD36010BC7047937A03F0030300298F
:10104000E7D043F00403E4E7D36810BC023BD3606D
:101050007047D36810BC0233D3607047D36810BCAC
:101060000133D360704700BF68A1FF1F1F4B10B44E
:101070005A6B1368506819780478507A137A0442CE
:1010800001EA03011AD0937A03F0030309B143F094
:10109000040343F008039910013B91720D2B0BD808
:1010A000DFE803F01E0719070A141E1E140A0719A9
:1010B000071ED368013BD36010BC7047937A03F0DE
:1010C00003030029E7D043F00403E4E7D36810BC2E
:1010D000023BD3607047D36810BC0233D3607047C3
:1010E000D36810BC0133D360704700BF68A1FF1FF5
:1010F0001F4B10B49A6B1368506819780478507AB3
:10110000137A044201EA03011AD0937A03F003032D
:1011100009B143F0040343F008039910013B9172B5
:101120000D2B0BD8DFE803F01E0719070A141E1E4B
:10113000140A0719071ED368013BD36010BC70471F
:10114000937A03F003030029E7D043F00403E4E7B4
:10115000D36810BC023BD3607047D36810BC023325
:10116000D3607047D36810BC0133D360704700BFB1
:1011700068A1FF1F1F4B10B4DA6B13685068197811
:101180000478507A137A044201EA03011AD0937A60
:1011900003F0030309B143F0040343F0080399107B
:1011A000013B91720D2B0BD8DFE803F01E071907E6
:1011B0000A141E1E140A0719071ED368013BD360C8
:1011C00010BC7047937A03F003030029E7D043F083
:1011D0000403E4E7D36810BC023BD3607047D368D4
:1011E00010BC0233D3607047D36810BC0133D360A6
:1011F000704700BF68A1FF1F1F4B10B41A6C136823
:10120000506819780478507A137A044201EA03018D
:101210001AD0937A03F0030309B143F0040343F0B7
:1012200008039910013B91720D2B0BD8DFE803F0F6
:101230001E0719070A141E1E140A0719071ED36871
:10124000013BD36010BC7047937A03F0030300297D
:10125000E7D043F00403E4E7D36810BC023BD3605B
:101260007047D36810BC0233D3607047D36810BC9A
:101270000133D360704700BF68A1FF1F1F4B10B43C
:101280005A6C1368506819780478507A137A0442BB
:1012900001EA03011AD0937A03F0030309B143F082
:1012A000040343F008039910013B91720D2B0BD8F6
:1012B000DFE803F01E0719070A141E1E140A071997
:1012C000071ED368013BD36010BC7047937A03F0CC
:1012D00003030029E7D043F00403E4E7D36810BC1C
:1012E000023BD3607047D36810BC0233D3607047B1
:1012F000D36810BC0133D360704700BF68A1FF1FE3
:101300001F4B10B49A6C1368506819780478507A9F
:10131000137A044201EA03011AD0937A03F003031B
:1013200009B143F0040343F008039910013B9172A3
:101330000D2B0BD8DFE803F01E0719070A141E1E39
:10134000140A0719071ED368013BD36010BC70470D
:10135000937A03F003030029E7D043F00403E4E7A2
:10136000D36810BC023BD3607047D36810BC023313
:10137000D3607047D36810BC0133D360704700BF9F
:1013800068A1FF1F1F4B10B4DA6C136850681978FE
:101390000478507A137A044201EA03011AD0937A4E
:1013A00003F0030309B143F0040343F00803991069
:1013B000013B91720D2B0BD8DFE803F01E071907D4
:1013C0000A141E1E140A0719071ED368013BD360B6
:1013D00010BC7047937A03F003030029E7D043F071
:1013E0000403E4E7D36810BC023BD3607047D368C2
:1013F00010BC0233D3607047D36810BC0133D36094
:10140000704700BF68A1FF1F1F4B10B41A6D13680F
:10141000506819780478507A137A044201EA03017B
:101420001AD0937A03F0030309B143F0040343F0A5
:1014300008039910013B91720D2B0BD8DFE803F0E4
:101440001E0719070A141E1E140A0719071ED3685F
:10145000013BD36010BC7047937A03F0030300296B
:10146000E7D043F00403E4E7D36810BC023BD36049
:101470007047D36810BC0233D3607047D36810BC88
:101480000133D360704700BF68A1FF1F1F4B10B42A
:101490005A6D1368506819780478507A137A0442A8
:1014A00001EA03011AD0937A03F0030309B143F070
:1014B000040343F008039910013B91720D2B0BD8E4
:1014C000DFE803F01E0719070A141E1E140A071985
:1014D000071ED368013BD36010BC7047937A03F0BA
:1014E00003030029E7D043F00403E4E7D36810BC0A
:1014F000023BD3607047D36810BC0233D36070479F
:10150000D36810BC0133D360704700BF68A1FF1FD0
:101510001F4B10B49A6D1368506819780478507A8C
:10152000137A044201EA03011AD0937A03F0030309
:1015300009B143F0040343F008039910013B917291
:101540000D2B0BD8DFE803F01E0719070A141E1E27
:10155000140A0719071ED368013BD36010BC7047FB
:10156000937A03F003030029E7D043F00403E4E790
:10157000D36810BC023BD3607047D36810BC023301
:10158000D3607047D36810BC0133D360704700BF8D
:1015900068A1FF1F1F4B10B4DA6D136850681978EB
:1015A0000478507A137A044201EA03011AD0937A3C
:1015B00003F0030309B143F0040343F00803991057
:1015C000013B91720D2B0BD8DFE803F01E071907C2
:1015D0000A141E1E140A0719071ED368013BD360A4
:1015E00010BC7047937A03F003030029E7D043F05F
:1015F0000403E4E7D36810BC023BD3607047D368B0
:1016000010BC0233D3607047D36810BC0133D36081
:10161000704700BF68A1FF1F10B4036841681A78C3
:101620000C78417A037A0C4202EA03021AD0837AD8
:1016300003F003030AB143F0040343F008039A10D4
:10164000013B82720D2B0BD8DFE803F01E07190750
:101650000A141E1E140A0719071EC368013BC36043
:1016600010BC7047837A03F00303002AE7D043F0ED
:101670000403E4E7C36810BC023BC3607047C3685F
:1016800010BC0233C3607047C36810BC0133C36031
:10169000704700BF08B50B46212800F25881DFE8EB
:1016A00010F04D0144013B013201290120011701D5
:1016B0000E010501FC00F300EA00E100D800CF00B4
:1016C000C600BD00B400AB00A200990090008700E6
:1016D0007E0075006C0063005A00510048003F0016
:1016E00036002C0022009B4A9B49C2F884302120FE
:1016F000042212F0C5FE012008BD964A9749C2F89F
:1017000080302020042212F0BBFE012008BD914A47
:101710009349D3671F20042212F0B2FE012008BDB6
:101720008C4A904993671E20042212F0A9FE0120E2
:1017300008BD884A8C4953671D20042212F0A0FE80
:10174000012008BD834A894913671C20042212F036
:1017500097FE012008BD7F4A8549D3661B200422DD
:1017600012F08EFE012008BD7A4A824993661A2043
:10177000042212F085FE012008BD764A7E49536698
:101780001920042212F07CFE012008BD714A7B4919
:1017900013661820042212F073FE012008BD6D4A62
:1017A0007749D3651720042212F06AFE012008BD94
:1017B000684A744993651620042212F061FE0120E4
:1017C00008BD644A704953651520042212F058FE82
:1017D000012008BD5F4A6D4913651420042212F0F0
:1017E0004FFE012008BD5B4A6949D36413200422DF
:1017F00012F046FE012008BD564A66499364122045
:10180000042212F03DFE012008BD524A6249536491
:101810001120042212F034FE012008BD4D4A5F4918
:1018200013641020042212F02BFE012008BD494A47
:101830005B49D3630F20042212F022FE012008BD71
:10184000444A584993630E20042212F019FE0120E5
:1018500008BD404A544953630D20042212F010FE83
:10186000012008BD3B4A514913630C20042212F0A9
:1018700007FE012008BD374A4D49D3620B200422E0
:1018800012F0FEFD012008BD324A4A4993620A2047
:10189000042212F0F5FD012008BD2E4A464953628C
:1018A0000920042212F0ECFD012008BD294A434919
:1018B00013620820042212F0E3FD012008BD254A2E
:1018C0003F49D3610720042212F0DAFD012008BD50
:1018D000204A3C4993610620042212F0D1FD0120E8
:1018E00008BD1C4A384953610520042212F0C8FD86
:1018F000012008BD174A354913610422104612F031
:10190000BFFD012008BD134A3149D36003200422E2
:1019100012F0B6FD012008BD0E4A2E499360022048
:10192000042212F0ADFD012008BD0A4A2A49536085
:101930000120042212F0A4FD012008BD054A274918
:1019400013600020042212F09BFD012008BD00203E
:1019500008BD00BF68A1FF1F15050000910400002D
:1019600035090000B10800002D080000A90700009B
:1019700025070000A10600001D06000099050000D3
:1019800095150000111500008D14000009140000C9
:1019900085130000011300007D120000F911000002
:1019A00075110000F11000006D100000E90F00003B
:1019B000650F0000E10E00005D0E0000D90D000073
:1019C000550D0000D10C00004D0C0000C90B0000AB
:1019D000450B0000C10A00003D0A0000B9090000E3
:1019E00038B50025044605708570C57005714571D0
:1019F000C580058145818581C58105824582183074
:101A000011F00AFA04F1200004F04AFB84F8305087
:101A1000204638BDF0B587B02D4800AF04F062FB1A
:101A200000284CD02B4B1B78002B48D02A4B2B4A3C
:101A30001B683B603B681278BB600024F8237A7116
:101A40003B71BC713B1D03CB254DC7F81210C8225A
:101A5000082315F80C1FC7F80E003A737B736E4607
:101A6000E2B20823D00703F1FF3348BF4A4013F026
:101A7000FF034FEA5202F5D10134B4F5807F05F837
:101A8000012FEDD107F10D0107F1150411F8012F18
:101A90001348534003448C425B7BF7D1D0F81001CC
:101AA000BB7503680F4A5B6893420BD10B2107F1AA
:101AB0000C0014F039F80648B54604F005FB1C3755
:101AC000BD46F0BD0B2207F10C019847F3E700BFBC
:101AD0006498FF1F1D98FF1F28A2FF1FA99CFF1FCE
:101AE000389DFF1F750400002DE9F04FAC4EAD4A44
:101AF0008DB0D6F89C0003681B69934200AF40F09C
:101B0000948513F01DF910B1012386F8D830A44C48
:101B100004F1C80004F0E6FA60B194F8D830002B64
:101B200040F09F8084F8D93000239F4886F8DA304F
:101B300004F0CAFA9A4DD6F89C4007E02368204684
:101B40005B699847C1B2994811F09EFF236820460F
:101B50001B6998470028F1D196F87030DFF8408271
:101B6000002B64D008F1040107F1080011F09AFF7E
:101B700007F1080EBEE80F0008F174040FC4BEE8B8
:101B80000F000FC49EE8030044F8040B95F895304D
:101B90002180002BCFD0D8F8740017F0B9F97EA3BC
:101BA000D3E9002317F01AFAC8E92A01D8F8780017
:101BB00017F0AEF978A3D3E9002317F00FFA98F8DD
:101BC0009630C8E92C01002B52D1794BC8F8B830B7
:101BD000B6F9820017F004FE764917F055FE044668
:101BE000B6F9800017F0FCFD0146204617F044FDD1
:101BF000C6F8BC00B6F9860017F0F2FD6E4917F082
:101C000043FE0446B6F9840017F0EAFD014620467B
:101C100017F032FD96F8881096F89020C6F8C000AC
:101C2000012386F8C41086F8C52086F8DA306348A8
:101C300004F058FA002840F07B83614804F052FA1F
:101C4000002840F0DF825F4804F04CFA002840F0A2
:101C50007B815D4804F046FAE8B93437BD46BDE8FB
:101C6000F08F0122002384F8D92084F8D8305BE774
:101C7000B8F97E0017F0B4FD4F4917F005FE044691
:101C8000B8F97C0017F0ACFD0146204617F0F4FCD3
:101C9000C8F8B8009CE74D4C23787B7000226A237B
:101CA0006079BA703B7012F01DFA8046A08917F077
:101CB00097FD0146206917F09BFEA16817F0E4FD2F
:101CC0000546404617F08CFD0146284617F0DCFD1E
:101CD0003F4917F0D9FD17F09DFFB880607912F0E9
:101CE00001FA8046A08917F07BFD0146206917F0B4
:101CF0007FFEA16817F0C8FD0546404617F070FD4D
:101D00000146284617F0C0FD0546607F17F068FDC4
:101D10000146284617F056FF00285DD1A07F17F036
:101D20005FFD0146284617F06BFF002854D160790B
:101D300012F0D8F98146A089A56917F051FD014636
:101D4000206917F055FEA16817F09EFD80464846B1
:101D500017F046FD0146404617F096FD8046207F6D
:101D600017F03EFD1B4917F043FE29468146606986
:101D700017F080FC0146484617F086FD294617F00B
:101D80007BFC0146404617F027FF38B30123BB70A8
:101D900024E000BFAFF30080000000A0F2D77A3E3D
:101DA000409BFF1F7D040000089CFF1F449BFF1FFA
:101DB000003C1CC66F12833A0AD7233C989CFF1F35
:101DC000349CFF1FE89EFF1F5498FF1FA89EFF1F13
:101DD00000007A440000C8420323BB7007F13003BF
:101DE000544D53F8300DC7F80A002C469B8814F860
:101DF0000CEFFB81C8220623A4463A727B72E946A7
:101E00000021CAB20823D00703F1FF3348BF82EA9A
:101E10000E0213F0FF034FEA5202F4D10131B1F583
:101E2000807F0CF8012FECD107F1090107F10F0EAB
:101E300011F8012F3F4853402B448E455B7BF7D16F
:101E4000D0F810013B740368DFF8F4805B68434509
:101E500040F0EE83092107F1080013F065FE96F8C3
:101E6000D920354BCD46002A00F0ED8393F8DA20D7
:101E7000002A00F01384002283F8A2206E46DFF8C7
:101E8000C4C08CB0C82228238DF800208DF8013002
:101E9000EE460DF102090CF1200BE246BAE80F0004
:101EA000DA45C9F80000C9F80410C9F80820C9F8D3
:101EB0000C30D44609F11009EFD1BCE80300C9F891
:101EC0000410C9F80000287B0021CAB2082312F0D0
:101ED000010F03F1FF3318BF424013F0FF034FEA35
:101EE0005202F4D10131B1F5807F04F8012FECD119
:101EF0000EF101010EF1290411F8012F0D48534094
:101F00002B448C425B7BF7D1D0F810018EF82A303D
:101F100003685B68434540F0C68370462B2113F08D
:101F200003FE0648B54604F0CFF83437BD46BDE899
:101F3000F08F00BF389DFF1F409BFF1F5498FF1F6D
:101F400075040000E09BFF1FA6494B690A78187CC6
:101F50007A70662400220128BA707A603C7040F2E0
:101F6000B78372B6DA6862B691F830307A600BB92E
:101F70000323BB709C4D3B462C4603CB14F80CEF5F
:101F8000C7F80A00C8220823C7F80E1020463A7284
:101F90007B72EA460021CAB2082312F0010F03F156
:101FA000FF3318BF8EEA020213F0FF034FEA52021A
:101FB000F3D10131B1F5807F00F8012FEBD107F1AA
:101FC000090107F1110B11F8012F874853402B44E9
:101FD0008B455B7BF7D1D0F81001BB740368DFF849
:101FE00020825B68434507F1080900F030834946C9
:101FF0000B2298477D4843690278197C7A704FF02C
:10200000660E00220129D546BA707A6087F800E092
:1020100040F2268472B6DA6862B690F830307A60A0
:102020000BB90323BB703B4603CBC8220823C7F878
:102030000A0095F80CE06E48C7F80E103A727B72F1
:10204000EA460021CAB2082312F0010F03F1FF3360
:1020500018BF8EEA020213F0FF034FEA5202F3D1D7
:102060000131B1F5807F00F8012FEBD107F10901B3
:1020700011F8012F5C4853402B448B455B7BF7D113
:10208000D0F81001BB7403685B68434540F01383CC
:102090000B21484613F048FD564843690278197CE5
:1020A0007A704FF0660E00220129D546BA707A6028
:1020B00087F800E040F2908372B6DA6862B690F872
:1020C00030307A600BB90323BB703B4603CBC82288
:1020D0000823C7F80A0095F80CE04548C7F80E1029
:1020E0003A727B72EA460021CAB2082312F0010F4D
:1020F00003F1FF3318BF8EEA020213F0FF034FEA29
:102100005202F3D10131B1F5807F00F8012FEBD1FC
:1021100007F1090111F8012F334853402B448B4537
:102120005B7BF7D1D0F81001BB7403685B68434553
:1021300040F0BD820B21484613F0F6FC2E4843695F
:102140000278197C7A704FF0660E00220129D5467C
:10215000BA707A6087F800E040F2FA8272B6DA6804
:1021600062B690F830307A600BB90323BB703B46FF
:1021700003CBC8220823C7F80E10297BC7F80A0032
:102180003A727B72EA460020C2B2082312F0010FB5
:1021900003F1FF3318BF4A4013F0FF034FEA520226
:1021A000F4D10130B0F5807F04F8012FECD107F1B4
:1021B000090111F8012F0C4853402B448B455B7BE0
:1021C000F7D1D0F81001BB7403685B68434540F059
:1021D000768248460B2113F0A7FC0848D54603F049
:1021E00073FF36E5449CFF1F389DFF1F2098FF1F9B
:1021F000449DFF1FC098FF1FBC9CFF1FE89EFF1F50
:1022000075040000464D686803689B69984700287C
:1022100000F0BE816B682A789969D3F814C0D3F8AE
:102220001CE09C6BD86BE961196CC5F818C0C5F847
:1022300020E02C636863A963D3F848C0D3F84CE06E
:102240001C6D986DD96D1B6EC5F824C0C5F828E0CB
:10225000EC62E86329646B646A7514352C460FCD13
:102260000FC40FCD0FC40FCD0FC4A9462B6849F87A
:1022700030396C468EB0C82234238DF800208DF89A
:102280000130EE460DF1020CC846B8E80F00A84533
:10229000CCF80000CCF80410CCF80820CCF80C30B6
:1022A000C1460CF1100CEFD11E4DD8F80000CCF84F
:1022B0000000AC4600201CF80C1FC2B2082312F02C
:1022C000010F03F1FF3318BF4A4013F0FF034FEA39
:1022D0005202F4D10130B0F5807F0CF8012FECD11F
:1022E0000EF101010EF1350C11F8012F0D4853408C
:1022F0002B448C455B7BF7D1D0F810018EF836303B
:102300000368094A5B68934240F0DD8170463721DB
:1023100013F00AFCA546054803F0D6FE93E400BF7F
:10232000F49AFF1F389DFF1F75040000349CFF1FA7
:10233000D24C04F1100003F0D5FE00285CD094F8D4
:102340002100CF4D11F0CEFE16F0E2FDD4E90A23B4
:1023500016F044FE0022CB4B16F040FE17F016F9A3
:102360001FFA80F804F1100003F0AEFE2078A7F801
:102370000480692207F1300300213A707870B97047
:1023800053F8300DC7F80A00AE469B88FB81C8227F
:1023900006231EF80C0F3A727B726C46CAB20823F1
:1023A00012F0010F03F1FF3318BF424013F0FF0397
:1023B0004FEA5202F4D10131B1F5807F0EF8012FBE
:1023C000ECD107F1090107F10F0E11F8012FAC480C
:1023D00053402B448E455B7BF7D1D0F810013B7402
:1023E0000368A94A5B68934240F04281092107F1E2
:1023F000080013F099FBA546A44C04F1100003F06B
:1024000071FE00285CD094F821009D4D11F06AFE09
:1024100016F07EFDD4E90A2316F0E0FD0022994B68
:1024200016F0DCFD17F0B2F81FFA80F804F1100086
:1024300003F04AFE2078A7F80480692207F13003F0
:1024400000213A707870B97053F8300DC7F80A005F
:10245000AE469B88FB81C82206231EF80C0F3A72F9
:102460007B726C46CAB2082312F0010F03F1FF33EE
:1024700018BF424013F0FF034FEA5202F4D101317A
:10248000B1F5807F0EF8012FECD107F1090107F1BA
:102490000F0E11F8012F7A4853402B448E455B7B79
:1024A000F7D1D0F810013B740368774A5B68934218
:1024B00040F0D880092107F1080013F035FBA5464C
:1024C000734C04F1100003F00DFE00285BD094F86B
:1024D00021006B4D11F006FE16F01AFDD4E90A2317
:1024E00016F07CFD0022674B16F078FD17F04EF8D1
:1024F0001FFA80F804F1100003F0E6FD2078A7F839
:102500000480692207F1300300213A707870B970B5
:1025100053F8300DC7F80A00AE469B88FB81C822ED
:1025200006231EF80C0F3A727B726C46CAB208235F
:1025300012F0010F03F1FF3318BF424013F0FF0305
:102540004FEA5202F4D10131B1F5807F0EF8012F2C
:10255000ECD107F1090107F10F0E11F8012F4848DE
:1025600053402B448E455B7BF7D1D0F810013B7470
:102570000368454A5B6893426ED1092107F1080060
:1025800013F0D2FAA546434803F09EFDFFF755BB72
:102590002B7C002B7FF4BFAE6C468EB00223C8218B
:1025A0003422AB7505F114088DF800108DF8012068
:1025B000EE460DEB03094435C446BCE80F00AC45BC
:1025C000C9F80000C9F80410C9F80820C9F80C308F
:1025D000E04609F11009EFD1294DDCF80000C9F8F7
:1025E0000000AC4600201CF80C1FC2B2082312F0F9
:1025F000010F03F1FF3318BF4A4013F0FF034FEA06
:102600005202F4D10130B0F5807F0CF8012FECD1EB
:102610000EF101010EF1350C11F8012F184853404D
:102620002B448C455B7BF7D166E69847FFF76BBA86
:10263000092207F10801984796F8D920164BCD4694
:10264000002A7FF413AC032283F8A22016E4484644
:102650000B2113F069FACDE4092207F1080198472C
:10266000A54690E7092207F108019847A54627E704
:10267000092207F108019847A546BDE6709EFF1F95
:10268000389DFF1F00408F40750400007898FF1FA1
:10269000009DFF1F989CFF1F409BFF1F012283F896
:1026A000A220FFF7EBBB71462B22984739E40B229F
:1026B0004946984742E50B2249469847ECE449468B
:1026C0000B22984789E5714637229847A54622E6AE
:1026D00072B693E81400107825785C7A1A7A25424D
:1026E00000EA02002CD09A7A02F0030208B142F00C
:1026F000040242F008029010013A98720D2A3FF647
:1027000031AC01A050F822F0E52800007B29000040
:10271000712900007B290000651F00006729000067
:10272000E5280000E528000067290000651F00007B
:102730007B290000712900007B290000E5280000AA
:102740009A7A02F003020028D5D042F00402D2E7C0
:1027500072B693E8060091F800C092F800E05A7A49
:10276000197A1EEA020F0CEA01012DD09A7A02F0C2
:10277000030209B142F0040242F008029110013A4A
:1027800099720D2A3FF6EBAC01A151F822F000BF7F
:102790005D290000552900004D2900005529000041
:1027A0005F210000452900005D2900005D2900002F
:1027B000452900005F210000552900004D29000037
:1027C000552900005D2900009A7A02F003020029D1
:1027D000D4D042F00402D1E772B693E8060091F833
:1027E00000C092F800E05A7A197A1EEA020F0CEA49
:1027F00001012DD09A7A02F0030209B142F00402DD
:1028000042F008029110013A99720D2A3FF655AC38
:1028100001A151F822F000BF3B290000312900003E
:102820002729000031290000BB2000001D290000DD
:102830003B2900003B2900001D290000BB200000AF
:102840003129000027290000312900003B29000020
:102850009A7A02F003020029D4D042F00402D1E7B0
:1028600072B693E8060091F800C092F800E05A7A38
:10287000197A1EEA020F0CEA01012BD09A7A02F0B3
:102880000302002947D142F008029110013A9972DF
:102890000D2A3FF6C0AB01A151F822F00D2900002E
:1028A00003290000F9280000032900001720000078
:1028B000EF2800000D2900000D290000EF2800007E
:1028C0001720000003290000F92800000329000058
:1028D0000D2900009A7A02F003020029D5D042F0B7
:1028E0000402D2E7DA680132DA60FFF73CBBDA684B
:1028F000023ADA60FFF790BBDA680232DA60FFF77B
:102900008BBBDA68013ADA60FFF786BBDA6801321E
:10291000DA60FFF781BB42F00402B4E7DA68023AFA
:10292000DA60FFF7CBBBDA680232DA60FFF7C6BBCA
:10293000DA68013ADA60FFF7C1BBDA680132DA60BF
:10294000FFF7BCBBDA68023ADA6009E4DA680232FF
:10295000DA6005E4DA68013ADA6001E4DA68013243
:10296000DA60FFF7FDBBDA68023ADA60FFF7FBBA1C
:10297000DA680232DA60FFF7F6BADA68013ADA604A
:10298000FFF7F1BAF0B58BB000AF07F128040023D0
:102990000D46F9220146F81D04F8242D7B71BB7108
:1029A00018F04CFB8AB0C822222387F825508DF8F6
:1029B00000208DF801306D460DF1020E07F1240C58
:1029C00026460FCE6645CEF80000CEF80410CEF8AD
:1029D0000820CEF80C3034460EF1100EF0D11D4E0A
:1029E0002388AEF800303446002014F80C1FC2B221
:1029F000082312F0010F03F1FF3318BF4A4013F010
:102A0000FF034FEA5202F4D10130B0F5807F04F8A1
:102A1000012FECD1691C05F1230411F8012F0D4899
:102A200053403344A1425B7BF7D1D0F8100185F8C5
:102A300024300368084A5B68934206D12846252162
:102A400013F072F82C37BD46F0BD29462522984771
:102A5000F8E700BF389DFF1F750400002DE9F04125
:102A6000564803F03FFB28B1554B1B78C3B1534880
:102A700003F02AFB534B1B780BB9BDE8F081524899
:102A800003F030FB50B1514B197802296DD0012968
:102A90006BD04D48BDE8F04103F016BBBDE8F081B6
:102AA0004B4C607911F01EFB0746A089A56916F012
:102AB00097FE0146206916F09BFFA16816F0E4FE20
:102AC0000646384616F08CFE0146304616F0DCFE0F
:102AD0000646207F16F084FE3E4916F089FF2946FF
:102AE0000746606916F0C6FD0146384616F0CCFE72
:102AF000294616F0C1FD0146304617F06DF8002852
:102B000050D105466079DFF8C88011F0EBFA07462E
:102B1000A08916F065FE0146206916F069FFA168DC
:102B200016F0B2FE0646384616F05AFE014630460A
:102B300016F0AAFE0646607F16F052FE01463046A9
:102B400017F040F8D0B998F81E0016F049FE01467B
:102B5000304617F055F888B91F4B93F8D93053B366
:102B6000002D84D1194B1D7081E71C4B1868FFF7AD
:102B700009FF1548BDE8F04103F0A6BA1849174807
:102B8000124E13F023FC144B93F8D930022232700A
:102B9000002B7FF46CAF1349104813F017FC02238D
:102BA000337064E710490D48084E13F00FFC012004
:102BB00030700546A6E7054EEDE700BF209CFF1FDD
:102BC000309CFF1F1D98FF1FAC9CFF1FA99CFF1F7F
:102BD000A89EFF1F0000C842409BFF1FB098FF1F28
:102BE000F4160200E8160200DC1602000A4B5A69CD
:102BF00072B60023D36062B6084A526972B6D360D7
:102C000062B6074A526972B6D36062B6054A526923
:102C100072B6D36062B67047449CFF1F2098FF1FB6
:102C2000C098FF1FBC9CFF1F2DE9F04F01219BB0F6
:102C3000032011F0FDFC0121042011F0F9FC012119
:102C4000032011F0EFFC0121042011F0EBFCB44B48
:102C5000B44AC3F81021B44BB448B54DDFF80CA307
:102C6000DFF80C9300264FF47A711E7003F01CFA03
:102C70004FF49671AF4803F017FA3221AE4803F0D3
:102C800013FA6421AD4803F00FFA1E21AC4803F09B
:102C90000BFA4FF47A71AB4803F006FA4FF4FA617D
:102CA000A94803F001FA41F28831A84803F0FCF981
:102CB00011231996139601278DF866304FF01E0BDD
:102CC0008DF84D30DFF8ACE2A148A249A24A159632
:102CD00040F2FF344FF01403CDF850E0ADF854400B
:102CE000179118928DF864308DF865708DF84CB09E
:102CF00016900DF14C0CBCE80F00DFF87CE20C964E
:102D00000EF104040FC49CE8070003C482A1D1E9BA
:102D1000000124F8022B4FF00A0C120C8EF800B0C0
:102D200022700D9611968DF830C0CDE90E014FF04E
:102D30000E084FF4967241F288338DF832C08DF848
:102D40003180ADF84020ADF842300CAC0FCC05F12D
:102D5000200EAEE80F00236885F800C0CEF80030E2
:102D6000404611F065FC4FF47A7895F8221098FBF4
:102D7000F1F105F1100003F097F94FF00B0C4FF053
:102D80000F0E8DF830C08DF831E00CAD0FCD0AF18B
:102D900020050FC523688AF800C070462B603146B5
:102DA00011F046FC9AF8221098FBF1F10AF110009C
:102DB00003F07AF94FF00C0A4FF0100E8DF831E065
:102DC0008DF830A00CAD0FCD09F120050FC523689B
:102DD0002B60704689F800A0314611F029FC99F863
:102DE000221098FBF1F109F1100003F05DF95B4A44
:102DF0005B4BC2F89C3044F6206011F0FFFC574B4F
:102E0000584C03F1C8004FF4FA6103F04DF91D204E
:102E10004FF4FA6140F2726203238DF81FA0ADF8FF
:102E20002280ADF82880ADF82C308DF81EB08DF8DA
:102E30001C7009968DF81D00ADF82010ADF82A2001
:102E40000DF11C0EBEE80F00A51CBEF800E0C4F892
:102E5000020027701420A4F812E0AA60EB606960F9
:102E600013F0C6FA94F8039094F804A08046022167
:102E7000484611F0DDFB5046022111F0D9FB3A4BD8
:102E800053F8391053F83A2088F8087001F5007E9D
:102E900002F500704FF47A4388F80970C8F80C60A6
:102EA000C8F800E0C8F80400013BFDD191F80032F9
:102EB00092F800223B40D50744BF43F00203DBB247
:102EC00088F80A30B9F1210F02F21B85DFE819F00A
:102ED0009E129412441238122C122012141208124C
:102EE000FC11F011E411D811CC11C011B411A811CA
:102EF0009C119011841178116C11601154114811BA
:102F00003C113011241118110C110011F410E810AB
:102F1000DC105600AFF3008000000040E17A743FFF
:102F2000389DFF1FA48DFF1FA99CFF1FF09CFF1F52
:102F3000709EFF1F6498FF1F349CFF1F989CFF1F0B
:102F4000E89EFF1F5498FF1FAC9CFF1F209CFF1F93
:102F5000333353409A998541CDCC4C41409BFF1F60
:102F6000948DFF1F449CFF1FE04C02007898FF1FC8
:102F7000009DFF1FCDCCB041A89EFF1F7B4B7C491D
:102F8000C3F884800422212011F07AFA4FF001095D
:102F900088F81090BAF1210F02F2CB84DFE81AF022
:102FA00066105A104C103E10ED0FDF0FD10FC30FFB
:102FB000B50FA70F990F8B0F7D0F6F0F610F530F79
:102FC000450F370F290F1B0F0D0FFF0EF10EE30EEC
:102FD000D50EC70EB90EAB0E9D0E8F0E810E730E61
:102FE000650E2200614B6249C3F8848004222120CF
:102FF00011F046FA98F810904FF0010AD1444FF4BE
:10300000FA634FF47A72617988F810905948C4F8DD
:1030100014800FF025FF40F2DC515648564F0FF058
:103020007DFF4FF0030E1C221B210B238DF81CE0AB
:103030008DF81D108DF81E208DF81F300DEB020647
:103040000FCEBD1C87F800E0C7F802003688AA60E2
:103050001420EB607E82696013F0CAF997F8038050
:1030600097F8049006460221404611F0E1FA4846DE
:10307000022111F0DDFA414B53F8392053F8381092
:1030800002F5007001F500733360706000230120C9
:10309000F36030724FF47A437072013BFDD191F8C6
:1030A000003292F800220340D00744BF43F00203ED
:1030B000DBB2B372B8F1210F02F23784DFE818F007
:1030C000CA0DC10DB60D670D5C0D510D460D3B0DC2
:1030D000300D250D1A0D0F0D040DF90CEE0CE30C3F
:1030E000D80CCD0CC20CB70CAC0CA10C960C8B0CF4
:1030F000800C750C6A0C5F0C540C490C3E0C330CA4
:10310000270C2200194B1A49C3F88460042221209D
:1031100011F0B6F94FF0010886F81080B9F1210FCF
:1031200002F2FF83DFE819F0E60BDB0BCE0BC10BDD
:10313000B40B640B570B4A0B3D0B300B230B160BD8
:10314000090BFC0AEF0AE20AD50AC80ABB0AAE0A52
:10315000A10A940A870A7A0A6D0A600A530A460A83
:10316000390A2C0A1F0A120A040A2C0068A1FF1F40
:10317000150500005C9CFF1FC098FF1FE04C02007B
:10318000A64BA749C3F884600422212011F078F9E6
:1031900096F810804FF00109C8444FF4FA634FF4D9
:1031A0007A72797986F810809E487E610FF058FE19
:1031B00040F2DC519B489C4E0FF0B0FE4FF00209EC
:1031C0004FF0000B172216238DF81C908DF81D2050
:1031D0008DF81E308DF81FB00DF11C0EBEE80F00EB
:1031E00006EB090CBEF800E0C6F8020086F8009075
:1031F0001420ACF810E0CCF80410CCF80820CCF87F
:103200000C3013F0F5F8F27896F804A0019280469D
:103210004946104611F00CFA4946504611F008FA9A
:10322000824B019A53F83A1053F83200C8F80CB0A8
:1032300000F500734FF0010E01F5007CC8F8003076
:10324000C8F804C04FF47A4388F808E088F809E029
:10325000013BFDD190F8003291F8001203EA0E0311
:10326000C90744BF43EA0903DBB288F80A301046B5
:103270004146FEF70FFA414688F810005046FEF727
:1032800009FA98F810E07179C6F81480864488F835
:1032900010E04FF4FA634FF47A726548DFF89491C6
:1032A0000FF0DEFD40F2DC5161480FF037FE1523D0
:1032B0008DF81D304FF0040A4FF014084FF0010351
:1032C0008DF81CA08DF81E808DF81F300DF11C0E9E
:1032D000BEE80F0089F800A0BEF800E0C9F80200BF
:1032E0004046A9F812E0C9F80A20C9F80E30C9F81A
:1032F000061013F07DF899F803A099F804B0804601
:103300000221504611F094F95846022111F090F92B
:10331000464B53F83A1053F83B304FF001024FF050
:10332000010088F8082003F5007E01F5007288F896
:1033300009000020C8F80020C8F804E04FF47A42E1
:10334000C8F80C00013AFDD191F8002293F8001260
:1033500002F00102CD0744BF42F00202D2B288F867
:103360000A20BAF1210F02F2D882DFE81AF0D5085C
:10337000CB08BF08B308630857084B083F08330859
:1033800027081B080F080308F707EB07DF07D30719
:10339000C707BB07AF07A30797078B077F0773070D
:1033A00067075B074F07430737072B071F071307FD
:1033B00022001A4A1A49C2F884802120042211F0FE
:1033C0005FF84FF0010A88F810A0BBF1210F02F25C
:1033D000A082DFE81BF0D106C506B706A9069B064A
:1033E0008D063F063106230615060706F905EB058F
:1033F000DD05CF05C105B305A505970589057B0545
:103400006D055F05510543053505270519050B05B4
:10341000FD04EF04E104D304310000BF68A1FF1FE5
:1034200015050000D898FF1F2098FF1FE04C0200F0
:103430003898FF1FBC9CFF1F6A4B6B49C3F8848000
:103440000422212011F01CF898F810A04FF0010B75
:10345000DA444FF47A724FF4FA6399F8051088F859
:1034600010A06248DFF89CA1C9F814800FF0F8FCA6
:1034700040F2DC515D485E4D0FF050FD4FF0140BF3
:103480004FF47A7011F0FCF88AF800B0594802F055
:10349000A1FE4FF4247012F0ABFF5749804605F0AF
:1034A00011FC4046CAF8088009F0D0F80368CAF851
:1034B00004001B699847DAF80430504AD3F8843086
:1034C000CAF80C004FF001081A6783F8A18083F84E
:1034D000A28083F8A3804FF47A708AF8108011F0EC
:1034E000CFF81D211E220C238DF81C808DF81D1095
:1034F0008DF81E208DF81F300DF11C0EBEE80F0058
:1035000084F80080BEF800E0C4F802005846A5F830
:1035100010E06960AA60EB6012F06AFFE27823793C
:10352000019283461D461046022111F081F828467B
:10353000022111F07DF8324A314952F83530019AB2
:103540008BF8088051F832108BF8098001F5007C67
:1035500003F5007E00204FF47A418BE80050CBF851
:103560000C000139FDD1264951F8321091F800E2E2
:1035700093F800120EEA080EC80744BF4EF0020E80
:103580005FFA8EFE104659468BF80AE0FEF782F885
:103590008BF81000212D02F2B881DFE815F0E2036C
:1035A000D703CA03BD0369035C034F03420335031A
:1035B00028031B030E030103F402E702DA02CD0223
:1035C000C002B30258024B023E023102240217022B
:1035D0000A02FD018C027F0272026502A6029902B4
:1035E000350000BF68A1FF1F15050000D49CFF1F18
:1035F000469CFF1F0088FF1F041702000AD7A33C48
:10360000E04C0200F49AFF1FC74BC849C3F884B0CE
:103610002120042210F034FF01239BF810001D46E6
:103620002B46034418464FF47A724FF4FA636179DB
:103630008BF81000BE48C4F814B00FF011FC40F233
:10364000DC51BB48BB4D0FF069FC4FF0030C1C2252
:103650001B210B238DF81CC08DF81D108DF81E202A
:103660008DF81F300DEB020EBEE80F0087F800C08A
:10367000BEF800E0C7F802001420A5F810E0EB60E7
:103680006960AA6012F0B4FEFA7897F804B001926B
:1036900080460221104610F0CBFF5846022110F060
:1036A000C7FFA54B019A53F83B1053F8320000F5C1
:1036B000007501F500734FF0000EC8F800500125A9
:1036C000C8F80430C8F80CE04FF47A4388F8085082
:1036D00088F80950013BFDD190F8003291F80012B2
:1036E0002B40C90744BF43F00203DBB2104688F801
:1036F0000A304146FDF7CEFF414688F81000584693
:10370000FDF7C8FF98F810307979C7F8148018448D
:103710004FF47A724FF4FA6388F8100087480FF07C
:103720009FFB40F2DC5185480FF0F8FB4FF47A70B4
:1037300010F0A6FFFFF75AFA2289814840F272631F
:103740009A4205D8C28840F271639A4201F24687D4
:1037500032897C4840F272639A4205D8C28840F2AE
:1037600071639A4201F243873A89774840F246539F
:103770009A4205D8C28840F245539A4201F21A870C
:10378000B9F80820714840F246539A4205D8C288D9
:1037900040F245539A4201F2178703A802F080FCD9
:1037A00003A84FF47A7102F07FFC654DDFF8948135
:1037B000DFF894B103A802F095FC00284AD16269B1
:1037C000137C012B41F22E8672B6D16862B6628AF2
:1037D00081EAE173A3EBE1739342EBDD01227369AC
:1037E00085F830201A7C012A41F28E8672B6D9689B
:1037F00062B6738A81EAE172A2EBE1729A42D9DD84
:1038000001227B6988F830201A7C012A42F240802C
:1038100072B6D96862B67A8A81EAE173A3EBE17382
:103820009342C7DD0122D9F814308BF830201A7C7E
:10383000012A42F2588072B6D86862B6B9F81220EE
:10384000424980EAE073A3EBE0739342B2DD0123C7
:1038500081F830306269137C012B41F2D18672B657
:10386000D06862B6628A364980EAE073A3EBE073FF
:103870009342C8BF01237269C8BF81F83030137CFE
:10388000012B41F2B98772B6D06862B6728A2D49AF
:1038900080EAE073A3EBE0739342C8BF01237A6927
:1038A000C8BF81F83030137C012B41F2578772B6C4
:1038B000D06862B67A8A244980EAE073A3EBE073A9
:1038C0009342C8BF0123D9F81420C8BF81F8303013
:1038D000137C012B41F2E28672B6D06862B6B9F869
:1038E00012201A4980EAE073A3EBE0739342C4BF4D
:1038F000012381F8303094F83030002B01F0E0855E
:1039000096F83030002B01F0DB8597F83030002B33
:1039100001F0D68599F83030002B01F0D1859AF866
:1039200010300B4A16E000BF68A1FF1F150500000C
:103930005C9CFF1FC298FF1FE04C0200D898FF1F3D
:10394000449CFF1F2098FF1FC098FF1FBC9CFF1FB7
:10395000F49AFF1F002B01F0C38553681A7922B92E
:10396000D3F8803093F8253043B9C849C84812F0DD
:103970002DFDC84A01231370C74A137001210D2081
:1039800010F056FE0121C54802F03EFB0A2010F05F
:1039900075FB1BB0BDE8F08FC14BC249C3F868B0DE
:1039A0001A20042210F06CFD01231D469BF8100024
:1039B00036E6BB4BBC49C3F864B01920042210F0B2
:1039C0005FFD01231D469BF8100029E6B44BB74963
:1039D000C3F860B01820042210F052FD01231D46E8
:1039E0009BF810001CE6AE4BB149C3F85CB0172041
:1039F000042210F045FD01231D469BF810000FE640
:103A0000A74BAC49C3F858B01620042210F038FD7B
:103A100001231D469BF8100002E6A14BA649C3F8FE
:103A200054B01520042210F02BFD01231D469BF8F5
:103A30001000F5E59A4BA149C3F850B014200422B8
:103A400010F01EFD01231D469BF81000E8E5944B85
:103A50009B49C3F84CB01320042210F011FD012340
:103A60001D469BF81000DBE58D4B9649C3F878B0F6
:103A70001E20042210F004FD01231D469BF81000B7
:103A8000CEE5874B9049C3F874B01D20042210F096
:103A9000F7FC01231D469BF81000C1E5804B8B49C4
:103AA000C3F870B01C20042210F0EAFC01231D466C
:103AB0009BF81000B4E57A4B8549C3F86CB01B2025
:103AC000042210F0DDFC01231D469BF81000A7E541
:103AD000734B8049C3F880B02020042210F0D0FC42
:103AE00001231D469BF810009AE56D4B7A49C3F8F7
:103AF0007CB01F20042210F0C3FC01231D469BF85C
:103B000010008DE5664B7549C3F848B012200422B9
:103B100010F0B6FC01231D469BF8100080E5604BB9
:103B20006F49C3F844B01120042210F0A9FC01230E
:103B30001D469BF8100073E5594B6A49C3F840B025
:103B40001020042210F09CFC01231D469BF810005D
:103B500066E5534B6449C3F83CB00F20042210F0D3
:103B60008FFC01231D469BF8100059E54C4B5F4923
:103B7000C3F838B00E20042210F082FC01231D4649
:103B80009BF810004CE5464B5949C3F834B00D2062
:103B9000042210F075FC01231D469BF810003FE540
:103BA0003F4B5449C3F830B00C20042210F068FC9D
:103BB00001231D469BF8100032E5394B4E49C3F8EE
:103BC0002CB00B20042210F05BFC01231D469BF857
:103BD000100025E5324B4949C3F828B00A200422D9
:103BE00010F04EFC01231D469BF8100018E52C4BED
:103BF0004349C3F824B00920042210F041FC0123FA
:103C00001D469BF810000BE5254B3E49C3F820B03C
:103C10000820042210F034FC01231D469BF81000FC
:103C2000FEE41F4B3849C3F81CB00720042210F0F3
:103C300027FC01231D469BF81000F1E4184B334983
:103C4000C3F818B00620042210F01AFC01231D4608
:103C50009BF81000E4E4124B2D49C3F814B0052082
:103C6000042210F00DFC01231D469BF81000D7E440
:103C70000B4B2849C3F810B00422104610F000FC8A
:103C800001231D469BF81000CAE400BF281702005C
:103C9000B098FF1F309CFF1FA99CFF1F4C9EFF1F69
:103CA00068A1FF1FA10600001D0600009905000085
:103CB00095150000111500008D1400000914000076
:103CC00085130000B10800002D080000A9070000BE
:103CD00025070000910400003509000001130000D1
:103CE0007D120000F911000075110000F1100000B4
:103CF0006D100000E90F0000650F0000E10E0000EC
:103D00005D0E0000D90D0000550D0000D10C000023
:103D10004D0C0000C90B0000D54BD649C3F80CB0C0
:103D20000320042210F0ACFB01231D469BF8100079
:103D300076E4CF4BD049C3F808B00220042210F03B
:103D40009FFB01231D469BF8100069E4C84ACB493C
:103D5000C2F804B00120042210F092FB9BF810007E
:103D60005EE4C34BC649C3F800B00020042210F043
:103D700087FB01231D469BF8100051E4BC4BC14951
:103D8000C3F880800422202010F07AFB4FF0010B52
:103D900098F810A0FFF75CBBB54BBB49C3F87C801B
:103DA00004221F2010F06CFB4FF0010B98F810A0BC
:103DB000FFF74EBBAE4BB549C3F8788004221E20F6
:103DC00010F05EFB4FF0010B98F810A0FFF740BB1E
:103DD000A74BAF49C3F8748004221D2010F050FB9C
:103DE0004FF0010B98F810A0FFF732BBA04BA94988
:103DF000C3F8708004221C2010F042FB4FF0010B2E
:103E000098F810A0FFF724BB994BA349C3F86C8026
:103E100004221B2010F034FB4FF0010B98F810A087
:103E2000FFF716BB924B9D49C3F8688004221A2005
:103E300010F026FB4FF0010B98F810A0FFF708BB1D
:103E40008B4B9749C3F864800422192010F018FBAB
:103E50004FF0010B98F810A0FFF7FABA844B914984
:103E6000C3F860800422182010F00AFB4FF0010B09
:103E700098F810A0FFF7ECBA7D4B8B49C3F85C8033
:103E80000422172010F0FCFA4FF0010B98F810A054
:103E9000FFF7DEBA764B8549C3F858800422162016
:103EA00010F0EEFA4FF0010B98F810A0FFF7D0BA1F
:103EB0006F4B7F49C3F854800422152010F0E0FABC
:103EC0004FF0010B98F810A0FFF7C2BA684B794980
:103ED000C3F850800422142010F0D2FA4FF0010BE6
:103EE00098F810A0FFF7B4BA614B7349C3F84C803F
:103EF0000422132010F0C4FA4FF0010B98F810A020
:103F0000FFF7A6BA5A4B6D49C3F848800422122025
:103F100010F0B6FA4FF0010B98F810A0FFF798BA1E
:103F2000534B6749C3F844800422112010F0A8FACB
:103F30004FF0010B98F810A0FFF78ABA4C4B61497B
:103F4000C3F840800422102010F09AFA4FF0010BC1
:103F500098F810A0FFF77CBA454B5B49C3F83C804A
:103F600004220F2010F08CFA4FF0010B98F810A0EB
:103F7000FFF76EBA3E4B5549C3F8388004220E2035
:103F800010F07EFA4FF0010B98F810A0FFF760BA1E
:103F9000374B4F49C3F8348004220D2010F070FADB
:103FA0004FF0010B98F810A0FFF752BA304B494977
:103FB000C3F8308004220C2010F062FA4FF0010B9D
:103FC00098F810A0FFF744BA294B4349C3F82C8056
:103FD00004220B2010F054FA4FF0010B98F810A0B7
:103FE000FFF736BA224B3D49C3F8288004220A2045
:103FF00010F046FA4FF0010B98F810A0FFF728BA1E
:104000001B4B3749C3F824800422092010F038FAEA
:104010004FF0010B98F810A0FFF71ABA144B314972
:10402000C3F820800422082010F02AFA4FF0010B78
:1040300098F810A0FFF70CBA0D4B2B49C3F81C8061
:104040000422072010F01CFA4FF0010B98F810A082
:10405000FFF7FEB9064B2549C3F818800422062055
:1040600010F00EFA4FF0010B98F810A0FFF7F0B91E
:1040700068A1FF1F450B0000C10A00003D0A0000B7
:10408000B90900009104000035090000B1080000E2
:104090002D080000A907000025070000A106000068
:1040A0001D0600009905000095150000111500007F
:1040B0008D14000009140000851300000113000096
:1040C0007D120000F911000075110000F1100000D0
:1040D0006D100000E90F0000650F0000E10E000008
:1040E0005D0E0000D90D0000550D0000D10C000040
:1040F000D64BD749C3F814800422052010F0C0F92C
:104100004FF0010B98F810A0FFF7A2B9CF4BD1499F
:10411000C3F810800422104610F0B2F94FF0010BE2
:1041200098F810A0FFF794B9C84BCB49C3F80C809E
:104130000422032010F0A4F94FF0010B98F810A00E
:10414000FFF786B9C14BC549C3F808800422022095
:1041500010F096F94FF0010B98F810A0FFF778B91E
:10416000BA4ABF49C2F804800120042210F088F93D
:1041700098F810A0FFF76CB9B44BBA49C3F80080A7
:104180000422002010F07CF94FF0010B98F810A0E9
:10419000FFF75EB9AD4AB449C2F8808020200422FE
:1041A00010F06EF94FF0010AFFF70DB9A74AAF49B9
:1041B000C2F87C801F20042210F062F94FF0010A3F
:1041C000FFF701B9A14AAA49C2F878801E2004224B
:1041D00010F056F94FF0010AFFF7F5B89B4AA549D0
:1041E000C2F874801D20042210F04AF94FF0010A31
:1041F000FFF7E9B8954AA049C2F870801C20042254
:1042000010F03EF94FF0010AFFF7DDB88F4A9B49E5
:10421000C2F86C801B20042210F032F94FF0010A22
:10422000FFF7D1B8894A9649C2F868801A2004225B
:1042300010F026F94FF0010AFFF7C5B8834A9149FB
:10424000C2F864801920042210F01AF94FF0010A14
:10425000FFF7B9B87D4A8C49C2F860801820042263
:1042600010F00EF94FF0010AFFF7ADB8774A874911
:10427000C2F85C801720042210F002F94FF0010A06
:10428000FFF7A1B8714A8249C2F85880162004226B
:1042900010F0F6F84FF0010AFFF795B86B4A7D4928
:1042A000C2F854801520042210F0EAF84FF0010AF9
:1042B000FFF789B8654A7849C2F850801420042273
:1042C00010F0DEF84FF0010AFFF77DB85F4A73493E
:1042D000C2F84C801320042210F0D2F84FF0010AEB
:1042E000FFF771B8594A6E49C2F84880122004227B
:1042F00010F0C6F84FF0010AFFF765B8534A694954
:10430000C2F844801120042210F0BAF84FF0010ADC
:10431000FFF759B84D4A6449C2F840801020042282
:1043200010F0AEF84FF0010AFFF74DB8474A5F4969
:10433000C2F83C800F20042210F0A2F84FF0010ACE
:10434000FFF741B8414A5A49C2F838800E2004228A
:1043500010F096F84FF0010AFFF735B83B4A55497F
:10436000C2F834800D20042210F08AF84FF0010AC0
:10437000FFF729B8354A5049C2F830800C20042292
:1043800010F07EF84FF0010AFFF71DB82F4A4B4995
:10439000C2F82C800B20042210F072F84FF0010AB2
:1043A000FFF711B8294A4649C2F828800A2004229A
:1043B00010F066F84FF0010AFFF705B8234A4149AB
:1043C000C2F824800920042210F05AF84FF0010AA4
:1043D000FEF7F9BF1D4A3C49C2F82080082004229C
:1043E00010F04EF84FF0010AFEF7EDBF174A3749BB
:1043F000C2F81C800720042210F042F84FF0010A96
:10440000FEF7E1BF114A3249C2F8188006200422A3
:1044100010F036F84FF0010AFEF7D5BF0B4A0C49F1
:10442000C2F814800520042210F02AF84FF0010A87
:10443000FEF7C9BF054A0749C2F81080042210469A
:1044400010F01EF84FF0010AFEF7BDBF68A1FF1F74
:104450004D0C0000C90B0000450B0000C10A000014
:104460003D0A0000B9090000910400003509000070
:10447000B10800002D080000A90700002507000072
:10448000A10600001D06000099050000951500001A
:10449000111500008D1400000914000085130000A0
:1044A000011300007D120000F911000075110000D9
:1044B000F11000006D100000E90F0000650F000012
:1044C000E10E00005D0E0000D90D0000550D00004A
:1044D000D10C0000CD4ACE49C2F80C800320042242
:1044E0000FF0CEFF4FF0010AFEF76DBFC74AC94972
:1044F000C2F80880022004220FF0C2FF4FF0010A28
:10450000FEF761BFC14AC449C2F8048001200422F9
:104510000FF0B6FFFEF757BFBC4AC049C2F8008093
:10452000002004220FF0ACFF4FF0010AFEF74BBF52
:10453000B64BBB49C3F88060042220200FF0A0FFD7
:104540004FF0010996F81080FEF726BEAF4BB54933
:10455000DE6704221F200FF093FF4FF0010996F849
:104560001080FEF719BEA94BAF499E6704221E209A
:104570000FF086FF4FF0010996F81080FEF70CBE91
:10458000A24BAA495E6704221D200FF079FF4FF06D
:10459000010996F81080FEF7FFBD9C4BA4491E67E9
:1045A00004221C200FF06CFF4FF0010996F81080D8
:1045B000FEF7F2BD954B9F49DE6604221B200FF0EB
:1045C0005FFF4FF0010996F81080FEF7E5BD8F4BB5
:1045D00099499E6604221A200FF052FF4FF00109FC
:1045E00096F81080FEF7D8BD884B94495E66042289
:1045F00019200FF045FF4FF0010996F81080FEF7E3
:10460000CBBD824B8E491E66042218200FF038FF66
:104610004FF0010996F81080FEF7BEBD7B4B89492B
:10462000DE65042217200FF02BFF4FF0010996F8EA
:104630001080FEF7B1BD754B83499E65042216209C
:104640000FF01EFF4FF0010996F81080FEF7A4BD91
:104650006E4B7E495E65042215200FF011FF4FF06E
:10466000010996F81080FEF797BD684B78491E65E2
:10467000042214200FF004FF4FF0010996F8108077
:10468000FEF78ABD614B7349DE64042213200FF0EC
:10469000F7FE4FF0010996F81080FEF77DBD5B4BE9
:1046A0006D499E64042212200FF0EAFE4FF00109CA
:1046B00096F81080FEF770BD544B68495E64042282
:1046C00011200FF0DDFE4FF0010996F81080FEF783
:1046D00063BD4E4B62491E64042210200FF0D0FED1
:1046E0004FF0010996F81080FEF756BD474B5D4923
:1046F000DE6304220F200FF0C3FE4FF0010996F88D
:104700001080FEF749BD414B57499E6304220E209D
:104710000FF0B6FE4FF0010996F81080FEF73CBD91
:104720003A4B52495E6304220D200FF0A9FE4FF070
:10473000010996F81080FEF72FBD344B4C491E63DB
:1047400004220C200FF09CFE4FF0010996F8108017
:10475000FEF722BD2D4B4749DE6204220B200FF0ED
:104760008FFE4FF0010996F81080FEF715BD274B1C
:1047700041499E6204220A200FF082FE4FF0010997
:1047800096F81080FEF708BD204B3C495E6204227B
:1047900009200FF075FE4FF0010996F81080FEF722
:1047A000FBBC1A4B36491E62042208200FF068FE3B
:1047B0004FF0010996F81080FEF7EEBC134B31491B
:1047C000DE61042207200FF05BFE4FF0010996F82E
:1047D0001080FEF7E1BC0D4B2B499E6104220620A0
:1047E0000FF04EFE4FF0010996F81080FEF7D4BC92
:1047F000064B26495E61042205200FF041FE4FF072
:10480000010996F81080FEF7C7BC00BF68A1FF1F22
:10481000450B0000C10A00003D0A0000B909000074
:104820009104000035090000B10800002D080000C7
:10483000A907000025070000A10600001D060000D2
:104840009905000095150000111500008D14000059
:104850000914000085130000011300007D12000000
:10486000F911000075110000F11000006D1000003A
:10487000E90F0000650F0000E10E00005D0E000072
:10488000D90D0000550D0000D10C00004D0C0000AA
:10489000C44BC5491E61042210460FF0F1FD4FF0D4
:1048A000010996F81080FEF777BCBE4BBF49DE6069
:1048B000042203200FF0E4FD4FF0010996F8108068
:1048C000FEF76ABCB74BBA499E60042202200FF083
:1048D000D7FD4FF0010996F81080FEF75DBCB14B93
:1048E000B4495E60042201200FF0CAFD96F81080E2
:1048F000FEF752BCAB4BB0491E60042200200FF003
:10490000BFFD4FF0010996F81080FEF745BCA54B9E
:10491000AA49C3F88060042220200FF0B1FD4FF0B7
:104920000108FEF7F9BB9F4BA549DE6704221F2053
:104930000FF0A6FD4FF00108FEF7EEBB994BA14921
:104940009E6704221E200FF09BFD4FF00108FEF72A
:10495000E3BB944B9C495E6704221D200FF090FD41
:104960004FF00108FEF7D8BB8E4B98491E67042212
:104970001C200FF085FD4FF00108FEF7CDBB894BE1
:104980009349DE6604221B200FF07AFD4FF00108E8
:10499000FEF7C2BB834B8F499E6604221A200FF09C
:1049A0006FFD4FF00108FEF7B7BB7E4B8A495E668C
:1049B000042219200FF064FD4FF00108FEF7ACBB94
:1049C000784B86491E66042218200FF059FD4FF0DF
:1049D0000108FEF7A1BB734B8149DE650422172055
:1049E0000FF04EFD4FF00108FEF796BB6D4B7D4971
:1049F0009E65042216200FF043FD4FF00108FEF7DC
:104A00008BBB684B78495E65042215200FF038FD9A
:104A10004FF00108FEF780BB624B74491E6504220B
:104A200014200FF02DFD4FF00108FEF775BB5D4B14
:104A30006F49DE64042213200FF022FD4FF00108BD
:104A4000FEF76ABB574B6B499E64042212200FF09D
:104A500017FD4FF00108FEF75FBB524B66495E64DD
:104A6000042211200FF00CFD4FF00108FEF754BB9B
:104A70004C4B62491E64042210200FF001FD4FF0E0
:104A80000108FEF749BB474B5D49DE6304220F2056
:104A90000FF0F6FC4FF00108FEF73EBB414B5949C1
:104AA0009E6304220E200FF0EBFC4FF00108FEF78E
:104AB00033BB3C4B54495E6304220D200FF0E0FCF5
:104AC0004FF00108FEF728BB364B50491E63042205
:104AD0000C200FF0D5FC4FF00108FEF71DBB314B49
:104AE0004B49DE6204220B200FF0CAFC4FF0010894
:104AF000FEF712BB2B4B47499E6204220A200FF09F
:104B0000BFFC4FF00108FEF707BB264B42495E622F
:104B1000042209200FF0B4FC4FF00108FEF7FCBAA4
:104B2000204B3E491E62042208200FF0A9FC4FF0E2
:104B30000108FEF7F1BA1B4B3949DE610422072058
:104B40000FF09EFC4FF00108FEF7E6BA154B354911
:104B50009E61042206200FF093FC4FF00108FEF73F
:104B6000DBBA104B30495E61042205200FF088FC4F
:104B70004FF00108FEF7D0BA0A4B0B491E61042220
:104B800010460FF07DFC4FF00108FEF7C5BA054B4B
:104B90000649DE60042203200FF072FC4FF001088A
:104BA000FEF7BABA68A1FF1FC90B0000450B000051
:104BB000C10A00003D0A0000B9090000910400008C
:104BC00035090000B10800002D080000A907000009
:104BD00025070000A10600001D0600009905000041
:104BE00095150000111500008D1400000914000037
:104BF00085130000011300007D120000F911000070
:104C000075110000F11000006D100000E90F0000A8
:104C1000650F0000E10E00005D0E0000D90D0000E0
:104C2000550D0000D10C00004D0C0000DA4BDB49A3
:104C30009E60042202200FF023FC4FF00108FEF7D3
:104C40006BBAD54BD6495E60042201200FF018FCE8
:104C5000FEF762BAD04BD3491E60042200200FF049
:104C60000FFC4FF00108FEF757BACB4BCE49C3F803
:104C70008080042220200FF003FC4FF0010A98F8F6
:104C80001090FEF7BBB9C44BC849C3F87C8004221E
:104C90001F200FF0F5FB4FF0010A98F81090FEF777
:104CA000ADB9BD4BC249C3F8788004221E200FF075
:104CB000E7FB4FF0010A98F81090FEF79FB9B64B4A
:104CC000BC49C3F8748004221D200FF0D9FB4FF0BB
:104CD000010A98F81090FEF791B9AF4BB649C3F8A6
:104CE000708004221C200FF0CBFB4FF0010A98F8D3
:104CF0001090FEF783B9A84BB049C3F86C8004222A
:104D00001B200FF0BDFB4FF0010A98F81090FEF742
:104D100075B9A14BAA49C3F8688004221A200FF084
:104D2000AFFB4FF0010A98F81090FEF767B99A4B65
:104D3000A449C3F86480042219200FF0A1FB4FF0AE
:104D4000010A98F81090FEF759B9934B9E49C3F8A1
:104D50006080042218200FF093FB4FF0010A98F8AE
:104D60001090FEF74BB98C4B9849C3F85C80042235
:104D700017200FF085FB4FF0010A98F81090FEF70E
:104D80003DB9854B9249C3F85880042216200FF094
:104D900077FB4FF0010A98F81090FEF72FB97E4B81
:104DA0008C49C3F85480042215200FF069FB4FF0A2
:104DB000010A98F81090FEF721B9774B8649C3F89D
:104DC0005080042214200FF05BFB4FF0010A98F88A
:104DD0001090FEF713B9704B8049C3F84C80042241
:104DE00013200FF04DFB4FF0010A98F81090FEF7DA
:104DF00005B9694B7A49C3F84880042212200FF0A4
:104E00003FFB4FF0010A98F81090FEF7F7B8624B9D
:104E10007449C3F84480042211200FF031FB4FF095
:104E2000010A98F81090FEF7E9B85B4B6E49C3F899
:104E30004080042210200FF023FB4FF0010A98F865
:104E40001090FEF7DBB8544B6849C3F83C8004224D
:104E50000F200FF015FB4FF0010A98F81090FEF7A5
:104E6000CDB84D4B6249C3F8388004220E200FF0B4
:104E700007FB4FF0010A98F81090FEF7BFB8464BB9
:104E80005C49C3F8348004220D200FF0F9FA4FF08A
:104E9000010A98F81090FEF7B1B83F4B5649C3F895
:104EA000308004220C200FF0EBFA4FF0010A98F842
:104EB0001090FEF7A3B8384B5049C3F82C80042259
:104EC0000B200FF0DDFA4FF0010A98F81090FEF772
:104ED00095B8314B4A49C3F8288004220A200FF0C4
:104EE000CFFA4FF0010A98F81090FEF787B82A4BD6
:104EF0004449C3F82480042209200FF0C1FA4FF07E
:104F0000010A98F81090FEF779B8234B3E49C3F890
:104F10002080042208200FF0B3FA4FF0010A98F81D
:104F20001090FEF76BB81C4B3849C3F81C80042264
:104F300007200FF0A5FA4FF0010A98F81090FEF73D
:104F40005DB8154B3249C3F81880042206200FF0D3
:104F500097FA4FF0010A98F81090FEF74FB80E4BF1
:104F60002C49C3F81480042205200FF089FA4FF071
:104F7000010A98F81090FEF741B8074B2649C3F88C
:104F80001080042210460FF07BFA4FF0010A98F8C7
:104F90001090FEF733B800BF68A1FF1FC10A0000E0
:104FA0003D0A0000B9090000910400003509000025
:104FB000B10800002D080000A90700002507000027
:104FC000A10600001D0600009905000095150000CF
:104FD000111500008D140000091400008513000055
:104FE000011300007D120000F9110000751100008E
:104FF000F11000006D100000E90F0000650F0000C7
:10500000E10E00005D0E0000D90D0000550D0000FE
:10501000D10C00004D0C0000C90B0000D44BD54949
:10502000C3F80C80042203200FF02AFA4FF0010A83
:1050300098F81090FDF7E2BFCD4BCF49C3F8088038
:10504000042202200FF01CFA4FF0010A98F8109089
:10505000FDF7D4BFC64BC949C3F804800422012020
:105060000FF00EFA98F81090FDF7C8BFC04BC44976
:10507000C3F80080042200200FF002FA4FF0010A6A
:1050800098F81090FDF7BABFB94BBE49C3F88080BD
:10509000042220200FF0F4F94FF00109FDF778BF4A
:1050A000B34BB949C3F87C8004221F200FF0E8F904
:1050B0004FF00109FDF76CBFAD4BB449C3F87880E0
:1050C00004221E200FF0DCF94FF00109FDF760BF4C
:1050D000A74BAF49C3F8748004221D200FF0D0F90C
:1050E0004FF00109FDF754BFA14BAA49C3F87080E6
:1050F00004221C200FF0C4F94FF00109FDF748BF4E
:105100009B4BA549C3F86C8004221B200FF0B8F913
:105110004FF00109FDF73CBF954BA049C3F86880EB
:1051200004221A200FF0ACF94FF00109FDF730BF4F
:105130008F4B9B49C3F86480042219200FF0A0F91B
:105140004FF00109FDF724BF894B9649C3F86080F1
:10515000042218200FF094F94FF00109FDF718BF51
:10516000834B9149C3F85C80042217200FF088F923
:105170004FF00109FDF70CBF7D4B8C49C3F85880F7
:10518000042216200FF07CF94FF00109FDF700BF53
:10519000774B8749C3F85480042215200FF070F92B
:1051A0004FF00109FDF7F4BE714B8249C3F85080FE
:1051B000042214200FF064F94FF00109FDF7E8BE56
:1051C0006B4B7D49C3F84C80042213200FF058F933
:1051D0004FF00109FDF7DCBE654B7849C3F8488004
:1051E000042212200FF04CF94FF00109FDF7D0BE58
:1051F0005F4B7349C3F84480042211200FF040F93B
:105200004FF00109FDF7C4BE594B6E49C3F8408009
:10521000042210200FF034F94FF00109FDF7B8BE59
:10522000534B6949C3F83C8004220F200FF028F942
:105230004FF00109FDF7ACBE4D4B6449C3F838800F
:1052400004220E200FF01CF94FF00109FDF7A0BE5B
:10525000474B5F49C3F8348004220D200FF010F94A
:105260004FF00109FDF794BE414B5A49C3F8308015
:1052700004220C200FF004F94FF00109FDF788BE5D
:105280003B4B5549C3F82C8004220B200FF0F8F853
:105290004FF00109FDF77CBE354B5049C3F828801B
:1052A00004220A200FF0ECF84FF00109FDF770BE60
:1052B0002F4B4B49C3F82480042209200FF0E0F85B
:1052C0004FF00109FDF764BE294B4649C3F8208021
:1052D000042208200FF0D4F84FF00109FDF758BE62
:1052E000234B4149C3F81C80042207200FF0C8F863
:1052F0004FF00109FDF74CBE1D4B3C49C3F8188027
:10530000042206200FF0BCF84FF00109FDF740BE63
:10531000174B3749C3F81480042205200FF0B0F86A
:105320004FF00109FDF734BE114B3249C3F810802C
:10533000042210460FF0A4F84FF00109FDF728BE33
:105340000B4B0C49C3F80C80042203200FF098F893
:105350004FF00109FDF71CBE054B0749C3F8088053
:10536000042202200FF08CF84FF00109FDF710BE67
:1053700068A1FF1F450B0000C10A00003D0A0000A4
:10538000B90900009104000035090000B1080000CF
:105390002D080000A907000025070000A106000055
:1053A0001D0600009905000095150000111500006C
:1053B0008D14000009140000851300000113000083
:1053C0007D120000F911000075110000F1100000BD
:1053D0006D100000E90F0000650F0000E10E0000F5
:1053E0005D0E0000D90D0000550D0000D10C00002D
:1053F0004D0C0000C90B0000C54BC649C3F8048022
:10540000042201200FF03CF8FDF7C2BDC04BC24999
:10541000C3F80080042200200FF032F84FF0010999
:10542000FDF7B6BD72B692E80A0091F800E0187870
:10543000537A117A18420EEA01015DD0937A03F093
:105440000303002940F05A8243F008039910013BFE
:1054500091720D2B3EF6B9A901A151F823F000BFBE
:10546000B7540000AD540000A3540000AD54000038
:10547000CB37000099540000B7540000B754000027
:1054800099540000CB370000AD540000A354000035
:10549000AD540000B7540000D368991ED160FEF7E8
:1054A00095B9D368991CD160FEF790B9D368591E9D
:1054B000D160FEF78BB9D368591CD160FEF786B96D
:1054C0009649974810F082FF964A01211170964A3A
:1054D000022313709AF81030944A002B7EF43DAAF0
:1054E00093498F4810F072FF8E4A012111708E4A45
:1054F00002231370FEF742BA937A03F003030029E4
:10550000A4D043F00403A1E772B693E8060091F833
:1055100000E010785A7A197A10420EEA010141D05F
:105520009A7A02F0030209B142F0040242F0080242
:105530009110013A99720D2A3EF659A901A151F82C
:1055400022F000BF9B5500009155000087550000D8
:1055500091550000EF3700007D5500009B5500007D
:105560009B5500007D550000EF370000915500006D
:1055700087550000915500009B550000DA68911E88
:10558000D960FEF735B9DA68911CD960FEF730B9F9
:10559000DA68511ED960FEF72BB9DA68511CD96060
:1055A000FEF726B99A7A02F003020029C0D042F031
:1055B0000402BDE74189C1F5A861063189B21830FE
:1055C0000DF0ACFCFEF7DCB84189C1F5A8610631ED
:1055D00089B218300DF0A2FCFEF7DFB8818901F224
:1055E000726189B218300DF099FCFEF7B1B881896B
:1055F00001F2726189B218300DF090FCFEF7B4B878
:1056000072B61368506819780578507A137A054293
:1056100001EA030100F05E81937A03F0030309B10C
:1056200043F0040343F008039910013B91720D2BE2
:105630003EF616A901A151F823F000BF93560000D1
:10564000895600007F56000089560000613800002E
:1056500075560000935600009356000075560000E2
:1056600061380000895600007F560000895600000E
:1056700093560000D368981ED060FEF7F2B8D36846
:10568000981CD060FEF7EDB8D368581ED060FEF7C6
:10569000E8B8D368581CD060FEF7E3B872B6136858
:1056A000506819780578507A137A054201EA0301A7
:1056B00000F00781937A03F0030309B143F0040378
:1056C00043F008039910013B91720D2B3EF605A99A
:1056D00001A151F823F000BF5357000049570000C3
:1056E0003F57000049570000DB38000035570000E5
:1056F000535700005357000035570000DB380000B7
:10570000495700003F570000495700005357000019
:1057100068A1FF1F3D0A0000B90900001C17020024
:10572000B098FF1F309CFF1FA99CFF1FF49AFF1F1A
:1057300010170200D368981ED060FEF7CFB8D36868
:10574000981CD060FEF7CAB8D368581ED060FEF728
:10575000C5B8D368581CD060FEF7C0B872B61368DD
:10576000506819780578507A137A054201EA0301E6
:1057700000F09680937A03F00303002940F0BB8089
:1057800043F008039910013B91720D2B3EF690A84F
:1057900001A151F823F000BFEF570000E5570000CA
:1057A000DB570000E5570000B1380000D15700007A
:1057B000EF570000EF570000D1570000B13800004C
:1057C000E5570000DB570000E5570000EF570000E9
:1057D000D368981ED060FEF76CB8D368981CD06070
:1057E000FEF767B8D368581ED060FEF762B8D3687A
:1057F000581CD060FEF75DB872B61368506819780F
:105800000578507A137A054201EA030151D0937A60
:1058100003F0030309B143F0040343F008039910B4
:10582000013B91720D2B3EF62FA801A151F823F0F8
:10583000875800007D580000735800007D58000014
:105840008938000069580000875800008758000018
:1058500069580000893800007D5800007358000026
:105860007D58000087580000D368981ED060FEF76E
:105870000CB8D368981CD060FEF707B8D368581EE0
:10588000D060FEF702B8D368581CD060FDF7FDBFAA
:1058900072B618460193FBF7BFFE019BFDF7B9BF37
:1058A000937A03F0030300293FF46CAF43F0040341
:1058B00068E7937A03F003030029B0D043F00403B0
:1058C000ADE7937A03F0030300293FF4FBAE43F006
:1058D0000403F7E6937A03F0030300293FF4A4AE30
:1058E00043F00403A0E672B618460193FBF794FE5A
:1058F000019BFDF7A1BF43F0040341E743F004031C
:10590000A2E54FF00009FDF743BB00231D46FDF75C
:1059100087BE4FF0000BFDF79BBD4FF0000AFDF76F
:1059200052BD4FF00009FDF737BC4FF00008FDF7FE
:10593000F3BB4FF0000AFDF761BB00BF00B567285D
:1059400083B017D0F82809D0662802D003B05DF8DC
:1059500004FB03B05DF804EBFDF748B902213E48B3
:1059600000F052FB3D493E4A01230B70137003B017
:105970005DF804FB3B4B93E803008AB2A2F57A730F
:10598000B3F57A7F0090ADF80410DFD89DF80130B0
:10599000013B032BDAD8DFE803F036261602324B40
:1059A00019899142D2D8D9889142CFD340F2DC51A3
:1059B0008A4238D999890A4491B22C4803B05DF8DB
:1059C00004EB0DF0ABBA2A4B19899142BED8D988A5
:1059D0009142BBD340F2DC518A4230D999890A44C2
:1059E00091B22448EAE7244B19899142AED8D9886C
:1059F0009142ABD340F2DC518A4226D999890A44BC
:105A000091B21E48DAE71E4B198991429ED8D98877
:105A100091429BD340F2DC518A420AD999890A44C7
:105A200091B21848CAE71DBF5989521A91B211465E
:105A3000C3E71DBF5989521A91B21146F1E71DBF44
:105A40005989521A91B21146CBE71DBF5989521A92
:105A500091B21146D5E700BF4C9EFF1F1D98FF1F56
:105A6000A89CFF1FF498FF1FBC9CFF1FD49CFF1F26
:105A7000C098FF1FD898FF1F2098FF1F3898FF1F5E
:105A8000449CFF1F5C9CFF1F2DE9F843574C584F67
:105A9000584EDFF86481254610F01CF8002849DDD7
:105AA0002378032BF8D8DFE803F05B724702D4F8C1
:105AB000100103685B69BB4240F086800FF0CEFFA7
:105AC000431CE9D0D5F8089095F80CE0DFF82CC11C
:105AD000C0B20021CAB2082312F0010F03F1FF3354
