:1000000000800020BD010000614101001941010094
:100010001941010019410100194101001941010074
:10002000194101001941010019410100614101001C
:100030006141010019410100195C01001D5D0100D1
:100040006141010061410100614101006141010024
:100050006141010061410100614101006141010014
:100060006141010061410100614101006141010004
:1000700061410100614101006141010061410100F4
:1000800061410100614101006141010061410100E4
:1000900061410100614101006141010061410100D4
:1000A00049660000556600006141010061410100A0
:1000B00061410100614101006141010061410100B4
:1000C00061410100614101006141010061410100A4
:1000D0006141010061410100614101006141010094
:1000E0006141010061410100614101006141010084
:1000F000614101003D63010061410100694C010063
:100100006141010069640100614101006141010038
:100110006141010061410100614101006141010053
:100120006141010061410100614101006141010043
:100130006141010061410100614101006141010033
:100140006141010061410100614101006141010023
:100150006141010061410100614101006141010013
:10016000692D0100E54E010061410100614101007E
:1001700061410100614101006141010061410100F3
:1001800061410100614101006141010061410100E3
:1001900061410100614101006141010061410100D3
:1001A00061410100614101006141010061410100C3
:1001B000614101006141010061410100564B4CF277
:1001C000205210B51A804DF628121A8000BF00BFC9
:1001D00013F0CAFF514B4FF010621A60504A9A60F8
:1001E000504ADA60504A136813F4807304D14F49BF
:1001F0000B604FF4A85313604D4B1A78110703D5C9
:100200001A7842F008021A704A4B4B492A221A7097
:100210004A4A4B4B8B4204D252F8040F43F8040B6A
:10022000F8E7484B484900228B4202D243F8042B9E
:10023000FAE74649464A002352F8230041F82300D2
:1002400001336F2BF8D1434B434A802103F8011B44
:100250009342FBD1414B3D4A1A60414B8A221A70AE
:10026000A3F5805324225A70A0221A709A7992071B
:10027000FCD59A79D406FCD43A4A937903F00C035E
:10028000082B384BF9D103221A7140225A719A79FE
:100290009006FCD5334A9179324B4906FBD5324A58
:1002A000324911600221516020221A709A7902F0BD
:1002B0000C020C2AFAD12E4B2E4A1A602E4B2F4AD2
:1002C0001A6000225A60072243F8042C2C4AC3F813
:1002D0000C2D62B614F034F9144B1B68DA0705D5FF
:1002E000284814F09FF8284B284A1A60284B1B789E
:1002F0005B0609D5244C254B22689A4204D121483B
:1003000014F090F80023236019F056FD13F032FF2B
:1003100015F076FFFEE700BF0E2005403080044058
:10032000823F04000100002B10D0034014D0034092
:1003300002D0074000E007400098FF1FD45302009E
:100340002087FF1F0098FF1F20A5FF1F0082FF1FAF
:100350000000000000E400E05FE400E008ED00E0E1
:100360000050064000400640448004400000030165
:1003700004800440C010050014E000E0FF76010096
:1003800000002020E7EFDE5B1CE00340A5C3945A89
:1003900000F00740FFFFFFFFFFFFFFFFFFFFFFFF32
:1003A000FFFFFFFFFFFFFFFFFFFFFFFFFFFFFFFF5D
:1003B000FFFFFFFFFFFFFFFFFFFFFFFFFFFFFFFF4D
:1003C000FFFFFFFFFFFFFFFFFFFFFFFFFFFFFFFF3D
:1003D000FFFFFFFFFFFFFFFFFFFFFFFFFFFFFFFF2D
:1003E000FFFFFFFFFFFFFFFFFFFFFFFFFFFFFFFF1D
:1003F000FFFFFFFFFFFFFFFFFFFFFFFFFFFFFFFF0D
:10040000FFFFFFFFFFFFFFFFFFFFFFFFDEF9FFFF23
:1004100010B5054C237833B9044B13B10448AFF33E
:1004200000800123237010BD0098FF1F0000000012
:10043000D0530200084B10B51BB108490848AFF370
:1004400000800848036803B910BD074B002BFBD0A0
:10045000BDE81040184700BF000000000498FF1FCF
:10046000D05302000098FF1F0000000015F044BAAE
:1004700015F006BA0846114615F068BA14F072BBBA
:1004800010B514210446406915F0C4FE204610BD85
:100490001F4B10B49A6C1368506819780478507A1E
:1004A000137A044201EA03011AD0937A03F003039A
:1004B00009B143F0040343F008039910013B917222
:1004C0000D2B0BD8DFE803F01E0719070A141E1EB8
:1004D000140A0719071ED368013BD36010BC70478C
:1004E000937A03F003030029E7D043F00403E4E721
:1004F000D36810BC023BD3607047D36810BC023392
:10050000D3607047D36810BC0133D360704700BF1D
:1005100068A1FF1F1F4B10B4DA6C1368506819787C
:100520000478507A137A044201EA03011AD0937ACC
:1005300003F0030309B143F0040343F008039910E7
:10054000013B91720D2B0BD8DFE803F01E07190752
:100550000A141E1E140A0719071ED368013BD36034
:1005600010BC7047937A03F003030029E7D043F0EF
:100570000403E4E7D36810BC023BD3607047D36840
:1005800010BC0233D3607047D36810BC0133D36012
:10059000704700BF68A1FF1F1F4B10B41A6D13688E
:1005A000506819780478507A137A044201EA0301FA
:1005B0001AD0937A03F0030309B143F0040343F024
:1005C00008039910013B91720D2B0BD8DFE803F063
:1005D0001E0719070A141E1E140A0719071ED368DE
:1005E000013BD36010BC7047937A03F003030029EA
:1005F000E7D043F00403E4E7D36810BC023BD360C8
:100600007047D36810BC0233D3607047D36810BC06
:100610000133D360704700BF68A1FF1F1F4B10B4A8
:100620005A6D1368506819780478507A137A044226
:1006300001EA03011AD0937A03F0030309B143F0EE
:10064000040343F008039910013B91720D2B0BD862
:10065000DFE803F01E0719070A141E1E140A071903
:10066000071ED368013BD36010BC7047937A03F038
:1006700003030029E7D043F00403E4E7D36810BC88
:10068000023BD3607047D36810BC0233D36070471D
:10069000D36810BC0133D360704700BF68A1FF1F4F
:1006A0001F4B10B49A6D1368506819780478507A0B
:1006B000137A044201EA03011AD0937A03F0030388
:1006C00009B143F0040343F008039910013B917210
:1006D0000D2B0BD8DFE803F01E0719070A141E1EA6
:1006E000140A0719071ED368013BD36010BC70477A
:1006F000937A03F003030029E7D043F00403E4E70F
:10070000D36810BC023BD3607047D36810BC02337F
:10071000D3607047D36810BC0133D360704700BF0B
:1007200068A1FF1F1F4B10B4DA6D13685068197869
:100730000478507A137A044201EA03011AD0937ABA
:1007400003F0030309B143F0040343F008039910D5
:10075000013B91720D2B0BD8DFE803F01E07190740
:100760000A141E1E140A0719071ED368013BD36022
:1007700010BC7047937A03F003030029E7D043F0DD
:100780000403E4E7D36810BC023BD3607047D3682E
:1007900010BC0233D3607047D36810BC0133D36000
:1007A000704700BF68A1FF1F1F4B10B41A6E13687B
:1007B000506819780478507A137A044201EA0301E8
:1007C0001AD0937A03F0030309B143F0040343F012
:1007D00008039910013B91720D2B0BD8DFE803F051
:1007E0001E0719070A141E1E140A0719071ED368CC
:1007F000013BD36010BC7047937A03F003030029D8
:10080000E7D043F00403E4E7D36810BC023BD360B5
:100810007047D36810BC0233D3607047D36810BCF4
:100820000133D360704700BF68A1FF1F1F4B10B496
:100830005A6E1368506819780478507A137A044213
:1008400001EA03011AD0937A03F0030309B143F0DC
:10085000040343F008039910013B91720D2B0BD850
:10086000DFE803F01E0719070A141E1E140A0719F1
:10087000071ED368013BD36010BC7047937A03F026
:1008800003030029E7D043F00403E4E7D36810BC76
:10089000023BD3607047D36810BC0233D36070470B
:1008A000D36810BC0133D360704700BF68A1FF1F3D
:1008B0001F4B10B49A6E1368506819780478507AF8
:1008C000137A044201EA03011AD0937A03F0030376
:1008D00009B143F0040343F008039910013B9172FE
:1008E0000D2B0BD8DFE803F01E0719070A141E1E94
:1008F000140A0719071ED368013BD36010BC704768
:10090000937A03F003030029E7D043F00403E4E7FC
:10091000D36810BC023BD3607047D36810BC02336D
:10092000D3607047D36810BC0133D360704700BFF9
:1009300068A1FF1F1F4B10B4DA6E13685068197856
:100940000478507A137A044201EA03011AD0937AA8
:1009500003F0030309B143F0040343F008039910C3
:10096000013B91720D2B0BD8DFE803F01E0719072E
:100970000A141E1E140A0719071ED368013BD36010
:1009800010BC7047937A03F003030029E7D043F0CB
:100990000403E4E7D36810BC023BD3607047D3681C
:1009A00010BC0233D3607047D36810BC0133D360EE
:1009B000704700BF68A1FF1F1F4B10B41A6F136868
:1009C000506819780478507A137A044201EA0301D6
:1009D0001AD0937A03F0030309B143F0040343F000
:1009E00008039910013B91720D2B0BD8DFE803F03F
:1009F0001E0719070A141E1E140A0719071ED368BA
:100A0000013BD36010BC7047937A03F003030029C5
:100A1000E7D043F00403E4E7D36810BC023BD360A3
:100A20007047D36810BC0233D3607047D36810BCE2
:100A30000133D360704700BF68A1FF1F1F4B10B484
:100A40005A6F1368506819780478507A137A044200
:100A500001EA03011AD0937A03F0030309B143F0CA
:100A6000040343F008039910013B91720D2B0BD83E
:100A7000DFE803F01E0719070A141E1E140A0719DF
:100A8000071ED368013BD36010BC7047937A03F014
:100A900003030029E7D043F00403E4E7D36810BC64
:100AA000023BD3607047D36810BC0233D3607047F9
:100AB000D36810BC0133D360704700BF68A1FF1F2B
:100AC0001F4B10B49A6F1368506819780478507AE5
:100AD000137A044201EA03011AD0937A03F0030364
:100AE00009B143F0040343F008039910013B9172EC
:100AF0000D2B0BD8DFE803F01E0719070A141E1E82
:100B0000140A0719071ED368013BD36010BC704755
:100B1000937A03F003030029E7D043F00403E4E7EA
:100B2000D36810BC023BD3607047D36810BC02335B
:100B3000D3607047D36810BC0133D360704700BFE7
:100B400068A1FF1F1F4B10B4DA6F13685068197843
:100B50000478507A137A044201EA03011AD0937A96
:100B600003F0030309B143F0040343F008039910B1
:100B7000013B91720D2B0BD8DFE803F01E0719071C
:100B80000A141E1E140A0719071ED368013BD360FE
:100B900010BC7047937A03F003030029E7D043F0B9
:100BA0000403E4E7D36810BC023BD3607047D3680A
:100BB00010BC0233D3607047D36810BC0133D360DC
:100BC000704700BF68A1FF1F1F4B10B4D3F88020EF
:100BD0001368506819780478507A137A044201EA4D
:100BE00003011AD0937A03F0030309B143F004031D
:100BF00043F008039910013B91720D2B0BD8DFE8ED
:100C000003F01E0719070A141E1E140A0719071EEF
:100C1000D368013BD36010BC7047937A03F00303A1
:100C20000029E7D043F00403E4E7D36810BC023B9B
:100C3000D3607047D36810BC0233D3607047D36869
:100C400010BC0133D360704768A1FF1F1F4B10B465
:100C5000D3F884201368506819780478507A137A8E
:100C6000044201EA03011AD0937A03F0030309B1A5
:100C700043F0040343F008039910013B91720D2BDC
:100C80000BD8DFE803F01E0719070A141E1E140A0A
:100C90000719071ED368013BD36010BC7047937AD5
:100CA00003F003030029E7D043F00403E4E7D3682B
:100CB00010BC023BD3607047D36810BC0233D360D2
:100CC0007047D36810BC0133D360704768A1FF1F21
:100CD0001F4B10B49A681368506819780478507ADA
:100CE000137A044201EA03011AD0937A03F0030352
:100CF00009B143F0040343F008039910013B9172DA
:100D00000D2B0BD8DFE803F01E0719070A141E1E6F
:100D1000140A0719071ED368013BD36010BC704743
:100D2000937A03F003030029E7D043F00403E4E7D8
:100D3000D36810BC023BD3607047D36810BC023349
:100D4000D3607047D36810BC0133D360704700BFD5
:100D500068A1FF1F1F4B10B4DA6813685068197838
:100D60000478507A137A044201EA03011AD0937A84
:100D700003F0030309B143F0040343F0080399109F
:100D8000013B91720D2B0BD8DFE803F01E0719070A
:100D90000A141E1E140A0719071ED368013BD360EC
:100DA00010BC7047937A03F003030029E7D043F0A7
:100DB0000403E4E7D36810BC023BD3607047D368F8
:100DC00010BC0233D3607047D36810BC0133D360CA
:100DD000704700BF68A1FF1F1F4B10B41A6913684A
:100DE000506819780478507A137A044201EA0301B2
:100DF0001AD0937A03F0030309B143F0040343F0DC
:100E000008039910013B91720D2B0BD8DFE803F01A
:100E10001E0719070A141E1E140A0719071ED36895
:100E2000013BD36010BC7047937A03F003030029A1
:100E3000E7D043F00403E4E7D36810BC023BD3607F
:100E40007047D36810BC0233D3607047D36810BCBE
:100E50000133D360704700BF68A1FF1F1F4B10B460
:100E60005A691368506819780478507A137A0442E2
:100E700001EA03011AD0937A03F0030309B143F0A6
:100E8000040343F008039910013B91720D2B0BD81A
:100E9000DFE803F01E0719070A141E1E140A0719BB
:100EA000071ED368013BD36010BC7047937A03F0F0
:100EB00003030029E7D043F00403E4E7D36810BC40
:100EC000023BD3607047D36810BC0233D3607047D5
:100ED000D36810BC0133D360704700BF68A1FF1F07
:100EE0001F4B10B49A691368506819780478507AC7
:100EF000137A044201EA03011AD0937A03F0030340
:100F000009B143F0040343F008039910013B9172C7
:100F10000D2B0BD8DFE803F01E0719070A141E1E5D
:100F2000140A0719071ED368013BD36010BC704731
:100F3000937A03F003030029E7D043F00403E4E7C6
:100F4000D36810BC023BD3607047D36810BC023337
:100F5000D3607047D36810BC0133D360704700BFC3
:100F600068A1FF1F1F4B10B4DA6913685068197825
:100F70000478507A137A044201EA03011AD0937A72
:100F800003F0030309B143F0040343F0080399108D
:100F9000013B91720D2B0BD8DFE803F01E071907F8
:100FA0000A141E1E140A0719071ED368013BD360DA
:100FB00010BC7047937A03F003030029E7D043F095
:100FC0000403E4E7D36810BC023BD3607047D368E6
:100FD00010BC0233D3607047D36810BC0133D360B8
:100FE000704700BF68A1FF1F1F4B10B41A6A136837
:100FF000506819780478507A137A044201EA0301A0
:101000001AD0937A03F0030309B143F0040343F0C9
:1010100008039910013B91720D2B0BD8DFE803F008
:101020001E0719070A141E1E140A0719071ED36883
:10103000013BD36010BC7047937A03F0030300298F
:10104000E7D043F00403E4E7D36810BC023BD3606D
:101050007047D36810BC0233D3607047D36810BCAC
:101060000133D360704700BF68A1FF1F1F4B10B44E
:101070005A6A1368506819780478507A137A0442CF
:1010800001EA03011AD0937A03F0030309B143F094
:10109000040343F008039910013B91720D2B0BD808
:1010A000DFE803F01E0719070A141E1E140A0719A9
:1010B000071ED368013BD36010BC7047937A03F0DE
:1010C00003030029E7D043F00403E4E7D36810BC2E
:1010D000023BD3607047D36810BC0233D3607047C3
:1010E000D36810BC0133D360704700BF68A1FF1FF5
:1010F0001F4B10B49A6A1368506819780478507AB4
:10110000137A044201EA03011AD0937A03F003032D
:1011100009B143F0040343F008039910013B9172B5
:101120000D2B0BD8DFE803F01E0719070A141E1E4B
:10113000140A0719071ED368013BD36010BC70471F
:10114000937A03F003030029E7D043F00403E4E7B4
:10115000D36810BC023BD3607047D36810BC023325
:10116000D3607047D36810BC0133D360704700BFB1
:1011700068A1FF1F1F4B10B4DA6A13685068197812
:101180000478507A137A044201EA03011AD0937A60
:1011900003F0030309B143F0040343F0080399107B
:1011A000013B91720D2B0BD8DFE803F01E071907E6
:1011B0000A141E1E140A0719071ED368013BD360C8
:1011C00010BC7047937A03F003030029E7D043F083
:1011D0000403E4E7D36810BC023BD3607047D368D4
:1011E00010BC0233D3607047D36810BC0133D360A6
:1011F000704700BF68A1FF1F1F4B10B41A6B136824
:10120000506819780478507A137A044201EA03018D
:101210001AD0937A03F0030309B143F0040343F0B7
:1012200008039910013B91720D2B0BD8DFE803F0F6
:101230001E0719070A141E1E140A0719071ED36871
:10124000013BD36010BC7047937A03F0030300297D
:10125000E7D043F00403E4E7D36810BC023BD3605B
:101260007047D36810BC0233D3607047D36810BC9A
:101270000133D360704700BF68A1FF1F1F4B10B43C
:101280005A6B1368506819780478507A137A0442BC
:1012900001EA03011AD0937A03F0030309B143F082
:1012A000040343F008039910013B91720D2B0BD8F6
:1012B000DFE803F01E0719070A141E1E140A071997
:1012C000071ED368013BD36010BC7047937A03F0CC
:1012D00003030029E7D043F00403E4E7D36810BC1C
:1012E000023BD3607047D36810BC0233D3607047B1
:1012F000D36810BC0133D360704700BF68A1FF1FE3
:101300001F4B10B49A6B1368506819780478507AA0
:10131000137A044201EA03011AD0937A03F003031B
:1013200009B143F0040343F008039910013B9172A3
:101330000D2B0BD8DFE803F01E0719070A141E1E39
:10134000140A0719071ED368013BD36010BC70470D
:10135000937A03F003030029E7D043F00403E4E7A2
:10136000D36810BC023BD3607047D36810BC023313
:10137000D3607047D36810BC0133D360704700BF9F
:1013800068A1FF1F1F4B10B4DA6B136850681978FF
:101390000478507A137A044201EA03011AD0937A4E
:1013A00003F0030309B143F0040343F00803991069
:1013B000013B91720D2B0BD8DFE803F01E071907D4
:1013C0000A141E1E140A0719071ED368013BD360B6
:1013D00010BC7047937A03F003030029E7D043F071
:1013E0000403E4E7D36810BC023BD3607047D368C2
:1013F00010BC0233D3607047D36810BC0133D36094
:10140000704700BF68A1FF1F1F4B10B41A6C136810
:10141000506819780478507A137A044201EA03017B
:101420001AD0937A03F0030309B143F0040343F0A5
:1014300008039910013B91720D2B0BD8DFE803F0E4
:101440001E0719070A141E1E140A0719071ED3685F
:10145000013BD36010BC7047937A03F0030300296B
:10146000E7D043F00403E4E7D36810BC023BD36049
:101470007047D36810BC0233D3607047D36810BC88
:101480000133D360704700BF68A1FF1F1F4B10B42A
:101490005A6C1368506819780478507A137A0442A9
:1014A00001EA03011AD0937A03F0030309B143F070
:1014B000040343F008039910013B91720D2B0BD8E4
:1014C000DFE803F01E0719070A141E1E140A071985
:1014D000071ED368013BD36010BC7047937A03F0BA
:1014E00003030029E7D043F00403E4E7D36810BC0A
:1014F000023BD3607047D36810BC0233D36070479F
:10150000D36810BC0133D360704700BF68A1FF1FD0
:101510001F4B10B41A681368506819780478507A11
:10152000137A044201EA03011AD0937A03F0030309
:1015300009B143F0040343F008039910013B917291
:101540000D2B0BD8DFE803F01E0719070A141E1E27
:10155000140A0719071ED368013BD36010BC7047FB
:10156000937A03F003030029E7D043F00403E4E790
:10157000D36810BC023BD3607047D36810BC023301
:10158000D3607047D36810BC0133D360704700BF8D
:1015900068A1FF1F1F4B10B45A6813685068197870
:1015A0000478507A137A044201EA03011AD0937A3C
:1015B00003F0030309B143F0040343F00803991057
:1015C000013B91720D2B0BD8DFE803F01E071907C2
:1015D0000A141E1E140A0719071ED368013BD360A4
:1015E00010BC7047937A03F003030029E7D043F05F
:1015F0000403E4E7D36810BC023BD3607047D368B0
:1016000010BC0233D3607047D36810BC0133D36081
:10161000704700BF68A1FF1F08B50B46212800F2E4
:101620005881DFE810F04D0144013B0132012901EE
:10163000200117010E010501FC00F300EA00E100A2
:10164000D800CF00C600BD00B400AB00A2009900D6
:10165000900087007E0075006C0063005A00510006
:1016600048003F0036002C0022009B4A9B49C2F8EC
:1016700084302120042212F015FE012008BD964A74
:101680009749C2F880302020042212F00BFE01207E
:1016900008BD914A9349D3671F20042212F002FE2D
:1016A000012008BD8C4A904993671E20042212F045
:1016B000F9FD012008BD884A8C4953671D2004228A
:1016C00012F0F0FD012008BD834A894913671C20F0
:1016D000042212F0E7FD012008BD7F4A8549D36648
:1016E0001B20042212F0DEFD012008BD7A4A824947
:1016F00093661A20042212F0D5FD012008BD764A17
:101700007E4953661920042212F0CCFD012008BD49
:10171000714A7B4913661820042212F0C3FD012090
:1017200008BD6D4A7749D3651720042212F0BAFD2F
:10173000012008BD684A744993651620042212F0FE
:10174000B1FD012008BD644A70495365152004228B
:1017500012F0A8FD012008BD5F4A6D4913651420F1
:10176000042212F09FFD012008BD5B4A6949D36441
:101770001320042212F096FD012008BD564A664946
:1017800093641220042212F08DFD012008BD524AFC
:10179000624953641120042212F084FD012008BD27
:1017A0004D4A5F4913641020042212F07BFD012092
:1017B00008BD494A5B49D3630F20042212F072FD31
:1017C000012008BD444A584993630E20042212F0B8
:1017D00069FD012008BD404A544953630D2004228D
:1017E00012F060FD012008BD3B4A514913630C20F3
:1017F000042212F057FD012008BD374A4D49D3623B
:101800000B20042212F04EFD012008BD324A4A4945
:1018100093620A20042212F045FD012008BD2E4AE1
:10182000464953620920042212F03CFD012008BD04
:10183000294A434913620820042212F033FD012093
:1018400008BD254A3F49D3610720042212F02AFD32
:10185000012008BD204A3C4993610620042212F071
:1018600021FD012008BD1C4A38495361052004228E
:1018700012F018FD012008BD174A354913610422F2
:10188000104612F00FFD012008BD134A3149D36004
:101890000320042212F006FD012008BD0E4A2E4945
:1018A00093600220042212F0FDFC012008BD0A4AC8
:1018B0002A4953600120042212F0F4FC012008BDE3
:1018C000054A274913600020042212F0EBFC012096
:1018D00008BD002008BD00BF68A1FF1F4D0C00001F
:1018E000C90B0000450B0000C10A00003D0A0000C2
:1018F000B909000035090000B10800002D080000FA
:10190000A907000025070000A10600001D06000031
:101910009905000015050000910400008D140000D9
:101920000914000085130000011300007D1200005F
:10193000F911000075110000F11000006D10000099
:10194000E90F0000650F0000E10E00005D0E0000D1
:10195000D90D0000550D0000D10C000095150000B8
:101960001115000038B50025044605708570C57056
:1019700005714571C580058145818581C5810582D7
:10198000183011F05BF904F1200004F09BFA84F8A0
:101990003050204638BD00BF2DE9F04F012195B0F1
:1019A000032012F057FD0121042012F053FD012104
:1019B000032012F049FD0121042012F045FDD24B15
:1019C000D24AC3F81021D24BD248DFF890A3D24CB0
:1019D000DFF88C9300264FF47A711E7004F076FACB
:1019E0004FF49671CD4804F071FA3221CC4804F0DE
:1019F0006DFA6421CB4804F069FA1E21CA4804F04C
:101A000065FA4FF47A71C94804F060FA4FF4FA614C
:101A1000C74804F05BFA41F28831C64804F056FA30
:101A2000112313960D9601278DF84E304FF01E0BA3
:101A30008DF83530DFF82CE3BF48C049C04A0F9617
:101A400040F2FF354FF01403CDF838E0ADF83C50CC
:101A5000119112928DF84C308DF84D708DF834B094
:101A600010900DF1340CBCE80F00DFF8FCE2069694
:101A70000EF104050FC59CE8070003C5A0A1D1E93C
:101A8000000125F8022B4FF00A0C120C8EF800B062
:101A90002A7007960B968DF818C0CDE908014FF013
:101AA0000E084FF4967241F288338DF81AC08DF803
:101AB0001980ADF82820ADF82A3006AD0FCD0AF117
:101AC000200EAEE80F002B688AF800C0CEF8003078
:101AD000404612F0BFFC4FF47A789AF8221098FB37
:101AE000F1F10AF1100004F0F1F94FF00B0A4FF098
:101AF0000F0C8DF819C08DF818A00DF1180EBEE866
:101B00000F0004F1200EAEE80F002B68CEF8003075
:101B1000604684F800A0314612F09CFC94F8221034
:101B200098FBF1F104F1100004F0D0F94FF00C0C27
:101B30004FF0100E8DF818C08DF819E006AC0FCCE0
:101B400009F120040FC42B6889F800C07046236097
:101B5000314612F07FFC99F8221098FBF1F109F15F
:101B6000100004F0B3F9774A774BC2F89C3044F682
:101B7000206012F055FD734B744C03F1C8004FF414
:101B8000FA6104F0A3F91D204FF4FA614FF4FA72E0
:101B900040F272638DF80BA0ADF80E808DF80AB09C
:101BA0008DF8087004968DF80900ADF80C10ADF8AA
:101BB0001420ADF816300DF1080EBEE80F00A51C7C
:101BC000C4F8020027701420AA60EB60C4F8061065
:101BD00014F01EFB94F803A094F8049080460221B0
:101BE000504612F037FC4846022112F033FC584BA5
:101BF00053F83A1053F8392088F8087001F5007E40
:101C000002F500704FF47A4388F80970C8F80C6048
:101C1000C8F800E0C8F80400013BFDD191F800329B
:101C200092F800223B40D10744BF43F00203DBB2ED
:101C300088F80A3041465046FFF7EEFC414688F8E6
:101C400010004846FFF7E8FC98F810606179C4F886
:101C5000148006444FF4FA634FF47A7288F81060E7
:101C60003C483D4E11F00EF840F2DC51394811F07D
:101C700067F84FF0030E1B211C220C238DF808E09F
:101C80008DF809108DF80A208DF80B3002AF0FCFB8
:101C9000B51C86F800E0C6F802001420AA60EB60CC
:101CA000696014F0B5FA96F8039096F80480074638
:101CB0000221484612F0CEFB4046022112F0CAFB38
:101CC000234B53F8382053F8391002F5007001F512
:101CD00000733B60786000230120FB6038724FF492
:101CE0007A437872013BFDD191F8003292F80022DC
:101CF0000340D20744BF43F00203DBB2BB7235E0BE
:101D000000000040E17A743F489DFF1FA48DFF1F33
:101D1000B49CFF1FFC9CFF1F5098FF1F4098FF1FA3
:101D2000089CFF1F6C9CFF1F2098FF1F3098FF1F0F
:101D3000B89CFF1FF89BFF1F333353409A9985418E
:101D400000005841189BFF1F948DFF1F189CFF1F18
:101D5000204B0200309CFF1F9898FF1F609EFF1FC2
:101D6000109DFF1FCDCCB041989EFF1FB9F1210FF0
:101D700002F2C383DFE819F025111C1111110611BD
:101D8000FB10F010E510DA10CF10C410B910AE102F
:101D9000A31098108D10821077106C1061105610DF
:101DA0004B10401035102A101F1014100910FE0F90
:101DB000F30FE80F990F8E0F820F22006A4B6B49C9
:101DC000C3F884700422212012F06CFA4FF001094C
:101DD000394687F810904046FFF71EFC97F810E050
:101DE00071797761864487F810E04FF4FA634FF415
:101DF0007A725F485F4F10F045FF40F2DC515C485B
:101E000010F09EFF16234FF0020A8DF80A301722B9
:101E10004FF000038DF808A08DF809208DF80B30E5
:101E20000DF1080EBEE80F0007EB0A0EC7F802001E
:101E300087F800A01420CEF80410CEF80820CEF8C1
:101E40000C3014F0E5F997F8039097F804B0804649
:101E50005146484612F0FEFA5146584612F0FAFA38
:101E6000454B53F8390053F83B10002300F500723E
:101E70004FF0010EC8F80C3001F50073C8F80020CF
:101E8000C8F804304FF47A4288F808E088F809E08E
:101E9000013AFDD190F8002291F8001202EA0E02F8
:101EA000CB0744BF42EA0A02D2B288F80A20B9F14D
:101EB000210F02F22E83DFE819F0D50ECB0EBF0EF4
:101EC000B30EA70E9B0E8F0E830E770E6B0E5F0E5A
:101ED000530E470E3B0E2F0E230E170E0B0EFF0D4B
:101EE000F30DE70DDB0DCF0DC30DB70DAB0D9F0D42
:101EF000930D870D7B0D6F0D630D570D22001A4A50
:101F00001A49C2F884802120042212F0CBF94FF044
:101F1000010988F81090BBF1210F02F2F682DFE888
:101F20001BF0D50CC90CBB0CAD0C9F0C910C830C99
:101F3000750C670C590C4B0C3D0C2F0C210C130C21
:101F4000050CF70BE90BDB0BCD0BBF0BB10BA30B98
:101F5000950B870B790B6B0B5D0B4F0B410B330B09
:101F6000E10AD30A2D0000BF68A1FF1F4D0C00003D
:101F7000B098FF1F809CFF1F204B0200684B6949EF
:101F8000C3F884800422212012F08CF998F8109074
:101F90004FF0010BD9444FF4FA634FF47A72797918
:101FA00088F810906048C7F8148010F06BFE40F27B
:101FB000DC515D48DFF8788110F0C2FE15234FF048
:101FC000040C8DF809304FF014094FF001038DF81F
:101FD00008C08DF80A908DF80B300DF1080EBEE8A0
:101FE0000F0088F800C0C8F802004846C8F80A2068
:101FF000C8F80E30C8F8061014F00AF998F803A0D3
:1020000098F804B081460221504612F023FA58464F
:10201000022112F01FFA454B53F83A0053F83B10D7
:102020004FF0010389F808304FF0010200F500730A
:1020300089F80920C9F8003001F500720023C9F8B9
:102040000420C9F80C304FF47A42013AFDD190F8DF
:10205000002291F8001202F00102CD0744BF42F0C5
:102060000202D2B289F80A20BAF1210F02F260828C
:10207000DFE81AF01E0A140A080AFC09F009E4094C
:10208000D809CC09C009B409A8099C099009840998
:1020900078096C096009540948093C093009240988
:1020A00018090C090009F408E808DC08D008C4087D
:1020B000B808AC08A0082200194A1A49C2F884904E
:1020C0002120042212F0EEF84FF0010A89F810A046
:1020D000BBF1210F02F22882DFE81BF01E08120874
:1020E0000408F607E807DA07CC07BE07B007A2071F
:1020F0009407860778076A075C074E074007320790
:10210000240716070807FA06EC06DE06D006C20604
:10211000B406A60698068A067C0629061B062C002D
:1021200068A1FF1F4D0C0000989CFF1F204B020070
:10213000C89CFF1F7E4B7F49C3F884900422212056
:1021400012F0B0F899F810A04FF0010BDA444FF4F8
:102150007A724FF4FA6398F8051089F810A076485F
:10216000DFF8ECB1C8F8149010F08CFD40F2DC51AF
:102170007148724D10F0E4FD4FF014094FF47A707D
:1021800012F090F98BF800906D4803F035FF4FF492
:10219000247014F03DF86B49824606F0A5FC5046C9
:1021A000CBF808A00AF064F90368CBF804001B69B7
:1021B0009847DBF80430644AD3F88430CBF80C003D
:1021C0004FF0010A1A6783F8A1A083F8A2A083F850
:1021D000A3A04FF47A708BF810A012F063F91D21C0
:1021E0001E220B238DF808A08DF809108DF80A2007
:1021F0008DF80B300DF1080EBEE80F0084F800A03A
:10220000C4F8020048466960AA60EB6014F000F868
:10221000E37822790193814615461846022112F08F
:1022200019F92846022112F015F9019B474A47483F
:1022300052F8331050F8352089F808A001F5007ED7
:1022400002F500704FF0000CC9F800E089F809A011
:102250004FF47A4EC9F80400C9F80CC0BEF1010E63
:10226000FCD191F8001292F8000201EA0A02C007BC
:1022700044BF42F00202D2B289F80A20212B02F2B6
:102280005081DFE813F03B052F05240519050E05E5
:102290000305F804ED04E204D704CC04C104B60439
:1022A000AB04A00495048A047F04740469045E04EA
:1022B000530448043D04320427041D041304090494
:1022C000FF03F503EB03E1032200194B1949C3F89F
:1022D00084900422212011F0E5FF012389F81030B9
:1022E000212D02F21A81DFE815F0A20397034903BA
:1022F0003C032F03220315030803FB02EE02E10255
:10230000D402C702BA02AD02A00293028602790289
:102310001E0211020402F701EA01DD01D001C3012E
:102320005202450238022B026C025F02350000BFE8
:1023300068A1FF1F4D0C0000E09CFF1F1A9CFF1FAF
:102340000088FF1F1C1502000AD7A33C204B020087
:10235000CC9AFF1FBC4BBD49C3F8849004222120B6
:1023600011F0A0FF01231D4699F810306179C4F8DF
:1023700014902A461A4410464FF4FA634FF47A72C6
:1023800089F81000B248B34D10F07CFC40F2DC51EB
:10239000AF4810F0D5FC4FF0030C1B211C220C237E
:1023A0008DF808C08DF809108DF80A208DF80B30D3
:1023B0000DF1080EBEE80F0086F800C0C6F8020056
:1023C0001420EB606960AA6013F022FFF27896F89F
:1023D00004A0019281460221104612F03BF85046BB
:1023E000022112F037F89C4B019A53F83A1053F837
:1023F000320000F5007501F500734FF0000EC9F8CA
:1024000000500125C9F80430C9F80CE04FF47A43B4
:1024100089F8085089F80950013BFDD190F8003245
:1024200091F800122B40C90744BF43F00203DBB20E
:1024300089F80A3010464946FFF7EEF8494689F810
:1024400010005046FFF7E8F899F810307179C6F897
:10245000149018444FF47A724FF4FA6389F810001C
:102460007E4810F00FFC40F2DC517C4810F068FC14
:102470004FF47A7012F016F87948636972B6002248
:10248000DA6062B6218A23898B4203D8C3888B42E3
:1024900081F0DD877348E189A0F1200503F016FD86
:1024A00007E072B6D36862B6002BB8BF5B42032B5D
:1024B0004BDC6C4803F028FD002849D16A69137C85
:1024C000012BEED872B613685068197890F800E0C6
:1024D000507A137A1EEA000F01EA030101F07687B1
:1024E000937A03F0030309B143F0040343F00803B4
:1024F0009910013B91720D2BD4D801A151F823F012
:10250000412600003926000031260000392600004F
:10251000A5240000392500004126000041260000C6
:1025200039250000A52400003926000031260000CE
:102530003926000041260000D368023BD36062B612
:10254000002BB8BF5B42032BB3DD012384F830308E
:10255000218A2389424A8B4203D8D3888B4281F057
:102560006A87626972B60023D36062B63E487A69B0
:1025700072B6D36062B6398A3B898B4203D8C3886E
:102580008B4281F07B873948F989A0F1200503F05F
:102590009DFC08E072B6D36862B6002BB8BF5B4200
:1025A000032B01F32385314803F0AEFC002841F0F2
:1025B00020856A69137C012BECD872B613685068C9
:1025C000197890F800E0507A137A1EEA000F01EAB9
:1025D000030101F00587937A03F00303002941F01A
:1025E000908743F008039910013B91720D2BD2D8CC
:1025F00001A151F823F000BF6D41000063410000CC
:10260000594100006341000097250000D93F0000B8
:102610006D4100006D410000D93F0000972500008A
:102620006341000059410000634100006D4100001A
:10263000D3680233D36036E7D368013BD36032E717
:10264000D3680133D3602EE768A1FF1F4D0C000053
:10265000309CFF1F9A98FF1F204B0200B098FF1F6D
:10266000189CFF1F389CFF1F809CFF1FA09CFF1F12
:10267000C94BCA49C3F8689004221A2011F012FE0F
:1026800001231D4699F8103070E6C34BC449C3F8C6
:1026900064900422192011F005FE01231D4699F8CB
:1026A000103063E6BC4BBF49C3F860900422182089
:1026B00011F0F8FD01231D4699F8103056E6B64B8F
:1026C000B949C3F85C900422172011F0EBFD0123F7
:1026D0001D4699F8103049E6AF4BB449C3F85890FD
:1026E0000422162011F0DEFD01231D4699F810305A
:1026F0003CE6A94BAE49C3F854900422152011F0D2
:10270000D1FD01231D4699F810302FE6A24BA949AF
:10271000C3F850900422142011F0C4FD01231D467B
:1027200099F8103022E69C4BA349C3F84C90042240
:10273000132011F0B7FD01231D4699F8103015E65E
:10274000954B9E49C3F8789004221E2011F0AAFDF3
:1027500001231D4699F8103008E68F4B9849C3F8BD
:10276000749004221D2011F09DFD01231D4699F84F
:102770001030FBE5884B9349C3F8709004221C206D
:1027800011F090FD01231D4699F81030EEE5824BC3
:102790008D49C3F86C9004221B2011F083FD0123A6
:1027A0001D4699F81030E1E57B4B8849C3F88090CD
:1027B0000422202011F076FD01231D4699F81030E7
:1027C000D4E5754B8249C3F87C9004221F2011F098
:1027D00069FD01231D4699F81030C7E56E4B7D4910
:1027E000C3F848900422122011F05CFD01231D461D
:1027F00099F81030BAE5684B7749C3F84490042241
:10280000112011F04FFD01231D4699F81030ADE560
:10281000614B7249C3F840900422102011F042FD30
:1028200001231D4699F81030A0E55B4B6C49C3F8B5
:102830003C9004220F2011F035FD01231D4699F82C
:10284000103093E5544B6749C3F8389004220E20AA
:1028500011F028FD01231D4699F8103086E54E4BF6
:102860006149C3F8349004220D2011F01BFD0123AF
:102870001D4699F8103079E5474B5C49C3F8309014
:1028800004220C2011F00EFD01231D4699F8103092
:102890006CE5414B5649C3F82C9004220B2011F0F3
:1028A00001FD01231D4699F810305FE53A4B51496F
:1028B000C3F8289004220A2011F0F4FC01231D46DD
:1028C00099F8103052E5344B4B49C3F82490042258
:1028D000092011F0E7FC01231D4699F8103045E569
:1028E0002D4B4649C3F820900422082011F0DAFC51
:1028F00001231D4699F8103038E5274B4049C3F8AD
:102900001C900422072011F0CDFC01231D4699F8EC
:1029100010302BE5204B3B49C3F8189004220620C9
:1029200011F0C0FC01231D4699F810301EE51A4B2A
:102930003549C3F814900422052011F0B3FC01239B
:102940001D4699F8103011E5134B3049C3F810902B
:102950000422104611F0A6FC01231D4699F8103000
:1029600004E50D4B2A49C3F80C900422032011F012
:1029700099FC01231D4699F81030F7E4064B2549D0
:10298000C3F808900422022011F08CFC01231D469C
:1029900099F81030EAE400BF68A1FF1FB1080000F9
:1029A0002D080000A907000025070000A10600006F
:1029B0001D0600009905000015050000C10A000071
:1029C0003D0A0000B909000035090000C90B0000EC
:1029D000450B0000910400008D1400000914000054
:1029E00085130000011300007D120000F9110000A2
:1029F00075110000F11000006D100000E90F0000DB
:102A0000650F0000E10E00005D0E0000D90D000012
:102A1000550D0000D10C0000CC4BCD49C3F80490FB
:102A20000422012011F03EFC99F810309EE4C74BBF
:102A3000C849C3F800900422002011F033FC0123A0
:102A40001D4699F8103091E4C04BC349C3F88090FB
:102A50000422202011F026FC01233FE4BB4BBF4998
:102A6000C3F87C9004221F2011F01CFC012335E4E4
:102A7000B64BBB49C3F8789004221E2011F012FC1B
:102A800001232BE4B14BB749C3F8749004221D20F5
:102A900011F008FC012321E4AC4BB349C3F870905A
:102AA00004221C2011F0FEFB012317E4A74BAF49C1
:102AB000C3F86C9004221B2011F0F4FB01230DE4F9
:102AC000A24BAB49C3F8689004221A2011F0EAFB2C
:102AD000012303E49D4BA749C3F864900422192005
:102AE00011F0E0FB0123FFF7F9BB984BA249C3F8B3
:102AF00060900422182011F0D5FB0123FFF7EEBBF4
:102B0000924B9E49C3F85C900422172011F0CAFB37
:102B10000123FFF7E3BB8D4B9949C3F8589004227A
:102B2000162011F0BFFB0123FFF7D8BB874B954957
:102B3000C3F854900422152011F0B4FB0123FFF7D1
:102B4000CDBB824B9049C3F850900422142011F061
:102B5000A9FB0123FFF7C2BB7C4B8C49C3F84C9007
:102B60000422132011F09EFB0123FFF7B7BB774B24
:102B70008749C3F848900422122011F093FB0123E7
:102B8000FFF7ACBB714B8349C3F84490042211207A
:102B900011F088FB0123FFF7A1BB6C4B7E49C3F802
:102BA00040900422102011F07DFB0123FFF796BB1B
:102BB000664B7A49C3F83C9004220F2011F072FB57
:102BC0000123FFF78BBB614B7549C3F83890042292
:102BD0000E2011F067FB0123FFF780BB5B4B7149AF
:102BE000C3F8349004220D2011F05CFB0123FFF7A1
:102BF00075BB564B6C49C3F8309004220C2011F081
:102C000051FB0123FFF76ABB504B6849C3F82C9076
:102C100004220B2011F046FB0123FFF75FBB4B4B57
:102C20006349C3F8289004220A2011F03BFB0123DA
:102C3000FFF754BB454B5F49C3F824900422092099
:102C400011F030FB0123FFF749BB404B5A49C3F851
:102C500020900422082011F025FB0123FFF73EBB42
:102C60003A4B5649C3F81C900422072011F01AFB76
:102C70000123FFF733BB354B5149C3F818900422A9
:102C8000062011F00FFB0123FFF728BB2F4B4D4906
:102C9000C3F814900422052011F004FB0123FFF770
:102CA0001DBB2A4B4849C3F810900422104611F06E
:102CB000F9FA0123FFF712BB244B4449C3F80C90E7
:102CC0000422032011F0EEFA0123FFF707BB1F4B8C
:102CD0003F49C3F808900422022011F0E3FA0123CF
:102CE000FFF7FCBA194A1A49C2F8049001200422DD
:102CF000019311F0D7FA019BFFF7F0BA134B154976
:102D0000C3F800900422002011F0CCFA0123FFF751
:102D1000E5BA0E4B1049C3F880900422202011F030
:102D2000C1FA4FF0010B99F810A0FFF70FBA074B4B
:102D30000A49C3F87C9004221F2011F0B3FA4FF027
:102D4000010B99F810A0FFF701BA00BF68A1FF1F9F
:102D50009515000011150000C90B0000450B00007F
:102D6000C10A00003D0A0000B90900003509000051
:102D7000B10800002D080000A90700002507000089
:102D8000A10600001D0600009905000015050000C1
:102D9000910400008D140000091400008513000048
:102DA000011300007D120000F911000075110000F0
:102DB000F11000006D100000E90F0000650F000029
:102DC000E10E00005D0E0000D90D0000550D000061
:102DD000D10C0000D74BD849C3F8789004221E20AC
:102DE00011F060FA4FF0010B99F810A0FFF7AEB99F
:102DF000D04BD249C3F8749004221D2011F052FA2E
:102E00004FF0010B99F810A0FFF7A0B9C94BCC49BE
:102E1000C3F8709004221C2011F044FA4FF0010B0B
:102E200099F810A0FFF792B9C24BC649C3F86C904D
:102E300004221B2011F036FA4FF0010B99F810A074
:102E4000FFF784B9BB4BC049C3F8689004221A202D
:102E500011F028FA4FF0010B99F810A0FFF776B99E
:102E6000B44BBA49C3F864900422192011F01AFA3D
:102E70004FF0010B99F810A0FFF768B9AD4BB449BA
:102E8000C3F860900422182011F00CFA4FF0010BE7
:102E900099F810A0FFF75AB9A64BAE49C3F85C9059
:102EA0000422172011F0FEF94FF0010B99F810A041
:102EB000FFF74CB99F4BA849C3F85890042216203D
:102EC00011F0F0F94FF0010B99F810A0FFF73EB99F
:102ED000984BA249C3F854900422152011F0E2F94E
:102EE0004FF0010B99F810A0FFF730B9914B9C49B6
:102EF000C3F850900422142011F0D4F94FF0010BC4
:102F000099F810A0FFF722B98A4B9649C3F84C9064
:102F10000422132011F0C6F94FF0010B99F810A00C
:102F2000FFF714B9834B9049C3F84890042212204C
:102F300011F0B8F94FF0010B99F810A0FFF706B99E
:102F40007C4B8A49C3F844900422112011F0AAF95D
:102F50004FF0010B99F810A0FFF7F8B8754B8449B2
:102F6000C3F840900422102011F09CF94FF0010B9F
:102F700099F810A0FFF7EAB86E4B7E49C3F83C9071
:102F800004220F2011F08EF94FF0010B99F810A0D8
:102F9000FFF7DCB8674B7849C3F8389004220E205D
:102FA00011F080F94FF0010B99F810A0FFF7CEB89F
:102FB000604B7249C3F8349004220D2011F072F96D
:102FC0004FF0010B99F810A0FFF7C0B8594B6C49AE
:102FD000C3F8309004220C2011F064F94FF0010B7B
:102FE00099F810A0FFF7B2B8524B6649C3F82C907D
:102FF00004220B2011F056F94FF0010B99F810A0A4
:10300000FFF7A4B84B4B6049C3F8289004220A206C
:1030100011F048F94FF0010B99F810A0FFF796B89E
:10302000444B5A49C3F824900422092011F03AF97C
:103030004FF0010B99F810A0FFF788B83D4B5449A9
:10304000C3F820900422082011F02CF94FF0010B56
:1030500099F810A0FFF77AB8364B4E49C3F81C9088
:103060000422072011F01EF94FF0010B99F810A06F
:10307000FFF76CB82F4B4849C3F81890042206207C
:1030800011F010F94FF0010B99F810A0FFF75EB89E
:10309000284B4249C3F814900422052011F002F98C
:1030A0004FF0010B99F810A0FFF750B8214B3C49A5
:1030B000C3F810900422104611F0F4F84FF0010B01
:1030C00099F810A0FFF742B81A4B3649C3F80C9094
:1030D0000422032011F0E6F84FF0010B99F810A03C
:1030E000FFF734B8134B3049C3F80890042202208C
:1030F00011F0D8F84FF0010B99F810A0FFF726B89F
:103100000C4A2A49C2F804900120042211F0CAF89E
:1031100099F810A0FFF71AB8064B2549C3F800909C
:103120000422002011F0BEF84FF0010B99F810A016
:10313000FFF70CB868A1FF1FC10A00003D0A00009C
:10314000B909000035090000B10800002D08000091
:10315000A907000025070000A10600001D060000C9
:103160009905000015050000910400008D14000071
:103170000914000085130000011300007D120000F7
:10318000F911000075110000F11000006D10000031
:10319000E90F0000650F0000E10E00005D0E000069
:1031A000D90D0000550D0000D10C00009515000050
:1031B00011150000D24AD349C2F880902020042281
:1031C00011F070F84FF0010AFEF780BFCC4ACE49EB
:1031D000C2F87C901F20042211F064F84FF0010A1D
:1031E000FEF774BFC64AC949C2F878901E2004226F
:1031F00011F058F84FF0010AFEF768BFC04AC44901
:10320000C2F874901D20042211F04CF84FF0010A0E
:10321000FEF75CBFBA4ABF49C2F870901C20042276
:1032200011F040F84FF0010AFEF750BFB44ABA4916
:10323000C2F86C901B20042211F034F84FF0010A00
:10324000FEF744BFAE4AB549C2F868901A2004227E
:1032500011F028F84FF0010AFEF738BFA84AB0492C
:10326000C2F864901920042211F01CF84FF0010AF2
:10327000FEF72CBFA24AAB49C2F860901820042286
:1032800011F010F84FF0010AFEF720BF9C4AA64942
:10329000C2F85C901720042211F004F84FF0010AE4
:1032A000FEF714BF964AA149C2F85890162004228E
:1032B00010F0F8FF4FF0010AFEF708BF904A9C4952
:1032C000C2F854901520042210F0ECFF4FF0010AD0
:1032D000FEF7FCBE8A4A9749C2F850901420042297
:1032E00010F0E0FF4FF0010AFEF7F0BE844A924969
:1032F000C2F84C901320042210F0D4FF4FF0010AC2
:10330000FEF7E4BE7E4A8D49C2F84890122004229E
:1033100010F0C8FF4FF0010AFEF7D8BE784A88497E
:10332000C2F844901120042210F0BCFF4FF0010AB3
:10333000FEF7CCBE724A8349C2F8409010200422A6
:1033400010F0B0FF4FF0010AFEF7C0BE6C4A7E4994
:10335000C2F83C900F20042210F0A4FF4FF0010AA5
:10336000FEF7B4BE664A7949C2F838900E200422AE
:1033700010F098FF4FF0010AFEF7A8BE604A7449AA
:10338000C2F834900D20042210F08CFF4FF0010A97
:10339000FEF79CBE5A4A6F49C2F830900C200422B6
:1033A00010F080FF4FF0010AFEF790BE544A6A49C0
:1033B000C2F82C900B20042210F074FF4FF0010A89
:1033C000FEF784BE4E4A6549C2F828900A200422BE
:1033D00010F068FF4FF0010AFEF778BE484A6049D6
:1033E000C2F824900920042210F05CFF4FF0010A7B
:1033F000FEF76CBE424A5B49C2F8209008200422C6
:1034000010F050FF4FF0010AFEF760BE3C4A5649EB
:10341000C2F81C900720042210F044FF4FF0010A6C
:10342000FEF754BE364A5149C2F8189006200422CD
:1034300010F038FF4FF0010AFEF748BE304A4C4901
:10344000C2F814900520042210F02CFF4FF0010A5E
:10345000FEF73CBE2A4A4749C2F8109004221046A3
:1034600010F020FF4FF0010AFEF730BE244A424917
:10347000C2F80C900320042210F014FF4FF0010A50
:10348000FEF724BE1E4A3D49C2F8089002200422DD
:1034900010F008FF4FF0010AFEF718BE184A38492D
:1034A000C2F804900120042210F0FCFEFEF70EBECC
:1034B000134A3449C2F800900020042210F0F2FEB2
:1034C0004FF0010AFEF702BE0D4B0E49C3F8808093
:1034D0000422202010F0E6FE4FF0010B98F8109027
:1034E000FEF758BD064B0849C3F87C8004221F2014
:1034F00010F0D8FE4FF0010B98F81090FEF74ABD7F
:1035000068A1FF1FC90B0000450B0000C10A0000A5
:103510003D0A0000B909000035090000B1080000AB
:103520002D080000A907000025070000A1060000E3
:103530001D0600009905000015050000910400001B
:103540008D14000009140000851300000113000011
:103550007D120000F911000075110000F11000004B
:103560006D100000E90F0000650F0000E10E000083
:103570005D0E0000D90D0000550D0000D10C0000BB
:103580009515000011150000D74BD849C3F8788075
:1035900004221E2010F086FE4FF0010B98F81090C8
:1035A000FEF7F8BCD04BD249C3F8748004221D202A
:1035B00010F078FE4FF0010B98F81090FEF7EABC7F
:1035C000C94BCC49C3F8708004221C2010F06AFE5D
:1035D0004FF0010B98F81090FEF7DCBCC24BC649C7
:1035E000C3F86C8004221B2010F05CFE4FF0010B2E
:1035F00098F81090FEF7CEBCBB4BC049C3F868806A
:1036000004221A2010F04EFE4FF0010B98F8109093
:10361000FEF7C0BCB44BBA49C3F864800422192039
:1036200010F040FE4FF0010B98F81090FEF7B2BC7E
:10363000AD4BB449C3F860800422182010F032FE6C
:103640004FF0010B98F81090FEF7A4BCA64BAE49C2
:10365000C3F85C800422172010F024FE4FF0010B09
:1036600098F81090FEF796BC9F4BA849C3F8588075
:103670000422162010F016FE4FF0010B98F810905F
:10368000FEF788BC984BA249C3F854800422152049
:1036900010F008FE4FF0010B98F81090FEF77ABC7E
:1036A000914B9C49C3F850800422142010F0FAFD7D
:1036B0004FF0010B98F81090FEF76CBC8A4B9649BE
:1036C000C3F84C800422132010F0ECFD4FF0010BE6
:1036D00098F81090FEF75EBC834B9049C3F8488081
:1036E0000422122010F0DEFD4FF0010B98F810902C
:1036F000FEF750BC7C4B8A49C3F844800422112059
:1037000010F0D0FD4FF0010B98F81090FEF742BC7E
:10371000754B8449C3F840800422102010F0C2FD8C
:103720004FF0010B98F81090FEF734BC6E4B7E49B9
:10373000C3F83C8004220F2010F0B4FD4FF0010BC1
:1037400098F81090FEF726BC674B7849C3F838808C
:1037500004220E2010F0A6FD4FF0010B98F81090F7
:10376000FEF718BC604B7249C3F8348004220D2068
:1037700010F098FD4FF0010B98F81090FEF70ABC7E
:10378000594B6C49C3F8308004220C2010F08AFD9C
:103790004FF0010B98F81090FEF7FCBB524B6649B6
:1037A000C3F82C8004220B2010F07CFD4FF0010B9D
:1037B00098F81090FEF7EEBB4B4B6049C3F8288099
:1037C00004220A2010F06EFD4FF0010B98F81090C3
:1037D000FEF7E0BB444B5A49C3F824800422092079
:1037E00010F060FD4FF0010B98F81090FEF7D2BB7F
:1037F0003D4B5449C3F820800422082010F052FDAC
:103800004FF0010B98F81090FEF7C4BB364B4E49B1
:10381000C3F81C800422072010F044FD4FF0010B78
:1038200098F81090FEF7B6BB2F4B4849C3F81880A4
:103830000422062010F036FD4FF0010B98F810908E
:10384000FEF7A8BB284B4249C3F814800422052088
:1038500010F028FD4FF0010B98F81090FEF79ABB7E
:10386000214B3C49C3F810800422104610F01AFD89
:103870004FF0010B98F81090FEF78CBB1A4B3649AD
:10388000C3F80C800422032010F00CFD4FF0010B54
:1038900098F81090FEF77EBB134B3049C3F80880B0
:1038A0000422022010F0FEFC4FF0010B98F810905B
:1038B000FEF770BB0C4A2A49C2F80480012004229A
:1038C00010F0F0FC98F81090FEF764BB064B254909
:1038D000C3F800800422002010F0E4FC4FF0010B3C
:1038E00098F81090FEF756BB68A1FF1FC10A0000B0
:1038F0003D0A0000B909000035090000B1080000C8
:103900002D080000A907000025070000A1060000FF
:103910001D06000099050000150500009104000037
:103920008D1400000914000085130000011300002D
:103930007D120000F911000075110000F110000067
:103940006D100000E90F0000650F0000E10E00009F
:103950005D0E0000D90D0000550D0000D10C0000D7
:103960009515000011150000D54AD649C2F880808F
:103970002020042210F096FC4FF00109FEF7C9BA8E
:10398000CF4AD149C2F87C801F20042210F08AFC63
:103990004FF00109FEF7BDBAC94ACC49C2F8788098
:1039A0001E20042210F07EFC4FF00109FEF7B1BA90
:1039B000C34AC749C2F874801D20042210F072FC6B
:1039C0004FF00109FEF7A5BABD4AC249C2F870809E
:1039D0001C20042210F066FC4FF00109FEF799BA92
:1039E000B74ABD49C2F86C801B20042210F05AFC73
:1039F0004FF00109FEF78DBAB14AB849C2F86880A4
:103A00001A20042210F04EFC4FF00109FEF781BA93
:103A1000AB4AB349C2F864801920042210F042FC7A
:103A20004FF00109FEF775BAA54AAE49C2F86080A9
:103A30001820042210F036FC4FF00109FEF769BA95
:103A40009F4AA949C2F85C801720042210F02AFC82
:103A50004FF00109FEF75DBA994AA449C2F85880AF
:103A60001620042210F01EFC4FF00109FEF751BA97
:103A7000934A9F49C2F854801520042210F012FC8A
:103A80004FF00109FEF745BA8D4A9A49C2F85080B5
:103A90001420042210F006FC4FF00109FEF739BA99
:103AA000874A9549C2F84C801320042210F0FAFB93
:103AB0004FF00109FEF72DBA814A9049C2F84880BB
:103AC0001220042210F0EEFB4FF00109FEF721BA9C
:103AD0007B4A8B49C2F844801120042210F0E2FB9B
:103AE0004FF00109FEF715BA754A8649C2F84080C1
:103AF0001020042210F0D6FB4FF00109FEF709BA9E
:103B00006F4A8149C2F83C800F20042210F0CAFBA2
:103B10004FF00109FEF7FDB9694A7C49C2F83880C7
:103B20000E20042210F0BEFB4FF00109FEF7F1B9A0
:103B3000634A7749C2F834800D20042210F0B2FBAA
:103B40004FF00109FEF7E5B95D4A7249C2F83080CD
:103B50000C20042210F0A6FB4FF00109FEF7D9B9A2
:103B6000574A6D49C2F82C800B20042210F09AFBB2
:103B70004FF00109FEF7CDB9514A6849C2F82880D3
:103B80000A20042210F08EFB4FF00109FEF7C1B9A4
:103B90004B4A6349C2F824800920042210F082FBBA
:103BA0004FF00109FEF7B5B9454A5E49C2F82080D9
:103BB0000820042210F076FB4FF00109FEF7A9B9A6
:103BC0003F4A5949C2F81C800720042210F06AFBC2
:103BD0004FF00109FEF79DB9394A5449C2F81880DF
:103BE0000620042210F05EFB4FF00109FEF791B9A8
:103BF000334A4F49C2F814800520042210F052FBCA
:103C00004FF00109FEF785B92D4A4A49C2F81080E4
:103C10000422104610F046FB4FF00109FEF779B977
:103C2000274A4549C2F80C800320042210F03AFBD1
:103C30004FF00109FEF76DB9214A4049C2F80880EA
:103C40000220042210F02EFB4FF00109FEF761B9AB
:103C50001B4A3B49C2F804800120042210F022FBD9
:103C6000FEF757B9164A3749C2F8008000200422EF
:103C700010F018FB4FF00109FEF74BB9104B11493A
:103C8000C3F880700422202010F00CFB4FF00109D3
:103C9000FEF79EB80A4B0C49DF6704221F2010F084
:103CA00001FB4FF00109FEF793B8054B07499F67E9
:103CB00004221E2010F0F6FA4FF00109FEF788B832
:103CC00068A1FF1FC90B0000450B0000C10A0000DE
:103CD0003D0A0000B909000035090000B1080000E4
:103CE0002D080000A907000025070000A10600001C
:103CF0001D06000099050000150500009104000054
:103D00008D14000009140000851300000113000049
:103D10007D120000F911000075110000F110000083
:103D20006D100000E90F0000650F0000E10E0000BB
:103D30005D0E0000D90D0000550D0000D10C0000F3
:103D40009515000011150000BB4BBC495F670422AC
:103D50001D2010F0A7FA4FF00109FEF739B8B64B55
:103D6000B7491F6704221C2010F09CFA4FF001098C
:103D7000FEF72EB8B04BB349DF6604221B2010F0CB
:103D800091FA4FF00109FEF723B8AB4BAE499F669D
:103D900004221A2010F086FA4FF00109FEF718B835
:103DA000A54BAA495F660422192010F07BFA4FF058
:103DB0000109FEF70DB8A04BA5491F660422182083
:103DC00010F070FA4FF00109FEF702B89A4BA149C2
:103DD000DF650422172010F065FA4FF00109FDF7A6
:103DE000F7BF954B9C499F650422162010F05AFAA4
:103DF0004FF00109FDF7ECBF8F4B98495F65042236
:103E0000152010F04FFA4FF00109FDF7E1BF8A4B82
:103E100093491F650422142010F044FA4FF0010961
:103E2000FDF7D6BF844B8F49DF640422132010F0C6
:103E300039FA4FF00109FDF7CBBF7F4B8A499F64E8
:103E40000422122010F02EFA4FF00109FDF7C0BF36
:103E5000794B86495F640422112010F023FA4FF059
:103E60000109FDF7B5BF744B81491F64042210207E
:103E700010F018FA4FF00109FDF7AABF6E4B7D490B
:103E8000DF6304220F2010F00DFA4FF00109FDF757
:103E90009FBF694B78499F6304220E2010F002FAFD
:103EA0004FF00109FDF794BF634B74495F6304222F
:103EB0000D2010F0F7F94FF00109FDF789BF5E4BB7
:103EC0006F491F6304220C2010F0ECF94FF0010938
:103ED000FDF77EBF584B6B49DF6204220B2010F0C8
:103EE000E1F94FF00109FDF773BF534B66499F623B
:103EF00004220A2010F0D6F94FF00109FDF768BF3F
:103F00004D4B62495F620422092010F0CBF94FF05B
:103F10000109FDF75DBF484B5D491F62042208207F
:103F200010F0C0F94FF00109FDF752BF424B59495B
:103F3000DF610422072010F0B5F94FF00109FDF709
:103F400047BF3D4B54499F610422062010F0AAF957
:103F50004FF00109FDF73CBF374B50495F61042228
:103F6000052010F09FF94FF00109FDF731BF324BEA
:103F70004B491F610422104610F094F94FF00109DB
:103F8000FDF726BF2C4B4749DF600422032010F0C9
:103F900089F94FF00109FDF71BBF274B42499F608C
:103FA0000422022010F07EF94FF00109FDF710BF46
:103FB000214B3E495F600422012010F073F9FDF7A8
:103FC00007BF1D4B3A491F600422002010F06AF918
:103FD0004FF00109FDF7FCBED368023BD36062B627
:103FE000002BB8BF5B42032B7EF7DDAA012387F8C5
:103FF0003030398A3B892F4A8B4203D8D3888B4291
:1040000080F0F8817A6972B60023D36062B62A48DC
:10401000726972B6D36062B6318A33898B4203D833
:10402000C3888B4280F036822448F189A0F12005B4
:1040300001F04CFF4CE000BF68A1FF1F3D0A0000EB
:10404000B909000035090000B10800002D08000082
:10405000A907000025070000A10600001D060000BA
:104060009905000015050000910400008D14000062
:104070000914000085130000011300007D120000E8
:10408000F911000075110000F11000006D10000022
:10409000E90F0000650F0000E10E00005D0E00005A
:1040A000D90D0000550D0000D10C00009515000041
:1040B00011150000809CFF1F9898FF1FB898FF1FE4
:1040C00072B6D36862B6002BB8BF5B42032B5BDCD1
:1040D000B24801F019FF002859D16A69137C012BFD
:1040E000EED872B613685068197890F800E0507AEC
:1040F000137A1EEA000F01EA030100F03D81937A72
:1041000003F0030309B143F0040343F008039910DB
:10411000013B91720D2BD4D801A151F823F000BFBF
:1041200081420000794200007142000079420000A3
:10413000C34000007741000081420000814200003E
:1041400077410000C3400000794200007142000046
:104150007942000081420000D3680233D360FEF749
:104160001BBAD368013BD360FEF716BAD36801339C
:10417000D360FEF711BAD368023BD36062B6002B5E
:10418000B8BF5B42032BA3DD012386F83030318AB0
:104190003389834A8B4203D8D3888B4280F0408195
:1041A000726972B60023D36062B67E48D8F81420D4
:1041B00072B6D36062B6B8F81010B8F808308B4207
:1041C00003D8C3888B4280F04E817748B8F80E1030
:1041D000A0F1200501F07AFE07E072B6D36862B65E
:1041E000002BB8BF5B42032B57DC6F4801F08CFEFD
:1041F000002855D16A69137C012BEED872B613687A
:104200005068197890F800E0507A137A1EEA000F8F
:1042100001EA030100F0B980937A03F0030309B1C6
:1042200043F0040343F008039910013B91720D2BF6
:10423000D4D801A151F823F03D43000035430000DC
:104240002D43000035430000DD410000894200009D
:104250003D4300003D43000089420000DD41000075
:10426000354300002D430000354300003D4300006E
:10427000D3680233D36025E7D368013BD36021E7DD
:10428000D3680133D3601DE7D368023BD36062B6C5
:10429000002BB8BF5B42032BA7DD012388F8303029
:1042A000B8F81010B8F808303E4A8B4203D8D388CB
:1042B0008B4280F0AA80D8F814303A4972B60022B6
:1042C000DA6062B694F83030002B3BD097F830308B
:1042D000002B37D096F83030002B33D091F83030A7
:1042E000002B2FD09BF81030304A002B39D0536868
:1042F0001A7922B9D3F8803093F8253043B92C4984
:104300002C4811F073FF2C4A012313702B4A1370B1
:1043100001210D2010F09EF80121294801F086FDB1
:104320000A2015B0BDE8F04F0FF0BABDD3680233D4
:10433000D36054E7D368013BD36050E7D3680133BF
:10434000D3604CE71F491B4811F050FF1A4A012166
:1043500011701A4A022313709BF81030134A002B75
:10436000C5D11949134811F041FF134A01211170B9
:10437000124A02231370CBE7937A03F00303002958
:104380003FF4C5AE43F00403C1E6937A03F00303A0
:1043900000293FF449AF43F0040345E7B898FF1FF5
:1043A0009898FF1FC89CFF1FE89CFF1FCC9AFF1F17
:1043B000401502008898FF1F1D98FF1FB49CFF1F27
:1043C000D89EFF1F3415020028150200937A03F0CF
:1043D000030300293EF48CA843F00403FEF788B8D9
:1043E000937A03F0030300293EF4FDA843F004038D
:1043F000FEF7F9B840F2DC53994256D99389194433
:1044000089B24D480EF09CFCFCE540F2DC53994229
:1044100055D99389194489B248480EF091FC4AE76E
:1044200040F2DC53994245D99389194489B24448F2
:104430000EF086FCB4E640F2DC53994244D99389ED
:10444000194489B23F480EF07BFCFEF78AB840F26F
:10445000DC53994247D98389194489B239480EF00F
:104460006FFCFEF717B840F2DC53994240D98389BC
:10447000194489B231480EF063FCA6E640F2DC53E1
:1044800099422BD98389194489B22B480EF058FCE4
:10449000FEF779B840F2DC5399421AD9838919445E
:1044A00089B227480EF04CFCBEE5AAD05389C91A40
:1044B00089B2A6E7BBD05389C91A89B2B7E7ABD096
:1044C0005389C91A89B2A7E7BCD05389C91A89B2DE
:1044D000B8E7E6D04389C91A89B2E2E7D5D0438963
:1044E000C91A89B2D1E7B9D04389C91A89B2B5E7E7
:1044F000C0D04389C91A89B2BCE74FF00009FDF763
:1045000067BC43F00403FEF76CB84FF0000BFDF7F7
:1045100041BD4FF00009FDF7FCBC00221546FDF738
:1045200025BF0023FDF7DABE4FF0000BFDF70EBEEE
:104530004FF0000AFDF7CABD989CFF1FE09CFF1FCB
:10454000B098FF1F309CFF1FF0B587B02D4800AF1B
:1045500001F0DAFC00284CD02B4B1B78002B48D004
:104560002A4B2B4A1B683B603B681278BB600024D7
:10457000F8237A713B71BC713B1D03CB254DC7F805
:104580001210C822082315F80C1FC7F80E003A7342
:104590007B736E46E2B20823D00703F1FF3348BFB6
:1045A0004A4013F0FF034FEA5202F5D10134B4F54B
:1045B000807F05F8012FEDD107F10D0107F11504FA
:1045C00011F8012F1348534003448C425B7BF7D111
:1045D000D0F81001BB7503680F4A5B6893420BD19A
:1045E0000B2107F10C0011F0B1F90648B54601F0B6
:1045F0007DFC1C37BD46F0BD0B2207F10C0198472E
:10460000F3E700BF4098FF1F1E98FF1F28A2FF1F5F
:10461000B49CFF1F489DFF1F75040000FFFFFFFFB4
:104620002DE9F04FAC4EAD4A8DB0D6F89C00036832
:104630001B69934200AF40F0948510F093FA10B1DB
:10464000012386F8D830A44C04F1C80001F05CFCCA
:1046500060B194F8D830002B40F09F8084F8D930B6
:1046600000239F4886F8DA3001F040FC9A4DD6F8D6
:104670009C4007E0236820465B699847C1B299488F
:104680000FF014F9236820461B6998470028F1D1E0
:1046900096F87030DFF84082002B64D008F10401F6
:1046A00007F108000FF010F907F1080EBEE80F003F
:1046B00008F174040FC4BEE80F000FC49EE80300A5
:1046C00044F8040B95F895302180002BCFD0D8F812
:1046D000740014F02DFB7EA3D3E9002314F08EFBAD
:1046E000C8E92A01D8F8780014F022FB78A3D3E9AE
:1046F000002314F083FB98F89630C8E92C01002BB6
:1047000052D1794BC8F8B830B6F9820014F078FF6E
:10471000764914F0C9FF0446B6F9800014F070FF22
:104720000146204614F0B8FEC6F8BC00B6F9860073
:1047300014F066FF6E4914F0B7FF0446B6F9840022
:1047400014F05EFF0146204614F0A6FE96F888108D
:1047500096F89020C6F8C000012386F8C41086F8A9
:10476000C52086F8DA30634801F0CEFB002840F01F
:104770007B83614801F0C8FB002840F0DF825F487E
:1047800001F0C2FB002840F07B815D4801F0BCFBDA
:10479000E8B93437BD46BDE8F08F0122002384F824
:1047A000D92084F8D8305BE7B8F97E0014F028FFF0
:1047B0004F4914F079FF0446B8F97C0014F020FF4B
:1047C0000146204614F068FEC8F8B8009CE74D4C3E
:1047D00023787B7000226A236079BA703B700FF0F7
:1047E00093FB8046A08914F00BFF0146206915F069
:1047F0000FF8A16814F058FF0546404614F000FF7A
:104800000146284614F050FF3F4914F04DFF15F0C3
:1048100011F9B88060790FF077FB8046A08914F019
:10482000EFFE0146206914F0F3FFA16814F03CFF8D
:104830000546404614F0E4FE0146284614F034FFD5
:104840000546607F14F0DCFE0146284615F0CAF8E4
:1048500000285DD1A07F14F0D3FE0146284615F054
:10486000DFF8002854D160790FF04EFB8146A08913
:10487000A56914F0C5FE0146206914F0C9FFA168BE
:1048800014F012FF8046484614F0BAFE0146404636
:1048900014F00AFF8046207F14F0B2FE1B4914F08A
:1048A000B7FF29468146606914F0F4FD0146484689
:1048B00014F0FAFE294614F0EFFD0146404615F0CB
:1048C0009BF838B30123BB7024E000BFAFF3008036
:1048D000000000A0F2D77A3E189BFF1F7D04000065
:1048E000E09BFF1F1C9BFF1F003C1CC66F12833AFE
:1048F0000AD7233C6C9CFF1F089CFF1F2098FF1FBA
:104900003098FF1F989EFF1F00007A440000C842A5
:104910000323BB7007F13003544D53F8300DC7F833
:104920000A002C469B8814F80CEFFB81C822062352
:10493000A4463A727B72E9460021CAB20823D00726
:1049400003F1FF3348BF82EA0E0213F0FF034FEA80
:104950005202F4D10131B1F5807F0CF8012FECD176
:1049600007F1090107F10F0E11F8012F3F485340DD
:104970002B448E455B7BF7D1D0F810013B74036864
:10498000DFF8F4805B68434540F0EE83092107F1CE
:10499000080010F0DBFF96F8D920354BCD46002AF1
:1049A00000F0ED8393F8DA20002A00F0138400224F
:1049B00083F8A2206E46DFF8C4C08CB0C82228233A
:1049C0008DF800208DF80130EE460DF102090CF152
:1049D000200BE246BAE80F00DA45C9F80000C9F832
:1049E0000410C9F80820C9F80C30D44609F11009A0
:1049F000EFD1BCE80300C9F80410C9F80000287B17
:104A00000021CAB2082312F0010F03F1FF3318BFCF
:104A1000424013F0FF034FEA5202F4D10131B1F5E5
:104A2000807F04F8012FECD10EF101010EF1290471
:104A300011F8012F0D4853402B448C425B7BF7D17A
:104A4000D0F810018EF82A3003685B68434540F0C7
:104A5000C68370462B2110F079FF0648B54601F059
:104A600045FA3437BD46BDE8F08F00BF489DFF1FB3
:104A7000189BFF1F3098FF1F75040000B89BFF1F95
:104A8000A6494B690A78187C7A70662400220128AE
:104A9000BA707A603C7040F2B78372B6DA6862B678
:104AA00091F830307A600BB90323BB709C4D3B46C4
:104AB0002C4603CB14F80CEFC7F80A00C8220823D1
:104AC000C7F80E1020463A727B72EA460021CAB23D
:104AD000082312F0010F03F1FF3318BF8EEA020220
:104AE00013F0FF034FEA5202F3D10131B1F5807F99
:104AF00000F8012FEBD107F1090107F1110B11F8B3
:104B0000012F874853402B448B455B7BF7D1D0F86E
:104B10001001BB740368DFF820825B68434507F12E
:104B2000080900F0308349460B2298477D484369C5
:104B30000278197C7A704FF0660E00220129D54662
:104B4000BA707A6087F800E040F2268472B6DA68BC
:104B500062B690F830307A600BB90323BB703B46E5
:104B600003CBC8220823C7F80A0095F80CE06E486A
:104B7000C7F80E103A727B72EA460021CAB20823C7
:104B800012F0010F03F1FF3318BF8EEA020213F097
:104B9000FF034FEA5202F3D10131B1F5807F00F8F3
:104BA000012FEBD107F1090111F8012F5C485340A7
:104BB0002B448B455B7BF7D1D0F81001BB740368A5
:104BC0005B68434540F013830B21484610F0BEFE5E
:104BD000564843690278197C7A704FF0660E0022BD
:104BE0000129D546BA707A6087F800E040F29083D8
:104BF00072B6DA6862B690F830307A600BB9032387
:104C0000BB703B4603CBC8220823C7F80A0095F8BF
:104C10000CE04548C7F80E103A727B72EA46002154
:104C2000CAB2082312F0010F03F1FF3318BF8EEA56
:104C3000020213F0FF034FEA5202F3D10131B1F542
:104C4000807F00F8012FEBD107F1090111F8012F46
:104C5000334853402B448B455B7BF7D1D0F8100190
:104C6000BB7403685B68434540F0BD820B21484636
:104C700010F06CFE2E4843690278197C7A704FF070
:104C8000660E00220129D546BA707A6087F800E0E6
:104C900040F2FA8272B6DA6862B690F830307A6022
:104CA0000BB90323BB703B4603CBC8220823C7F8CC
:104CB0000E10297BC7F80A003A727B72EA46002080
:104CC000C2B2082312F0010F03F1FF3318BF4A40AC
:104CD00013F0FF034FEA5202F4D10130B0F5807FA8
:104CE00004F8012FECD107F1090111F8012F0C484C
:104CF00053402B448B455B7BF7D1D0F81001BB743C
:104D000003685B68434540F0768248460B2110F00B
:104D10001DFE0848D54601F0E9F836E5189CFF1F4E
:104D2000489DFF1F809CFF1F549DFF1F9898FF1FE9
:104D3000C89CFF1F2098FF1F75040000464D68683F
:104D400003689B699847002800F0BE816B682A7849
:104D50009969D3F814C0D3F81CE09C6BD86BE96157
:104D6000196CC5F818C0C5F820E02C636863A96306
:104D7000D3F848C0D3F84CE01C6D986DD96D1B6E0C
:104D8000C5F824C0C5F828E0EC62E86329646B64C8
:104D90006A7514352C460FCD0FC40FCD0FC40FCD3F
:104DA0000FC4A9462B6849F830396C468EB0C8222A
:104DB00034238DF800208DF80130EE460DF1020C01
:104DC000C846B8E80F00A845CCF80000CCF804109D
:104DD000CCF80820CCF80C30C1460CF1100CEFD107
:104DE0001E4DD8F80000CCF80000AC4600201CF89E
:104DF0000C1FC2B2082312F0010F03F1FF3318BFDA
:104E00004A4013F0FF034FEA5202F4D10130B0F5EB
:104E1000807F0CF8012FECD10EF101010EF1350C61
:104E200011F8012F0D4853402B448C455B7BF7D183
:104E3000D0F810018EF836300368094A5B68934257
:104E400040F0DD817046372110F080FDA546054811
:104E500001F04CF893E400BFCC9AFF1F489DFF1F60
:104E600075040000089CFF1FD24C04F1100001F0F3
:104E70004BF800285CD094F82100CF4D0FF044F897
:104E800013F056FFD4E90A2313F0B8FF0022CB4BEE
:104E900013F0B4FF14F08AFA1FFA80F804F110003E
:104EA00001F024F82078A7F80480692207F1300384
:104EB00000213A707870B97053F8300DC7F80A00C5
:104EC000AE469B88FB81C82206231EF80C0F3A725F
:104ED0007B726C46CAB2082312F0010F03F1FF3354
:104EE00018BF424013F0FF034FEA5202F4D10131E0
:104EF000B1F5807F0EF8012FECD107F1090107F120
:104F00000F0E11F8012FAC4853402B448E455B7BAC
:104F1000F7D1D0F810013B740368A94A5B6893424B
:104F200040F04281092107F1080010F00FFDA5466D
:104F3000A44C04F1100000F0E7FF00285CD094F8C6
:104F400021009D4D0EF0E0FF13F0F2FED4E90A239C
:104F500013F054FF0022994B13F050FF14F026FA7F
:104F60001FFA80F804F1100000F0C0FF2078A7F8C5
:104F70000480692207F1300300213A707870B9701B
:104F800053F8300DC7F80A00AE469B88FB81C82253
:104F900006231EF80C0F3A727B726C46CAB20823C5
:104FA00012F0010F03F1FF3318BF424013F0FF036B
:104FB0004FEA5202F4D10131B1F5807F0EF8012F92
:104FC000ECD107F1090107F10F0E11F8012F7A4812
:104FD00053402B448E455B7BF7D1D0F810013B74D6
:104FE0000368774A5B68934240F0D880092107F153
:104FF000080010F0ABFCA546734C04F1100000F063
:1050000083FF00285BD094F821006B4D0EF07CFFED
:1050100013F08EFED4E90A2313F0F0FE0022674B52
:1050200013F0ECFE14F0C2F91FFA80F804F110003E
:1050300000F05CFF2078A7F80480692207F13003B4
:1050400000213A707870B97053F8300DC7F80A0033
:10505000AE469B88FB81C82206231EF80C0F3A72CD
:105060007B726C46CAB2082312F0010F03F1FF33C2
:1050700018BF424013F0FF034FEA5202F4D101314E
:10508000B1F5807F0EF8012FECD107F1090107F18E
:105090000F0E11F8012F484853402B448E455B7B7F
:1050A000F7D1D0F810013B740368454A5B6893421E
:1050B0006ED1092107F1080010F048FCA5464348CD
:1050C00000F014FFFFF755BB2B7C002B7FF4BFAE25
:1050D0006C468EB00223C8213422AB7505F114084A
:1050E0008DF800108DF80120EE460DEB03094435D4
:1050F000C446BCE80F00AC45C9F80000C9F804106C
:10510000C9F80820C9F80C30E04609F11009EFD1C0
:10511000294DDCF80000C9F80000AC4600201CF85E
:105120000C1FC2B2082312F0010F03F1FF3318BFA6
:105130004A4013F0FF034FEA5202F4D10130B0F5B8
:10514000807F0CF8012FECD10EF101010EF1350C2E
:1051500011F8012F184853402B448C455B7BF7D145
:1051600066E69847FFF76BBA092207F108019847EE
:1051700096F8D920164BCD46002A7FF413AC0322B3
:1051800083F8A22016E448460B2110F0DFFBCDE4A3
:10519000092207F108019847A54690E7092207F17F
:1051A00008019847A54627E7092207F10801984713
:1051B000A546BDE6609EFF1F489DFF1F00408F4033
:1051C000750400005098FF1F109DFF1F6C9CFF1F6F
:1051D000189BFF1F012283F8A220FFF7EBBB71464B
:1051E0002B22984739E40B224946984742E50B2287
:1051F00049469847ECE449460B22984789E57146B1
:1052000037229847A54622E672B693E81400107834
:1052100025785C7A1A7A254200EA02002CD09A7A24
:1052200002F0030208B142F0040242F008029010BA
:10523000013A98720D2A3FF631AC01A050F822F0E5
:105240001D540000B3540000A9540000B3540000E2
:105250009D4A00009F5400001D5400001D54000092
:105260009F5400009D4A0000B3540000A954000060
:10527000B35400001D5400009A7A02F00302002883
:10528000D5D042F00402D2E772B693E8060091F856
:1052900000C092F800E05A7A197A1EEA020F0CEA6E
:1052A00001012DD09A7A02F0030209B142F0040202
:1052B00042F008029110013A99720D2A3FF6EBACC8
:1052C00001A151F822F000BF955400008D54000058
:1052D000855400008D540000974C00007D54000060
:1052E00095540000955400007D540000974C000038
:1052F0008D540000855400008D540000955400002A
:105300009A7A02F003020029D4D042F00402D1E7D5
:1053100072B693E8060091F800C092F800E05A7A5D
:10532000197A1EEA020F0CEA01012DD09A7A02F0D6
:10533000030209B142F0040242F008029110013A5E
:1053400099720D2A3FF655AC01A151F822F000BF29
:1053500073540000695400005F5400006954000059
:10536000F34B0000555400007354000073540000C8
:1053700055540000F34B0000695400005F540000D6
:1053800069540000735400009A7A02F00302002965
:10539000D4D042F00402D1E772B693E8060091F847
:1053A00000C092F800E05A7A197A1EEA020F0CEA5D
:1053B00001012BD09A7A02F00302002947D142F072
:1053C00008029110013A99720D2A3FF6C0AB01A173
:1053D00051F822F0455400003B54000031540000C5
:1053E0003B5400004F4B0000275400004554000080
:1053F00045540000275400004F4B00003B54000070
:10540000315400003B540000455400009A7A02F0E9
:1054100003020029D5D042F00402D2E7DA68013253
:10542000DA60FFF73CBBDA68023ADA60FFF790BB5C
:10543000DA680232DA60FFF78BBBDA68013ADA60C9
:10544000FFF786BBDA680132DA60FFF781BB42F012
:105450000402B4E7DA68023ADA60FFF7CBBBDA6835
:105460000232DA60FFF7C6BBDA68013ADA60FFF7AA
:10547000C1BBDA680132DA60FFF7BCBBDA68023A16
:10548000DA6009E4DA680232DA6005E4DA68013ADF
:10549000DA6001E4DA680132DA60FFF7FDBBDA684E
:1054A000023ADA60FFF7FBBADA680232DA60FFF735
:1054B000F6BADA68013ADA60FFF7F1BAF0B58BB004
:1054C00000AF07F1280400230D46F9220146F81D1C
:1054D00004F8242D7B71BB7115F0C0FC8AB0C82282
:1054E000222387F825508DF800208DF801306D4675
:1054F0000DF1020E07F1240C26460FCE6645CEF8BC
:105500000000CEF80410CEF80820CEF80C30344657
:105510000EF1100EF0D11D4E2388AEF80030344647
:10552000002014F80C1FC2B2082312F0010F03F17F
:10553000FF3318BF4A4013F0FF034FEA5202F4D181
:105540000130B0F5807F04F8012FECD1691C05F122
:10555000230411F8012F0D4853403344A1425B7BD3
:10556000F7D1D0F8100185F824300368084A5B6849
:10557000934206D12846252110F0E8F92C37BD4684
:10558000F0BD294625229847F8E700BF489DFF1F38
:10559000750400002DE9F041564800F0B5FC28B133
:1055A000554B1B78C3B1534800F0A0FC534B1B78FC
:1055B0000BB9BDE8F081524800F0A6FC50B1514B48
:1055C000197802296DD001296BD04D48BDE8F04112
:1055D00000F08CBCBDE8F0814B4C60790EF094FC7F
:1055E0000746A089A56914F00BF80146206914F05C
:1055F0000FF9A16814F058F80646384614F000F880
:105600000146304614F050F80646207F13F0F8FFAC
:105610003E4914F0FDF829460746606913F03AFF49
:105620000146384614F040F8294613F035FF01468C
:10563000304614F0E1F9002850D105466079DFF8D2
:10564000C8800EF061FC0746A08913F0D9FF01461F
:10565000206914F0DDF8A16814F026F806463846F3
:1056600013F0CEFF0146304614F01EF80646607F68
:1056700013F0C6FF0146304614F0B4F9D0B998F8DB
:105680001E0013F0BDFF0146304614F0C9F988B979
:105690001F4B93F8D93053B3002D84D1194B1D7093
:1056A00081E71C4B1868FFF709FF1548BDE8F0417A
:1056B00000F01CBC18491748124E10F097FD144B0F
:1056C00093F8D93002223270002B7FF46CAF13496B
:1056D000104810F08BFD0223337064E710490D4829
:1056E000084E10F083FD012030700546A6E7054EF8
:1056F000EDE700BFF89BFF1F1D98FF1F1E98FF1FBF
:10570000B89CFF1FB49CFF1F989EFF1F0000C8425B
:10571000189BFF1F8898FF1F6C1502006015020080
:10572000541502000A4B5A6972B60023D36062B660
:10573000084A526972B6D36062B6074A526972B6B5
:10574000D36062B6054A526972B6D36062B67047DA
:10575000189CFF1F809CFF1F9898FF1FC89CFF1F6D
:1057600000B5672883B017D0F82809D0662802D082
:1057700003B05DF804FB03B05DF804EBFFF7D2BFA4
:1057800002213E4800F052FB3D493E4A01230B7086
:10579000137003B05DF804FB3B4B93E803008AB23F
:1057A000A2F57A73B3F57A7F0090ADF80410DFD8D4
:1057B0009DF80130013B032BDAD8DFE803F03626F1
:1057C0001602324B19899142D2D8D9889142CFD34F
:1057D00040F2DC518A4238D999890A4491B22C4866
:1057E00003B05DF804EB0DF0ABBA2A4B1989914276
:1057F000BED8D9889142BBD340F2DC518A4230D91D
:1058000099890A4491B22448EAE7244B19899142C4
:10581000AED8D9889142ABD340F2DC518A4226D926
:1058200099890A4491B21E48DAE71E4B19899142C0
:105830009ED8D98891429BD340F2DC518A420AD942
:1058400099890A4491B21848CAE71DBF5989521A6A
:1058500091B21146C3E71DBF5989521A91B2114640
:10586000F1E71DBF5989521A91B21146CBE71DBF0E
:105870005989521A91B21146D5E700BFD89EFF1F31
:105880001E98FF1F7C9CFF1FCC98FF1FC89CFF1F0A
:10589000E09CFF1F9898FF1FB098FF1F809CFF1F80
:1058A000989CFF1F189CFF1F309CFF1F2DE9F84399
:1058B000574C584F584EDFF86481254610F01CF8BD
:1058C000002849DD2378032BF8D8DFE803F05B726A
:1058D0004702D4F8100103685B69BB4240F0868040
:1058E0000FF0CEFF431CE9D0D5F8089095F80CE0F6
:1058F000DFF82CC1C0B20021CAB2082312F0010F98
:1059000003F1FF3318BF82EA0E0213F0FF034FEAE0
:105910005202F3D10131B1F5807F0CF8012FEBD1A8
:10592000B9F1000F6AD019461A46715C01324B403A
:10593000D2B255FA83F391455B7B1146F5D800222C
:1059400083422A706A60AA605CD13078FFF708FF52
:105950000FF0D2FF0028B5DCBDE8F883D4F81001C1
:1059600003685B69BB4243D10FF08AFF421C636846
:1059700002D0F05401336360A2689A429EDC032394
:1059800023709BE7D4F8100103681B69434533D1AA
:105990000FF0B2FF002891DDD4F8100103685B69B5
:1059A000BB422DD10FF06CFFC82887D10123237093
:1059B00084E7D4F8100103681B6943451AD10FF03E
:1059C0009BFF002803DC4FF0FF33A36076E7D4F899
:1059D000100103685B69BB4217D10FF051FFA06053
:1059E00001303FF46BAF0223237067E7984779E7F4
:1059F0009847BBE79847E4E79847CBE74B469EE7D5
:105A00009847D1E76FF00100A0E79847E7E700BFAC
:105A1000489DFF1F71040000CC98FF1F6D0400001B
:105A2000549DFF1F08B540F2DC510A480DF088F97B
:105A300040F2DC5108480DF083F940F2DC51074890
:105A40000DF07EF940F2DC510548BDE808400DF04C
:105A500077B900BF309CFF1F989CFF1FB098FF1FB5
:105A6000E09CFF1F08B50F4800F04EFA48B10E4BFE
:105A70001A783AB100221A700A48BDE8084000F0CE
:105A800035BA08BD094B0A481A70012100F0CEF959
:105A9000FFF7C8FFFFF746FE0248BDE8084000F0E8
:105AA00025BA00BFFC9CFF1F7C9CFF1F1E98FF1F98
:105AB000D89EFF1F70B5254D254E264800F0E0F911
:105AC0002C783378A34206D0234800F0D5F9234838
:105AD00000F0D2F92C78012C1ED00FD3022C0BD160
